{
  "address": "0xd324ECeFD684F2C2C7bFdBa836C5dBBB63221870",
  "abi": [
    {
      "inputs": [
        {
          "internalType": "address",
          "name": "ensCacheAddr",
          "type": "address"
        }
      ],
      "stateMutability": "nonpayable",
      "type": "constructor"
    },
    {
      "anonymous": false,
      "inputs": [
        {
          "indexed": false,
          "internalType": "string",
          "name": "id",
          "type": "string"
        },
        {
          "indexed": false,
          "internalType": "string",
          "name": "metadata",
          "type": "string"
        }
      ],
      "name": "StreamCreated",
      "type": "event"
    },
    {
      "inputs": [
        {
          "internalType": "address",
          "name": "_address",
          "type": "address"
        }
      ],
      "name": "addressToString",
      "outputs": [
        {
          "internalType": "string",
          "name": "",
          "type": "string"
        }
      ],
      "stateMutability": "pure",
      "type": "function"
    },
    {
      "inputs": [
        {
          "internalType": "string",
          "name": "streamIdPath",
          "type": "string"
        },
        {
          "internalType": "string",
          "name": "metadataJsonString",
          "type": "string"
        }
      ],
      "name": "createStream",
      "outputs": [],
      "stateMutability": "nonpayable",
      "type": "function"
    },
    {
      "inputs": [
        {
          "internalType": "string",
          "name": "ensName",
          "type": "string"
        },
        {
          "internalType": "string",
          "name": "streamIdPath",
          "type": "string"
        },
        {
          "internalType": "string",
          "name": "metadataJsonString",
          "type": "string"
        }
      ],
      "name": "createStreamWithENS",
      "outputs": [],
      "stateMutability": "nonpayable",
      "type": "function"
    },
    {
      "inputs": [
        {
          "internalType": "string",
          "name": "streamId",
          "type": "string"
        }
      ],
      "name": "deleteStream",
      "outputs": [],
      "stateMutability": "nonpayable",
      "type": "function"
    },
    {
      "inputs": [
        {
          "internalType": "string",
          "name": "streamId",
          "type": "string"
        },
        {
          "internalType": "address",
          "name": "user",
          "type": "address"
        }
      ],
      "name": "getAddressKey",
      "outputs": [
        {
          "internalType": "bytes32",
          "name": "",
          "type": "bytes32"
        }
      ],
      "stateMutability": "view",
      "type": "function"
    },
    {
      "inputs": [
        {
          "internalType": "string",
          "name": "streamId",
          "type": "string"
        },
        {
          "internalType": "address",
          "name": "user",
          "type": "address"
        }
      ],
      "name": "getPermissionsForUser",
      "outputs": [
        {
          "components": [
            {
              "internalType": "bool",
              "name": "edit",
              "type": "bool"
            },
            {
              "internalType": "bool",
              "name": "canDelete",
              "type": "bool"
            },
            {
              "internalType": "bool",
              "name": "publish",
              "type": "bool"
            },
            {
              "internalType": "bool",
              "name": "subscribed",
              "type": "bool"
            },
            {
              "internalType": "bool",
              "name": "share",
              "type": "bool"
            }
          ],
          "internalType": "struct StreamRegistry.Permission",
          "name": "permission",
          "type": "tuple"
        }
      ],
      "stateMutability": "view",
      "type": "function"
    },
    {
      "inputs": [
        {
          "internalType": "string",
          "name": "streamId",
          "type": "string"
        }
      ],
      "name": "getStreamMetadata",
      "outputs": [
        {
          "internalType": "string",
          "name": "des",
          "type": "string"
        }
      ],
      "stateMutability": "view",
      "type": "function"
    },
    {
      "inputs": [
        {
          "internalType": "string",
          "name": "streamId",
          "type": "string"
        },
        {
          "internalType": "address",
          "name": "user",
          "type": "address"
        },
        {
          "internalType": "enum StreamRegistry.PermissionType",
          "name": "permissionType",
          "type": "uint8"
        }
      ],
      "name": "grantPermission",
      "outputs": [],
      "stateMutability": "nonpayable",
      "type": "function"
    },
    {
      "inputs": [
        {
          "internalType": "string",
          "name": "streamId",
          "type": "string"
        },
        {
          "internalType": "address",
          "name": "user",
          "type": "address"
        },
        {
          "internalType": "enum StreamRegistry.PermissionType",
          "name": "permissionType",
          "type": "uint8"
        }
      ],
      "name": "hasPermission",
      "outputs": [
        {
          "internalType": "bool",
          "name": "userHasPermission",
          "type": "bool"
        }
      ],
      "stateMutability": "view",
      "type": "function"
    },
    {
      "inputs": [
        {
          "internalType": "string",
          "name": "streamId",
          "type": "string"
        },
        {
          "internalType": "address",
          "name": "user",
          "type": "address"
        },
        {
          "internalType": "enum StreamRegistry.PermissionType",
          "name": "permissionType",
          "type": "uint8"
        }
      ],
      "name": "revokePermission",
      "outputs": [],
      "stateMutability": "nonpayable",
      "type": "function"
    },
    {
      "inputs": [
        {
          "internalType": "string",
          "name": "streamId",
          "type": "string"
        },
        {
          "internalType": "address",
          "name": "user",
          "type": "address"
        }
      ],
      "name": "revokePermissionsForUser",
      "outputs": [],
      "stateMutability": "nonpayable",
      "type": "function"
    },
    {
      "inputs": [
        {
          "internalType": "string",
          "name": "streamId",
          "type": "string"
        },
        {
          "internalType": "address",
          "name": "user",
          "type": "address"
        },
        {
          "internalType": "bool",
          "name": "edit",
          "type": "bool"
        },
        {
          "internalType": "bool",
          "name": "deletePerm",
          "type": "bool"
        },
        {
          "internalType": "bool",
          "name": "publish",
          "type": "bool"
        },
        {
          "internalType": "bool",
          "name": "subscribe",
          "type": "bool"
        },
        {
          "internalType": "bool",
          "name": "share",
          "type": "bool"
        }
      ],
      "name": "setPermissionsForUser",
      "outputs": [],
      "stateMutability": "nonpayable",
      "type": "function"
    },
    {
      "inputs": [
        {
          "internalType": "string",
          "name": "",
          "type": "string"
        }
      ],
      "name": "streamIdToMetadata",
      "outputs": [
        {
          "internalType": "string",
          "name": "",
          "type": "string"
        }
      ],
      "stateMutability": "view",
      "type": "function"
    },
    {
      "inputs": [
        {
          "internalType": "string",
          "name": "",
          "type": "string"
        },
        {
          "internalType": "bytes32",
          "name": "",
          "type": "bytes32"
        }
      ],
      "name": "streamIdToPermissions",
      "outputs": [
        {
          "internalType": "bool",
          "name": "edit",
          "type": "bool"
        },
        {
          "internalType": "bool",
          "name": "canDelete",
          "type": "bool"
        },
        {
          "internalType": "bool",
          "name": "publish",
          "type": "bool"
        },
        {
          "internalType": "bool",
          "name": "subscribed",
          "type": "bool"
        },
        {
          "internalType": "bool",
          "name": "share",
          "type": "bool"
        }
      ],
      "stateMutability": "view",
      "type": "function"
    },
    {
      "inputs": [
        {
          "internalType": "string",
          "name": "streamId",
          "type": "string"
        },
        {
          "internalType": "string",
          "name": "metadata",
          "type": "string"
        }
      ],
      "name": "updateStreamMetadata",
      "outputs": [],
      "stateMutability": "nonpayable",
      "type": "function"
    }
  ],
  "transactionHash": "0x6251abf668bbcaea09b1393eaf095aef6da9deb6daa001d6f11e4a22b25a1561",
  "args": [
    "0x2fb7Cd141026fcF23Abb07593A14D6E45dC33D54"
  ],
  "solcInputHash": "b2ac30e0265849782853007442531e0b",
  "bytecode": "0x60806040523480156200001157600080fd5b5060405162002e2938038062002e29833981810160405281019062000037919062000096565b80600360006101000a81548173ffffffffffffffffffffffffffffffffffffffff021916908373ffffffffffffffffffffffffffffffffffffffff1602179055505062000110565b6000815190506200009081620000f6565b92915050565b600060208284031215620000a957600080fd5b6000620000b9848285016200007f565b91505092915050565b6000620000cf82620000d6565b9050919050565b600073ffffffffffffffffffffffffffffffffffffffff82169050919050565b6200010181620000c2565b81146200010d57600080fd5b50565b612d0980620001206000396000f3fe608060405234801561001057600080fd5b50600436106100f55760003560e01c806378800c76116100975780639a091c28116100665780639a091c2814610292578063d4892dbc146102ae578063e8f3828e146102ca578063f36d4849146102fa576100f5565b806378800c76146101fa57806386902fe91461021657806388b2103814610246578063997e8aaa14610276576100f5565b806342617fe7116100d357806342617fe7146101625780635e57966d1461017e5780636394fbd2146101ae5780636453cbd7146101de576100f5565b80630843564a146100fa5780630ef8cdc71461012a5780633e397aea14610146575b600080fd5b610114600480360381019061010f91906124fa565b61032e565b6040516101219190612995565b60405180910390f35b610144600480360381019061013f91906123a0565b61038e565b005b610160600480360381019061015b9190612334565b6103af565b005b61017c600480360381019061017791906123a0565b610495565b005b6101986004803603810190610193919061218b565b610619565b6040516101a591906129d4565b60405180910390f35b6101c860048036038101906101c391906121dd565b6108ae565b6040516101d591906129d4565b60405180910390f35b6101f860048036038101906101f391906121dd565b6109ed565b005b610214600480360381019061020f9190612415565b610b6b565b005b610230600480360381019061022b91906124b9565b610cde565b60405161023d91906129d4565b60405180910390f35b610260600480360381019061025b9190612334565b610da4565b60405161026d9190612927565b60405180910390f35b610290600480360381019061028b9190612334565b611136565b005b6102ac60048036038101906102a79190612222565b61121c565b005b6102c860048036038101906102c3919061227a565b6113d8565b005b6102e460048036038101906102df9190612222565b611606565b6040516102f19190612b0f565b60405180910390f35b610314600480360381019061030f919061254e565b6117a3565b604051610325959493929190612942565b60405180910390f35b6000808360405161033f91906128ea565b908152602001604051809103902060009054906101000a900463ffffffff1682604051602001610370929190612b2a565b60405160208183030381529060405280519060200120905092915050565b606061039933610619565b90506103a8818686868661183d565b5050505050565b8383600282826040516103c39291906128d1565b9081526020016040518091039020600061042184848080601f016020809104026020016040519081016040528093929190818152602001838380828437600081840152601f19601f820116905080830192505050505050503361032e565b815260200190815260200160002060000160049054906101000a900460ff1661047f576040517f08c379a000000000000000000000000000000000000000000000000000000000815260040161047690612aef565b60405180910390fd5b61048d868686866000611baf565b505050505050565b83836000600183836040516104ab9291906128d1565b9081526020016040518091039020805460018160011615610100020316600290049050141561050f576040517f08c379a000000000000000000000000000000000000000000000000000000000815260040161050690612a4f565b60405180910390fd5b8585600282826040516105239291906128d1565b9081526020016040518091039020600061058184848080601f016020809104026020016040519081016040528093929190818152602001838380828437600081840152601f19601f820116905080830192505050505050503361032e565b815260200190815260200160002060000160009054906101000a900460ff166105df576040517f08c379a00000000000000000000000000000000000000000000000000000000081526004016105d690612aaf565b60405180910390fd5b858560018a8a6040516105f39291906128d1565b9081526020016040518091039020919061060e929190611f66565b505050505050505050565b606060008273ffffffffffffffffffffffffffffffffffffffff1660001b905060606040518060400160405280601081526020017f303132333435363738396162636465660000000000000000000000000000000081525090506060602a67ffffffffffffffff8111801561068d57600080fd5b506040519080825280601f01601f1916602001820160405280156106c05781602001600182028036833780820191505090505b5090507f3000000000000000000000000000000000000000000000000000000000000000816000815181106106f157fe5b60200101907effffffffffffffffffffffffffffffffffffffffffffffffffffffffffffff1916908160001a9053507f78000000000000000000000000000000000000000000000000000000000000008160018151811061074e57fe5b60200101907effffffffffffffffffffffffffffffffffffffffffffffffffffffffffffff1916908160001a90535060005b60148110156108a25782600485600c84016020811061079b57fe5b1a60f81b7effffffffffffffffffffffffffffffffffffffffffffffffffffffffffffff1916901c60f81c60ff16815181106107d357fe5b602001015160f81c60f81b8260028302600201815181106107f057fe5b60200101907effffffffffffffffffffffffffffffffffffffffffffffffffffffffffffff1916908160001a90535082600f60f81b85600c84016020811061083457fe5b1a60f81b1660f81c60ff168151811061084957fe5b602001015160f81c60f81b82600283026003018151811061086657fe5b60200101907effffffffffffffffffffffffffffffffffffffffffffffffffffffffffffff1916908160001a9053508080600101915050610780565b50809350505050919050565b606082826000600183836040516108c69291906128d1565b9081526020016040518091039020805460018160011615610100020316600290049050141561092a576040517f08c379a000000000000000000000000000000000000000000000000000000000815260040161092190612a4f565b60405180910390fd5b6001858560405161093c9291906128d1565b90815260200160405180910390208054600181600116156101000203166002900480601f0160208091040260200160405190810160405280929190818152602001828054600181600116156101000203166002900480156109de5780601f106109b3576101008083540402835291602001916109de565b820191906000526020600020905b8154815290600101906020018083116109c157829003601f168201915b50505050509250505092915050565b8181600060018383604051610a039291906128d1565b90815260200160405180910390208054600181600116156101000203166002900490501415610a67576040517f08c379a0000000000000000000000000000000000000000000000000000000008152600401610a5e90612a4f565b60405180910390fd5b838360028282604051610a7b9291906128d1565b90815260200160405180910390206000610ad984848080601f016020809104026020016040519081016040528093929190818152602001838380828437600081840152601f19601f820116905080830192505050505050503361032e565b815260200190815260200160002060000160019054906101000a900460ff16610b37576040517f08c379a0000000000000000000000000000000000000000000000000000000008152600401610b2e90612a6f565b60405180910390fd5b60018686604051610b499291906128d1565b90815260200160405180910390206000610b639190611fe6565b505050505050565b3373ffffffffffffffffffffffffffffffffffffffff16600360009054906101000a900473ffffffffffffffffffffffffffffffffffffffff1673ffffffffffffffffffffffffffffffffffffffff16632b1fd99588886040518363ffffffff1660e01b8152600401610bdf9291906129b0565b60206040518083038186803b158015610bf757600080fd5b505afa158015610c0b573d6000803e3d6000fd5b505050506040513d601f19601f82011682018060405250810190610c2f91906121b4565b73ffffffffffffffffffffffffffffffffffffffff1614610c85576040517f08c379a0000000000000000000000000000000000000000000000000000000008152600401610c7c90612acf565b60405180910390fd5b610cd686868080601f016020809104026020016040519081016040528093929190818152602001838380828437600081840152601f19601f820116905080830192505050505050508585858561183d565b505050505050565b6001818051602081018201805184825260208301602085012081835280955050505050506000915090508054600181600116156101000203166002900480601f016020809104026020016040519081016040528092919081815260200182805460018160011615610100020316600290048015610d9c5780601f10610d7157610100808354040283529160200191610d9c565b820191906000526020600020905b815481529060010190602001808311610d7f57829003601f168201915b505050505081565b6000806004811115610db257fe5b826004811115610dbe57fe5b1415610e5a5760028585604051610dd69291906128d1565b90815260200160405180910390206000610e3487878080601f016020809104026020016040519081016040528093929190818152602001838380828437600081840152601f19601f820116905080830192505050505050508661032e565b815260200190815260200160002060000160009054906101000a900460ff16905061112e565b60016004811115610e6757fe5b826004811115610e7357fe5b1415610f0f5760028585604051610e8b9291906128d1565b90815260200160405180910390206000610ee987878080601f016020809104026020016040519081016040528093929190818152602001838380828437600081840152601f19601f820116905080830192505050505050508661032e565b815260200190815260200160002060000160019054906101000a900460ff16905061112e565b60036004811115610f1c57fe5b826004811115610f2857fe5b1415610fc45760028585604051610f409291906128d1565b90815260200160405180910390206000610f9e87878080601f016020809104026020016040519081016040528093929190818152602001838380828437600081840152601f19601f820116905080830192505050505050508661032e565b815260200190815260200160002060000160039054906101000a900460ff16905061112e565b60026004811115610fd157fe5b826004811115610fdd57fe5b14156110795760028585604051610ff59291906128d1565b9081526020016040518091039020600061105387878080601f016020809104026020016040519081016040528093929190818152602001838380828437600081840152601f19601f820116905080830192505050505050508661032e565b815260200190815260200160002060000160029054906101000a900460ff16905061112e565b60048081111561108557fe5b82600481111561109157fe5b141561112d57600285856040516110a99291906128d1565b9081526020016040518091039020600061110787878080601f016020809104026020016040519081016040528093929190818152602001838380828437600081840152601f19601f820116905080830192505050505050508661032e565b815260200190815260200160002060000160049054906101000a900460ff16905061112e565b5b949350505050565b83836002828260405161114a9291906128d1565b908152602001604051809103902060006111a884848080601f016020809104026020016040519081016040528093929190818152602001838380828437600081840152601f19601f820116905080830192505050505050503361032e565b815260200190815260200160002060000160049054906101000a900460ff16611206576040517f08c379a00000000000000000000000000000000000000000000000000000000081526004016111fd90612aef565b60405180910390fd5b611214868686866001611baf565b505050505050565b8282600282826040516112309291906128d1565b9081526020016040518091039020600061128e84848080601f016020809104026020016040519081016040528093929190818152602001838380828437600081840152601f19601f820116905080830192505050505050503361032e565b815260200190815260200160002060000160049054906101000a900460ff166112ec576040517f08c379a00000000000000000000000000000000000000000000000000000000081526004016112e390612aef565b60405180910390fd5b600285856040516112fe9291906128d1565b9081526020016040518091039020600061135c87878080601f016020809104026020016040519081016040528093929190818152602001838380828437600081840152601f19601f820116905080830192505050505050508661032e565b8152602001908152602001600020600080820160006101000a81549060ff02191690556000820160016101000a81549060ff02191690556000820160026101000a81549060ff02191690556000820160036101000a81549060ff02191690556000820160046101000a81549060ff021916905550505050505050565b8787600282826040516113ec9291906128d1565b9081526020016040518091039020600061144a84848080601f016020809104026020016040519081016040528093929190818152602001838380828437600081840152601f19601f820116905080830192505050505050503361032e565b815260200190815260200160002060000160049054906101000a900460ff166114a8576040517f08c379a000000000000000000000000000000000000000000000000000000000815260040161149f90612aef565b60405180910390fd5b6040518060a00160405280881515815260200187151581526020018615158152602001851515815260200184151581525060028b8b6040516114eb9291906128d1565b908152602001604051809103902060006115498d8d8080601f016020809104026020016040519081016040528093929190818152602001838380828437600081840152601f19601f820116905080830192505050505050508c61032e565b815260200190815260200160002060008201518160000160006101000a81548160ff02191690831515021790555060208201518160000160016101000a81548160ff02191690831515021790555060408201518160000160026101000a81548160ff02191690831515021790555060608201518160000160036101000a81548160ff02191690831515021790555060808201518160000160046101000a81548160ff02191690831515021790555090505050505050505050505050565b61160e61202e565b83836000600183836040516116249291906128d1565b90815260200160405180910390208054600181600116156101000203166002900490501415611688576040517f08c379a000000000000000000000000000000000000000000000000000000000815260040161167f90612a4f565b60405180910390fd5b6002868660405161169a9291906128d1565b908152602001604051809103902060006116f888888080601f016020809104026020016040519081016040528093929190818152602001838380828437600081840152601f19601f820116905080830192505050505050508761032e565b81526020019081526020016000206040518060a00160405290816000820160009054906101000a900460ff161515151581526020016000820160019054906101000a900460ff161515151581526020016000820160029054906101000a900460ff161515151581526020016000820160039054906101000a900460ff161515151581526020016000820160049054906101000a900460ff161515151581525050925050509392505050565b600282805160208101820180518482526020830160208501208183528095505050505050602052806000526040600020600091509150508060000160009054906101000a900460ff16908060000160019054906101000a900460ff16908060000160029054906101000a900460ff16908060000160039054906101000a900460ff16908060000160049054906101000a900460ff16905085565b606084848080601f016020809104026020016040519081016040528093929190818152602001838380828437600081840152601f19601f8201169050808301925050505050505090507f2f00000000000000000000000000000000000000000000000000000000000000816000815181106118b457fe5b602001015160f81c60f81b7effffffffffffffffffffffffffffffffffffffffffffffffffffffffffffff191614611921576040517f08c379a000000000000000000000000000000000000000000000000000000000815260040161191890612a2f565b60405180910390fd5b606086868660405160200161193893929190612901565b6040516020818303038152906040529050600060018260405161195b91906128ea565b9081526020016040518091039020805460018160011615610100020316600290049050146119be576040517f08c379a00000000000000000000000000000000000000000000000000000000081526004016119b590612a8f565b60405180910390fd5b60016000826040516119d091906128ea565b908152602001604051809103902060009054906101000a900463ffffffff1601600082604051611a0091906128ea565b908152602001604051809103902060006101000a81548163ffffffff021916908363ffffffff1602179055508383600183604051611a3e91906128ea565b90815260200160405180910390209190611a59929190611f66565b506040518060a0016040528060011515815260200160011515815260200160011515815260200160011515815260200160011515815250600282604051611aa091906128ea565b90815260200160405180910390206000611aba843361032e565b815260200190815260200160002060008201518160000160006101000a81548160ff02191690831515021790555060208201518160000160016101000a81548160ff02191690831515021790555060408201518160000160026101000a81548160ff02191690831515021790555060608201518160000160036101000a81548160ff02191690831515021790555060808201518160000160046101000a81548160ff0219169083151502179055509050507f0db027888a30ca08149af1347f6ce2f48daffedd9d6d21ab6249c4d802ce592f818585604051611b9e939291906129f6565b60405180910390a150505050505050565b60006004811115611bbc57fe5b826004811115611bc857fe5b1415611c6c578060028686604051611be19291906128d1565b90815260200160405180910390206000611c3f88888080601f016020809104026020016040519081016040528093929190818152602001838380828437600081840152601f19601f820116905080830192505050505050508761032e565b815260200190815260200160002060000160006101000a81548160ff021916908315150217905550611f5f565b60016004811115611c7957fe5b826004811115611c8557fe5b1415611d29578060028686604051611c9e9291906128d1565b90815260200160405180910390206000611cfc88888080601f016020809104026020016040519081016040528093929190818152602001838380828437600081840152601f19601f820116905080830192505050505050508761032e565b815260200190815260200160002060000160016101000a81548160ff021916908315150217905550611f5e565b60036004811115611d3657fe5b826004811115611d4257fe5b1415611de6578060028686604051611d5b9291906128d1565b90815260200160405180910390206000611db988888080601f016020809104026020016040519081016040528093929190818152602001838380828437600081840152601f19601f820116905080830192505050505050508761032e565b815260200190815260200160002060000160036101000a81548160ff021916908315150217905550611f5d565b60026004811115611df357fe5b826004811115611dff57fe5b1415611ea3578060028686604051611e189291906128d1565b90815260200160405180910390206000611e7688888080601f016020809104026020016040519081016040528093929190818152602001838380828437600081840152601f19601f820116905080830192505050505050508761032e565b815260200190815260200160002060000160026101000a81548160ff021916908315150217905550611f5c565b600480811115611eaf57fe5b826004811115611ebb57fe5b1415611f5b578060028686604051611ed49291906128d1565b90815260200160405180910390206000611f3288888080601f016020809104026020016040519081016040528093929190818152602001838380828437600081840152601f19601f820116905080830192505050505050508761032e565b815260200190815260200160002060000160046101000a81548160ff0219169083151502179055505b5b5b5b5b5050505050565b828054600181600116156101000203166002900490600052602060002090601f016020900481019282601f10611fa757803560ff1916838001178555611fd5565b82800160010185558215611fd5579182015b82811115611fd4578235825591602001919060010190611fb9565b5b509050611fe29190612067565b5090565b50805460018160011615610100020316600290046000825580601f1061200c575061202b565b601f01602090049060005260206000209081019061202a9190612067565b5b50565b6040518060a001604052806000151581526020016000151581526020016000151581526020016000151581526020016000151581525090565b5b80821115612080576000816000905550600101612068565b5090565b60008135905061209381612c7e565b92915050565b6000815190506120a881612c7e565b92915050565b6000813590506120bd81612c95565b92915050565b6000813590506120d281612cac565b92915050565b6000813590506120e781612cc3565b92915050565b60008083601f8401126120ff57600080fd5b8235905067ffffffffffffffff81111561211857600080fd5b60208301915083600182028301111561213057600080fd5b9250929050565b600082601f83011261214857600080fd5b813561215b61215682612b80565b612b53565b9150808252602083016020830185838301111561217757600080fd5b612182838284612c2b565b50505092915050565b60006020828403121561219d57600080fd5b60006121ab84828501612084565b91505092915050565b6000602082840312156121c657600080fd5b60006121d484828501612099565b91505092915050565b600080602083850312156121f057600080fd5b600083013567ffffffffffffffff81111561220a57600080fd5b612216858286016120ed565b92509250509250929050565b60008060006040848603121561223757600080fd5b600084013567ffffffffffffffff81111561225157600080fd5b61225d868287016120ed565b9350935050602061227086828701612084565b9150509250925092565b60008060008060008060008060e0898b03121561229657600080fd5b600089013567ffffffffffffffff8111156122b057600080fd5b6122bc8b828c016120ed565b985098505060206122cf8b828c01612084565b96505060406122e08b828c016120ae565b95505060606122f18b828c016120ae565b94505060806123028b828c016120ae565b93505060a06123138b828c016120ae565b92505060c06123248b828c016120ae565b9150509295985092959890939650565b6000806000806060858703121561234a57600080fd5b600085013567ffffffffffffffff81111561236457600080fd5b612370878288016120ed565b9450945050602061238387828801612084565b9250506040612394878288016120d8565b91505092959194509250565b600080600080604085870312156123b657600080fd5b600085013567ffffffffffffffff8111156123d057600080fd5b6123dc878288016120ed565b9450945050602085013567ffffffffffffffff8111156123fb57600080fd5b612407878288016120ed565b925092505092959194509250565b6000806000806000806060878903121561242e57600080fd5b600087013567ffffffffffffffff81111561244857600080fd5b61245489828a016120ed565b9650965050602087013567ffffffffffffffff81111561247357600080fd5b61247f89828a016120ed565b9450945050604087013567ffffffffffffffff81111561249e57600080fd5b6124aa89828a016120ed565b92509250509295509295509295565b6000602082840312156124cb57600080fd5b600082013567ffffffffffffffff8111156124e557600080fd5b6124f184828501612137565b91505092915050565b6000806040838503121561250d57600080fd5b600083013567ffffffffffffffff81111561252757600080fd5b61253385828601612137565b925050602061254485828601612084565b9150509250929050565b6000806040838503121561256157600080fd5b600083013567ffffffffffffffff81111561257b57600080fd5b61258785828601612137565b9250506020612598858286016120c3565b9150509250929050565b6125ab81612bd3565b82525050565b6125ba81612be5565b82525050565b6125c981612be5565b82525050565b6125d881612bf1565b82525050565b60006125ea8385612bb7565b93506125f7838584612c2b565b61260083612c6d565b840190509392505050565b60006126178385612bc8565b9350612624838584612c2b565b82840190509392505050565b600061263b82612bac565b6126458185612bb7565b9350612655818560208601612c3a565b61265e81612c6d565b840191505092915050565b600061267482612bac565b61267e8185612bc8565b935061268e818560208601612c3a565b80840191505092915050565b60006126a7601683612bb7565b91507f70617468206d7573742073746172742077697468202f000000000000000000006000830152602082019050919050565b60006126e7601583612bb7565b91507f73747265616d20646f6573206e6f7420657869737400000000000000000000006000830152602082019050919050565b6000612727601483612bb7565b91507f6e6f2064656c657465207065726d697373696f6e0000000000000000000000006000830152602082019050919050565b6000612767601783612bb7565b91507f73747265616d20696420616c72656179206578697374730000000000000000006000830152602082019050919050565b60006127a7601283612bb7565b91507f6e6f2065646974207065726d697373696f6e00000000000000000000000000006000830152602082019050919050565b60006127e7602083612bb7565b91507f796f75206d757374206265206f776e6572206f662074686520656e736e616d656000830152602082019050919050565b6000612827601383612bb7565b91507f6e6f207368617265207065726d697373696f6e000000000000000000000000006000830152602082019050919050565b60a08201600082015161287060008501826125b1565b50602082015161288360208501826125b1565b50604082015161289660408501826125b1565b5060608201516128a960608501826125b1565b5060808201516128bc60808501826125b1565b50505050565b6128cb81612c1b565b82525050565b60006128de82848661260b565b91508190509392505050565b60006128f68284612669565b915081905092915050565b600061290d8286612669565b915061291a82848661260b565b9150819050949350505050565b600060208201905061293c60008301846125c0565b92915050565b600060a08201905061295760008301886125c0565b61296460208301876125c0565b61297160408301866125c0565b61297e60608301856125c0565b61298b60808301846125c0565b9695505050505050565b60006020820190506129aa60008301846125cf565b92915050565b600060208201905081810360008301526129cb8184866125de565b90509392505050565b600060208201905081810360008301526129ee8184612630565b905092915050565b60006040820190508181036000830152612a108186612630565b90508181036020830152612a258184866125de565b9050949350505050565b60006020820190508181036000830152612a488161269a565b9050919050565b60006020820190508181036000830152612a68816126da565b9050919050565b60006020820190508181036000830152612a888161271a565b9050919050565b60006020820190508181036000830152612aa88161275a565b9050919050565b60006020820190508181036000830152612ac88161279a565b9050919050565b60006020820190508181036000830152612ae8816127da565b9050919050565b60006020820190508181036000830152612b088161281a565b9050919050565b600060a082019050612b24600083018461285a565b92915050565b6000604082019050612b3f60008301856128c2565b612b4c60208301846125a2565b9392505050565b6000604051905081810181811067ffffffffffffffff82111715612b7657600080fd5b8060405250919050565b600067ffffffffffffffff821115612b9757600080fd5b601f19601f8301169050602081019050919050565b600081519050919050565b600082825260208201905092915050565b600081905092915050565b6000612bde82612bfb565b9050919050565b60008115159050919050565b6000819050919050565b600073ffffffffffffffffffffffffffffffffffffffff82169050919050565b600063ffffffff82169050919050565b82818337600083830152505050565b60005b83811015612c58578082015181840152602081019050612c3d565b83811115612c67576000848401525b50505050565b6000601f19601f8301169050919050565b612c8781612bd3565b8114612c9257600080fd5b50565b612c9e81612be5565b8114612ca957600080fd5b50565b612cb581612bf1565b8114612cc057600080fd5b50565b60058110612cd057600080fd5b5056fea2646970667358221220d9b4bd1746352001026f577f2a1af3c4ef50b275f5f2d8f129f649b911ccb4a064736f6c634300060c0033",
  "devdoc": {
    "kind": "dev",
    "methods": {},
    "version": 1
  },
  "userdoc": {
    "kind": "user",
    "methods": {},
    "version": 1
  },
  "storageLayout": {
    "storage": [
      {
        "astId": 1862,
        "contract": "contracts/StreamRegistry/StreamRegistry.sol:StreamRegistry",
        "label": "streamIdToVersion",
        "offset": 0,
        "slot": "0",
        "type": "t_mapping(t_string_memory_ptr,t_uint32)"
      },
      {
        "astId": 1866,
        "contract": "contracts/StreamRegistry/StreamRegistry.sol:StreamRegistry",
        "label": "streamIdToMetadata",
        "offset": 0,
        "slot": "1",
        "type": "t_mapping(t_string_memory_ptr,t_string_storage)"
      },
      {
        "astId": 1872,
        "contract": "contracts/StreamRegistry/StreamRegistry.sol:StreamRegistry",
        "label": "streamIdToPermissions",
        "offset": 0,
        "slot": "2",
        "type": "t_mapping(t_string_memory_ptr,t_mapping(t_bytes32,t_struct(Permission)1885_storage))"
      },
      {
        "astId": 1874,
        "contract": "contracts/StreamRegistry/StreamRegistry.sol:StreamRegistry",
        "label": "ensCache",
        "offset": 0,
        "slot": "3",
        "type": "t_contract(ENSCache)2857"
      }
    ],
    "types": {
      "t_bool": {
        "encoding": "inplace",
        "label": "bool",
        "numberOfBytes": "1"
      },
      "t_bytes32": {
        "encoding": "inplace",
        "label": "bytes32",
        "numberOfBytes": "32"
      },
      "t_contract(ENSCache)2857": {
        "encoding": "inplace",
        "label": "contract ENSCache",
        "numberOfBytes": "20"
      },
      "t_mapping(t_bytes32,t_struct(Permission)1885_storage)": {
        "encoding": "mapping",
        "key": "t_bytes32",
        "label": "mapping(bytes32 => struct StreamRegistry.Permission)",
        "numberOfBytes": "32",
        "value": "t_struct(Permission)1885_storage"
      },
      "t_mapping(t_string_memory_ptr,t_mapping(t_bytes32,t_struct(Permission)1885_storage))": {
        "encoding": "mapping",
        "key": "t_string_memory_ptr",
        "label": "mapping(string => mapping(bytes32 => struct StreamRegistry.Permission))",
        "numberOfBytes": "32",
        "value": "t_mapping(t_bytes32,t_struct(Permission)1885_storage)"
      },
      "t_mapping(t_string_memory_ptr,t_string_storage)": {
        "encoding": "mapping",
        "key": "t_string_memory_ptr",
        "label": "mapping(string => string)",
        "numberOfBytes": "32",
        "value": "t_string_storage"
      },
      "t_mapping(t_string_memory_ptr,t_uint32)": {
        "encoding": "mapping",
        "key": "t_string_memory_ptr",
        "label": "mapping(string => uint32)",
        "numberOfBytes": "32",
        "value": "t_uint32"
      },
      "t_string_memory_ptr": {
        "encoding": "bytes",
        "label": "string",
        "numberOfBytes": "32"
      },
      "t_string_storage": {
        "encoding": "bytes",
        "label": "string",
        "numberOfBytes": "32"
      },
      "t_struct(Permission)1885_storage": {
        "encoding": "inplace",
        "label": "struct StreamRegistry.Permission",
        "members": [
          {
            "astId": 1876,
            "contract": "contracts/StreamRegistry/StreamRegistry.sol:StreamRegistry",
            "label": "edit",
            "offset": 0,
            "slot": "0",
            "type": "t_bool"
          },
          {
            "astId": 1878,
            "contract": "contracts/StreamRegistry/StreamRegistry.sol:StreamRegistry",
            "label": "canDelete",
            "offset": 1,
            "slot": "0",
            "type": "t_bool"
          },
          {
            "astId": 1880,
            "contract": "contracts/StreamRegistry/StreamRegistry.sol:StreamRegistry",
            "label": "publish",
            "offset": 2,
            "slot": "0",
            "type": "t_bool"
          },
          {
            "astId": 1882,
            "contract": "contracts/StreamRegistry/StreamRegistry.sol:StreamRegistry",
            "label": "subscribed",
            "offset": 3,
            "slot": "0",
            "type": "t_bool"
          },
          {
            "astId": 1884,
            "contract": "contracts/StreamRegistry/StreamRegistry.sol:StreamRegistry",
            "label": "share",
            "offset": 4,
            "slot": "0",
            "type": "t_bool"
          }
        ],
        "numberOfBytes": "32"
      },
      "t_uint32": {
        "encoding": "inplace",
        "label": "uint32",
        "numberOfBytes": "4"
      }
    }
  }
}