{
  "contractName": "BinanceAdapter",
  "abi": [
    {
      "inputs": [
        {
          "internalType": "address",
          "name": "dataCoin_",
          "type": "address"
        },
        {
          "internalType": "address",
          "name": "honeyswapRouter_",
          "type": "address"
        },
        {
          "internalType": "address",
          "name": "bscBridge_",
          "type": "address"
        },
        {
          "internalType": "address",
          "name": "convertToCoin_",
          "type": "address"
        },
        {
          "internalType": "address",
          "name": "liquidityToken_",
          "type": "address"
        }
      ],
      "stateMutability": "nonpayable",
      "type": "constructor"
    },
    {
      "anonymous": false,
      "inputs": [
        {
          "indexed": true,
          "internalType": "address",
          "name": "member",
          "type": "address"
        },
        {
          "indexed": true,
          "internalType": "address",
          "name": "recipient",
          "type": "address"
        }
      ],
      "name": "SetBinanceRecipient",
      "type": "event"
    },
    {
      "anonymous": false,
      "inputs": [
        {
          "indexed": true,
          "internalType": "address",
          "name": "token",
          "type": "address"
        },
        {
          "indexed": true,
          "internalType": "address",
          "name": "to",
          "type": "address"
        },
        {
          "indexed": false,
          "internalType": "uint256",
          "name": "amountDatacoin",
          "type": "uint256"
        },
        {
          "indexed": false,
          "internalType": "uint256",
          "name": "amountOtheroken",
          "type": "uint256"
        }
      ],
      "name": "WithdrawToBinance",
      "type": "event"
    },
    {
      "inputs": [
        {
          "internalType": "address",
          "name": "",
          "type": "address"
        }
      ],
      "name": "binanceRecipient",
      "outputs": [
        {
          "internalType": "address",
          "name": "binanceAddress",
          "type": "address"
        },
        {
          "internalType": "uint256",
          "name": "nonce",
          "type": "uint256"
        }
      ],
      "stateMutability": "view",
      "type": "function"
    },
    {
      "inputs": [],
      "name": "bscBridge",
      "outputs": [
        {
          "internalType": "address",
          "name": "",
          "type": "address"
        }
      ],
      "stateMutability": "view",
      "type": "function"
    },
    {
      "inputs": [],
      "name": "convertToCoin",
      "outputs": [
        {
          "internalType": "address",
          "name": "",
          "type": "address"
        }
      ],
      "stateMutability": "view",
      "type": "function"
    },
    {
      "inputs": [],
      "name": "dataCoin",
      "outputs": [
        {
          "internalType": "contract IERC677",
          "name": "",
          "type": "address"
        }
      ],
      "stateMutability": "view",
      "type": "function"
    },
    {
      "inputs": [],
      "name": "datacoinPassed",
      "outputs": [
        {
          "internalType": "uint256",
          "name": "",
          "type": "uint256"
        }
      ],
      "stateMutability": "view",
      "type": "function"
    },
    {
      "inputs": [],
      "name": "honeyswapRouter",
      "outputs": [
        {
          "internalType": "contract IUniswapV2Router02",
          "name": "",
          "type": "address"
        }
      ],
      "stateMutability": "view",
      "type": "function"
    },
    {
      "inputs": [],
      "name": "liquidityToken",
      "outputs": [
        {
          "internalType": "address",
          "name": "",
          "type": "address"
        }
      ],
      "stateMutability": "view",
      "type": "function"
    },
    {
      "inputs": [
        {
          "internalType": "address",
          "name": "",
          "type": "address"
        },
        {
          "internalType": "uint256",
          "name": "amount",
          "type": "uint256"
        },
        {
          "internalType": "bytes",
          "name": "data",
          "type": "bytes"
        }
      ],
      "name": "onTokenTransfer",
      "outputs": [
        {
          "internalType": "bool",
          "name": "",
          "type": "bool"
        }
      ],
      "stateMutability": "nonpayable",
      "type": "function"
    },
    {
      "inputs": [
        {
          "internalType": "address",
          "name": "recipient",
          "type": "address"
        }
      ],
      "name": "setBinanceRecipient",
      "outputs": [],
      "stateMutability": "nonpayable",
      "type": "function"
    },
    {
      "inputs": [
        {
          "internalType": "address",
          "name": "from",
          "type": "address"
        },
        {
          "internalType": "address",
          "name": "recipient",
          "type": "address"
        },
        {
          "internalType": "bytes",
          "name": "sig",
          "type": "bytes"
        }
      ],
      "name": "setBinanceRecipientFromSig",
      "outputs": [],
      "stateMutability": "nonpayable",
      "type": "function"
    },
    {
      "inputs": [
        {
          "internalType": "address",
          "name": "recipient",
          "type": "address"
        },
        {
          "internalType": "uint256",
          "name": "nonce",
          "type": "uint256"
        },
        {
          "internalType": "bytes",
          "name": "signature",
          "type": "bytes"
        }
      ],
      "name": "getSigner",
      "outputs": [
        {
          "internalType": "address",
          "name": "",
          "type": "address"
        }
      ],
      "stateMutability": "view",
      "type": "function"
    }
  ],
  "bytecode": "0x608060405234801561001057600080fd5b50604051611005380380611005833981810160405260a081101561003357600080fd5b508051602082015160408301516060840151608090940151600280546001600160a01b039586166001600160a01b03199182161790915560008054948616948216949094179093556001805492851692841692909217909155600380549484169483169490941790935560048054929093169116179055610f4c806100b96000396000f3fe608060405234801561001057600080fd5b50600436106100a95760003560e01c80638c30c933116100715780638c30c9331461026c57806395f9596a146102b55780639ccc42b8146102bd578063a4c0ed36146102c5578063c3059e9f1461035c578063f6f7923e14610382576100a9565b806311e07fd8146100ae57806343cd8f7e146100c85780635858aa26146100ec5780635fc8bf6f146101a55780638bb659ec146101ad575b600080fd5b6100b661038a565b60408051918252519081900360200190f35b6100d0610390565b604080516001600160a01b039092168252519081900360200190f35b6100d06004803603606081101561010257600080fd5b6001600160a01b0382351691602081013591810190606081016040820135600160201b81111561013157600080fd5b82018360208201111561014357600080fd5b803590602001918460018302840111600160201b8311171561016457600080fd5b91908080601f01602080910402602001604051908101604052809392919081815260200183838082843760009201919091525092955061039f945050505050565b6100d0610558565b61026a600480360360608110156101c357600080fd5b6001600160a01b038235811692602081013590911691810190606081016040820135600160201b8111156101f657600080fd5b82018360208201111561020857600080fd5b803590602001918460018302840111600160201b8311171561022957600080fd5b91908080601f016020809104026020016040519081016040528093929190818152602001838380828437600092019190915250929550610567945050505050565b005b6102926004803603602081101561028257600080fd5b50356001600160a01b0316610611565b604080516001600160a01b03909316835260208301919091528051918290030190f35b6100d0610636565b6100d0610645565b610348600480360360608110156102db57600080fd5b6001600160a01b0382351691602081013591810190606081016040820135600160201b81111561030a57600080fd5b82018360208201111561031c57600080fd5b803590602001918460018302840111600160201b8311171561033d57600080fd5b509092509050610654565b604080519115158252519081900360200190f35b61026a6004803603602081101561037257600080fd5b50356001600160a01b0316610733565b6100d0610740565b60055481565b6004546001600160a01b031681565b600081516041146103f7576040805162461bcd60e51b815260206004820152601860248201527f6572726f725f6261645369676e61747572654c656e6774680000000000000000604482015290519081900360640190fd5b60208201516040830151606084015160001a601b81101561041657601b015b8060ff16601b148061042b57508060ff16601c145b61047c576040805162461bcd60e51b815260206004820152601960248201527f6572726f725f6261645369676e617475726556657273696f6e00000000000000604482015290519081900360640190fd5b604080517f19457468657265756d205369676e6564204d6573736167653a0a37320000000060208083019190915260608a811b6bffffffffffffffffffffffff1916603c840152605083018a905230901b60708301528251808303606401815260848301808552815191830191909120600090915260a4830180855281905260ff851660c484015260e48301879052610104830186905292516001926101248082019392601f1981019281900390910190855afa158015610541573d6000803e3d6000fd5b5050604051601f1901519998505050505050505050565b6001546001600160a01b031681565b6001600160a01b03831660009081526006602052604081206001808201549192916105979163ffffffff61074f16565b9050846001600160a01b03166105ae85838661039f565b6001600160a01b0316146105f9576040805162461bcd60e51b815260206004820152600d60248201526c6261645f7369676e617475726560981b604482015290519081900360640190fd5b6001820181905561060a85856107b0565b5050505050565b600660205260009081526040902080546001909101546001600160a01b039091169082565b6000546001600160a01b031681565b6002546001600160a01b031681565b60008060001990506000600660006106a187878080601f01602080910402602001604051908101604052809392919081815260200183838082843760009201919091525061080c92505050565b6001600160a01b0390811682526020820192909252604001600020805490925016610709576040805162461bcd60e51b81526020600482015260136024820152721c9958da5c1a595b9d17dd5b9919599a5b9959606a1b604482015290519081900360640190fd5b8054600354610729916001600160a01b0390811691899116600186610870565b5050949350505050565b61073d33826107b0565b50565b6003546001600160a01b031681565b6000828201838110156107a9576040805162461bcd60e51b815260206004820152601b60248201527f536166654d6174683a206164646974696f6e206f766572666c6f770000000000604482015290519081900360640190fd5b9392505050565b6001600160a01b0382811660008181526006602052604080822080546001600160a01b03191694861694851781559051909392917ff12e3b42943f9288eaf8634459b4fad7424a14ac78268957d8e5f3a860d1f2b591a3505050565b600060148251101561085d576040805162461bcd60e51b8152602060048201526015602482015274746f416464726573735f6f75744f66426f756e647360581b604482015290519081900360640190fd5b506020810151600160601b90045b919050565b60025460009081906001600160a01b038681169116148061089857506001600160a01b038516155b1561096a57600254604080516370a0823160e01b815230600482015290516001600160a01b03909216935083916370a0823191602480820192602092909190829003018186803b1580156108eb57600080fd5b505afa1580156108ff573d6000803e3d6000fd5b505050506040513d602081101561091557600080fd5b5051905085811015610965576040805162461bcd60e51b8152602060048201526014602482015273696e73756666696369656e745f62616c616e636560601b604482015290519081900360640190fd5b610c36565b600254600080546040805163095ea7b360e01b81526001600160a01b039283166004820152602481018b90529051919093169263095ea7b39260448083019360209390929083900390910190829087803b1580156109c757600080fd5b505af11580156109db573d6000803e3d6000fd5b505050506040513d60208110156109f157600080fd5b5051610a35576040805162461bcd60e51b815260206004820152600e60248201526d185c1c1c9bdd9957d9985a5b195960921b604482015290519081900360640190fd5b6060610a4086610da4565b600080546040516338ed173960e01b8152600481018b8152602482018a90523060648301819052608483018a905260a060448401908152865160a485015286519697506001600160a01b03909416956338ed1739958e958d958a958e94909360c49092019160208089019202908190849084905b83811015610acc578181015183820152602001610ab4565b505050509050019650505050505050600060405180830381600087803b158015610af557600080fd5b505af1158015610b09573d6000803e3d6000fd5b505050506040513d6000823e601f3d908101601f191682016040526020811015610b3257600080fd5b8101908080516040519392919084600160201b821115610b5157600080fd5b908301906020820185811115610b6657600080fd5b82518660208202830111600160201b82111715610b8257600080fd5b82525081516020918201928201910280838360005b83811015610baf578181015183820152602001610b97565b505050509190910160408181526370a0823160e01b8252306004830152518c99506001600160a01b038a1696506370a082319550602480830195506020945090925090829003018186803b158015610c0657600080fd5b505afa158015610c1a573d6000803e3d6000fd5b505050506040513d6020811015610c3057600080fd5b50519150505b6001546001600160a01b0380841691634000aea0911683610c568b610ef2565b6040518463ffffffff1660e01b815260040180846001600160a01b03166001600160a01b0316815260200183815260200180602001828103825283818151815260200191508051906020019080838360005b83811015610cc0578181015183820152602001610ca8565b50505050905090810190601f168015610ced5780820380516001836020036101000a031916815260200191505b50945050505050602060405180830381600087803b158015610d0e57600080fd5b505af1158015610d22573d6000803e3d6000fd5b505050506040513d6020811015610d3857600080fd5b5050604080518781526020810183905281516001600160a01b03808b1693908616927f84484def420ee3a0d5f780231db9f0c3865ac023e847b17eed44379fd2ac1e02929081900390910190a3600554610d98908763ffffffff61074f16565b60055550505050505050565b6004546060906001600160a01b0316610e3e576040805160028082526060808301845292602083019080368337505060025482519293506001600160a01b031691839150600090610df157fe5b60200260200101906001600160a01b031690816001600160a01b0316815250508281600181518110610e1f57fe5b6001600160a01b0390921660209283029190910190910152905061086b565b60408051600380825260808201909252606091602082018380368337505060025482519293506001600160a01b031691839150600090610e7a57fe5b6001600160a01b039283166020918202929092010152600454825191169082906001908110610ea557fe5b60200260200101906001600160a01b031690816001600160a01b0316815250508281600281518110610ed357fe5b6001600160a01b03909216602092830291909101909101529050919050565b604080516001600160a01b0392909216600560a21b1860148301526034820190529056fea26469706673582212207ba652928fd71158dc443070a6f26af0fb142d30cff3f04f0ed526fe9841169964736f6c63430006060033",
  "immutableReferences": {},
  "source": "pragma solidity 0.6.6;\n\nimport \"@uniswap/v2-periphery/contracts/interfaces/IUniswapV2Router02.sol\"; \nimport \"./IERC677.sol\";\nimport \"./BytesLib.sol\";\nimport \"openzeppelin-solidity/contracts/math/SafeMath.sol\";\n\ncontract BinanceAdapter {\n    using SafeMath for uint256;\n\n    event WithdrawToBinance(address indexed token, address indexed to, uint256 amountDatacoin, uint256 amountOtheroken);\n    event SetBinanceRecipient(address indexed member, address indexed recipient);\n\n    struct UserData {\n        address binanceAddress;\n        uint256 nonce;\n    }\n\n    IUniswapV2Router02 public honeyswapRouter;\n    address public bscBridge;\n    IERC677 public dataCoin;\n    address public convertToCoin;\n    //optional intermediate token for liquidity path\n    address public liquidityToken;\n    uint256 public datacoinPassed;\n    mapping(address => UserData) public binanceRecipient;\n    /*\n    ERC677 callback\n    */\n    function onTokenTransfer(address, uint256 amount, bytes calldata data) external returns (bool) {\n        uint256 maxint = uint256(0xffffffffffffffffffffffffffffffffffffffffffffffffffffffffffffffff);\n        UserData storage userdata = binanceRecipient[BytesLib.toAddress(data)];\n        require(userdata.binanceAddress != address(0), \"recipient_undefined\");\n        //min output is 1 wei, no deadline\n        _withdrawToBinance(userdata.binanceAddress, amount, convertToCoin, 1, maxint);\n    }\n\n    constructor(address dataCoin_, address honeyswapRouter_, address bscBridge_, address convertToCoin_, address liquidityToken_) public {\n        dataCoin = IERC677(dataCoin_);\n        honeyswapRouter = IUniswapV2Router02(honeyswapRouter_);\n        bscBridge = address(bscBridge_);\n        convertToCoin = convertToCoin_;\n        liquidityToken = liquidityToken_;\n    }\n\n    function setBinanceRecipient(address recipient) public {\n        _setBinanceRecipient(msg.sender, recipient);\n    }\n\n    function setBinanceRecipientFromSig(address from, address recipient, bytes memory sig) public {\n        UserData storage userdata = binanceRecipient[from];\n        uint nextNonce = userdata.nonce.add(1);\n        require(getSigner(recipient, nextNonce, sig) == from, \"bad_signature\");\n        userdata.nonce = nextNonce;\n        _setBinanceRecipient(from, recipient);\n    }    \n\n    function _setBinanceRecipient(address member, address recipient) internal {\n        UserData storage userdata = binanceRecipient[member];\n        userdata.binanceAddress = recipient;\n        emit SetBinanceRecipient(member, recipient);\n    }\n\n\n    function _withdrawToBinance(address binanceAddress, uint256 amountDatacoin, address toCoinXDai, uint256 toCoinMinAmount, uint256 deadlineTimestamp) internal {\n        IERC677 toCoin;\n        // in toCoin:\n        uint256 sendToBinanceAmount;\n        if(toCoinXDai == address(dataCoin) || toCoinXDai == address(0)){\n            //no conversion neeeded\n            toCoin = IERC677(dataCoin);\n            sendToBinanceAmount = toCoin.balanceOf(address(this));\n            // err if not enough DATA coin balance\n            require(sendToBinanceAmount >= amountDatacoin, \"insufficient_balance\");\n        }\n        else{\n            require(dataCoin.approve(address(honeyswapRouter), amountDatacoin), \"approve_failed\");\n            address[] memory path = _honeyswapPath(toCoinXDai);\n            // this should err if not enough DATA coin balance\n            honeyswapRouter.swapExactTokensForTokens(amountDatacoin, toCoinMinAmount, path, address(this), deadlineTimestamp);\n            toCoin = IERC677(toCoinXDai);\n            sendToBinanceAmount = toCoin.balanceOf(address(this));\n        }\n        toCoin.transferAndCall(bscBridge, sendToBinanceAmount, BytesLib.toBytes(binanceAddress));\n        emit WithdrawToBinance(address(toCoin), binanceAddress, amountDatacoin, sendToBinanceAmount);\n        datacoinPassed = datacoinPassed.add(amountDatacoin);\n    }\n\n    function _honeyswapPath(address toCoinXDai) internal view returns (address[] memory) {\n        if(liquidityToken == address(0)){\n            //no intermediate\n            address[] memory path = new address[](2);\n            path[0] = address(dataCoin);\n            path[1] = toCoinXDai;\n            return path;\n        }\n        //use intermediate liquidity token\n        address[] memory path = new address[](3);\n        path[0] = address(dataCoin);\n        path[1] = liquidityToken;\n        path[2] = toCoinXDai;\n        return path;\n    }\n    \n    function getSigner(\n        address recipient,\n        uint256 nonce,\n        bytes memory signature\n    )\n        public view\n        returns (address)\n    {\n        require(signature.length == 65, \"error_badSignatureLength\");\n\n        bytes32 r; bytes32 s; uint8 v;\n        // solhint-disable-next-line no-inline-assembly\n        assembly {\n            r := mload(add(signature, 32))\n            s := mload(add(signature, 64))\n            v := byte(0, mload(add(signature, 96)))\n        }\n        if (v < 27) {\n            v += 27;\n        }\n        require(v == 27 || v == 28, \"error_badSignatureVersion\");\n\n        bytes32 messageHash = keccak256(abi.encodePacked(\n            \"\\x19Ethereum Signed Message:\\n72\", recipient, nonce, address(this)));\n        \n        return ecrecover(messageHash, v, r, s);\n    }\n\n}",
  "sourcePath": "/home/heynow/streamr/data-union-solidity/contracts/BinanceAdapter.sol",
  "compiler": {
    "name": "solc",
    "version": "0.6.6+commit.6c089d02.Emscripten.clang"
  },
  "schemaVersion": "3.3.4",
  "updatedAt": "2021-06-02T09:34:02.245Z",
  "devdoc": {
    "methods": {}
  },
  "userdoc": {
    "methods": {}
  }
}