{
  "_format": "hh-sol-artifact-1",
  "contractName": "DataUnionFactorySidechain",
  "sourceName": "contracts/DataUnionFactorySidechain.sol",
  "abi": [
    {
      "inputs": [
        {
          "internalType": "address",
          "name": "_dataUnionSidechainTemplate",
          "type": "address"
        }
      ],
      "stateMutability": "nonpayable",
      "type": "constructor"
    },
    {
      "anonymous": false,
      "inputs": [
        {
          "indexed": false,
          "internalType": "uint256",
          "name": "amountWei",
          "type": "uint256"
        }
      ],
      "name": "DUInitialEthSent",
      "type": "event"
    },
    {
      "anonymous": false,
      "inputs": [
        {
          "indexed": false,
          "internalType": "uint256",
          "name": "amountWei",
          "type": "uint256"
        }
      ],
      "name": "OwnerInitialEthSent",
      "type": "event"
    },
    {
      "anonymous": false,
      "inputs": [
        {
          "indexed": true,
          "internalType": "address",
          "name": "previousOwner",
          "type": "address"
        },
        {
          "indexed": true,
          "internalType": "address",
          "name": "newOwner",
          "type": "address"
        }
      ],
      "name": "OwnershipTransferred",
      "type": "event"
    },
    {
      "anonymous": false,
      "inputs": [
        {
          "indexed": true,
          "internalType": "address",
          "name": "mainnet",
          "type": "address"
        },
        {
          "indexed": true,
          "internalType": "address",
          "name": "sidenet",
          "type": "address"
        },
        {
          "indexed": true,
          "internalType": "address",
          "name": "owner",
          "type": "address"
        },
        {
          "indexed": false,
          "internalType": "address",
          "name": "template",
          "type": "address"
        }
      ],
      "name": "SidechainDUCreated",
      "type": "event"
    },
    {
      "anonymous": false,
      "inputs": [
        {
          "indexed": false,
          "internalType": "uint256",
          "name": "amount",
          "type": "uint256"
        }
      ],
      "name": "UpdateDefaultNewMemberInitialEth",
      "type": "event"
    },
    {
      "anonymous": false,
      "inputs": [
        {
          "indexed": false,
          "internalType": "uint256",
          "name": "amount",
          "type": "uint256"
        }
      ],
      "name": "UpdateNewDUInitialEth",
      "type": "event"
    },
    {
      "anonymous": false,
      "inputs": [
        {
          "indexed": false,
          "internalType": "uint256",
          "name": "amount",
          "type": "uint256"
        }
      ],
      "name": "UpdateNewDUOwnerInitialEth",
      "type": "event"
    },
    {
      "inputs": [
        {
          "internalType": "address",
          "name": "_mediator",
          "type": "address"
        }
      ],
      "name": "amb",
      "outputs": [
        {
          "internalType": "contract IAMB",
          "name": "",
          "type": "address"
        }
      ],
      "stateMutability": "view",
      "type": "function"
    },
    {
      "inputs": [],
      "name": "claimOwnership",
      "outputs": [],
      "stateMutability": "nonpayable",
      "type": "function"
    },
    {
      "inputs": [],
      "name": "dataUnionSidechainTemplate",
      "outputs": [
        {
          "internalType": "address",
          "name": "",
          "type": "address"
        }
      ],
      "stateMutability": "view",
      "type": "function"
    },
    {
      "inputs": [],
      "name": "defaultNewMemberEth",
      "outputs": [
        {
          "internalType": "uint256",
          "name": "",
          "type": "uint256"
        }
      ],
      "stateMutability": "view",
      "type": "function"
    },
    {
      "inputs": [
        {
          "internalType": "address",
          "name": "token",
          "type": "address"
        },
        {
          "internalType": "address",
          "name": "mediator",
          "type": "address"
        },
        {
          "internalType": "address payable",
          "name": "owner",
          "type": "address"
        },
        {
          "internalType": "address[]",
          "name": "agents",
          "type": "address[]"
        },
        {
          "internalType": "uint256",
          "name": "initialAdminFeeFraction",
          "type": "uint256"
        },
        {
          "internalType": "uint256",
          "name": "initialDataUnionFeeFraction",
          "type": "uint256"
        },
        {
          "internalType": "address",
          "name": "initialDataUnionBeneficiary",
          "type": "address"
        }
      ],
      "name": "deployNewDUSidechain",
      "outputs": [
        {
          "internalType": "address",
          "name": "",
          "type": "address"
        }
      ],
      "stateMutability": "nonpayable",
      "type": "function"
    },
    {
      "inputs": [],
      "name": "newDUInitialEth",
      "outputs": [
        {
          "internalType": "uint256",
          "name": "",
          "type": "uint256"
        }
      ],
      "stateMutability": "view",
      "type": "function"
    },
    {
      "inputs": [],
      "name": "newDUOwnerInitialEth",
      "outputs": [
        {
          "internalType": "uint256",
          "name": "",
          "type": "uint256"
        }
      ],
      "stateMutability": "view",
      "type": "function"
    },
    {
      "inputs": [],
      "name": "owner",
      "outputs": [
        {
          "internalType": "address",
          "name": "",
          "type": "address"
        }
      ],
      "stateMutability": "view",
      "type": "function"
    },
    {
      "inputs": [],
      "name": "pendingOwner",
      "outputs": [
        {
          "internalType": "address",
          "name": "",
          "type": "address"
        }
      ],
      "stateMutability": "view",
      "type": "function"
    },
    {
      "inputs": [
        {
          "internalType": "uint256",
          "name": "val",
          "type": "uint256"
        }
      ],
      "name": "setNewDUInitialEth",
      "outputs": [],
      "stateMutability": "nonpayable",
      "type": "function"
    },
    {
      "inputs": [
        {
          "internalType": "uint256",
          "name": "val",
          "type": "uint256"
        }
      ],
      "name": "setNewDUOwnerInitialEth",
      "outputs": [],
      "stateMutability": "nonpayable",
      "type": "function"
    },
    {
      "inputs": [
        {
          "internalType": "uint256",
          "name": "val",
          "type": "uint256"
        }
      ],
      "name": "setNewMemberInitialEth",
      "outputs": [],
      "stateMutability": "nonpayable",
      "type": "function"
    },
    {
      "inputs": [
        {
          "internalType": "address",
          "name": "mainnetAddress",
          "type": "address"
        }
      ],
      "name": "sidechainAddress",
      "outputs": [
        {
          "internalType": "address",
          "name": "proxy",
          "type": "address"
        }
      ],
      "stateMutability": "view",
      "type": "function"
    },
    {
      "inputs": [
        {
          "internalType": "address",
          "name": "newOwner",
          "type": "address"
        }
      ],
      "name": "transferOwnership",
      "outputs": [],
      "stateMutability": "nonpayable",
      "type": "function"
    },
    {
      "stateMutability": "payable",
      "type": "receive"
    }
  ],
  "bytecode": "0x608060405234801561001057600080fd5b50604051610da6380380610da683398101604081905261002f91610062565b60008054336001600160a01b031991821617909155600280549091166001600160a01b0392909216919091179055610092565b60006020828403121561007457600080fd5b81516001600160a01b038116811461008b57600080fd5b9392505050565b610d05806100a16000396000f3fe6080604052600436106100e15760003560e01c8063c41c62c51161007f578063e30c397811610059578063e30c39781461023b578063f0ef0b061461025b578063f2fde38b1461027b578063f7c1329e1461029b57600080fd5b8063c41c62c5146101e5578063cfeef80714610205578063e22ab5ae1461022557600080fd5b80634e71e0c8116100bb5780634e71e0c81461016c57806389078b16146101815780638da5cb5b146101a1578063afc6224b146101c157600080fd5b806317c2a98c146100ed57806337dd8b051461012a5780634e51a8631461014c57600080fd5b366100e857005b600080fd5b3480156100f957600080fd5b5061010d610108366004610a0a565b6102b1565b6040516001600160a01b0390911681526020015b60405180910390f35b34801561013657600080fd5b5061014a610145366004610b78565b6102d6565b005b34801561015857600080fd5b5061014a610167366004610b78565b610345565b34801561017857600080fd5b5061014a6103a4565b34801561018d57600080fd5b5061010d61019c366004610a0a565b61045b565b3480156101ad57600080fd5b5060005461010d906001600160a01b031681565b3480156101cd57600080fd5b506101d760045481565b604051908152602001610121565b3480156101f157600080fd5b5061010d610200366004610a4b565b6104ce565b34801561021157600080fd5b5060025461010d906001600160a01b031681565b34801561023157600080fd5b506101d760055481565b34801561024757600080fd5b5060015461010d906001600160a01b031681565b34801561026757600080fd5b5061014a610276366004610b78565b61077e565b34801561028757600080fd5b5061014a610296366004610a0a565b6107dd565b3480156102a757600080fd5b506101d760035481565b6002546000906102d0906001600160a01b039081169030908516610829565b92915050565b6000546001600160a01b031633146103095760405162461bcd60e51b815260040161030090610c78565b60405180910390fd5b60058190556040518181527f7a78bdfbfb2e909f35c05c77e80038cfd0a22c704748eba8b1d20aab76cd5d9c906020015b60405180910390a150565b6000546001600160a01b0316331461036f5760405162461bcd60e51b815260040161030090610c78565b60038190556040518181527fa02ce31a8a8adcdc2e2811a0c7f5d1eb1aa920ca9fdfaeaebfe3a2163e69a6549060200161033a565b6001546001600160a01b031633146103f75760405162461bcd60e51b815260206004820152601660248201527532b93937b92fb7b7363ca832b73234b733a7bbb732b960511b6044820152606401610300565b600154600080546040516001600160a01b0393841693909116917f8be0079c531659141344cd1fd0a4f28419497f9722a3daafe3b4186f6b6457e091a360018054600080546001600160a01b03199081166001600160a01b03841617909155169055565b6000816001600160a01b031663cd5965836040518163ffffffff1660e01b815260040160206040518083038186803b15801561049657600080fd5b505afa1580156104aa573d6000803e3d6000fd5b505050506040513d601f19601f820116820180604052508101906102d09190610a2e565b60006104d98761045b565b6001600160a01b0316336001600160a01b0316146105245760405162461bcd60e51b815260206004820152600860248201526737b7363cafa0a6a160c11b6044820152606401610300565b600061052f8861045b565b6001600160a01b031663d67bdd256040518163ffffffff1660e01b815260040160206040518083038186803b15801561056757600080fd5b505afa15801561057b573d6000803e3d6000fd5b505050506040513d601f19601f8201168201806040525081019061059f9190610a2e565b6005546040519192506001600160a01b038316916000916105d3918b918e918e918d918991908e908e908e90602401610bcc565b60408051601f198184030181529190526020810180516001600160e01b031663619e446760e11b1790526002549091506000906106239061061c906001600160a01b0316610897565b83856108e9565b6002546040516001600160a01b039182168152919250808c1691818416918716907f90d0a5d098b9a181ff8ddc866f840cc210e5b91eaf27bc267d5822a0deafad259060200160405180910390a46003541580159061068457506003544710155b156106f0576003546040516001600160a01b0383169180156108fc02916000818181858888f19350505050156106f0577f517165f169759cdb94227d1c50f4f47895eb099a7f04a780f519bf1739face6f6003546040516106e791815260200190565b60405180910390a15b6004541580159061070357506004544710155b1561076f576004546040516001600160a01b038c169180156108fc02916000818181858888f193505050501561076f577f69e30c0bf438d0d3e0afb7f68d57ef394a0d5e8712f82fa00aa599e42574bc2a60045460405161076691815260200190565b60405180910390a15b9b9a5050505050505050505050565b6000546001600160a01b031633146107a85760405162461bcd60e51b815260040161030090610c78565b60048190556040518181527fe08bf32e9c0e823a76d0088908afba678014c513e2311bba64fc72f38ae809709060200161033a565b6000546001600160a01b031633146108075760405162461bcd60e51b815260040161030090610c78565b600180546001600160a01b0319166001600160a01b0392909216919091179055565b60008061083585610897565b8051602091820120604080516001600160f81b03198185015260609790971b6bffffffffffffffffffffffff19166021880152603587019590955260558087019190915284518087039091018152607590950190935250508151910120919050565b604080516057810190915260378152733d602d80600a3d3981f3363d3d373d3d3d363d7360601b602082015260609190911b60348201526e5af43d82803e903d91602b57fd5bf360881b604882015290565b825160009082816020870184f591506001600160a01b0382166109455760405162461bcd60e51b8152602060048201526014602482015273195c9c9bdc97d85b1c9958591e50dc99585d195960621b6044820152606401610300565b8351156109f2576000826001600160a01b0316856040516109669190610b91565b6000604051808303816000865af19150503d80600081146109a3576040519150601f19603f3d011682016040523d82523d6000602084013e6109a8565b606091505b50509050806109f05760405162461bcd60e51b815260206004820152601460248201527332b93937b92fb4b734ba34b0b634bd30ba34b7b760611b6044820152606401610300565b505b509392505050565b8035610a0581610cb7565b919050565b600060208284031215610a1c57600080fd5b8135610a2781610cb7565b9392505050565b600060208284031215610a4057600080fd5b8151610a2781610cb7565b600080600080600080600060e0888a031215610a6657600080fd5b8735610a7181610cb7565b9650602088810135610a8281610cb7565b96506040890135610a9281610cb7565b9550606089013567ffffffffffffffff80821115610aaf57600080fd5b818b0191508b601f830112610ac357600080fd5b813581811115610ad557610ad5610ca1565b8060051b604051601f19603f83011681018181108582111715610afa57610afa610ca1565b806040525080935082815285810193508585018f87848801011115610b1e57600080fd5b600095505b83861015610b4857610b34816109fa565b855260019590950194938601938601610b23565b50985050505060808a01359450505060a08801359150610b6a60c089016109fa565b905092959891949750929550565b600060208284031215610b8a57600080fd5b5035919050565b6000825160005b81811015610bb25760208186018101518583015201610b98565b81811115610bc1576000828501525b509190910192915050565b6001600160a01b038a8116825289811660208084019190915289821660408401526101206060840181905289519084018190526000926101408501928b810192855b81811015610c2c578451841686529482019493820193600101610c0e565b505050506001600160a01b03891660808501525090508560a08301528460c08301528360e0830152610c6a6101008301846001600160a01b03169052565b9a9950505050505050505050565b6020808252600f908201526e32b93937b92fb7b7363ca7bbb732b960891b604082015260600190565b634e487b7160e01b600052604160045260246000fd5b6001600160a01b0381168114610ccc57600080fd5b5056fea26469706673582212205dd965dd3ccd0725b6abc771e93e8f478d24256c1128b26d911385967dee7fbd64736f6c63430008060033",
  "linkReferences": {},
  "deployedLinkReferences": {}
}