{
  "_format": "hh-sol-artifact-1",
  "contractName": "DATAv2",
  "sourceName": "contracts/DATAv2.sol",
  "abi": [
    {
      "inputs": [],
      "stateMutability": "nonpayable",
      "type": "constructor"
    },
    {
      "anonymous": false,
      "inputs": [
        {
          "indexed": true,
          "internalType": "address",
          "name": "owner",
          "type": "address"
        },
        {
          "indexed": true,
          "internalType": "address",
          "name": "spender",
          "type": "address"
        },
        {
          "indexed": false,
          "internalType": "uint256",
          "name": "value",
          "type": "uint256"
        }
      ],
      "name": "Approval",
      "type": "event"
    },
    {
      "anonymous": false,
      "inputs": [
        {
          "indexed": true,
          "internalType": "bytes32",
          "name": "role",
          "type": "bytes32"
        },
        {
          "indexed": true,
          "internalType": "bytes32",
          "name": "previousAdminRole",
          "type": "bytes32"
        },
        {
          "indexed": true,
          "internalType": "bytes32",
          "name": "newAdminRole",
          "type": "bytes32"
        }
      ],
      "name": "RoleAdminChanged",
      "type": "event"
    },
    {
      "anonymous": false,
      "inputs": [
        {
          "indexed": true,
          "internalType": "bytes32",
          "name": "role",
          "type": "bytes32"
        },
        {
          "indexed": true,
          "internalType": "address",
          "name": "account",
          "type": "address"
        },
        {
          "indexed": true,
          "internalType": "address",
          "name": "sender",
          "type": "address"
        }
      ],
      "name": "RoleGranted",
      "type": "event"
    },
    {
      "anonymous": false,
      "inputs": [
        {
          "indexed": true,
          "internalType": "bytes32",
          "name": "role",
          "type": "bytes32"
        },
        {
          "indexed": true,
          "internalType": "address",
          "name": "account",
          "type": "address"
        },
        {
          "indexed": true,
          "internalType": "address",
          "name": "sender",
          "type": "address"
        }
      ],
      "name": "RoleRevoked",
      "type": "event"
    },
    {
      "anonymous": false,
      "inputs": [
        {
          "indexed": true,
          "internalType": "address",
          "name": "from",
          "type": "address"
        },
        {
          "indexed": true,
          "internalType": "address",
          "name": "to",
          "type": "address"
        },
        {
          "indexed": false,
          "internalType": "uint256",
          "name": "value",
          "type": "uint256"
        },
        {
          "indexed": false,
          "internalType": "bytes",
          "name": "data",
          "type": "bytes"
        }
      ],
      "name": "Transfer",
      "type": "event"
    },
    {
      "anonymous": false,
      "inputs": [
        {
          "indexed": true,
          "internalType": "address",
          "name": "from",
          "type": "address"
        },
        {
          "indexed": true,
          "internalType": "address",
          "name": "to",
          "type": "address"
        },
        {
          "indexed": false,
          "internalType": "uint256",
          "name": "value",
          "type": "uint256"
        }
      ],
      "name": "Transfer",
      "type": "event"
    },
    {
      "inputs": [],
      "name": "DEFAULT_ADMIN_ROLE",
      "outputs": [
        {
          "internalType": "bytes32",
          "name": "",
          "type": "bytes32"
        }
      ],
      "stateMutability": "view",
      "type": "function"
    },
    {
      "inputs": [],
      "name": "DOMAIN_SEPARATOR",
      "outputs": [
        {
          "internalType": "bytes32",
          "name": "",
          "type": "bytes32"
        }
      ],
      "stateMutability": "view",
      "type": "function"
    },
    {
      "inputs": [
        {
          "internalType": "address",
          "name": "owner",
          "type": "address"
        },
        {
          "internalType": "address",
          "name": "spender",
          "type": "address"
        }
      ],
      "name": "allowance",
      "outputs": [
        {
          "internalType": "uint256",
          "name": "",
          "type": "uint256"
        }
      ],
      "stateMutability": "view",
      "type": "function"
    },
    {
      "inputs": [
        {
          "internalType": "address",
          "name": "spender",
          "type": "address"
        },
        {
          "internalType": "uint256",
          "name": "amount",
          "type": "uint256"
        }
      ],
      "name": "approve",
      "outputs": [
        {
          "internalType": "bool",
          "name": "",
          "type": "bool"
        }
      ],
      "stateMutability": "nonpayable",
      "type": "function"
    },
    {
      "inputs": [
        {
          "internalType": "address",
          "name": "account",
          "type": "address"
        }
      ],
      "name": "balanceOf",
      "outputs": [
        {
          "internalType": "uint256",
          "name": "",
          "type": "uint256"
        }
      ],
      "stateMutability": "view",
      "type": "function"
    },
    {
      "inputs": [
        {
          "internalType": "uint256",
          "name": "amount",
          "type": "uint256"
        }
      ],
      "name": "burn",
      "outputs": [],
      "stateMutability": "nonpayable",
      "type": "function"
    },
    {
      "inputs": [
        {
          "internalType": "address",
          "name": "account",
          "type": "address"
        },
        {
          "internalType": "uint256",
          "name": "amount",
          "type": "uint256"
        }
      ],
      "name": "burnFrom",
      "outputs": [],
      "stateMutability": "nonpayable",
      "type": "function"
    },
    {
      "inputs": [],
      "name": "decimals",
      "outputs": [
        {
          "internalType": "uint8",
          "name": "",
          "type": "uint8"
        }
      ],
      "stateMutability": "view",
      "type": "function"
    },
    {
      "inputs": [
        {
          "internalType": "address",
          "name": "spender",
          "type": "address"
        },
        {
          "internalType": "uint256",
          "name": "subtractedValue",
          "type": "uint256"
        }
      ],
      "name": "decreaseAllowance",
      "outputs": [
        {
          "internalType": "bool",
          "name": "",
          "type": "bool"
        }
      ],
      "stateMutability": "nonpayable",
      "type": "function"
    },
    {
      "inputs": [
        {
          "internalType": "bytes32",
          "name": "role",
          "type": "bytes32"
        }
      ],
      "name": "getRoleAdmin",
      "outputs": [
        {
          "internalType": "bytes32",
          "name": "",
          "type": "bytes32"
        }
      ],
      "stateMutability": "view",
      "type": "function"
    },
    {
      "inputs": [
        {
          "internalType": "bytes32",
          "name": "role",
          "type": "bytes32"
        },
        {
          "internalType": "address",
          "name": "account",
          "type": "address"
        }
      ],
      "name": "grantRole",
      "outputs": [],
      "stateMutability": "nonpayable",
      "type": "function"
    },
    {
      "inputs": [
        {
          "internalType": "bytes32",
          "name": "role",
          "type": "bytes32"
        },
        {
          "internalType": "address",
          "name": "account",
          "type": "address"
        }
      ],
      "name": "hasRole",
      "outputs": [
        {
          "internalType": "bool",
          "name": "",
          "type": "bool"
        }
      ],
      "stateMutability": "view",
      "type": "function"
    },
    {
      "inputs": [
        {
          "internalType": "address",
          "name": "spender",
          "type": "address"
        },
        {
          "internalType": "uint256",
          "name": "addedValue",
          "type": "uint256"
        }
      ],
      "name": "increaseAllowance",
      "outputs": [
        {
          "internalType": "bool",
          "name": "",
          "type": "bool"
        }
      ],
      "stateMutability": "nonpayable",
      "type": "function"
    },
    {
      "inputs": [
        {
          "internalType": "address",
          "name": "to",
          "type": "address"
        },
        {
          "internalType": "uint256",
          "name": "amount",
          "type": "uint256"
        }
      ],
      "name": "mint",
      "outputs": [],
      "stateMutability": "nonpayable",
      "type": "function"
    },
    {
      "inputs": [],
      "name": "name",
      "outputs": [
        {
          "internalType": "string",
          "name": "",
          "type": "string"
        }
      ],
      "stateMutability": "view",
      "type": "function"
    },
    {
      "inputs": [
        {
          "internalType": "address",
          "name": "owner",
          "type": "address"
        }
      ],
      "name": "nonces",
      "outputs": [
        {
          "internalType": "uint256",
          "name": "",
          "type": "uint256"
        }
      ],
      "stateMutability": "view",
      "type": "function"
    },
    {
      "inputs": [
        {
          "internalType": "address",
          "name": "owner",
          "type": "address"
        },
        {
          "internalType": "address",
          "name": "spender",
          "type": "address"
        },
        {
          "internalType": "uint256",
          "name": "value",
          "type": "uint256"
        },
        {
          "internalType": "uint256",
          "name": "deadline",
          "type": "uint256"
        },
        {
          "internalType": "uint8",
          "name": "v",
          "type": "uint8"
        },
        {
          "internalType": "bytes32",
          "name": "r",
          "type": "bytes32"
        },
        {
          "internalType": "bytes32",
          "name": "s",
          "type": "bytes32"
        }
      ],
      "name": "permit",
      "outputs": [],
      "stateMutability": "nonpayable",
      "type": "function"
    },
    {
      "inputs": [
        {
          "internalType": "bytes32",
          "name": "role",
          "type": "bytes32"
        },
        {
          "internalType": "address",
          "name": "account",
          "type": "address"
        }
      ],
      "name": "renounceRole",
      "outputs": [],
      "stateMutability": "nonpayable",
      "type": "function"
    },
    {
      "inputs": [
        {
          "internalType": "bytes32",
          "name": "role",
          "type": "bytes32"
        },
        {
          "internalType": "address",
          "name": "account",
          "type": "address"
        }
      ],
      "name": "revokeRole",
      "outputs": [],
      "stateMutability": "nonpayable",
      "type": "function"
    },
    {
      "inputs": [
        {
          "internalType": "bytes4",
          "name": "interfaceId",
          "type": "bytes4"
        }
      ],
      "name": "supportsInterface",
      "outputs": [
        {
          "internalType": "bool",
          "name": "",
          "type": "bool"
        }
      ],
      "stateMutability": "view",
      "type": "function"
    },
    {
      "inputs": [],
      "name": "symbol",
      "outputs": [
        {
          "internalType": "string",
          "name": "",
          "type": "string"
        }
      ],
      "stateMutability": "view",
      "type": "function"
    },
    {
      "inputs": [],
      "name": "totalSupply",
      "outputs": [
        {
          "internalType": "uint256",
          "name": "",
          "type": "uint256"
        }
      ],
      "stateMutability": "view",
      "type": "function"
    },
    {
      "inputs": [
        {
          "internalType": "address",
          "name": "recipient",
          "type": "address"
        },
        {
          "internalType": "uint256",
          "name": "amount",
          "type": "uint256"
        }
      ],
      "name": "transfer",
      "outputs": [
        {
          "internalType": "bool",
          "name": "",
          "type": "bool"
        }
      ],
      "stateMutability": "nonpayable",
      "type": "function"
    },
    {
      "inputs": [
        {
          "internalType": "address",
          "name": "_to",
          "type": "address"
        },
        {
          "internalType": "uint256",
          "name": "_value",
          "type": "uint256"
        },
        {
          "internalType": "bytes",
          "name": "_data",
          "type": "bytes"
        }
      ],
      "name": "transferAndCall",
      "outputs": [
        {
          "internalType": "bool",
          "name": "success",
          "type": "bool"
        }
      ],
      "stateMutability": "nonpayable",
      "type": "function"
    },
    {
      "inputs": [
        {
          "internalType": "address",
          "name": "sender",
          "type": "address"
        },
        {
          "internalType": "address",
          "name": "recipient",
          "type": "address"
        },
        {
          "internalType": "uint256",
          "name": "amount",
          "type": "uint256"
        }
      ],
      "name": "transferFrom",
      "outputs": [
        {
          "internalType": "bool",
          "name": "",
          "type": "bool"
        }
      ],
      "stateMutability": "nonpayable",
      "type": "function"
    }
  ],
  "bytecode": "0x6101406040527f6e71edae12b1b97f4d1f60370fef10105fa2faae0126114a169c64845d6126c9610120908152503480156200003a57600080fd5b506040518060400160405280600781526020017f53747265616d7200000000000000000000000000000000000000000000000000815250806040518060400160405280600181526020017f31000000000000000000000000000000000000000000000000000000000000008152506040518060400160405280600781526020017f53747265616d72000000000000000000000000000000000000000000000000008152506040518060400160405280600481526020017f444154410000000000000000000000000000000000000000000000000000000081525081600390805190602001906200012c929190620003a7565b50806004908051906020019062000145929190620003a7565b50505060008280519060200120905060008280519060200120905060007f8b73c3c69bb8fe3d512ecc4cf759cc79239f7b179b0ffacaa9a75d522b39400f90508260c081815250508160e081815250504660a08181525050620001b0818484620001f060201b60201c565b60808181525050806101008181525050505050505050620001ea6000801b620001de6200022c60201b60201c565b6200023460201b60201c565b62000594565b600083838346306040516020016200020d9594939291906200048a565b6040516020818303038152906040528051906020012090509392505050565b600033905090565b6200024682826200024a60201b60201c565b5050565b6200025c82826200033c60201b60201c565b620003385760016006600084815260200190815260200160002060000160008373ffffffffffffffffffffffffffffffffffffffff1673ffffffffffffffffffffffffffffffffffffffff16815260200190815260200160002060006101000a81548160ff021916908315150217905550620002dd6200022c60201b60201c565b73ffffffffffffffffffffffffffffffffffffffff168173ffffffffffffffffffffffffffffffffffffffff16837f2f8788117e7eff1d82e926ec794901d17c78024a50270940304540a733656f0d60405160405180910390a45b5050565b60006006600084815260200190815260200160002060000160008373ffffffffffffffffffffffffffffffffffffffff1673ffffffffffffffffffffffffffffffffffffffff16815260200190815260200160002060009054906101000a900460ff16905092915050565b828054620003b5906200052f565b90600052602060002090601f016020900481019282620003d9576000855562000425565b82601f10620003f457805160ff191683800117855562000425565b8280016001018555821562000425579182015b828111156200042457825182559160200191906001019062000407565b5b50905062000434919062000438565b5090565b5b808211156200045357600081600090555060010162000439565b5090565b6200046281620004e7565b82525050565b6200047381620004fb565b82525050565b620004848162000525565b82525050565b600060a082019050620004a1600083018862000468565b620004b0602083018762000468565b620004bf604083018662000468565b620004ce606083018562000479565b620004dd608083018462000457565b9695505050505050565b6000620004f48262000505565b9050919050565b6000819050919050565b600073ffffffffffffffffffffffffffffffffffffffff82169050919050565b6000819050919050565b600060028204905060018216806200054857607f821691505b602082108114156200055f576200055e62000565565b5b50919050565b7f4e487b7100000000000000000000000000000000000000000000000000000000600052602260045260246000fd5b60805160a05160c05160e051610100516101205161319c620005e46000396000610e55015260006116b6015260006116f8015260006116d7015260006116630152600061168b015261319c6000f3fe608060405234801561001057600080fd5b50600436106101735760003560e01c806340c10f19116100de57806395d89b4111610097578063a9059cbb11610071578063a9059cbb14610498578063d505accf146104c8578063d547741f146104e4578063dd62ed3e1461050057610173565b806395d89b411461042c578063a217fddf1461044a578063a457c2d71461046857610173565b806340c10f191461034857806342966c681461036457806370a082311461038057806379cc6790146103b05780637ecebe00146103cc57806391d14854146103fc57610173565b80632f2ff15d116101305780632f2ff15d14610274578063313ce567146102905780633644e515146102ae57806336568abe146102cc57806339509351146102e85780634000aea01461031857610173565b806301ffc9a71461017857806306fdde03146101a8578063095ea7b3146101c657806318160ddd146101f657806323b872dd14610214578063248a9ca314610244575b600080fd5b610192600480360381019061018d9190612079565b610530565b60405161019f91906124e9565b60405180910390f35b6101b06105aa565b6040516101bd9190612618565b60405180910390f35b6101e060048036038101906101db9190611f6c565b61063c565b6040516101ed91906124e9565b60405180910390f35b6101fe61065a565b60405161020b91906128ba565b60405180910390f35b61022e60048036038101906102299190611e7f565b610664565b60405161023b91906124e9565b60405180910390f35b61025e60048036038101906102599190612014565b610765565b60405161026b9190612504565b60405180910390f35b61028e6004803603810190610289919061203d565b610785565b005b6102986107eb565b6040516102a59190612907565b60405180910390f35b6102b66107f4565b6040516102c39190612504565b60405180910390f35b6102e660048036038101906102e1919061203d565b610803565b005b61030260048036038101906102fd9190611f6c565b610886565b60405161030f91906124e9565b60405180910390f35b610332600480360381019061032d9190611fa8565b610932565b60405161033f91906124e9565b60405180910390f35b610362600480360381019061035d9190611f6c565b610a4a565b005b61037e600480360381019061037991906120a2565b610ac8565b005b61039a60048036038101906103959190611e1a565b610adc565b6040516103a791906128ba565b60405180910390f35b6103ca60048036038101906103c59190611f6c565b610b24565b005b6103e660048036038101906103e19190611e1a565b610ba8565b6040516103f391906128ba565b60405180910390f35b6104166004803603810190610411919061203d565b610bf8565b60405161042391906124e9565b60405180910390f35b610434610c63565b6040516104419190612618565b60405180910390f35b610452610cf5565b60405161045f9190612504565b60405180910390f35b610482600480360381019061047d9190611f6c565b610cfc565b60405161048f91906124e9565b60405180910390f35b6104b260048036038101906104ad9190611f6c565b610df0565b6040516104bf91906124e9565b60405180910390f35b6104e260048036038101906104dd9190611ece565b610e0e565b005b6104fe60048036038101906104f9919061203d565b610fd5565b005b61051a60048036038101906105159190611e43565b61103b565b60405161052791906128ba565b60405180910390f35b60007f7965db0b000000000000000000000000000000000000000000000000000000007bffffffffffffffffffffffffffffffffffffffffffffffffffffffff1916827bffffffffffffffffffffffffffffffffffffffffffffffffffffffff191614806105a357506105a2826110c2565b5b9050919050565b6060600380546105b990612ab1565b80601f01602080910402602001604051908101604052809291908181526020018280546105e590612ab1565b80156106325780601f1061060757610100808354040283529160200191610632565b820191906000526020600020905b81548152906001019060200180831161061557829003601f168201915b5050505050905090565b600061065061064961112c565b8484611134565b6001905092915050565b6000600254905090565b60006106718484846112ff565b6000600160008673ffffffffffffffffffffffffffffffffffffffff1673ffffffffffffffffffffffffffffffffffffffff16815260200190815260200160002060006106bc61112c565b73ffffffffffffffffffffffffffffffffffffffff1673ffffffffffffffffffffffffffffffffffffffff1681526020019081526020016000205490508281101561073c576040517f08c379a0000000000000000000000000000000000000000000000000000000008152600401610733906127ba565b60405180910390fd5b6107598561074861112c565b858461075491906129b0565b611134565b60019150509392505050565b600060066000838152602001908152602001600020600101549050919050565b61079e61079183610765565b61079961112c565b610bf8565b6107dd576040517f08c379a00000000000000000000000000000000000000000000000000000000081526004016107d49061269a565b60405180910390fd5b6107e7828261157e565b5050565b60006012905090565b60006107fe61165f565b905090565b61080b61112c565b73ffffffffffffffffffffffffffffffffffffffff168173ffffffffffffffffffffffffffffffffffffffff1614610878576040517f08c379a000000000000000000000000000000000000000000000000000000000815260040161086f9061287a565b60405180910390fd5b6108828282611722565b5050565b600061092861089361112c565b8484600160006108a161112c565b73ffffffffffffffffffffffffffffffffffffffff1673ffffffffffffffffffffffffffffffffffffffff16815260200190815260200160002060008873ffffffffffffffffffffffffffffffffffffffff1673ffffffffffffffffffffffffffffffffffffffff16815260200190815260200160002054610923919061295a565b611134565b6001905092915050565b600061093e8585610df0565b508473ffffffffffffffffffffffffffffffffffffffff1661095e61112c565b73ffffffffffffffffffffffffffffffffffffffff167fe19260aff97b920c7df27010903aeb9c8d2be5d310a2c67824cf3f15396e4c168686866040516109a7939291906128d5565b60405180910390a36000853b90506000811115610a3d5760008690508073ffffffffffffffffffffffffffffffffffffffff1663a4c0ed366109e761112c565b8888886040518563ffffffff1660e01b8152600401610a0994939291906124a9565b600060405180830381600087803b158015610a2357600080fd5b505af1158015610a37573d6000803e3d6000fd5b50505050505b6001915050949350505050565b610a7b7f9f2df0fed2c77648de5860a4cc508cd0818c85b8b8a1ab4ceeef8d981c8956a6610a7661112c565b610bf8565b610aba576040517f08c379a0000000000000000000000000000000000000000000000000000000008152600401610ab19061267a565b60405180910390fd5b610ac48282611804565b5050565b610ad9610ad361112c565b82611958565b50565b60008060008373ffffffffffffffffffffffffffffffffffffffff1673ffffffffffffffffffffffffffffffffffffffff168152602001908152602001600020549050919050565b6000610b3783610b3261112c565b61103b565b905081811015610b7c576040517f08c379a0000000000000000000000000000000000000000000000000000000008152600401610b73906127da565b60405180910390fd5b610b9983610b8861112c565b8484610b9491906129b0565b611134565b610ba38383611958565b505050565b6000610bf1600560008473ffffffffffffffffffffffffffffffffffffffff1673ffffffffffffffffffffffffffffffffffffffff168152602001908152602001600020611b2c565b9050919050565b60006006600084815260200190815260200160002060000160008373ffffffffffffffffffffffffffffffffffffffff1673ffffffffffffffffffffffffffffffffffffffff16815260200190815260200160002060009054906101000a900460ff16905092915050565b606060048054610c7290612ab1565b80601f0160208091040260200160405190810160405280929190818152602001828054610c9e90612ab1565b8015610ceb5780601f10610cc057610100808354040283529160200191610ceb565b820191906000526020600020905b815481529060010190602001808311610cce57829003601f168201915b5050505050905090565b6000801b81565b60008060016000610d0b61112c565b73ffffffffffffffffffffffffffffffffffffffff1673ffffffffffffffffffffffffffffffffffffffff16815260200190815260200160002060008573ffffffffffffffffffffffffffffffffffffffff1673ffffffffffffffffffffffffffffffffffffffff16815260200190815260200160002054905082811015610dc8576040517f08c379a0000000000000000000000000000000000000000000000000000000008152600401610dbf9061285a565b60405180910390fd5b610de5610dd361112c565b858584610de091906129b0565b611134565b600191505092915050565b6000610e04610dfd61112c565b84846112ff565b6001905092915050565b83421115610e51576040517f08c379a0000000000000000000000000000000000000000000000000000000008152600401610e48906126fa565b60405180910390fd5b60007f0000000000000000000000000000000000000000000000000000000000000000888888610ebe600560008e73ffffffffffffffffffffffffffffffffffffffff1673ffffffffffffffffffffffffffffffffffffffff168152602001908152602001600020611b2c565b89604051602001610ed49695949392919061251f565b6040516020818303038152906040528051906020012090506000610ef782611b3a565b90506000610f0782878787611b54565b90508973ffffffffffffffffffffffffffffffffffffffff168173ffffffffffffffffffffffffffffffffffffffff1614610f77576040517f08c379a0000000000000000000000000000000000000000000000000000000008152600401610f6e9061279a565b60405180910390fd5b610fbe600560008c73ffffffffffffffffffffffffffffffffffffffff1673ffffffffffffffffffffffffffffffffffffffff168152602001908152602001600020611cdf565b610fc98a8a8a611134565b50505050505050505050565b610fee610fe183610765565b610fe961112c565b610bf8565b61102d576040517f08c379a00000000000000000000000000000000000000000000000000000000081526004016110249061275a565b60405180910390fd5b6110378282611722565b5050565b6000600160008473ffffffffffffffffffffffffffffffffffffffff1673ffffffffffffffffffffffffffffffffffffffff16815260200190815260200160002060008373ffffffffffffffffffffffffffffffffffffffff1673ffffffffffffffffffffffffffffffffffffffff16815260200190815260200160002054905092915050565b60007f01ffc9a7000000000000000000000000000000000000000000000000000000007bffffffffffffffffffffffffffffffffffffffffffffffffffffffff1916827bffffffffffffffffffffffffffffffffffffffffffffffffffffffff1916149050919050565b600033905090565b600073ffffffffffffffffffffffffffffffffffffffff168373ffffffffffffffffffffffffffffffffffffffff1614156111a4576040517f08c379a000000000000000000000000000000000000000000000000000000000815260040161119b9061283a565b60405180910390fd5b600073ffffffffffffffffffffffffffffffffffffffff168273ffffffffffffffffffffffffffffffffffffffff161415611214576040517f08c379a000000000000000000000000000000000000000000000000000000000815260040161120b906126da565b60405180910390fd5b80600160008573ffffffffffffffffffffffffffffffffffffffff1673ffffffffffffffffffffffffffffffffffffffff16815260200190815260200160002060008473ffffffffffffffffffffffffffffffffffffffff1673ffffffffffffffffffffffffffffffffffffffff168152602001908152602001600020819055508173ffffffffffffffffffffffffffffffffffffffff168373ffffffffffffffffffffffffffffffffffffffff167f8c5be1e5ebec7d5bd14f71427d1e84f3dd0314c0f7b2291e5b200ac8c7c3b925836040516112f291906128ba565b60405180910390a3505050565b600073ffffffffffffffffffffffffffffffffffffffff168373ffffffffffffffffffffffffffffffffffffffff16141561136f576040517f08c379a00000000000000000000000000000000000000000000000000000000081526004016113669061281a565b60405180910390fd5b600073ffffffffffffffffffffffffffffffffffffffff168273ffffffffffffffffffffffffffffffffffffffff1614156113df576040517f08c379a00000000000000000000000000000000000000000000000000000000081526004016113d69061265a565b60405180910390fd5b6113ea838383611cf5565b60008060008573ffffffffffffffffffffffffffffffffffffffff1673ffffffffffffffffffffffffffffffffffffffff16815260200190815260200160002054905081811015611470576040517f08c379a00000000000000000000000000000000000000000000000000000000081526004016114679061271a565b60405180910390fd5b818161147c91906129b0565b6000808673ffffffffffffffffffffffffffffffffffffffff1673ffffffffffffffffffffffffffffffffffffffff16815260200190815260200160002081905550816000808573ffffffffffffffffffffffffffffffffffffffff1673ffffffffffffffffffffffffffffffffffffffff168152602001908152602001600020600082825461150c919061295a565b925050819055508273ffffffffffffffffffffffffffffffffffffffff168473ffffffffffffffffffffffffffffffffffffffff167fddf252ad1be2c89b69c2b068fc378daa952ba7f163c4a11628f55a4df523b3ef8460405161157091906128ba565b60405180910390a350505050565b6115888282610bf8565b61165b5760016006600084815260200190815260200160002060000160008373ffffffffffffffffffffffffffffffffffffffff1673ffffffffffffffffffffffffffffffffffffffff16815260200190815260200160002060006101000a81548160ff02191690831515021790555061160061112c565b73ffffffffffffffffffffffffffffffffffffffff168173ffffffffffffffffffffffffffffffffffffffff16837f2f8788117e7eff1d82e926ec794901d17c78024a50270940304540a733656f0d60405160405180910390a45b5050565b60007f00000000000000000000000000000000000000000000000000000000000000004614156116b1577f0000000000000000000000000000000000000000000000000000000000000000905061171f565b61171c7f00000000000000000000000000000000000000000000000000000000000000007f00000000000000000000000000000000000000000000000000000000000000007f0000000000000000000000000000000000000000000000000000000000000000611cfa565b90505b90565b61172c8282610bf8565b156118005760006006600084815260200190815260200160002060000160008373ffffffffffffffffffffffffffffffffffffffff1673ffffffffffffffffffffffffffffffffffffffff16815260200190815260200160002060006101000a81548160ff0219169083151502179055506117a561112c565b73ffffffffffffffffffffffffffffffffffffffff168173ffffffffffffffffffffffffffffffffffffffff16837ff6391f5c32d9c69d2a47ea670b442974b53935d1edc7fd64eb21e047a839171b60405160405180910390a45b5050565b600073ffffffffffffffffffffffffffffffffffffffff168273ffffffffffffffffffffffffffffffffffffffff161415611874576040517f08c379a000000000000000000000000000000000000000000000000000000000815260040161186b9061289a565b60405180910390fd5b61188060008383611cf5565b8060026000828254611892919061295a565b92505081905550806000808473ffffffffffffffffffffffffffffffffffffffff1673ffffffffffffffffffffffffffffffffffffffff16815260200190815260200160002060008282546118e7919061295a565b925050819055508173ffffffffffffffffffffffffffffffffffffffff16600073ffffffffffffffffffffffffffffffffffffffff167fddf252ad1be2c89b69c2b068fc378daa952ba7f163c4a11628f55a4df523b3ef8360405161194c91906128ba565b60405180910390a35050565b600073ffffffffffffffffffffffffffffffffffffffff168273ffffffffffffffffffffffffffffffffffffffff1614156119c8576040517f08c379a00000000000000000000000000000000000000000000000000000000081526004016119bf906127fa565b60405180910390fd5b6119d482600083611cf5565b60008060008473ffffffffffffffffffffffffffffffffffffffff1673ffffffffffffffffffffffffffffffffffffffff16815260200190815260200160002054905081811015611a5a576040517f08c379a0000000000000000000000000000000000000000000000000000000008152600401611a51906126ba565b60405180910390fd5b8181611a6691906129b0565b6000808573ffffffffffffffffffffffffffffffffffffffff1673ffffffffffffffffffffffffffffffffffffffff168152602001908152602001600020819055508160026000828254611aba91906129b0565b92505081905550600073ffffffffffffffffffffffffffffffffffffffff168373ffffffffffffffffffffffffffffffffffffffff167fddf252ad1be2c89b69c2b068fc378daa952ba7f163c4a11628f55a4df523b3ef84604051611b1f91906128ba565b60405180910390a3505050565b600081600001549050919050565b6000611b4d611b4761165f565b83611d34565b9050919050565b60007f7fffffffffffffffffffffffffffffff5d576e7357a4501ddfe92f46681b20a08260001c1115611bbc576040517f08c379a0000000000000000000000000000000000000000000000000000000008152600401611bb39061273a565b60405180910390fd5b601b8460ff161480611bd15750601c8460ff16145b611c10576040517f08c379a0000000000000000000000000000000000000000000000000000000008152600401611c079061277a565b60405180910390fd5b600060018686868660405160008152602001604052604051611c3594939291906125d3565b6020604051602081039080840390855afa158015611c57573d6000803e3d6000fd5b505050602060405103519050600073ffffffffffffffffffffffffffffffffffffffff168173ffffffffffffffffffffffffffffffffffffffff161415611cd3576040517f08c379a0000000000000000000000000000000000000000000000000000000008152600401611cca9061263a565b60405180910390fd5b80915050949350505050565b6001816000016000828254019250508190555050565b505050565b60008383834630604051602001611d15959493929190612580565b6040516020818303038152906040528051906020012090509392505050565b60008282604051602001611d49929190612472565b60405160208183030381529060405280519060200120905092915050565b600081359050611d76816130f3565b92915050565b600081359050611d8b8161310a565b92915050565b600081359050611da081613121565b92915050565b60008083601f840112611db857600080fd5b8235905067ffffffffffffffff811115611dd157600080fd5b602083019150836001820283011115611de957600080fd5b9250929050565b600081359050611dff81613138565b92915050565b600081359050611e148161314f565b92915050565b600060208284031215611e2c57600080fd5b6000611e3a84828501611d67565b91505092915050565b60008060408385031215611e5657600080fd5b6000611e6485828601611d67565b9250506020611e7585828601611d67565b9150509250929050565b600080600060608486031215611e9457600080fd5b6000611ea286828701611d67565b9350506020611eb386828701611d67565b9250506040611ec486828701611df0565b9150509250925092565b600080600080600080600060e0888a031215611ee957600080fd5b6000611ef78a828b01611d67565b9750506020611f088a828b01611d67565b9650506040611f198a828b01611df0565b9550506060611f2a8a828b01611df0565b9450506080611f3b8a828b01611e05565b93505060a0611f4c8a828b01611d7c565b92505060c0611f5d8a828b01611d7c565b91505092959891949750929550565b60008060408385031215611f7f57600080fd5b6000611f8d85828601611d67565b9250506020611f9e85828601611df0565b9150509250929050565b60008060008060608587031215611fbe57600080fd5b6000611fcc87828801611d67565b9450506020611fdd87828801611df0565b935050604085013567ffffffffffffffff811115611ffa57600080fd5b61200687828801611da6565b925092505092959194509250565b60006020828403121561202657600080fd5b600061203484828501611d7c565b91505092915050565b6000806040838503121561205057600080fd5b600061205e85828601611d7c565b925050602061206f85828601611d67565b9150509250929050565b60006020828403121561208b57600080fd5b600061209984828501611d91565b91505092915050565b6000602082840312156120b457600080fd5b60006120c284828501611df0565b91505092915050565b6120d4816129e4565b82525050565b6120e3816129f6565b82525050565b6120f281612a02565b82525050565b61210961210482612a02565b612ae3565b82525050565b600061211b838561292d565b9350612128838584612a6f565b61213183612b4b565b840190509392505050565b600061214782612922565b612151818561293e565b9350612161818560208601612a7e565b61216a81612b4b565b840191505092915050565b600061218260188361293e565b915061218d82612b5c565b602082019050919050565b60006121a560238361293e565b91506121b082612b85565b604082019050919050565b60006121c860148361293e565b91506121d382612bd4565b602082019050919050565b60006121eb602f8361293e565b91506121f682612bfd565b604082019050919050565b600061220e60228361293e565b915061221982612c4c565b604082019050919050565b600061223160228361293e565b915061223c82612c9b565b604082019050919050565b600061225460028361294f565b915061225f82612cea565b600282019050919050565b6000612277601d8361293e565b915061228282612d13565b602082019050919050565b600061229a60268361293e565b91506122a582612d3c565b604082019050919050565b60006122bd60228361293e565b91506122c882612d8b565b604082019050919050565b60006122e060308361293e565b91506122eb82612dda565b604082019050919050565b600061230360228361293e565b915061230e82612e29565b604082019050919050565b6000612326601e8361293e565b915061233182612e78565b602082019050919050565b600061234960288361293e565b915061235482612ea1565b604082019050919050565b600061236c60248361293e565b915061237782612ef0565b604082019050919050565b600061238f60218361293e565b915061239a82612f3f565b604082019050919050565b60006123b260258361293e565b91506123bd82612f8e565b604082019050919050565b60006123d560248361293e565b91506123e082612fdd565b604082019050919050565b60006123f860258361293e565b91506124038261302c565b604082019050919050565b600061241b602f8361293e565b91506124268261307b565b604082019050919050565b600061243e601f8361293e565b9150612449826130ca565b602082019050919050565b61245d81612a58565b82525050565b61246c81612a62565b82525050565b600061247d82612247565b915061248982856120f8565b60208201915061249982846120f8565b6020820191508190509392505050565b60006060820190506124be60008301876120cb565b6124cb6020830186612454565b81810360408301526124de81848661210f565b905095945050505050565b60006020820190506124fe60008301846120da565b92915050565b600060208201905061251960008301846120e9565b92915050565b600060c08201905061253460008301896120e9565b61254160208301886120cb565b61254e60408301876120cb565b61255b6060830186612454565b6125686080830185612454565b61257560a0830184612454565b979650505050505050565b600060a08201905061259560008301886120e9565b6125a260208301876120e9565b6125af60408301866120e9565b6125bc6060830185612454565b6125c960808301846120cb565b9695505050505050565b60006080820190506125e860008301876120e9565b6125f56020830186612463565b61260260408301856120e9565b61260f60608301846120e9565b95945050505050565b60006020820190508181036000830152612632818461213c565b905092915050565b6000602082019050818103600083015261265381612175565b9050919050565b6000602082019050818103600083015261267381612198565b9050919050565b60006020820190508181036000830152612693816121bb565b9050919050565b600060208201905081810360008301526126b3816121de565b9050919050565b600060208201905081810360008301526126d381612201565b9050919050565b600060208201905081810360008301526126f381612224565b9050919050565b600060208201905081810360008301526127138161226a565b9050919050565b600060208201905081810360008301526127338161228d565b9050919050565b60006020820190508181036000830152612753816122b0565b9050919050565b60006020820190508181036000830152612773816122d3565b9050919050565b60006020820190508181036000830152612793816122f6565b9050919050565b600060208201905081810360008301526127b381612319565b9050919050565b600060208201905081810360008301526127d38161233c565b9050919050565b600060208201905081810360008301526127f38161235f565b9050919050565b6000602082019050818103600083015261281381612382565b9050919050565b60006020820190508181036000830152612833816123a5565b9050919050565b60006020820190508181036000830152612853816123c8565b9050919050565b60006020820190508181036000830152612873816123eb565b9050919050565b600060208201905081810360008301526128938161240e565b9050919050565b600060208201905081810360008301526128b381612431565b9050919050565b60006020820190506128cf6000830184612454565b92915050565b60006040820190506128ea6000830186612454565b81810360208301526128fd81848661210f565b9050949350505050565b600060208201905061291c6000830184612463565b92915050565b600081519050919050565b600082825260208201905092915050565b600082825260208201905092915050565b600081905092915050565b600061296582612a58565b915061297083612a58565b9250827fffffffffffffffffffffffffffffffffffffffffffffffffffffffffffffffff038211156129a5576129a4612aed565b5b828201905092915050565b60006129bb82612a58565b91506129c683612a58565b9250828210156129d9576129d8612aed565b5b828203905092915050565b60006129ef82612a38565b9050919050565b60008115159050919050565b6000819050919050565b60007fffffffff0000000000000000000000000000000000000000000000000000000082169050919050565b600073ffffffffffffffffffffffffffffffffffffffff82169050919050565b6000819050919050565b600060ff82169050919050565b82818337600083830152505050565b60005b83811015612a9c578082015181840152602081019050612a81565b83811115612aab576000848401525b50505050565b60006002820490506001821680612ac957607f821691505b60208210811415612add57612adc612b1c565b5b50919050565b6000819050919050565b7f4e487b7100000000000000000000000000000000000000000000000000000000600052601160045260246000fd5b7f4e487b7100000000000000000000000000000000000000000000000000000000600052602260045260246000fd5b6000601f19601f8301169050919050565b7f45434453413a20696e76616c6964207369676e61747572650000000000000000600082015250565b7f45524332303a207472616e7366657220746f20746865207a65726f206164647260008201527f6573730000000000000000000000000000000000000000000000000000000000602082015250565b7f53656e646572206973206e6f74206d696e746572000000000000000000000000600082015250565b7f416363657373436f6e74726f6c3a2073656e646572206d75737420626520616e60008201527f2061646d696e20746f206772616e740000000000000000000000000000000000602082015250565b7f45524332303a206275726e20616d6f756e7420657863656564732062616c616e60008201527f6365000000000000000000000000000000000000000000000000000000000000602082015250565b7f45524332303a20617070726f766520746f20746865207a65726f20616464726560008201527f7373000000000000000000000000000000000000000000000000000000000000602082015250565b7f1901000000000000000000000000000000000000000000000000000000000000600082015250565b7f45524332305065726d69743a206578706972656420646561646c696e65000000600082015250565b7f45524332303a207472616e7366657220616d6f756e742065786365656473206260008201527f616c616e63650000000000000000000000000000000000000000000000000000602082015250565b7f45434453413a20696e76616c6964207369676e6174757265202773272076616c60008201527f7565000000000000000000000000000000000000000000000000000000000000602082015250565b7f416363657373436f6e74726f6c3a2073656e646572206d75737420626520616e60008201527f2061646d696e20746f207265766f6b6500000000000000000000000000000000602082015250565b7f45434453413a20696e76616c6964207369676e6174757265202776272076616c60008201527f7565000000000000000000000000000000000000000000000000000000000000602082015250565b7f45524332305065726d69743a20696e76616c6964207369676e61747572650000600082015250565b7f45524332303a207472616e7366657220616d6f756e742065786365656473206160008201527f6c6c6f77616e6365000000000000000000000000000000000000000000000000602082015250565b7f45524332303a206275726e20616d6f756e74206578636565647320616c6c6f7760008201527f616e636500000000000000000000000000000000000000000000000000000000602082015250565b7f45524332303a206275726e2066726f6d20746865207a65726f2061646472657360008201527f7300000000000000000000000000000000000000000000000000000000000000602082015250565b7f45524332303a207472616e736665722066726f6d20746865207a65726f20616460008201527f6472657373000000000000000000000000000000000000000000000000000000602082015250565b7f45524332303a20617070726f76652066726f6d20746865207a65726f2061646460008201527f7265737300000000000000000000000000000000000000000000000000000000602082015250565b7f45524332303a2064656372656173656420616c6c6f77616e63652062656c6f7760008201527f207a65726f000000000000000000000000000000000000000000000000000000602082015250565b7f416363657373436f6e74726f6c3a2063616e206f6e6c792072656e6f756e636560008201527f20726f6c657320666f722073656c660000000000000000000000000000000000602082015250565b7f45524332303a206d696e7420746f20746865207a65726f206164647265737300600082015250565b6130fc816129e4565b811461310757600080fd5b50565b61311381612a02565b811461311e57600080fd5b50565b61312a81612a0c565b811461313557600080fd5b50565b61314181612a58565b811461314c57600080fd5b50565b61315881612a62565b811461316357600080fd5b5056fea2646970667358221220d42b12d0d6d39651a24d05f4e848d7db20dcb5bf9fcf018339298461cd070ea964736f6c63430008030033",
  "linkReferences": {},
  "deployedLinkReferences": {}
}