{
  "_format": "hh-sol-artifact-1",
  "contractName": "DataUnionSidechain",
  "sourceName": "contracts/DataUnionSidechain.sol",
  "abi": [
    {
      "inputs": [],
      "stateMutability": "nonpayable",
      "type": "constructor"
    },
    {
      "anonymous": false,
      "inputs": [
        {
          "indexed": true,
          "internalType": "address",
          "name": "current",
          "type": "address"
        },
        {
          "indexed": true,
          "internalType": "address",
          "name": "old",
          "type": "address"
        }
      ],
      "name": "DataUnionBeneficiaryChanged",
      "type": "event"
    },
    {
      "anonymous": false,
      "inputs": [
        {
          "indexed": true,
          "internalType": "address",
          "name": "member",
          "type": "address"
        },
        {
          "indexed": false,
          "internalType": "uint256",
          "name": "amount",
          "type": "uint256"
        }
      ],
      "name": "EarningsWithdrawn",
      "type": "event"
    },
    {
      "anonymous": false,
      "inputs": [
        {
          "indexed": false,
          "internalType": "uint256",
          "name": "adminFee",
          "type": "uint256"
        },
        {
          "indexed": false,
          "internalType": "uint256",
          "name": "dataUnionFee",
          "type": "uint256"
        }
      ],
      "name": "FeesCharged",
      "type": "event"
    },
    {
      "anonymous": false,
      "inputs": [
        {
          "indexed": false,
          "internalType": "uint256",
          "name": "adminFee",
          "type": "uint256"
        },
        {
          "indexed": false,
          "internalType": "uint256",
          "name": "dataUnionFee",
          "type": "uint256"
        }
      ],
      "name": "FeesSet",
      "type": "event"
    },
    {
      "anonymous": false,
      "inputs": [
        {
          "indexed": true,
          "internalType": "contract IJoinListener",
          "name": "listener",
          "type": "address"
        }
      ],
      "name": "JoinListenerAdded",
      "type": "event"
    },
    {
      "anonymous": false,
      "inputs": [
        {
          "indexed": true,
          "internalType": "contract IJoinListener",
          "name": "listener",
          "type": "address"
        }
      ],
      "name": "JoinListenerRemoved",
      "type": "event"
    },
    {
      "anonymous": false,
      "inputs": [
        {
          "indexed": true,
          "internalType": "address",
          "name": "agent",
          "type": "address"
        }
      ],
      "name": "JoinPartAgentAdded",
      "type": "event"
    },
    {
      "anonymous": false,
      "inputs": [
        {
          "indexed": true,
          "internalType": "address",
          "name": "agent",
          "type": "address"
        }
      ],
      "name": "JoinPartAgentRemoved",
      "type": "event"
    },
    {
      "anonymous": false,
      "inputs": [
        {
          "indexed": true,
          "internalType": "address",
          "name": "member",
          "type": "address"
        }
      ],
      "name": "MemberJoined",
      "type": "event"
    },
    {
      "anonymous": false,
      "inputs": [
        {
          "indexed": true,
          "internalType": "address",
          "name": "member",
          "type": "address"
        },
        {
          "indexed": true,
          "internalType": "enum LeaveConditionCode",
          "name": "leaveConditionCode",
          "type": "uint8"
        }
      ],
      "name": "MemberParted",
      "type": "event"
    },
    {
      "anonymous": false,
      "inputs": [
        {
          "indexed": false,
          "internalType": "uint256",
          "name": "earningsPerMember",
          "type": "uint256"
        },
        {
          "indexed": false,
          "internalType": "uint256",
          "name": "activeMemberCount",
          "type": "uint256"
        }
      ],
      "name": "NewEarnings",
      "type": "event"
    },
    {
      "anonymous": false,
      "inputs": [
        {
          "indexed": false,
          "internalType": "uint256",
          "name": "amountWei",
          "type": "uint256"
        }
      ],
      "name": "NewMemberEthSent",
      "type": "event"
    },
    {
      "anonymous": false,
      "inputs": [
        {
          "indexed": true,
          "internalType": "address",
          "name": "previousOwner",
          "type": "address"
        },
        {
          "indexed": true,
          "internalType": "address",
          "name": "newOwner",
          "type": "address"
        }
      ],
      "name": "OwnershipTransferred",
      "type": "event"
    },
    {
      "anonymous": false,
      "inputs": [
        {
          "indexed": true,
          "internalType": "contract IPartListener",
          "name": "listener",
          "type": "address"
        }
      ],
      "name": "PartListenerAdded",
      "type": "event"
    },
    {
      "anonymous": false,
      "inputs": [
        {
          "indexed": true,
          "internalType": "contract IPartListener",
          "name": "listener",
          "type": "address"
        }
      ],
      "name": "PartListenerRemoved",
      "type": "event"
    },
    {
      "anonymous": false,
      "inputs": [
        {
          "indexed": false,
          "internalType": "uint256",
          "name": "amount",
          "type": "uint256"
        }
      ],
      "name": "RevenueReceived",
      "type": "event"
    },
    {
      "anonymous": false,
      "inputs": [
        {
          "indexed": true,
          "internalType": "address",
          "name": "from",
          "type": "address"
        },
        {
          "indexed": true,
          "internalType": "address",
          "name": "to",
          "type": "address"
        },
        {
          "indexed": false,
          "internalType": "uint256",
          "name": "amount",
          "type": "uint256"
        }
      ],
      "name": "TransferToAddressInContract",
      "type": "event"
    },
    {
      "anonymous": false,
      "inputs": [
        {
          "indexed": true,
          "internalType": "address",
          "name": "from",
          "type": "address"
        },
        {
          "indexed": true,
          "internalType": "address",
          "name": "to",
          "type": "address"
        },
        {
          "indexed": false,
          "internalType": "uint256",
          "name": "amount",
          "type": "uint256"
        }
      ],
      "name": "TransferWithinContract",
      "type": "event"
    },
    {
      "anonymous": false,
      "inputs": [
        {
          "indexed": false,
          "internalType": "uint256",
          "name": "value",
          "type": "uint256"
        }
      ],
      "name": "UpdateNewMemberEth",
      "type": "event"
    },
    {
      "anonymous": false,
      "inputs": [
        {
          "indexed": true,
          "internalType": "contract IWithdrawModule",
          "name": "withdrawModule",
          "type": "address"
        }
      ],
      "name": "WithdrawModuleChanged",
      "type": "event"
    },
    {
      "inputs": [],
      "name": "activeMemberCount",
      "outputs": [
        {
          "internalType": "uint256",
          "name": "",
          "type": "uint256"
        }
      ],
      "stateMutability": "view",
      "type": "function"
    },
    {
      "inputs": [
        {
          "internalType": "contract IJoinListener",
          "name": "newListener",
          "type": "address"
        }
      ],
      "name": "addJoinListener",
      "outputs": [],
      "stateMutability": "nonpayable",
      "type": "function"
    },
    {
      "inputs": [
        {
          "internalType": "address",
          "name": "agent",
          "type": "address"
        }
      ],
      "name": "addJoinPartAgent",
      "outputs": [],
      "stateMutability": "nonpayable",
      "type": "function"
    },
    {
      "inputs": [
        {
          "internalType": "address[]",
          "name": "agents",
          "type": "address[]"
        }
      ],
      "name": "addJoinPartAgents",
      "outputs": [],
      "stateMutability": "nonpayable",
      "type": "function"
    },
    {
      "inputs": [
        {
          "internalType": "address payable",
          "name": "newMember",
          "type": "address"
        }
      ],
      "name": "addMember",
      "outputs": [],
      "stateMutability": "nonpayable",
      "type": "function"
    },
    {
      "inputs": [
        {
          "internalType": "address payable[]",
          "name": "members",
          "type": "address[]"
        }
      ],
      "name": "addMembers",
      "outputs": [],
      "stateMutability": "nonpayable",
      "type": "function"
    },
    {
      "inputs": [
        {
          "internalType": "contract IPartListener",
          "name": "newListener",
          "type": "address"
        }
      ],
      "name": "addPartListener",
      "outputs": [],
      "stateMutability": "nonpayable",
      "type": "function"
    },
    {
      "inputs": [],
      "name": "adminFeeFraction",
      "outputs": [
        {
          "internalType": "uint256",
          "name": "",
          "type": "uint256"
        }
      ],
      "stateMutability": "view",
      "type": "function"
    },
    {
      "inputs": [],
      "name": "claimOwnership",
      "outputs": [],
      "stateMutability": "nonpayable",
      "type": "function"
    },
    {
      "inputs": [],
      "name": "dataUnionBeneficiary",
      "outputs": [
        {
          "internalType": "address",
          "name": "",
          "type": "address"
        }
      ],
      "stateMutability": "view",
      "type": "function"
    },
    {
      "inputs": [],
      "name": "dataUnionFeeFraction",
      "outputs": [
        {
          "internalType": "uint256",
          "name": "",
          "type": "uint256"
        }
      ],
      "stateMutability": "view",
      "type": "function"
    },
    {
      "inputs": [],
      "name": "dataUnionMainnet",
      "outputs": [
        {
          "internalType": "address",
          "name": "",
          "type": "address"
        }
      ],
      "stateMutability": "view",
      "type": "function"
    },
    {
      "inputs": [
        {
          "internalType": "address",
          "name": "member",
          "type": "address"
        }
      ],
      "name": "getEarnings",
      "outputs": [
        {
          "internalType": "uint256",
          "name": "",
          "type": "uint256"
        }
      ],
      "stateMutability": "view",
      "type": "function"
    },
    {
      "inputs": [],
      "name": "getStats",
      "outputs": [
        {
          "internalType": "uint256[9]",
          "name": "",
          "type": "uint256[9]"
        }
      ],
      "stateMutability": "view",
      "type": "function"
    },
    {
      "inputs": [
        {
          "internalType": "address",
          "name": "member",
          "type": "address"
        }
      ],
      "name": "getWithdrawableEarnings",
      "outputs": [
        {
          "internalType": "uint256",
          "name": "",
          "type": "uint256"
        }
      ],
      "stateMutability": "view",
      "type": "function"
    },
    {
      "inputs": [
        {
          "internalType": "address",
          "name": "member",
          "type": "address"
        }
      ],
      "name": "getWithdrawn",
      "outputs": [
        {
          "internalType": "uint256",
          "name": "",
          "type": "uint256"
        }
      ],
      "stateMutability": "view",
      "type": "function"
    },
    {
      "inputs": [],
      "name": "inactiveMemberCount",
      "outputs": [
        {
          "internalType": "uint256",
          "name": "",
          "type": "uint256"
        }
      ],
      "stateMutability": "view",
      "type": "function"
    },
    {
      "inputs": [
        {
          "internalType": "address",
          "name": "initialOwner",
          "type": "address"
        },
        {
          "internalType": "address",
          "name": "tokenAddress",
          "type": "address"
        },
        {
          "internalType": "address",
          "name": "tokenMediatorAddress",
          "type": "address"
        },
        {
          "internalType": "address[]",
          "name": "initialJoinPartAgents",
          "type": "address[]"
        },
        {
          "internalType": "address",
          "name": "mainnetDataUnionAddress",
          "type": "address"
        },
        {
          "internalType": "uint256",
          "name": "defaultNewMemberEth",
          "type": "uint256"
        },
        {
          "internalType": "uint256",
          "name": "initialAdminFeeFraction",
          "type": "uint256"
        },
        {
          "internalType": "uint256",
          "name": "initialDataUnionFeeFraction",
          "type": "uint256"
        },
        {
          "internalType": "address",
          "name": "initialDataUnionBeneficiary",
          "type": "address"
        }
      ],
      "name": "initialize",
      "outputs": [],
      "stateMutability": "nonpayable",
      "type": "function"
    },
    {
      "inputs": [],
      "name": "isInitialized",
      "outputs": [
        {
          "internalType": "bool",
          "name": "",
          "type": "bool"
        }
      ],
      "stateMutability": "view",
      "type": "function"
    },
    {
      "inputs": [
        {
          "internalType": "address",
          "name": "agent",
          "type": "address"
        }
      ],
      "name": "isJoinPartAgent",
      "outputs": [
        {
          "internalType": "bool",
          "name": "",
          "type": "bool"
        }
      ],
      "stateMutability": "view",
      "type": "function"
    },
    {
      "inputs": [
        {
          "internalType": "address",
          "name": "member",
          "type": "address"
        }
      ],
      "name": "isMember",
      "outputs": [
        {
          "internalType": "bool",
          "name": "",
          "type": "bool"
        }
      ],
      "stateMutability": "view",
      "type": "function"
    },
    {
      "inputs": [
        {
          "internalType": "uint256",
          "name": "",
          "type": "uint256"
        }
      ],
      "name": "joinListeners",
      "outputs": [
        {
          "internalType": "address",
          "name": "",
          "type": "address"
        }
      ],
      "stateMutability": "view",
      "type": "function"
    },
    {
      "inputs": [],
      "name": "joinPartAgentCount",
      "outputs": [
        {
          "internalType": "uint256",
          "name": "",
          "type": "uint256"
        }
      ],
      "stateMutability": "view",
      "type": "function"
    },
    {
      "inputs": [
        {
          "internalType": "address",
          "name": "",
          "type": "address"
        }
      ],
      "name": "joinPartAgents",
      "outputs": [
        {
          "internalType": "enum DataUnionSidechain.ActiveStatus",
          "name": "",
          "type": "uint8"
        }
      ],
      "stateMutability": "view",
      "type": "function"
    },
    {
      "inputs": [],
      "name": "lifetimeMemberEarnings",
      "outputs": [
        {
          "internalType": "uint256",
          "name": "",
          "type": "uint256"
        }
      ],
      "stateMutability": "view",
      "type": "function"
    },
    {
      "inputs": [],
      "name": "lockModules",
      "outputs": [],
      "stateMutability": "nonpayable",
      "type": "function"
    },
    {
      "inputs": [
        {
          "internalType": "address",
          "name": "",
          "type": "address"
        }
      ],
      "name": "memberData",
      "outputs": [
        {
          "internalType": "enum DataUnionSidechain.ActiveStatus",
          "name": "status",
          "type": "uint8"
        },
        {
          "internalType": "uint256",
          "name": "earningsBeforeLastJoin",
          "type": "uint256"
        },
        {
          "internalType": "uint256",
          "name": "lmeAtJoin",
          "type": "uint256"
        },
        {
          "internalType": "uint256",
          "name": "withdrawnEarnings",
          "type": "uint256"
        }
      ],
      "stateMutability": "view",
      "type": "function"
    },
    {
      "inputs": [],
      "name": "modulesLocked",
      "outputs": [
        {
          "internalType": "bool",
          "name": "",
          "type": "bool"
        }
      ],
      "stateMutability": "view",
      "type": "function"
    },
    {
      "inputs": [],
      "name": "newMemberEth",
      "outputs": [
        {
          "internalType": "uint256",
          "name": "",
          "type": "uint256"
        }
      ],
      "stateMutability": "view",
      "type": "function"
    },
    {
      "inputs": [
        {
          "internalType": "address",
          "name": "",
          "type": "address"
        },
        {
          "internalType": "uint256",
          "name": "",
          "type": "uint256"
        },
        {
          "internalType": "bytes",
          "name": "",
          "type": "bytes"
        }
      ],
      "name": "onTokenBridged",
      "outputs": [],
      "stateMutability": "nonpayable",
      "type": "function"
    },
    {
      "inputs": [
        {
          "internalType": "address",
          "name": "",
          "type": "address"
        },
        {
          "internalType": "uint256",
          "name": "",
          "type": "uint256"
        },
        {
          "internalType": "bytes",
          "name": "",
          "type": "bytes"
        }
      ],
      "name": "onTokenTransfer",
      "outputs": [],
      "stateMutability": "nonpayable",
      "type": "function"
    },
    {
      "inputs": [],
      "name": "owner",
      "outputs": [
        {
          "internalType": "address",
          "name": "",
          "type": "address"
        }
      ],
      "stateMutability": "view",
      "type": "function"
    },
    {
      "inputs": [
        {
          "internalType": "uint256",
          "name": "",
          "type": "uint256"
        }
      ],
      "name": "partListeners",
      "outputs": [
        {
          "internalType": "address",
          "name": "",
          "type": "address"
        }
      ],
      "stateMutability": "view",
      "type": "function"
    },
    {
      "inputs": [
        {
          "internalType": "address",
          "name": "member",
          "type": "address"
        }
      ],
      "name": "partMember",
      "outputs": [],
      "stateMutability": "nonpayable",
      "type": "function"
    },
    {
      "inputs": [
        {
          "internalType": "address[]",
          "name": "members",
          "type": "address[]"
        }
      ],
      "name": "partMembers",
      "outputs": [],
      "stateMutability": "nonpayable",
      "type": "function"
    },
    {
      "inputs": [],
      "name": "pendingOwner",
      "outputs": [
        {
          "internalType": "address",
          "name": "",
          "type": "address"
        }
      ],
      "stateMutability": "view",
      "type": "function"
    },
    {
      "inputs": [],
      "name": "refreshRevenue",
      "outputs": [
        {
          "internalType": "uint256",
          "name": "",
          "type": "uint256"
        }
      ],
      "stateMutability": "nonpayable",
      "type": "function"
    },
    {
      "inputs": [
        {
          "internalType": "contract IJoinListener",
          "name": "listener",
          "type": "address"
        }
      ],
      "name": "removeJoinListener",
      "outputs": [],
      "stateMutability": "nonpayable",
      "type": "function"
    },
    {
      "inputs": [
        {
          "internalType": "address",
          "name": "agent",
          "type": "address"
        }
      ],
      "name": "removeJoinPartAgent",
      "outputs": [],
      "stateMutability": "nonpayable",
      "type": "function"
    },
    {
      "inputs": [
        {
          "internalType": "address",
          "name": "member",
          "type": "address"
        },
        {
          "internalType": "enum LeaveConditionCode",
          "name": "leaveConditionCode",
          "type": "uint8"
        }
      ],
      "name": "removeMember",
      "outputs": [],
      "stateMutability": "nonpayable",
      "type": "function"
    },
    {
      "inputs": [
        {
          "internalType": "contract IPartListener",
          "name": "listener",
          "type": "address"
        }
      ],
      "name": "removePartListener",
      "outputs": [],
      "stateMutability": "nonpayable",
      "type": "function"
    },
    {
      "inputs": [
        {
          "internalType": "address",
          "name": "newDataUnionBeneficiary",
          "type": "address"
        }
      ],
      "name": "setDataUnionBeneficiary",
      "outputs": [],
      "stateMutability": "nonpayable",
      "type": "function"
    },
    {
      "inputs": [
        {
          "internalType": "uint256",
          "name": "newAdminFee",
          "type": "uint256"
        },
        {
          "internalType": "uint256",
          "name": "newDataUnionFee",
          "type": "uint256"
        }
      ],
      "name": "setFees",
      "outputs": [],
      "stateMutability": "nonpayable",
      "type": "function"
    },
    {
      "inputs": [
        {
          "internalType": "uint256",
          "name": "val",
          "type": "uint256"
        }
      ],
      "name": "setNewMemberEth",
      "outputs": [],
      "stateMutability": "nonpayable",
      "type": "function"
    },
    {
      "inputs": [
        {
          "internalType": "contract IWithdrawModule",
          "name": "newWithdrawModule",
          "type": "address"
        }
      ],
      "name": "setWithdrawModule",
      "outputs": [],
      "stateMutability": "nonpayable",
      "type": "function"
    },
    {
      "inputs": [
        {
          "internalType": "address",
          "name": "signer",
          "type": "address"
        },
        {
          "internalType": "address",
          "name": "recipient",
          "type": "address"
        },
        {
          "internalType": "uint256",
          "name": "amount",
          "type": "uint256"
        },
        {
          "internalType": "bytes",
          "name": "signature",
          "type": "bytes"
        }
      ],
      "name": "signatureIsValid",
      "outputs": [
        {
          "internalType": "bool",
          "name": "isValid",
          "type": "bool"
        }
      ],
      "stateMutability": "view",
      "type": "function"
    },
    {
      "inputs": [],
      "name": "token",
      "outputs": [
        {
          "internalType": "contract IERC677",
          "name": "",
          "type": "address"
        }
      ],
      "stateMutability": "view",
      "type": "function"
    },
    {
      "inputs": [],
      "name": "tokenMediator",
      "outputs": [
        {
          "internalType": "address",
          "name": "",
          "type": "address"
        }
      ],
      "stateMutability": "view",
      "type": "function"
    },
    {
      "inputs": [],
      "name": "totalAdminFees",
      "outputs": [
        {
          "internalType": "uint256",
          "name": "",
          "type": "uint256"
        }
      ],
      "stateMutability": "view",
      "type": "function"
    },
    {
      "inputs": [],
      "name": "totalDataUnionFees",
      "outputs": [
        {
          "internalType": "uint256",
          "name": "",
          "type": "uint256"
        }
      ],
      "stateMutability": "view",
      "type": "function"
    },
    {
      "inputs": [],
      "name": "totalEarnings",
      "outputs": [
        {
          "internalType": "uint256",
          "name": "",
          "type": "uint256"
        }
      ],
      "stateMutability": "view",
      "type": "function"
    },
    {
      "inputs": [],
      "name": "totalRevenue",
      "outputs": [
        {
          "internalType": "uint256",
          "name": "",
          "type": "uint256"
        }
      ],
      "stateMutability": "view",
      "type": "function"
    },
    {
      "inputs": [],
      "name": "totalWithdrawable",
      "outputs": [
        {
          "internalType": "uint256",
          "name": "",
          "type": "uint256"
        }
      ],
      "stateMutability": "view",
      "type": "function"
    },
    {
      "inputs": [],
      "name": "totalWithdrawn",
      "outputs": [
        {
          "internalType": "uint256",
          "name": "",
          "type": "uint256"
        }
      ],
      "stateMutability": "view",
      "type": "function"
    },
    {
      "inputs": [
        {
          "internalType": "address",
          "name": "newOwner",
          "type": "address"
        }
      ],
      "name": "transferOwnership",
      "outputs": [],
      "stateMutability": "nonpayable",
      "type": "function"
    },
    {
      "inputs": [
        {
          "internalType": "address",
          "name": "recipient",
          "type": "address"
        },
        {
          "internalType": "uint256",
          "name": "amount",
          "type": "uint256"
        }
      ],
      "name": "transferToMemberInContract",
      "outputs": [],
      "stateMutability": "nonpayable",
      "type": "function"
    },
    {
      "inputs": [
        {
          "internalType": "address",
          "name": "recipient",
          "type": "address"
        },
        {
          "internalType": "uint256",
          "name": "amount",
          "type": "uint256"
        }
      ],
      "name": "transferWithinContract",
      "outputs": [],
      "stateMutability": "nonpayable",
      "type": "function"
    },
    {
      "inputs": [
        {
          "internalType": "address",
          "name": "member",
          "type": "address"
        },
        {
          "internalType": "uint256",
          "name": "amount",
          "type": "uint256"
        },
        {
          "internalType": "bool",
          "name": "sendToMainnet",
          "type": "bool"
        }
      ],
      "name": "withdraw",
      "outputs": [
        {
          "internalType": "uint256",
          "name": "",
          "type": "uint256"
        }
      ],
      "stateMutability": "nonpayable",
      "type": "function"
    },
    {
      "inputs": [
        {
          "internalType": "address",
          "name": "member",
          "type": "address"
        },
        {
          "internalType": "bool",
          "name": "sendToMainnet",
          "type": "bool"
        }
      ],
      "name": "withdrawAll",
      "outputs": [
        {
          "internalType": "uint256",
          "name": "",
          "type": "uint256"
        }
      ],
      "stateMutability": "nonpayable",
      "type": "function"
    },
    {
      "inputs": [
        {
          "internalType": "address",
          "name": "to",
          "type": "address"
        },
        {
          "internalType": "bool",
          "name": "sendToMainnet",
          "type": "bool"
        }
      ],
      "name": "withdrawAllTo",
      "outputs": [
        {
          "internalType": "uint256",
          "name": "",
          "type": "uint256"
        }
      ],
      "stateMutability": "nonpayable",
      "type": "function"
    },
    {
      "inputs": [
        {
          "internalType": "address",
          "name": "fromSigner",
          "type": "address"
        },
        {
          "internalType": "address",
          "name": "to",
          "type": "address"
        },
        {
          "internalType": "bool",
          "name": "sendToMainnet",
          "type": "bool"
        },
        {
          "internalType": "bytes",
          "name": "signature",
          "type": "bytes"
        }
      ],
      "name": "withdrawAllToSigned",
      "outputs": [
        {
          "internalType": "uint256",
          "name": "withdrawn",
          "type": "uint256"
        }
      ],
      "stateMutability": "nonpayable",
      "type": "function"
    },
    {
      "inputs": [
        {
          "internalType": "address[]",
          "name": "members",
          "type": "address[]"
        },
        {
          "internalType": "bool",
          "name": "sendToMainnet",
          "type": "bool"
        }
      ],
      "name": "withdrawMembers",
      "outputs": [
        {
          "internalType": "uint256",
          "name": "",
          "type": "uint256"
        }
      ],
      "stateMutability": "nonpayable",
      "type": "function"
    },
    {
      "inputs": [],
      "name": "withdrawModule",
      "outputs": [
        {
          "internalType": "contract IWithdrawModule",
          "name": "",
          "type": "address"
        }
      ],
      "stateMutability": "view",
      "type": "function"
    },
    {
      "inputs": [
        {
          "internalType": "address",
          "name": "to",
          "type": "address"
        },
        {
          "internalType": "uint256",
          "name": "amount",
          "type": "uint256"
        },
        {
          "internalType": "bool",
          "name": "sendToMainnet",
          "type": "bool"
        }
      ],
      "name": "withdrawTo",
      "outputs": [
        {
          "internalType": "uint256",
          "name": "",
          "type": "uint256"
        }
      ],
      "stateMutability": "nonpayable",
      "type": "function"
    },
    {
      "inputs": [
        {
          "internalType": "address",
          "name": "fromSigner",
          "type": "address"
        },
        {
          "internalType": "address",
          "name": "to",
          "type": "address"
        },
        {
          "internalType": "uint256",
          "name": "amount",
          "type": "uint256"
        },
        {
          "internalType": "bool",
          "name": "sendToMainnet",
          "type": "bool"
        },
        {
          "internalType": "bytes",
          "name": "signature",
          "type": "bytes"
        }
      ],
      "name": "withdrawToSigned",
      "outputs": [
        {
          "internalType": "uint256",
          "name": "withdrawn",
          "type": "uint256"
        }
      ],
      "stateMutability": "nonpayable",
      "type": "function"
    },
    {
      "stateMutability": "payable",
      "type": "receive"
    }
  ],
  "bytecode": "0x608060405234801561001057600080fd5b50600080546001600160a01b03191690556138f0806100306000396000f3fe6080604052600436106103d25760003560e01c806379049017116101fd578063bf2d9e0b11610118578063d78e6c0a116100ab578063e6018c311161007a578063e6018c3114610b42578063ead5d35914610b62578063f2fde38b14610b82578063fc0c546a14610ba2578063fca0f06a14610bc257600080fd5b8063d78e6c0a14610ac2578063d88124b714610ae2578063db7af85414610b02578063e30c397814610b2257600080fd5b8063ca6d56dc116100e7578063ca6d56dc14610a4c578063cc77244014610a6c578063ce7b786414610a8c578063d35cec4014610aac57600080fd5b8063bf2d9e0b146109b7578063c33c88ce146109cd578063c44b73a3146109ed578063c59d484714610a2a57600080fd5b8063a2d3cf4b11610190578063abf1667a1161015f578063abf1667a14610937578063ae66d94814610957578063b274bcc714610977578063bf1e42c01461099757600080fd5b8063a2d3cf4b146108b7578063a3fc6b2f146108d7578063a4c0ed36146108f7578063a4d6ddc01461091757600080fd5b80638da5cb5b116101cc5780638da5cb5b1461080b5780639107d08e1461082b578063974abb1f14610881578063a230c5241461089757600080fd5b8063790490171461079b5780637b30ed43146107b15780637dfef647146107d157806385803659146107eb57600080fd5b80633ebff90e116102ed57806361feacff116102805780636d8018b81161024f5780636d8018b8146107255780636f4d469b1461073b57806371cdfd681461075b57806373e2290c1461077b57600080fd5b806361feacff146106ba578063662d45a2146106d057806368cdc676146106f057806369ee75141461071057600080fd5b80634e71e0c8116102bc5780634e71e0c814610659578063535ce5d11461066e5780635fb6c6ed1461068e57806360e26a4c146106a457600080fd5b80633ebff90e146105ed5780634b319713146106035780634bee9137146106195780634e40ea641461063957600080fd5b80632df3eba41161036557806336f5847d1161033457806336f5847d1461056b578063392e53cd1461058b5780633d8e36a3146105b75780633ea27cfe146105cd57600080fd5b80632df3eba4146104e85780632e0d4212146104fe578063314b5ce31461051e578063331beb5f1461055657600080fd5b80631796621a116103a15780631796621a1461046857806317966e09146104885780631a79246c146104a85780632b94411f146104c857600080fd5b80630600a865146103de57806309a6400b146104065780630b78f9c014610428578063131b9c041461044857600080fd5b366103d957005b600080fd5b3480156103ea57600080fd5b506103f3610be2565b6040519081526020015b60405180910390f35b34801561041257600080fd5b506104266104213660046130c7565b610bf9565b005b34801561043457600080fd5b506104266104433660046135a2565b610d03565b34801561045457600080fd5b506103f36104633660046130c7565b610dc2565b34801561047457600080fd5b5061042661048336600461351f565b610e7d565b34801561049457600080fd5b506104266104a3366004613340565b610eeb565b3480156104b457600080fd5b506103f36104c3366004613218565b61110d565b3480156104d457600080fd5b506103f36104e3366004613307565b6111a9565b3480156104f457600080fd5b506103f3600e5481565b34801561050a57600080fd5b506103f36105193660046130c7565b6111d0565b34801561052a57600080fd5b5060055461053e906001600160a01b031681565b6040516001600160a01b0390911681526020016103fd565b34801561056257600080fd5b506103f361129d565b34801561057757600080fd5b506104266105863660046130c7565b61159e565b34801561059757600080fd5b506002546001600160a01b031615155b60405190151581526020016103fd565b3480156105c357600080fd5b506103f360135481565b3480156105d957600080fd5b506104266105e83660046130c7565b61165b565b3480156105f957600080fd5b506103f360155481565b34801561060f57600080fd5b506103f360115481565b34801561062557600080fd5b506103f3610634366004613307565b611713565b34801561064557600080fd5b506104266106543660046130c7565b611731565b34801561066557600080fd5b50610426611756565b34801561067a57600080fd5b506104266106893660046130c7565b61180d565b34801561069a57600080fd5b506103f360125481565b3480156106b057600080fd5b506103f3600b5481565b3480156106c657600080fd5b506103f3600f5481565b3480156106dc57600080fd5b506104266106eb3660046130c7565b6118c5565b3480156106fc57600080fd5b506105a761070b3660046130c7565b6119c8565b34801561071c57600080fd5b50610426611a00565b34801561073157600080fd5b506103f360145481565b34801561074757600080fd5b50610426610756366004613493565b611a39565b34801561076757600080fd5b50610426610776366004613372565b611a80565b34801561078757600080fd5b506103f361079636600461339e565b611b50565b3480156107a757600080fd5b506103f360095481565b3480156107bd57600080fd5b506104266107cc366004613493565b611b66565b3480156107dd57600080fd5b506008546105a79060ff1681565b3480156107f757600080fd5b5061053e610806366004613570565b611bad565b34801561081757600080fd5b5060005461053e906001600160a01b031681565b34801561083757600080fd5b506108716108463660046130c7565b601660205260009081526040902080546001820154600283015460039093015460ff90921692909184565b6040516103fd949392919061369b565b34801561088d57600080fd5b506103f360105481565b3480156108a357600080fd5b506105a76108b23660046130c7565b611bd7565b3480156108c357600080fd5b506105a76108d236600461329c565b611c08565b3480156108e357600080fd5b506104266108f23660046130c7565b611de3565b34801561090357600080fd5b506104266109123660046133e0565b611e85565b34801561092357600080fd5b506103f36109323660046134d4565b611eee565b34801561094357600080fd5b50600c5461053e906001600160a01b031681565b34801561096357600080fd5b506103f36109723660046130c7565b611f52565b34801561098357600080fd5b50610426610992366004613372565b611fcb565b3480156109a357600080fd5b5060045461053e906001600160a01b031681565b3480156109c357600080fd5b506103f3600d5481565b3480156109d957600080fd5b506104266109e83660046130e4565b6121f6565b3480156109f957600080fd5b50610a1d610a083660046130c7565b60176020526000908152604090205460ff1681565b6040516103fd9190613688565b348015610a3657600080fd5b50610a3f6122f8565b6040516103fd9190613656565b348015610a5857600080fd5b50610426610a673660046130c7565b6123e1565b348015610a7857600080fd5b5060035461053e906001600160a01b031681565b348015610a9857600080fd5b506103f3610aa736600461319d565b612683565b348015610ab857600080fd5b506103f3600a5481565b348015610ace57600080fd5b50610426610add3660046130c7565b612730565b348015610aee57600080fd5b5061053e610afd366004613570565b6127d2565b348015610b0e57600080fd5b50610426610b1d36600461343b565b61267b565b348015610b2e57600080fd5b5060015461053e906001600160a01b031681565b348015610b4e57600080fd5b50610426610b5d366004613570565b6127e2565b348015610b6e57600080fd5b506103f3610b7d36600461339e565b612847565b348015610b8e57600080fd5b50610426610b9d3660046130c7565b6128b7565b348015610bae57600080fd5b5060025461053e906001600160a01b031681565b348015610bce57600080fd5b50610426610bdd3660046130c7565b612903565b6000601154600d54610bf491906137c3565b905090565b6000546001600160a01b03163314610c2c5760405162461bcd60e51b8152600401610c23906136c4565b60405180910390fd5b60016001600160a01b03821660009081526017602052604090205460ff166002811115610c5b57610c5b613821565b14610c9f5760405162461bcd60e51b8152602060048201526014602482015273195c9c9bdc97db9bdd1058dd1a5d995059d95b9d60621b6044820152606401610c23565b6001600160a01b038116600081815260176020526040808220805460ff19166002179055517feac6c7d5a1c157497119a5d4f661d5f23b844c415452ef440ed346bd127d885e9190a2600160156000828254610cfb91906137c3565b909155505050565b6000546001600160a01b03163314610d2d5760405162461bcd60e51b8152600401610c23906136c4565b670de0b6b3a7640000610d408284613745565b1115610d7b5760405162461bcd60e51b815260206004820152600a6024820152696572726f725f6665657360b01b6044820152606401610c23565b600a829055600b81905560408051838152602081018390527f93525d3c7f4fafe56faedbca6d501a13c63f47857d8b30d8282ec2dd806259a7910160405180910390a15050565b6001600160a01b038116600090815260166020526040812081815460ff166002811115610df157610df1613821565b1415610e315760405162461bcd60e51b815260206004820152600f60248201526e32b93937b92fb737ba26b2b6b132b960891b6044820152606401610c23565b6001815460ff166002811115610e4957610e49613821565b14610e55576000610e67565b8060020154601454610e6791906137c3565b8160010154610e769190613745565b9392505050565b6000546001600160a01b03163314610ea75760405162461bcd60e51b8152600401610c23906136c4565b60005b8151811015610ee757610ed5828281518110610ec857610ec861384d565b60200260200101516118c5565b80610edf816137da565b915050610eaa565b5050565b336001600160a01b0383161480610f25575060013360009081526017602052604090205460ff166002811115610f2357610f23613821565b145b610f665760405162461bcd60e51b8152602060048201526012602482015271195c9c9bdc97db9bdd14195c9b5a5d1d195960721b6044820152606401610c23565b610f6f82611bd7565b610fb35760405162461bcd60e51b815260206004820152601560248201527432b93937b92fb737ba20b1ba34bb32a6b2b6b132b960591b6044820152606401610c23565b610fbc82610dc2565b6001600160a01b0383166000908152601660205260408120600180820193909355805460ff1916600217905560128054909190610ffa9084906137c3565b925050819055506001601360008282546110149190613745565b90915550819050600281111561102c5761102c613821565b6040516001600160a01b038416907f5f1690f61957d783b6db3a7cfd5802c10639675ed2c25d2e998b4dfaf6ae426f90600090a360005b6007548110156110ff576000600782815481106110825761108261384d565b6000918252602090912001546040516309a56ffd60e41b81526001600160a01b0390911691508190639a56ffd0906110c090879087906004016135c4565b600060405180830381600087803b1580156110da57600080fd5b505af19250505080156110eb575060015b5050806110f7816137da565b915050611063565b5061110861129d565b505050565b600061115187878786868080601f016020809104026020016040519081016040528093929190818152602001838380828437600092019190915250611c0892505050565b6111925760405162461bcd60e51b81526020600482015260126024820152716572726f725f6261645369676e617475726560701b6044820152606401610c23565b61119e8787878761298a565b979650505050505050565b60006111b361129d565b506111c7836111c1336111d0565b84611b50565b90505b92915050565b6000806111dc83611f52565b6111e584610dc2565b6111ef91906137c3565b6005549091506001600160a01b0316156111ca57600554604051630b8eada360e31b81526001600160a01b038581166004830152602482018490526000921690635c756d189060440160206040518083038186803b15801561125057600080fd5b505afa158015611264573d6000803e3d6000fd5b505050506040513d601f19601f820116820180604052508101906112889190613589565b905081811015611296578091505b5092915050565b6002546040516370a0823160e01b815230600482015260009182916001600160a01b03909116906370a082319060240160206040518083038186803b1580156112e557600080fd5b505afa1580156112f9573d6000803e3d6000fd5b505050506040513d601f19601f8201168201806040525081019061131d9190613589565b90506000611329610be2565b61133390836137c3565b90508015806113425750601254155b156113505760009250505090565b80600d60008282546113629190613745565b90915550506040518181527f41b06c6e0a1531dcb4b86d53ec6268666aa12d55775f8e5a63596fc935cdcc229060200160405180910390a16000670de0b6b3a7640000600a54836113b391906137a4565b6113bd9190613782565b90506000670de0b6b3a7640000600b54846113d891906137a4565b6113e29190613782565b90506000816113f184866137c3565b6113fb91906137c3565b600054909150611414906001600160a01b031684612bcc565b600c5461142a906001600160a01b031683612bcc565b82600f600082825461143c9190613745565b9250508190555081601060008282546114559190613745565b909155505060408051848152602081018490527f4fed68db354fc9a4a85e24ef5dc3a7bea31a6b507ecaaa263f65fa1c70ab647c910160405180910390a16000601254826114a39190613782565b9050806014546114b39190613745565b601455600e546114c4908390613745565b600e556012546040805183815260208101929092527f24a9873073eba764d17ef9fa7475b3b209c02e6e6f7ed991c9c80e09226a37a7910160405180910390a161150c610be2565b6002546040516370a0823160e01b81523060048201526001600160a01b03909116906370a082319060240160206040518083038186803b15801561154f57600080fd5b505afa158015611563573d6000803e3d6000fd5b505050506040513d601f19601f820116820180604052508101906115879190613589565b14611594576115946137f5565b5095945050505050565b6000546001600160a01b031633146115c85760405162461bcd60e51b8152600401610c23906136c4565b60085460ff16156116115760405162461bcd60e51b8152602060048201526013602482015272195c9c9bdc97db5bd91d5b195cd31bd8dad959606a1b6044820152606401610c23565b600580546001600160a01b0319166001600160a01b0383169081179091556040517f5baac16b14d7b635a00727fea8f8ed8be743136944f21f24198375d2caa7e31e90600090a250565b6000546001600160a01b031633146116855760405162461bcd60e51b8152600401610c23906136c4565b611690600682612c42565b6116dc5760405162461bcd60e51b815260206004820152601a60248201527f6572726f725f6a6f696e4c697374656e65724e6f74466f756e640000000000006044820152606401610c23565b6040516001600160a01b038216907fc2930df8ca9cd93c736bf3cc100569fe72b69c28099dab7f24288e527bbda74890600090a250565b600061171d61129d565b506111c78361172b856111d0565b84612847565b61175381336001600160a01b0382161461174c576001610eeb565b6000610eeb565b50565b6001546001600160a01b031633146117a95760405162461bcd60e51b815260206004820152601660248201527532b93937b92fb7b7363ca832b73234b733a7bbb732b960511b6044820152606401610c23565b600154600080546040516001600160a01b0393841693909116917f8be0079c531659141344cd1fd0a4f28419497f9722a3daafe3b4186f6b6457e091a360018054600080546001600160a01b03199081166001600160a01b03841617909155169055565b6000546001600160a01b031633146118375760405162461bcd60e51b8152600401610c23906136c4565b611842600782612c42565b61188e5760405162461bcd60e51b815260206004820152601a60248201527f6572726f725f706172744c697374656e65724e6f74466f756e640000000000006044820152606401610c23565b6040516001600160a01b038216907f9bbfbcf74777ac8fbf537a6b375c7b2030b8f66a5c71a7c2567fe22e7b099b0890600090a250565b6000546001600160a01b031633146118ef5760405162461bcd60e51b8152600401610c23906136c4565b60016001600160a01b03821660009081526017602052604090205460ff16600281111561191e5761191e613821565b141561196c5760405162461bcd60e51b815260206004820152601860248201527f6572726f725f616c72656164794163746976654167656e7400000000000000006044820152606401610c23565b6001600160a01b038116600081815260176020526040808220805460ff19166001179055517f10581818fb1ffbfd9ac8500cba931a30c3a57b5e9b7972f2fa0aef002b3fde2b9190a2600160156000828254610cfb9190613745565b600060016001600160a01b03831660009081526017602052604090205460ff1660028111156119f9576119f9613821565b1492915050565b6000546001600160a01b03163314611a2a5760405162461bcd60e51b8152600401610c23906136c4565b6008805460ff19166001179055565b60005b8181101561110857611a6e838383818110611a5957611a5961384d565b9050602002016020810190610a6791906130c7565b80611a78816137da565b915050611a3c565b80611a8a336111d0565b1015611ad45760405162461bcd60e51b81526020600482015260196024820152786572726f725f696e73756666696369656e7442616c616e636560381b6044820152606401610c23565b3360009081526016602052604090206003810154611af3908390613745565b6003820155611b028383612bcc565b6040518281526001600160a01b0384169033907f638ce96e87261f007ef5c0389bb59b90db3e19c42edee859d6b09739d8d79f7f9060200160405180910390a3611b4a61129d565b50505050565b6000611b5e3385858561298a565b949350505050565b60005b8181101561110857611b9b838383818110611b8657611b8661384d565b905060200201602081019061065491906130c7565b80611ba5816137da565b915050611b69565b60068181548110611bbd57600080fd5b6000918252602090912001546001600160a01b0316905081565b600060016001600160a01b03831660009081526016602052604090205460ff1660028111156119f9576119f9613821565b60008151604114611c5b5760405162461bcd60e51b815260206004820152601860248201527f6572726f725f6261645369676e61747572654c656e67746800000000000000006044820152606401610c23565b60208201516040830151606084015160001a601b811015611c8457611c81601b8261375d565b90505b8060ff16601b1480611c9957508060ff16601c145b611ce55760405162461bcd60e51b815260206004820152601960248201527f6572726f725f6261645369676e617475726556657273696f6e000000000000006044820152606401610c23565b6000878730611cf38c611f52565b6040517f19457468657265756d205369676e6564204d6573736167653a0a31303400000060208201526001600160601b0319606095861b8116603d83015260518201949094529190931b9091166071820152608581019190915260a50160408051601f198184030181528282528051602091820120600080855291840180845281905260ff86169284019290925260608301879052608083018690529092509060019060a0016020604051602081039080840390855afa158015611dbb573d6000803e3d6000fd5b5050604051601f1901516001600160a01b038c81169116149650505050505050949350505050565b6000546001600160a01b03163314611e0d5760405162461bcd60e51b8152600401610c23906136c4565b6007805460018101825560009182527fa66cc928b5edb82af9bd49922954155ab7b0942694bea4ce44661d9a8736c6880180546001600160a01b0319166001600160a01b03841690811790915560405190917fde5492345cd7090548289c03dc4c85b7557218333e6ecf9ea4fd74405fb07e1791a250565b6002546001600160a01b03163314611edf5760405162461bcd60e51b815260206004820152601760248201527f6572726f725f6f6e6c79546f6b656e436f6e74726163740000000000000000006044820152606401610c23565b611ee761129d565b5050505050565b600080805b84811015611f4957611f2b868683818110611f1057611f1061384d565b9050602002016020810190611f2591906130c7565b85611713565b611f359083613745565b915080611f41816137da565b915050611ef3565b50949350505050565b6001600160a01b038116600090815260166020526040812081815460ff166002811115611f8157611f81613821565b1415611fc15760405162461bcd60e51b815260206004820152600f60248201526e32b93937b92fb737ba26b2b6b132b960891b6044820152606401610c23565b6003015492915050565b611fd58282612bcc565b80600d6000828254611fe79190613745565b90915550506040518181526001600160a01b0383169033907f4e018df3c92158645fcf45007db7029d3fa97d269866be2bd4360c5f5a6163e49060200160405180910390a36002546040516370a0823160e01b81523060048201526000916001600160a01b0316906370a082319060240160206040518083038186803b15801561207057600080fd5b505afa158015612084573d6000803e3d6000fd5b505050506040513d601f19601f820116820180604052508101906120a89190613589565b6002546040516323b872dd60e01b8152336004820152306024820152604481018590529192506001600160a01b0316906323b872dd90606401602060405180830381600087803b1580156120fb57600080fd5b505af115801561210f573d6000803e3d6000fd5b505050506040513d601f19601f820116820180604052508101906121339190613553565b61214f5760405162461bcd60e51b8152600401610c23906136ed565b6002546040516370a0823160e01b81523060048201526000916001600160a01b0316906370a082319060240160206040518083038186803b15801561219357600080fd5b505afa1580156121a7573d6000803e3d6000fd5b505050506040513d601f19601f820116820180604052508101906121cb9190613589565b9050826121d883836137c3565b1015611edf5760405162461bcd60e51b8152600401610c23906136ed565b6002546001600160a01b03161561224f5760405162461bcd60e51b815260206004820152601860248201527f6572726f725f616c7265616479496e697469616c697a656400000000000000006044820152606401610c23565b60008054336001600160a01b031991821617909155600280549091166001600160a01b038a1617905561228186610e7d565b600380546001600160a01b03808a166001600160a01b03199283161790925560048054928816929091169190911790556122bb8383610d03565b6122c481612903565b6122cd846127e2565b5050600080546001600160a01b0319166001600160a01b039890981697909717909655505050505050565b612300612f1f565b6013546002600080546001600160a01b031681526016602052604090205460ff16600281111561233257612332613821565b1415612346576123436001826137c3565b90505b6002600c546001600160a01b031660009081526016602052604090205460ff16600281111561237757612377613821565b141561238b576123886001826137c3565b90505b604051806101200160405280600d548152602001600e548152602001600f548152602001601054815260200160115481526020016012548152602001828152602001601454815260200160155481525091505090565b6123ea336119c8565b6124365760405162461bcd60e51b815260206004820152601760248201527f6572726f725f6f6e6c794a6f696e506172744167656e740000000000000000006044820152606401610c23565b6001600160a01b038116600090815260166020526040902061245782611bd7565b1561249a5760405162461bcd60e51b815260206004820152601360248201527232b93937b92fb0b63932b0b23ca6b2b6b132b960691b6044820152606401610c23565b6002815460ff1660028111156124b2576124b2613821565b14156124d1576001601360008282546124cb91906137c3565b90915550505b600080825460ff1660028111156124ea576124ea613821565b1480156124f957506000600954115b801561250757506009544710155b825460ff1916600190811784556014546002850155601280549293509091600090612533908490613745565b90915550506040516001600160a01b038416907f0abf3b3f643594d958297062a019458e27d7766629590ac621aa1000fa1298ab90600090a260005b60065481101561260d5760006006828154811061258e5761258e61384d565b6000918252602090912001546040516318932a6760e21b81526001600160a01b0387811660048301529091169150819063624ca99c90602401600060405180830381600087803b1580156125e157600080fd5b505af11580156125f5573d6000803e3d6000fd5b50505050508080612605906137da565b91505061256f565b50801561267b576009546040516001600160a01b0385169180156108fc02916000818181858888f193505050501561267b577f55e2724f03f2711a94cf86d8b10c57130b103d6c2f1726076fbf9430340d41e760095460405161267291815260200190565b60405180910390a15b611b4a61129d565b60006126c88686600086868080601f016020809104026020016040519081016040528093929190818152602001838380828437600092019190915250611c0892505050565b6127095760405162461bcd60e51b81526020600482015260126024820152716572726f725f6261645369676e617475726560701b6044820152606401610c23565b61271161129d565b506127268686612720896111d0565b8761298a565b9695505050505050565b6000546001600160a01b0316331461275a5760405162461bcd60e51b8152600401610c23906136c4565b6006805460018101825560009182527ff652222313e28459528d920b65115c16c04f3efc82aaedc97be59f3f377c0d3f0180546001600160a01b0319166001600160a01b03841690811790915560405190917fdabc377fa2f5811c8c6f796d0b4e97f1030390ce5f1806e1870e28b042ae7e4091a250565b60078181548110611bbd57600080fd5b6000546001600160a01b0316331461280c5760405162461bcd60e51b8152600401610c23906136c4565b60098190556040518181527f749d0aa4ca45d6142166deb1820b64a888996311bb9f74a88c081f5b041d949c9060200160405180910390a150565b6000336001600160a01b038516148061286a57506000546001600160a01b031633145b6128ab5760405162461bcd60e51b8152602060048201526012602482015271195c9c9bdc97db9bdd14195c9b5a5d1d195960721b6044820152606401610c23565b611b5e8485858561298a565b6000546001600160a01b031633146128e15760405162461bcd60e51b8152600401610c23906136c4565b600180546001600160a01b0319166001600160a01b0392909216919091179055565b6000546001600160a01b0316331461292d5760405162461bcd60e51b8152600401610c23906136c4565b600c546040516001600160a01b03918216918316907fffc00145ab2a043f1c4be5b5b7a0413205bc106491f6832bd2c83c32e3fb5f6c90600090a3600c80546001600160a01b0319166001600160a01b0392909216919091179055565b60008261299957506000611b5e565b6129a161129d565b506129ab856111d0565b8311156129f65760405162461bcd60e51b81526020600482015260196024820152786572726f725f696e73756666696369656e7442616c616e636560381b6044820152606401610c23565b6001600160a01b038516600090815260166020526040812060038101805491928692612a23908490613745565b925050819055508360116000828254612a3c9190613745565b90915550506005546001600160a01b031615612b735760025460055460405163a9059cbb60e01b81526001600160a01b0391821660048201526024810187905291169063a9059cbb90604401602060405180830381600087803b158015612aa257600080fd5b505af1158015612ab6573d6000803e3d6000fd5b505050506040513d601f19601f82011682018060405250810190612ada9190613553565b612af65760405162461bcd60e51b8152600401610c23906136ed565b600554600254604051630445e43f60e21b81526001600160a01b038981166004830152888116602483015291821660448201526064810187905291169063111790fc90608401600060405180830381600087803b158015612b5657600080fd5b505af1158015612b6a573d6000803e3d6000fd5b50505050612b7f565b612b7f86868686612d7f565b856001600160a01b03167f48dc35af7b45e2a81fffad55f6e2fafacdb1d3d0d50d24ebdc16324f5ba757f185604051612bba91815260200190565b60405180910390a25091949350505050565b6001600160a01b03821660009081526016602052604090206001810154612bf4908390613745565b60018201556000815460ff166002811115612c1157612c11613821565b141561110857805460ff191660021781556013805460019190600090612c38908490613745565b9091555050505050565b6000805b835481108015612c855750826001600160a01b0316848281548110612c6d57612c6d61384d565b6000918252602090912001546001600160a01b031614155b15612c9c57612c95600182613745565b9050612c46565b8354811415612caf5760009150506111ca565b8354612cbd906001906137c3565b811015612d435783548490612cd4906001906137c3565b81548110612ce457612ce461384d565b9060005260206000200160009054906101000a90046001600160a01b0316848281548110612d1457612d1461384d565b9060005260206000200160006101000a8154816001600160a01b0302191690836001600160a01b031602179055505b83805480612d5357612d53613837565b600082815260209020600019908201810180546001600160a01b03191690550190555060019392505050565b8015612e575760025460035460408051606087901b6001600160601b0319166020820152815160148183030181526034820192839052630200057560e51b9092526001600160a01b0393841693634000aea093612de4939116918791906038016135ea565b602060405180830381600087803b158015612dfe57600080fd5b505af1158015612e12573d6000803e3d6000fd5b505050506040513d601f19601f82011682018060405250810190612e369190613553565b612e525760405162461bcd60e51b8152600401610c23906136ed565b611b4a565b60025460408051606087901b6001600160601b0319166020820152815160148183030181526034820192839052630200057560e51b9092526001600160a01b0390921691634000aea091612eb191879187916038016135ea565b602060405180830381600087803b158015612ecb57600080fd5b505af1158015612edf573d6000803e3d6000fd5b505050506040513d601f19601f82011682018060405250810190612f039190613553565b611b4a5760405162461bcd60e51b8152600401610c23906136ed565b6040518061012001604052806009906020820280368337509192915050565b60008083601f840112612f5057600080fd5b5081356001600160401b03811115612f6757600080fd5b6020830191508360208260051b8501011115612f8257600080fd5b9250929050565b600082601f830112612f9a57600080fd5b813560206001600160401b03821115612fb557612fb5613863565b8160051b612fc4828201613715565b838152828101908684018388018501891015612fdf57600080fd5b600093505b8584101561300b578035612ff781613897565b835260019390930192918401918401612fe4565b50979650505050505050565b60008083601f84011261302957600080fd5b5081356001600160401b0381111561304057600080fd5b602083019150836020828501011115612f8257600080fd5b600082601f83011261306957600080fd5b81356001600160401b0381111561308257613082613863565b613095601f8201601f1916602001613715565b8181528460208386010111156130aa57600080fd5b816020850160208301376000918101602001919091529392505050565b6000602082840312156130d957600080fd5b8135610e7681613897565b60008060008060008060008060006101208a8c03121561310357600080fd5b893561310e81613897565b985060208a013561311e81613897565b975060408a013561312e81613897565b965060608a01356001600160401b0381111561314957600080fd5b6131558c828d01612f89565b96505060808a013561316681613897565b945060a08a0135935060c08a0135925060e08a013591506101008a013561318c81613897565b809150509295985092959850929598565b6000806000806000608086880312156131b557600080fd5b85356131c081613897565b945060208601356131d081613897565b935060408601356131e0816138ac565b925060608601356001600160401b038111156131fb57600080fd5b61320788828901613017565b969995985093965092949392505050565b60008060008060008060a0878903121561323157600080fd5b863561323c81613897565b9550602087013561324c81613897565b9450604087013593506060870135613263816138ac565b925060808701356001600160401b0381111561327e57600080fd5b61328a89828a01613017565b979a9699509497509295939492505050565b600080600080608085870312156132b257600080fd5b84356132bd81613897565b935060208501356132cd81613897565b92506040850135915060608501356001600160401b038111156132ef57600080fd5b6132fb87828801613058565b91505092959194509250565b6000806040838503121561331a57600080fd5b823561332581613897565b91506020830135613335816138ac565b809150509250929050565b6000806040838503121561335357600080fd5b823561335e81613897565b915060208301356003811061333557600080fd5b6000806040838503121561338557600080fd5b823561339081613897565b946020939093013593505050565b6000806000606084860312156133b357600080fd5b83356133be81613897565b92506020840135915060408401356133d5816138ac565b809150509250925092565b600080600080606085870312156133f657600080fd5b843561340181613897565b93506020850135925060408501356001600160401b0381111561342357600080fd5b61342f87828801613017565b95989497509550505050565b60008060006060848603121561345057600080fd5b833561345b81613897565b92506020840135915060408401356001600160401b0381111561347d57600080fd5b61348986828701613058565b9150509250925092565b600080602083850312156134a657600080fd5b82356001600160401b038111156134bc57600080fd5b6134c885828601612f3e565b90969095509350505050565b6000806000604084860312156134e957600080fd5b83356001600160401b038111156134ff57600080fd5b61350b86828701612f3e565b90945092505060208401356133d5816138ac565b60006020828403121561353157600080fd5b81356001600160401b0381111561354757600080fd5b611b5e84828501612f89565b60006020828403121561356557600080fd5b8151610e76816138ac565b60006020828403121561358257600080fd5b5035919050565b60006020828403121561359b57600080fd5b5051919050565b600080604083850312156135b557600080fd5b50508035926020909101359150565b6001600160a01b0383168152604081016135dd83613879565b8260208301529392505050565b60018060a01b038416815260006020848184015260606040840152835180606085015260005b8181101561362c57858101830151858201608001528201613610565b8181111561363e576000608083870101525b50601f01601f19169290920160800195945050505050565b6101208101818360005b600981101561367f578151835260209283019290910190600101613660565b50505092915050565b6020810161369583613879565b91905290565b608081016136a886613879565b9481526020810193909352604083019190915260609091015290565b6020808252600f908201526e32b93937b92fb7b7363ca7bbb732b960891b604082015260600190565b6020808252600e908201526d32b93937b92fba3930b739b332b960911b604082015260600190565b604051601f8201601f191681016001600160401b038111828210171561373d5761373d613863565b604052919050565b600082198211156137585761375861380b565b500190565b600060ff821660ff84168060ff0382111561377a5761377a61380b565b019392505050565b60008261379f57634e487b7160e01b600052601260045260246000fd5b500490565b60008160001904831182151516156137be576137be61380b565b500290565b6000828210156137d5576137d561380b565b500390565b60006000198214156137ee576137ee61380b565b5060010190565b634e487b7160e01b600052600160045260246000fd5b634e487b7160e01b600052601160045260246000fd5b634e487b7160e01b600052602160045260246000fd5b634e487b7160e01b600052603160045260246000fd5b634e487b7160e01b600052603260045260246000fd5b634e487b7160e01b600052604160045260246000fd5b6003811061175357634e487b7160e01b600052602160045260246000fd5b6001600160a01b038116811461175357600080fd5b801515811461175357600080fdfea2646970667358221220fc562795869cf822647039b06955d25da1e4e792eed34c0cb0bb3b8a69e5bdee64736f6c63430008060033",
  "linkReferences": {},
  "deployedLinkReferences": {}
}