{
  "_format": "hh-sol-artifact-1",
  "contractName": "DataUnionTemplate",
  "sourceName": "contracts/DataUnionTemplate.sol",
  "abi": [
    {
      "inputs": [],
      "stateMutability": "nonpayable",
      "type": "constructor"
    },
    {
      "anonymous": false,
      "inputs": [
        {
          "indexed": false,
          "internalType": "uint256",
          "name": "newAdminFee",
          "type": "uint256"
        },
        {
          "indexed": false,
          "internalType": "uint256",
          "name": "oldAdminFee",
          "type": "uint256"
        }
      ],
      "name": "AdminFeeChanged",
      "type": "event"
    },
    {
      "anonymous": false,
      "inputs": [
        {
          "indexed": true,
          "internalType": "address",
          "name": "member",
          "type": "address"
        },
        {
          "indexed": false,
          "internalType": "uint256",
          "name": "amount",
          "type": "uint256"
        }
      ],
      "name": "EarningsWithdrawn",
      "type": "event"
    },
    {
      "anonymous": false,
      "inputs": [
        {
          "indexed": false,
          "internalType": "uint256",
          "name": "adminFee",
          "type": "uint256"
        },
        {
          "indexed": false,
          "internalType": "uint256",
          "name": "dataUnionFee",
          "type": "uint256"
        }
      ],
      "name": "FeesCharged",
      "type": "event"
    },
    {
      "anonymous": false,
      "inputs": [
        {
          "indexed": true,
          "internalType": "contract IJoinListener",
          "name": "listener",
          "type": "address"
        }
      ],
      "name": "JoinListenerAdded",
      "type": "event"
    },
    {
      "anonymous": false,
      "inputs": [
        {
          "indexed": true,
          "internalType": "contract IJoinListener",
          "name": "listener",
          "type": "address"
        }
      ],
      "name": "JoinListenerRemoved",
      "type": "event"
    },
    {
      "anonymous": false,
      "inputs": [
        {
          "indexed": true,
          "internalType": "address",
          "name": "agent",
          "type": "address"
        }
      ],
      "name": "JoinPartAgentAdded",
      "type": "event"
    },
    {
      "anonymous": false,
      "inputs": [
        {
          "indexed": true,
          "internalType": "address",
          "name": "agent",
          "type": "address"
        }
      ],
      "name": "JoinPartAgentRemoved",
      "type": "event"
    },
    {
      "anonymous": false,
      "inputs": [
        {
          "indexed": true,
          "internalType": "address",
          "name": "member",
          "type": "address"
        }
      ],
      "name": "MemberJoined",
      "type": "event"
    },
    {
      "anonymous": false,
      "inputs": [
        {
          "indexed": true,
          "internalType": "address",
          "name": "member",
          "type": "address"
        },
        {
          "indexed": true,
          "internalType": "enum LeaveConditionCode",
          "name": "leaveConditionCode",
          "type": "uint8"
        }
      ],
      "name": "MemberParted",
      "type": "event"
    },
    {
      "anonymous": false,
      "inputs": [
        {
          "indexed": false,
          "internalType": "string",
          "name": "newMetadata",
          "type": "string"
        }
      ],
      "name": "MetadataChanged",
      "type": "event"
    },
    {
      "anonymous": false,
      "inputs": [
        {
          "indexed": false,
          "internalType": "uint256",
          "name": "earningsPerMember",
          "type": "uint256"
        },
        {
          "indexed": false,
          "internalType": "uint256",
          "name": "activeMemberCount",
          "type": "uint256"
        }
      ],
      "name": "NewEarnings",
      "type": "event"
    },
    {
      "anonymous": false,
      "inputs": [
        {
          "indexed": false,
          "internalType": "uint256",
          "name": "newMemberStipendWei",
          "type": "uint256"
        },
        {
          "indexed": false,
          "internalType": "uint256",
          "name": "oldMemberStipendWei",
          "type": "uint256"
        }
      ],
      "name": "NewMemberEthChanged",
      "type": "event"
    },
    {
      "anonymous": false,
      "inputs": [
        {
          "indexed": false,
          "internalType": "uint256",
          "name": "amountWei",
          "type": "uint256"
        }
      ],
      "name": "NewMemberEthSent",
      "type": "event"
    },
    {
      "anonymous": false,
      "inputs": [
        {
          "indexed": true,
          "internalType": "address",
          "name": "previousOwner",
          "type": "address"
        },
        {
          "indexed": true,
          "internalType": "address",
          "name": "newOwner",
          "type": "address"
        }
      ],
      "name": "OwnershipTransferred",
      "type": "event"
    },
    {
      "anonymous": false,
      "inputs": [
        {
          "indexed": true,
          "internalType": "contract IPartListener",
          "name": "listener",
          "type": "address"
        }
      ],
      "name": "PartListenerAdded",
      "type": "event"
    },
    {
      "anonymous": false,
      "inputs": [
        {
          "indexed": true,
          "internalType": "contract IPartListener",
          "name": "listener",
          "type": "address"
        }
      ],
      "name": "PartListenerRemoved",
      "type": "event"
    },
    {
      "anonymous": false,
      "inputs": [
        {
          "indexed": false,
          "internalType": "uint256",
          "name": "amount",
          "type": "uint256"
        }
      ],
      "name": "RevenueReceived",
      "type": "event"
    },
    {
      "anonymous": false,
      "inputs": [
        {
          "indexed": true,
          "internalType": "address",
          "name": "from",
          "type": "address"
        },
        {
          "indexed": true,
          "internalType": "address",
          "name": "to",
          "type": "address"
        },
        {
          "indexed": false,
          "internalType": "uint256",
          "name": "amount",
          "type": "uint256"
        }
      ],
      "name": "TransferToAddressInContract",
      "type": "event"
    },
    {
      "anonymous": false,
      "inputs": [
        {
          "indexed": true,
          "internalType": "address",
          "name": "from",
          "type": "address"
        },
        {
          "indexed": true,
          "internalType": "address",
          "name": "to",
          "type": "address"
        },
        {
          "indexed": false,
          "internalType": "uint256",
          "name": "amount",
          "type": "uint256"
        }
      ],
      "name": "TransferWithinContract",
      "type": "event"
    },
    {
      "anonymous": false,
      "inputs": [
        {
          "indexed": true,
          "internalType": "contract IWithdrawModule",
          "name": "withdrawModule",
          "type": "address"
        }
      ],
      "name": "WithdrawModuleChanged",
      "type": "event"
    },
    {
      "inputs": [],
      "name": "activeMemberCount",
      "outputs": [
        {
          "internalType": "uint256",
          "name": "",
          "type": "uint256"
        }
      ],
      "stateMutability": "view",
      "type": "function"
    },
    {
      "inputs": [
        {
          "internalType": "contract IJoinListener",
          "name": "newListener",
          "type": "address"
        }
      ],
      "name": "addJoinListener",
      "outputs": [],
      "stateMutability": "nonpayable",
      "type": "function"
    },
    {
      "inputs": [
        {
          "internalType": "address",
          "name": "agent",
          "type": "address"
        }
      ],
      "name": "addJoinPartAgent",
      "outputs": [],
      "stateMutability": "nonpayable",
      "type": "function"
    },
    {
      "inputs": [
        {
          "internalType": "address[]",
          "name": "agents",
          "type": "address[]"
        }
      ],
      "name": "addJoinPartAgents",
      "outputs": [],
      "stateMutability": "nonpayable",
      "type": "function"
    },
    {
      "inputs": [
        {
          "internalType": "address payable",
          "name": "newMember",
          "type": "address"
        }
      ],
      "name": "addMember",
      "outputs": [],
      "stateMutability": "nonpayable",
      "type": "function"
    },
    {
      "inputs": [
        {
          "internalType": "address payable[]",
          "name": "members",
          "type": "address[]"
        }
      ],
      "name": "addMembers",
      "outputs": [],
      "stateMutability": "nonpayable",
      "type": "function"
    },
    {
      "inputs": [
        {
          "internalType": "contract IPartListener",
          "name": "newListener",
          "type": "address"
        }
      ],
      "name": "addPartListener",
      "outputs": [],
      "stateMutability": "nonpayable",
      "type": "function"
    },
    {
      "inputs": [],
      "name": "adminFeeFraction",
      "outputs": [
        {
          "internalType": "uint256",
          "name": "",
          "type": "uint256"
        }
      ],
      "stateMutability": "view",
      "type": "function"
    },
    {
      "inputs": [],
      "name": "claimOwnership",
      "outputs": [],
      "stateMutability": "nonpayable",
      "type": "function"
    },
    {
      "inputs": [
        {
          "internalType": "address",
          "name": "member",
          "type": "address"
        }
      ],
      "name": "getEarnings",
      "outputs": [
        {
          "internalType": "uint256",
          "name": "",
          "type": "uint256"
        }
      ],
      "stateMutability": "view",
      "type": "function"
    },
    {
      "inputs": [],
      "name": "getStats",
      "outputs": [
        {
          "internalType": "uint256[9]",
          "name": "",
          "type": "uint256[9]"
        }
      ],
      "stateMutability": "view",
      "type": "function"
    },
    {
      "inputs": [
        {
          "internalType": "address",
          "name": "member",
          "type": "address"
        }
      ],
      "name": "getWithdrawableEarnings",
      "outputs": [
        {
          "internalType": "uint256",
          "name": "",
          "type": "uint256"
        }
      ],
      "stateMutability": "view",
      "type": "function"
    },
    {
      "inputs": [
        {
          "internalType": "address",
          "name": "member",
          "type": "address"
        }
      ],
      "name": "getWithdrawn",
      "outputs": [
        {
          "internalType": "uint256",
          "name": "",
          "type": "uint256"
        }
      ],
      "stateMutability": "view",
      "type": "function"
    },
    {
      "inputs": [],
      "name": "inactiveMemberCount",
      "outputs": [
        {
          "internalType": "uint256",
          "name": "",
          "type": "uint256"
        }
      ],
      "stateMutability": "view",
      "type": "function"
    },
    {
      "inputs": [
        {
          "internalType": "address",
          "name": "initialOwner",
          "type": "address"
        },
        {
          "internalType": "address",
          "name": "tokenAddress",
          "type": "address"
        },
        {
          "internalType": "address[]",
          "name": "initialJoinPartAgents",
          "type": "address[]"
        },
        {
          "internalType": "uint256",
          "name": "defaultNewMemberEth",
          "type": "uint256"
        },
        {
          "internalType": "uint256",
          "name": "initialAdminFeeFraction",
          "type": "uint256"
        },
        {
          "internalType": "address",
          "name": "protocolFeeOracleAddress",
          "type": "address"
        },
        {
          "internalType": "string",
          "name": "initialMetadataJsonString",
          "type": "string"
        }
      ],
      "name": "initialize",
      "outputs": [],
      "stateMutability": "nonpayable",
      "type": "function"
    },
    {
      "inputs": [],
      "name": "isInitialized",
      "outputs": [
        {
          "internalType": "bool",
          "name": "",
          "type": "bool"
        }
      ],
      "stateMutability": "view",
      "type": "function"
    },
    {
      "inputs": [
        {
          "internalType": "address",
          "name": "agent",
          "type": "address"
        }
      ],
      "name": "isJoinPartAgent",
      "outputs": [
        {
          "internalType": "bool",
          "name": "",
          "type": "bool"
        }
      ],
      "stateMutability": "view",
      "type": "function"
    },
    {
      "inputs": [
        {
          "internalType": "address",
          "name": "member",
          "type": "address"
        }
      ],
      "name": "isMember",
      "outputs": [
        {
          "internalType": "bool",
          "name": "",
          "type": "bool"
        }
      ],
      "stateMutability": "view",
      "type": "function"
    },
    {
      "inputs": [
        {
          "internalType": "uint256",
          "name": "",
          "type": "uint256"
        }
      ],
      "name": "joinListeners",
      "outputs": [
        {
          "internalType": "address",
          "name": "",
          "type": "address"
        }
      ],
      "stateMutability": "view",
      "type": "function"
    },
    {
      "inputs": [],
      "name": "joinPartAgentCount",
      "outputs": [
        {
          "internalType": "uint256",
          "name": "",
          "type": "uint256"
        }
      ],
      "stateMutability": "view",
      "type": "function"
    },
    {
      "inputs": [
        {
          "internalType": "address",
          "name": "",
          "type": "address"
        }
      ],
      "name": "joinPartAgents",
      "outputs": [
        {
          "internalType": "enum DataUnionTemplate.ActiveStatus",
          "name": "",
          "type": "uint8"
        }
      ],
      "stateMutability": "view",
      "type": "function"
    },
    {
      "inputs": [],
      "name": "lifetimeMemberEarnings",
      "outputs": [
        {
          "internalType": "uint256",
          "name": "",
          "type": "uint256"
        }
      ],
      "stateMutability": "view",
      "type": "function"
    },
    {
      "inputs": [],
      "name": "lockModules",
      "outputs": [],
      "stateMutability": "nonpayable",
      "type": "function"
    },
    {
      "inputs": [
        {
          "internalType": "address",
          "name": "",
          "type": "address"
        }
      ],
      "name": "memberData",
      "outputs": [
        {
          "internalType": "enum DataUnionTemplate.ActiveStatus",
          "name": "status",
          "type": "uint8"
        },
        {
          "internalType": "uint256",
          "name": "earningsBeforeLastJoin",
          "type": "uint256"
        },
        {
          "internalType": "uint256",
          "name": "lmeAtJoin",
          "type": "uint256"
        },
        {
          "internalType": "uint256",
          "name": "withdrawnEarnings",
          "type": "uint256"
        }
      ],
      "stateMutability": "view",
      "type": "function"
    },
    {
      "inputs": [],
      "name": "metadataJsonString",
      "outputs": [
        {
          "internalType": "string",
          "name": "",
          "type": "string"
        }
      ],
      "stateMutability": "view",
      "type": "function"
    },
    {
      "inputs": [],
      "name": "modulesLocked",
      "outputs": [
        {
          "internalType": "bool",
          "name": "",
          "type": "bool"
        }
      ],
      "stateMutability": "view",
      "type": "function"
    },
    {
      "inputs": [],
      "name": "newMemberEth",
      "outputs": [
        {
          "internalType": "uint256",
          "name": "",
          "type": "uint256"
        }
      ],
      "stateMutability": "view",
      "type": "function"
    },
    {
      "inputs": [
        {
          "internalType": "address",
          "name": "",
          "type": "address"
        },
        {
          "internalType": "uint256",
          "name": "amount",
          "type": "uint256"
        },
        {
          "internalType": "bytes",
          "name": "data",
          "type": "bytes"
        }
      ],
      "name": "onTokenTransfer",
      "outputs": [],
      "stateMutability": "nonpayable",
      "type": "function"
    },
    {
      "inputs": [],
      "name": "owner",
      "outputs": [
        {
          "internalType": "address",
          "name": "",
          "type": "address"
        }
      ],
      "stateMutability": "view",
      "type": "function"
    },
    {
      "inputs": [
        {
          "internalType": "uint256",
          "name": "",
          "type": "uint256"
        }
      ],
      "name": "partListeners",
      "outputs": [
        {
          "internalType": "address",
          "name": "",
          "type": "address"
        }
      ],
      "stateMutability": "view",
      "type": "function"
    },
    {
      "inputs": [
        {
          "internalType": "address",
          "name": "member",
          "type": "address"
        }
      ],
      "name": "partMember",
      "outputs": [],
      "stateMutability": "nonpayable",
      "type": "function"
    },
    {
      "inputs": [
        {
          "internalType": "address[]",
          "name": "members",
          "type": "address[]"
        }
      ],
      "name": "partMembers",
      "outputs": [],
      "stateMutability": "nonpayable",
      "type": "function"
    },
    {
      "inputs": [],
      "name": "pendingOwner",
      "outputs": [
        {
          "internalType": "address",
          "name": "",
          "type": "address"
        }
      ],
      "stateMutability": "view",
      "type": "function"
    },
    {
      "inputs": [],
      "name": "protocolFeeOracle",
      "outputs": [
        {
          "internalType": "contract IFeeOracle",
          "name": "",
          "type": "address"
        }
      ],
      "stateMutability": "view",
      "type": "function"
    },
    {
      "inputs": [],
      "name": "refreshRevenue",
      "outputs": [
        {
          "internalType": "uint256",
          "name": "",
          "type": "uint256"
        }
      ],
      "stateMutability": "nonpayable",
      "type": "function"
    },
    {
      "inputs": [
        {
          "internalType": "contract IJoinListener",
          "name": "listener",
          "type": "address"
        }
      ],
      "name": "removeJoinListener",
      "outputs": [],
      "stateMutability": "nonpayable",
      "type": "function"
    },
    {
      "inputs": [
        {
          "internalType": "address",
          "name": "agent",
          "type": "address"
        }
      ],
      "name": "removeJoinPartAgent",
      "outputs": [],
      "stateMutability": "nonpayable",
      "type": "function"
    },
    {
      "inputs": [
        {
          "internalType": "address",
          "name": "member",
          "type": "address"
        },
        {
          "internalType": "enum LeaveConditionCode",
          "name": "leaveConditionCode",
          "type": "uint8"
        }
      ],
      "name": "removeMember",
      "outputs": [],
      "stateMutability": "nonpayable",
      "type": "function"
    },
    {
      "inputs": [
        {
          "internalType": "contract IPartListener",
          "name": "listener",
          "type": "address"
        }
      ],
      "name": "removePartListener",
      "outputs": [],
      "stateMutability": "nonpayable",
      "type": "function"
    },
    {
      "inputs": [
        {
          "internalType": "uint256",
          "name": "newAdminFee",
          "type": "uint256"
        }
      ],
      "name": "setAdminFee",
      "outputs": [],
      "stateMutability": "nonpayable",
      "type": "function"
    },
    {
      "inputs": [
        {
          "internalType": "string",
          "name": "newMetadata",
          "type": "string"
        }
      ],
      "name": "setMetadata",
      "outputs": [],
      "stateMutability": "nonpayable",
      "type": "function"
    },
    {
      "inputs": [
        {
          "internalType": "uint256",
          "name": "newMemberStipendWei",
          "type": "uint256"
        }
      ],
      "name": "setNewMemberEth",
      "outputs": [],
      "stateMutability": "nonpayable",
      "type": "function"
    },
    {
      "inputs": [
        {
          "internalType": "contract IWithdrawModule",
          "name": "newWithdrawModule",
          "type": "address"
        }
      ],
      "name": "setWithdrawModule",
      "outputs": [],
      "stateMutability": "nonpayable",
      "type": "function"
    },
    {
      "inputs": [
        {
          "internalType": "address",
          "name": "signer",
          "type": "address"
        },
        {
          "internalType": "address",
          "name": "recipient",
          "type": "address"
        },
        {
          "internalType": "uint256",
          "name": "amount",
          "type": "uint256"
        },
        {
          "internalType": "bytes",
          "name": "signature",
          "type": "bytes"
        }
      ],
      "name": "signatureIsValid",
      "outputs": [
        {
          "internalType": "bool",
          "name": "isValid",
          "type": "bool"
        }
      ],
      "stateMutability": "view",
      "type": "function"
    },
    {
      "inputs": [],
      "name": "token",
      "outputs": [
        {
          "internalType": "contract IERC677",
          "name": "",
          "type": "address"
        }
      ],
      "stateMutability": "view",
      "type": "function"
    },
    {
      "inputs": [],
      "name": "totalAdminFees",
      "outputs": [
        {
          "internalType": "uint256",
          "name": "",
          "type": "uint256"
        }
      ],
      "stateMutability": "view",
      "type": "function"
    },
    {
      "inputs": [],
      "name": "totalEarnings",
      "outputs": [
        {
          "internalType": "uint256",
          "name": "",
          "type": "uint256"
        }
      ],
      "stateMutability": "view",
      "type": "function"
    },
    {
      "inputs": [],
      "name": "totalProtocolFees",
      "outputs": [
        {
          "internalType": "uint256",
          "name": "",
          "type": "uint256"
        }
      ],
      "stateMutability": "view",
      "type": "function"
    },
    {
      "inputs": [],
      "name": "totalRevenue",
      "outputs": [
        {
          "internalType": "uint256",
          "name": "",
          "type": "uint256"
        }
      ],
      "stateMutability": "view",
      "type": "function"
    },
    {
      "inputs": [],
      "name": "totalWithdrawable",
      "outputs": [
        {
          "internalType": "uint256",
          "name": "",
          "type": "uint256"
        }
      ],
      "stateMutability": "view",
      "type": "function"
    },
    {
      "inputs": [],
      "name": "totalWithdrawn",
      "outputs": [
        {
          "internalType": "uint256",
          "name": "",
          "type": "uint256"
        }
      ],
      "stateMutability": "view",
      "type": "function"
    },
    {
      "inputs": [
        {
          "internalType": "address",
          "name": "newOwner",
          "type": "address"
        }
      ],
      "name": "transferOwnership",
      "outputs": [],
      "stateMutability": "nonpayable",
      "type": "function"
    },
    {
      "inputs": [
        {
          "internalType": "address",
          "name": "recipient",
          "type": "address"
        },
        {
          "internalType": "uint256",
          "name": "amount",
          "type": "uint256"
        }
      ],
      "name": "transferToMemberInContract",
      "outputs": [],
      "stateMutability": "nonpayable",
      "type": "function"
    },
    {
      "inputs": [
        {
          "internalType": "address",
          "name": "recipient",
          "type": "address"
        },
        {
          "internalType": "uint256",
          "name": "amount",
          "type": "uint256"
        }
      ],
      "name": "transferWithinContract",
      "outputs": [],
      "stateMutability": "nonpayable",
      "type": "function"
    },
    {
      "inputs": [
        {
          "internalType": "address",
          "name": "member",
          "type": "address"
        },
        {
          "internalType": "uint256",
          "name": "amount",
          "type": "uint256"
        },
        {
          "internalType": "bool",
          "name": "sendToMainnet",
          "type": "bool"
        }
      ],
      "name": "withdraw",
      "outputs": [
        {
          "internalType": "uint256",
          "name": "",
          "type": "uint256"
        }
      ],
      "stateMutability": "nonpayable",
      "type": "function"
    },
    {
      "inputs": [
        {
          "internalType": "address",
          "name": "member",
          "type": "address"
        },
        {
          "internalType": "bool",
          "name": "sendToMainnet",
          "type": "bool"
        }
      ],
      "name": "withdrawAll",
      "outputs": [
        {
          "internalType": "uint256",
          "name": "",
          "type": "uint256"
        }
      ],
      "stateMutability": "nonpayable",
      "type": "function"
    },
    {
      "inputs": [
        {
          "internalType": "address",
          "name": "to",
          "type": "address"
        },
        {
          "internalType": "bool",
          "name": "sendToMainnet",
          "type": "bool"
        }
      ],
      "name": "withdrawAllTo",
      "outputs": [
        {
          "internalType": "uint256",
          "name": "",
          "type": "uint256"
        }
      ],
      "stateMutability": "nonpayable",
      "type": "function"
    },
    {
      "inputs": [
        {
          "internalType": "address",
          "name": "fromSigner",
          "type": "address"
        },
        {
          "internalType": "address",
          "name": "to",
          "type": "address"
        },
        {
          "internalType": "bool",
          "name": "sendToMainnet",
          "type": "bool"
        },
        {
          "internalType": "bytes",
          "name": "signature",
          "type": "bytes"
        }
      ],
      "name": "withdrawAllToSigned",
      "outputs": [
        {
          "internalType": "uint256",
          "name": "withdrawn",
          "type": "uint256"
        }
      ],
      "stateMutability": "nonpayable",
      "type": "function"
    },
    {
      "inputs": [
        {
          "internalType": "address[]",
          "name": "members",
          "type": "address[]"
        },
        {
          "internalType": "bool",
          "name": "sendToMainnet",
          "type": "bool"
        }
      ],
      "name": "withdrawMembers",
      "outputs": [
        {
          "internalType": "uint256",
          "name": "",
          "type": "uint256"
        }
      ],
      "stateMutability": "nonpayable",
      "type": "function"
    },
    {
      "inputs": [],
      "name": "withdrawModule",
      "outputs": [
        {
          "internalType": "contract IWithdrawModule",
          "name": "",
          "type": "address"
        }
      ],
      "stateMutability": "view",
      "type": "function"
    },
    {
      "inputs": [
        {
          "internalType": "address",
          "name": "to",
          "type": "address"
        },
        {
          "internalType": "uint256",
          "name": "amount",
          "type": "uint256"
        },
        {
          "internalType": "bool",
          "name": "sendToMainnet",
          "type": "bool"
        }
      ],
      "name": "withdrawTo",
      "outputs": [
        {
          "internalType": "uint256",
          "name": "",
          "type": "uint256"
        }
      ],
      "stateMutability": "nonpayable",
      "type": "function"
    },
    {
      "inputs": [
        {
          "internalType": "address",
          "name": "fromSigner",
          "type": "address"
        },
        {
          "internalType": "address",
          "name": "to",
          "type": "address"
        },
        {
          "internalType": "uint256",
          "name": "amount",
          "type": "uint256"
        },
        {
          "internalType": "bool",
          "name": "sendToMainnet",
          "type": "bool"
        },
        {
          "internalType": "bytes",
          "name": "signature",
          "type": "bytes"
        }
      ],
      "name": "withdrawToSigned",
      "outputs": [
        {
          "internalType": "uint256",
          "name": "withdrawn",
          "type": "uint256"
        }
      ],
      "stateMutability": "nonpayable",
      "type": "function"
    },
    {
      "stateMutability": "payable",
      "type": "receive"
    }
  ],
  "bytecode": "0x608060405234801561001057600080fd5b50600080546001600160a01b0319169055613ce0806100306000396000f3fe6080604052600436106103b15760003560e01c806373e2290c116101e7578063ae66d9481161010d578063d78e6c0a116100a0578063ead5d3591161006f578063ead5d35914610af7578063f2fde38b14610b17578063f526e39a14610b37578063fc0c546a14610b4d57600080fd5b8063d78e6c0a14610a77578063d88124b714610a97578063e30c397814610ab7578063e6018c3114610ad757600080fd5b8063c59d4847116100dc578063c59d4847146109ff578063ca6d56dc14610a21578063ce7b786414610a41578063d35cec4014610a6157600080fd5b8063ae66d9481461096c578063b274bcc71461098c578063bf2d9e0b146109ac578063c44b73a3146109c257600080fd5b80638f8af0e511610185578063a3fc6b2f11610154578063a3fc6b2f146108ec578063a49a1e7d1461090c578063a4c0ed361461092c578063a4d6ddc01461094c57600080fd5b80638f8af0e5146108365780639107d08e14610856578063a230c524146108ac578063a2d3cf4b146108cc57600080fd5b80637dfef647116101c15780637dfef647146107bc57806385803659146107d65780638beb60b6146107f65780638da5cb5b1461081657600080fd5b806373e2290c1461076657806379049017146107865780637b30ed431461079c57600080fd5b80633d8e36a3116102d75780635fb6c6ed1161026a57806369ee75141161023957806369ee7514146106fb5780636d8018b8146107105780636f4d469b1461072657806371cdfd681461074657600080fd5b80635fb6c6ed1461068f57806361feacff146106a5578063662d45a2146106bb57806368cdc676146106db57600080fd5b80634bee9137116102a65780634bee91371461061a5780634e40ea641461063a5780634e71e0c81461065a578063535ce5d11461066f57600080fd5b80633d8e36a3146105b85780633ea27cfe146105ce5780633ebff90e146105ee5780634b3197131461060457600080fd5b80632afc0a581161034f578063314b5ce31161031e578063314b5ce31461051f578063331beb5f1461055757806336f5847d1461056c578063392e53cd1461058c57600080fd5b80632afc0a58146104a95780632b94411f146104c95780632df3eba4146104e95780632e0d4212146104ff57600080fd5b8063157c05961161038b578063157c0596146104275780631796621a1461044957806317966e09146104695780631a79246c1461048957600080fd5b80630600a865146103bd57806309a6400b146103e5578063131b9c041461040757600080fd5b366103b857005b600080fd5b3480156103c957600080fd5b506103d2610b6d565b6040519081526020015b60405180910390f35b3480156103f157600080fd5b506104056104003660046133cf565b610b84565b005b34801561041357600080fd5b506103d26104223660046133cf565b610c8e565b34801561043357600080fd5b5061043c610d49565b6040516103dc9190613a39565b34801561045557600080fd5b50610405610464366004613841565b610dd7565b34801561047557600080fd5b506104056104843660046136ba565b610e45565b34801561049557600080fd5b506103d26104a436600461353a565b611067565b3480156104b557600080fd5b506104056104c4366004613409565b611103565b3480156104d557600080fd5b506103d26104e4366004613681565b6111e5565b3480156104f557600080fd5b506103d2600c5481565b34801561050b57600080fd5b506103d261051a3660046133cf565b61120c565b34801561052b57600080fd5b5060045461053f906001600160a01b031681565b6040516001600160a01b0390911681526020016103dc565b34801561056357600080fd5b506103d26112de565b34801561057857600080fd5b506104056105873660046133cf565b61170c565b34801561059857600080fd5b506002546001600160a01b031615155b60405190151581526020016103dc565b3480156105c457600080fd5b506103d260115481565b3480156105da57600080fd5b506104056105e93660046133cf565b6117a3565b3480156105fa57600080fd5b506103d260135481565b34801561061057600080fd5b506103d2600f5481565b34801561062657600080fd5b506103d2610635366004613681565b61187e565b34801561064657600080fd5b506104056106553660046133cf565b61189c565b34801561066657600080fd5b506104056118c1565b34801561067b57600080fd5b5061040561068a3660046133cf565b611978565b34801561069b57600080fd5b506103d260105481565b3480156106b157600080fd5b506103d2600d5481565b3480156106c757600080fd5b506104056106d63660046133cf565b611a53565b3480156106e757600080fd5b506105a86106f63660046133cf565b611b56565b34801561070757600080fd5b50610405611b8e565b34801561071c57600080fd5b506103d260125481565b34801561073257600080fd5b506104056107413660046137b5565b611bc7565b34801561075257600080fd5b506104056107613660046136ec565b611c0e565b34801561077257600080fd5b506103d2610781366004613718565b611cde565b34801561079257600080fd5b506103d260085481565b3480156107a857600080fd5b506104056107b73660046137b5565b611cf4565b3480156107c857600080fd5b506007546105a89060ff1681565b3480156107e257600080fd5b5061053f6107f13660046138c7565b611d3b565b34801561080257600080fd5b506104056108113660046138c7565b611d65565b34801561082257600080fd5b5060005461053f906001600160a01b031681565b34801561084257600080fd5b5060035461053f906001600160a01b031681565b34801561086257600080fd5b5061089c6108713660046133cf565b601460205260009081526040902080546001820154600283015460039093015460ff90921692909184565b6040516103dc94939291906139e1565b3480156108b857600080fd5b506105a86108c73660046133cf565b611ea5565b3480156108d857600080fd5b506105a86108e73660046135be565b611ed6565b3480156108f857600080fd5b506104056109073660046133cf565b6120b6565b34801561091857600080fd5b50610405610927366004613892565b61217b565b34801561093857600080fd5b5061040561094736600461375a565b6121ef565b34801561095857600080fd5b506103d26109673660046137f6565b61233b565b34801561097857600080fd5b506103d26109873660046133cf565b61239f565b34801561099857600080fd5b506104056109a73660046136ec565b612418565b3480156109b857600080fd5b506103d2600b5481565b3480156109ce57600080fd5b506109f26109dd3660046133cf565b60156020526000908152604090205460ff1681565b6040516103dc91906139ce565b348015610a0b57600080fd5b50610a14612643565b6040516103dc919061399c565b348015610a2d57600080fd5b50610405610a3c3660046133cf565b6127aa565b348015610a4d57600080fd5b506103d2610a5c3660046134bf565b612a4c565b348015610a6d57600080fd5b506103d260095481565b348015610a8357600080fd5b50610405610a923660046133cf565b612af9565b348015610aa357600080fd5b5061053f610ab23660046138c7565b612bbe565b348015610ac357600080fd5b5060015461053f906001600160a01b031681565b348015610ae357600080fd5b50610405610af23660046138c7565b612bce565b348015610b0357600080fd5b506103d2610b12366004613718565b612c36565b348015610b2357600080fd5b50610405610b323660046133cf565b612ca6565b348015610b4357600080fd5b506103d2600e5481565b348015610b5957600080fd5b5060025461053f906001600160a01b031681565b6000600f54600b54610b7f9190613b78565b905090565b6000546001600160a01b03163314610bb75760405162461bcd60e51b8152600401610bae90613a4c565b60405180910390fd5b60016001600160a01b03821660009081526015602052604090205460ff166002811115610be657610be6613c11565b14610c2a5760405162461bcd60e51b8152602060048201526014602482015273195c9c9bdc97db9bdd1058dd1a5d995059d95b9d60621b6044820152606401610bae565b6001600160a01b038116600081815260156020526040808220805460ff19166002179055517feac6c7d5a1c157497119a5d4f661d5f23b844c415452ef440ed346bd127d885e9190a2600160136000828254610c869190613b78565b909155505050565b6001600160a01b038116600090815260146020526040812081815460ff166002811115610cbd57610cbd613c11565b1415610cfd5760405162461bcd60e51b815260206004820152600f60248201526e32b93937b92fb737ba26b2b6b132b960891b6044820152606401610bae565b6001815460ff166002811115610d1557610d15613c11565b14610d21576000610d33565b8060020154601254610d339190613b78565b8160010154610d429190613afa565b9392505050565b600a8054610d5690613b8f565b80601f0160208091040260200160405190810160405280929190818152602001828054610d8290613b8f565b8015610dcf5780601f10610da457610100808354040283529160200191610dcf565b820191906000526020600020905b815481529060010190602001808311610db257829003601f168201915b505050505081565b6000546001600160a01b03163314610e015760405162461bcd60e51b8152600401610bae90613a4c565b60005b8151811015610e4157610e2f828281518110610e2257610e22613c3d565b6020026020010151611a53565b80610e3981613bca565b915050610e04565b5050565b336001600160a01b0383161480610e7f575060013360009081526015602052604090205460ff166002811115610e7d57610e7d613c11565b145b610ec05760405162461bcd60e51b8152602060048201526012602482015271195c9c9bdc97db9bdd14195c9b5a5d1d195960721b6044820152606401610bae565b610ec982611ea5565b610f0d5760405162461bcd60e51b815260206004820152601560248201527432b93937b92fb737ba20b1ba34bb32a6b2b6b132b960591b6044820152606401610bae565b610f1682610c8e565b6001600160a01b0383166000908152601460205260408120600180820193909355805460ff1916600217905560108054909190610f54908490613b78565b92505081905550600160116000828254610f6e9190613afa565b909155508190506002811115610f8657610f86613c11565b6040516001600160a01b038416907f5f1690f61957d783b6db3a7cfd5802c10639675ed2c25d2e998b4dfaf6ae426f90600090a360005b60065481101561105957600060068281548110610fdc57610fdc613c3d565b6000918252602090912001546040516309a56ffd60e41b81526001600160a01b0390911691508190639a56ffd09061101a9087908790600401613946565b600060405180830381600087803b15801561103457600080fd5b505af1925050508015611045575060015b50508061105181613bca565b915050610fbd565b506110626112de565b505050565b60006110ab87878786868080601f016020809104026020016040519081016040528093929190818152602001838380828437600092019190915250611ed692505050565b6110ec5760405162461bcd60e51b81526020600482015260126024820152716572726f725f6261645369676e617475726560701b6044820152606401610bae565b6110f887878787612cf2565b979650505050505050565b6002546001600160a01b03161561115c5760405162461bcd60e51b815260206004820152601860248201527f6572726f725f616c7265616479496e697469616c697a656400000000000000006044820152606401610bae565b600380546001600160a01b038086166001600160a01b0319928316179092556000805482163317905560028054928a169290911691909117905561119f86610dd7565b6111a884611d65565b6111b185612bce565b6111bb828261217b565b5050600080546001600160a01b0319166001600160a01b0397909716969096179095555050505050565b60006111ef6112de565b50611203836111fd3361120c565b84611cde565b90505b92915050565b6000806112188361239f565b61122184610c8e565b61122b9190613b78565b6004549091506001600160a01b0316156112065760048054604051630b8eada360e31b81526001600160a01b03868116938201939093526024810184905260009290911690635c756d189060440160206040518083038186803b15801561129157600080fd5b505afa1580156112a5573d6000803e3d6000fd5b505050506040513d601f19601f820116820180604052508101906112c991906138e0565b9050818110156112d7578091505b5092915050565b6002546040516370a0823160e01b815230600482015260009182916001600160a01b03909116906370a082319060240160206040518083038186803b15801561132657600080fd5b505afa15801561133a573d6000803e3d6000fd5b505050506040513d601f19601f8201168201806040525081019061135e91906138e0565b9050600061136a610b6d565b6113749083613b78565b90508015806113835750601054155b156113915760009250505090565b80600b60008282546113a39190613afa565b90915550506040518181527f41b06c6e0a1531dcb4b86d53ec6268666aa12d55775f8e5a63596fc935cdcc229060200160405180910390a160035460405163ecc6395760e01b81523060048201526000916001600160a01b03169063ecc639579060240160206040518083038186803b15801561141f57600080fd5b505afa158015611433573d6000803e3d6000fd5b505050506040513d601f19601f8201168201806040525081019061145791906138e0565b90506000600360009054906101000a90046001600160a01b03166001600160a01b03166338af3eed6040518163ffffffff1660e01b815260040160206040518083038186803b1580156114a957600080fd5b505afa1580156114bd573d6000803e3d6000fd5b505050506040513d601f19601f820116820180604052508101906114e191906133ec565b9050670de0b6b3a7640000826009546114fa9190613afa565b11156115165761151282670de0b6b3a7640000613b78565b6009555b6000670de0b6b3a76400006009548561152f9190613b59565b6115399190613b37565b90506000670de0b6b3a76400006115508587613b59565b61155a9190613b37565b90506000816115698488613b78565b6115739190613b78565b60005490915061158c906001600160a01b031684612f3b565b6115968483612f3b565b82600d60008282546115a89190613afa565b9250508190555081600e60008282546115c19190613afa565b909155505060408051848152602081018490527f4fed68db354fc9a4a85e24ef5dc3a7bea31a6b507ecaaa263f65fa1c70ab647c910160405180910390a160006010548261160f9190613b37565b90508060125461161f9190613afa565b601255600c54611630908390613afa565b600c556010546040805183815260208101929092527f24a9873073eba764d17ef9fa7475b3b209c02e6e6f7ed991c9c80e09226a37a7910160405180910390a1611678610b6d565b6002546040516370a0823160e01b81523060048201526001600160a01b03909116906370a082319060240160206040518083038186803b1580156116bb57600080fd5b505afa1580156116cf573d6000803e3d6000fd5b505050506040513d601f19601f820116820180604052508101906116f391906138e0565b1461170057611700613be5565b50979650505050505050565b6000546001600160a01b031633146117365760405162461bcd60e51b8152600401610bae90613a4c565b60075460ff16156117595760405162461bcd60e51b8152600401610bae90613a9d565b600480546001600160a01b0319166001600160a01b0383169081179091556040517f5baac16b14d7b635a00727fea8f8ed8be743136944f21f24198375d2caa7e31e90600090a250565b6000546001600160a01b031633146117cd5760405162461bcd60e51b8152600401610bae90613a4c565b60075460ff16156117f05760405162461bcd60e51b8152600401610bae90613a9d565b6117fb600582612fb1565b6118475760405162461bcd60e51b815260206004820152601a60248201527f6572726f725f6a6f696e4c697374656e65724e6f74466f756e640000000000006044820152606401610bae565b6040516001600160a01b038216907fc2930df8ca9cd93c736bf3cc100569fe72b69c28099dab7f24288e527bbda74890600090a250565b60006118886112de565b50611203836118968561120c565b84612c36565b6118be81336001600160a01b038216146118b7576001610e45565b6000610e45565b50565b6001546001600160a01b031633146119145760405162461bcd60e51b815260206004820152601660248201527532b93937b92fb7b7363ca832b73234b733a7bbb732b960511b6044820152606401610bae565b600154600080546040516001600160a01b0393841693909116917f8be0079c531659141344cd1fd0a4f28419497f9722a3daafe3b4186f6b6457e091a360018054600080546001600160a01b03199081166001600160a01b03841617909155169055565b6000546001600160a01b031633146119a25760405162461bcd60e51b8152600401610bae90613a4c565b60075460ff16156119c55760405162461bcd60e51b8152600401610bae90613a9d565b6119d0600682612fb1565b611a1c5760405162461bcd60e51b815260206004820152601a60248201527f6572726f725f706172744c697374656e65724e6f74466f756e640000000000006044820152606401610bae565b6040516001600160a01b038216907f9bbfbcf74777ac8fbf537a6b375c7b2030b8f66a5c71a7c2567fe22e7b099b0890600090a250565b6000546001600160a01b03163314611a7d5760405162461bcd60e51b8152600401610bae90613a4c565b60016001600160a01b03821660009081526015602052604090205460ff166002811115611aac57611aac613c11565b1415611afa5760405162461bcd60e51b815260206004820152601860248201527f6572726f725f616c72656164794163746976654167656e7400000000000000006044820152606401610bae565b6001600160a01b038116600081815260156020526040808220805460ff19166001179055517f10581818fb1ffbfd9ac8500cba931a30c3a57b5e9b7972f2fa0aef002b3fde2b9190a2600160136000828254610c869190613afa565b600060016001600160a01b03831660009081526015602052604090205460ff166002811115611b8757611b87613c11565b1492915050565b6000546001600160a01b03163314611bb85760405162461bcd60e51b8152600401610bae90613a4c565b6007805460ff19166001179055565b60005b8181101561106257611bfc838383818110611be757611be7613c3d565b9050602002016020810190610a3c91906133cf565b80611c0681613bca565b915050611bca565b80611c183361120c565b1015611c625760405162461bcd60e51b81526020600482015260196024820152786572726f725f696e73756666696369656e7442616c616e636560381b6044820152606401610bae565b3360009081526014602052604090206003810154611c81908390613afa565b6003820155611c908383612f3b565b6040518281526001600160a01b0384169033907f638ce96e87261f007ef5c0389bb59b90db3e19c42edee859d6b09739d8d79f7f9060200160405180910390a3611cd86112de565b50505050565b6000611cec33858585612cf2565b949350505050565b60005b8181101561106257611d29838383818110611d1457611d14613c3d565b905060200201602081019061065591906133cf565b80611d3381613bca565b915050611cf7565b60058181548110611d4b57600080fd5b6000918252602090912001546001600160a01b0316905081565b6000546001600160a01b03163314611d8f5760405162461bcd60e51b8152600401610bae90613a4c565b60035460405163ecc6395760e01b81523060048201526000916001600160a01b03169063ecc639579060240160206040518083038186803b158015611dd357600080fd5b505afa158015611de7573d6000803e3d6000fd5b505050506040513d601f19601f82011682018060405250810190611e0b91906138e0565b9050670de0b6b3a7640000611e208284613afa565b1115611e5f5760405162461bcd60e51b815260206004820152600e60248201526d6572726f725f61646d696e46656560901b6044820152606401610bae565b600980549083905560408051848152602081018390527f9cb4aeb5436ced0779e46ff687966e51f25f37bb483f0c5822aeac9be9e67a7e910160405180910390a1505050565b600060016001600160a01b03831660009081526014602052604090205460ff166002811115611b8757611b87613c11565b60008151604114611f295760405162461bcd60e51b815260206004820152601860248201527f6572726f725f6261645369676e61747572654c656e67746800000000000000006044820152606401610bae565b60208201516040830151606084015160001a601b811015611f5257611f4f601b82613b12565b90505b8060ff16601b1480611f6757508060ff16601c145b611fb35760405162461bcd60e51b815260206004820152601960248201527f6572726f725f6261645369676e617475726556657273696f6e000000000000006044820152606401610bae565b6000878730611fc18c61239f565b6040517f19457468657265756d205369676e6564204d6573736167653a0a31303400000060208201526bffffffffffffffffffffffff19606095861b8116603d83015260518201949094529190931b9091166071820152608581019190915260a50160408051601f198184030181528282528051602091820120600080855291840180845281905260ff86169284019290925260608301879052608083018690529092509060019060a0016020604051602081039080840390855afa15801561208e573d6000803e3d6000fd5b5050604051601f1901516001600160a01b038c81169116149650505050505050949350505050565b6000546001600160a01b031633146120e05760405162461bcd60e51b8152600401610bae90613a4c565b60075460ff16156121035760405162461bcd60e51b8152600401610bae90613a9d565b6006805460018101825560009182527ff652222313e28459528d920b65115c16c04f3efc82aaedc97be59f3f377c0d3f0180546001600160a01b0319166001600160a01b03841690811790915560405190917fde5492345cd7090548289c03dc4c85b7557218333e6ecf9ea4fd74405fb07e1791a250565b6000546001600160a01b031633146121a55760405162461bcd60e51b8152600401610bae90613a4c565b6121b1600a8383613209565b507fc5e8f06e682be1cb96bb6e6f0b17a64299e4f96d2e3d04003c3d9c3a8de22f3d82826040516121e3929190613a0a565b60405180910390a15050565b6002546001600160a01b031633146122495760405162461bcd60e51b815260206004820152601760248201527f6572726f725f6f6e6c79546f6b656e436f6e74726163740000000000000000006044820152606401610bae565b60148114156122be57813560601c6122618185612f3b565b83600b60008282546122739190613afa565b90915550506040518481526001600160a01b0382169033907f4e018df3c92158645fcf45007db7029d3fa97d269866be2bd4360c5f5a6163e49060200160405180910390a35061232c565b602081141561232c5781356122d38185612f3b565b83600b60008282546122e59190613afa565b90915550506040518481526001600160a01b0382169033907f4e018df3c92158645fcf45007db7029d3fa97d269866be2bd4360c5f5a6163e49060200160405180910390a3505b6123346112de565b5050505050565b600080805b848110156123965761237886868381811061235d5761235d613c3d565b905060200201602081019061237291906133cf565b8561187e565b6123829083613afa565b91508061238e81613bca565b915050612340565b50949350505050565b6001600160a01b038116600090815260146020526040812081815460ff1660028111156123ce576123ce613c11565b141561240e5760405162461bcd60e51b815260206004820152600f60248201526e32b93937b92fb737ba26b2b6b132b960891b6044820152606401610bae565b6003015492915050565b6124228282612f3b565b80600b60008282546124349190613afa565b90915550506040518181526001600160a01b0383169033907f4e018df3c92158645fcf45007db7029d3fa97d269866be2bd4360c5f5a6163e49060200160405180910390a36002546040516370a0823160e01b81523060048201526000916001600160a01b0316906370a082319060240160206040518083038186803b1580156124bd57600080fd5b505afa1580156124d1573d6000803e3d6000fd5b505050506040513d601f19601f820116820180604052508101906124f591906138e0565b6002546040516323b872dd60e01b8152336004820152306024820152604481018590529192506001600160a01b0316906323b872dd90606401602060405180830381600087803b15801561254857600080fd5b505af115801561255c573d6000803e3d6000fd5b505050506040513d601f19601f820116820180604052508101906125809190613875565b61259c5760405162461bcd60e51b8152600401610bae90613a75565b6002546040516370a0823160e01b81523060048201526000916001600160a01b0316906370a082319060240160206040518083038186803b1580156125e057600080fd5b505afa1580156125f4573d6000803e3d6000fd5b505050506040513d601f19601f8201168201806040525081019061261891906138e0565b9050826126258383613b78565b101561232c5760405162461bcd60e51b8152600401610bae90613a75565b61264b61328d565b601154600354604080516338af3eed60e01b815290516000926001600160a01b0316916338af3eed916004808301926020929190829003018186803b15801561269357600080fd5b505afa1580156126a7573d6000803e3d6000fd5b505050506040513d601f19601f820116820180604052508101906126cb91906133ec565b90506002600080546001600160a01b031681526014602052604090205460ff1660028111156126fc576126fc613c11565b14156127105761270d600183613b78565b91505b60026001600160a01b03821660009081526014602052604090205460ff16600281111561273f5761273f613c11565b141561275357612750600183613b78565b91505b604051806101200160405280600b548152602001600c548152602001600d548152602001600e548152602001600f548152602001601054815260200183815260200160125481526020016013548152509250505090565b6127b333611b56565b6127ff5760405162461bcd60e51b815260206004820152601760248201527f6572726f725f6f6e6c794a6f696e506172744167656e740000000000000000006044820152606401610bae565b6001600160a01b038116600090815260146020526040902061282082611ea5565b156128635760405162461bcd60e51b815260206004820152601360248201527232b93937b92fb0b63932b0b23ca6b2b6b132b960691b6044820152606401610bae565b6002815460ff16600281111561287b5761287b613c11565b141561289a576001601160008282546128949190613b78565b90915550505b600080825460ff1660028111156128b3576128b3613c11565b1480156128c257506000600854115b80156128d057506008544710155b825460ff19166001908117845560125460028501556010805492935090916000906128fc908490613afa565b90915550506040516001600160a01b038416907f0abf3b3f643594d958297062a019458e27d7766629590ac621aa1000fa1298ab90600090a260005b6005548110156129d65760006005828154811061295757612957613c3d565b6000918252602090912001546040516318932a6760e21b81526001600160a01b0387811660048301529091169150819063624ca99c90602401600060405180830381600087803b1580156129aa57600080fd5b505af11580156129be573d6000803e3d6000fd5b505050505080806129ce90613bca565b915050612938565b508015612a44576008546040516001600160a01b0385169180156108fc02916000818181858888f1935050505015612a44577f55e2724f03f2711a94cf86d8b10c57130b103d6c2f1726076fbf9430340d41e7600854604051612a3b91815260200190565b60405180910390a15b611cd86112de565b6000612a918686600086868080601f016020809104026020016040519081016040528093929190818152602001838380828437600092019190915250611ed692505050565b612ad25760405162461bcd60e51b81526020600482015260126024820152716572726f725f6261645369676e617475726560701b6044820152606401610bae565b612ada6112de565b50612aef8686612ae98961120c565b87612cf2565b9695505050505050565b6000546001600160a01b03163314612b235760405162461bcd60e51b8152600401610bae90613a4c565b60075460ff1615612b465760405162461bcd60e51b8152600401610bae90613a9d565b6005805460018101825560009182527f036b6384b5eca791c62761152d0c79bb0604c104a5fb6f4eb0703f3154bb3db00180546001600160a01b0319166001600160a01b03841690811790915560405190917fdabc377fa2f5811c8c6f796d0b4e97f1030390ce5f1806e1870e28b042ae7e4091a250565b60068181548110611d4b57600080fd5b6000546001600160a01b03163314612bf85760405162461bcd60e51b8152600401610bae90613a4c565b600880549082905560408051838152602081018390527fd5b940b7ee8b1759039160ca4734a68a8bd36d3ded559ac043a68d28da314b5891016121e3565b6000336001600160a01b0385161480612c5957506000546001600160a01b031633145b612c9a5760405162461bcd60e51b8152602060048201526012602482015271195c9c9bdc97db9bdd14195c9b5a5d1d195960721b6044820152606401610bae565b611cec84858585612cf2565b6000546001600160a01b03163314612cd05760405162461bcd60e51b8152600401610bae90613a4c565b600180546001600160a01b0319166001600160a01b0392909216919091179055565b600082612d0157506000611cec565b612d096112de565b50612d138561120c565b831115612d5e5760405162461bcd60e51b81526020600482015260196024820152786572726f725f696e73756666696369656e7442616c616e636560381b6044820152606401610bae565b6001600160a01b038516600090815260146020526040812060038101805491928692612d8b908490613afa565b9250508190555083600f6000828254612da49190613afa565b90915550506004546001600160a01b031615612ee2576002546004805460405163a9059cbb60e01b81526001600160a01b0391821692810192909252602482018790529091169063a9059cbb90604401602060405180830381600087803b158015612e0e57600080fd5b505af1158015612e22573d6000803e3d6000fd5b505050506040513d601f19601f82011682018060405250810190612e469190613875565b612e625760405162461bcd60e51b8152600401610bae90613a75565b60048054600254604051630445e43f60e21b81526001600160a01b038a811694820194909452888416602482015290831660448201526064810187905291169063111790fc90608401600060405180830381600087803b158015612ec557600080fd5b505af1158015612ed9573d6000803e3d6000fd5b50505050612eee565b612eee868686866130ee565b856001600160a01b03167f48dc35af7b45e2a81fffad55f6e2fafacdb1d3d0d50d24ebdc16324f5ba757f185604051612f2991815260200190565b60405180910390a25091949350505050565b6001600160a01b03821660009081526014602052604090206001810154612f63908390613afa565b60018201556000815460ff166002811115612f8057612f80613c11565b141561106257805460ff191660021781556011805460019190600090612fa7908490613afa565b9091555050505050565b6000805b835481108015612ff45750826001600160a01b0316848281548110612fdc57612fdc613c3d565b6000918252602090912001546001600160a01b031614155b1561300b57613004600182613afa565b9050612fb5565b835481141561301e576000915050611206565b835461302c90600190613b78565b8110156130b2578354849061304390600190613b78565b8154811061305357613053613c3d565b9060005260206000200160009054906101000a90046001600160a01b031684828154811061308357613083613c3d565b9060005260206000200160006101000a8154816001600160a01b0302191690836001600160a01b031602179055505b838054806130c2576130c2613c27565b600082815260209020600019908201810180546001600160a01b03191690550190555060019392505050565b801561313c5760405162461bcd60e51b815260206004820152601d60248201527f6572726f725f73656e64546f4d61696e6e6574446570726563617465640000006044820152606401610bae565b60025460408051606087901b6bffffffffffffffffffffffff19166020820152815160148183030181526034820192839052630200057560e51b9092526001600160a01b0390921691634000aea09161319b918791879160380161396c565b602060405180830381600087803b1580156131b557600080fd5b505af11580156131c9573d6000803e3d6000fd5b505050506040513d601f19601f820116820180604052508101906131ed9190613875565b611cd85760405162461bcd60e51b8152600401610bae90613a75565b82805461321590613b8f565b90600052602060002090601f016020900481019282613237576000855561327d565b82601f106132505782800160ff1982351617855561327d565b8280016001018555821561327d579182015b8281111561327d578235825591602001919060010190613262565b506132899291506132ac565b5090565b6040518061012001604052806009906020820280368337509192915050565b5b8082111561328957600081556001016132ad565b60008083601f8401126132d357600080fd5b5081356001600160401b038111156132ea57600080fd5b6020830191508360208260051b850101111561330557600080fd5b9250929050565b600082601f83011261331d57600080fd5b813560206001600160401b0382111561333857613338613c53565b8160051b613347828201613aca565b83815282810190868401838801850189101561336257600080fd5b600093505b8584101561170057803561337a81613c87565b835260019390930192918401918401613367565b60008083601f8401126133a057600080fd5b5081356001600160401b038111156133b757600080fd5b60208301915083602082850101111561330557600080fd5b6000602082840312156133e157600080fd5b8135610d4281613c87565b6000602082840312156133fe57600080fd5b8151610d4281613c87565b60008060008060008060008060e0898b03121561342557600080fd5b883561343081613c87565b9750602089013561344081613c87565b965060408901356001600160401b038082111561345c57600080fd5b6134688c838d0161330c565b975060608b0135965060808b0135955060a08b0135915061348882613c87565b90935060c08a0135908082111561349e57600080fd5b506134ab8b828c0161338e565b999c989b5096995094979396929594505050565b6000806000806000608086880312156134d757600080fd5b85356134e281613c87565b945060208601356134f281613c87565b9350604086013561350281613c9c565b925060608601356001600160401b0381111561351d57600080fd5b6135298882890161338e565b969995985093965092949392505050565b60008060008060008060a0878903121561355357600080fd5b863561355e81613c87565b9550602087013561356e81613c87565b945060408701359350606087013561358581613c9c565b925060808701356001600160401b038111156135a057600080fd5b6135ac89828a0161338e565b979a9699509497509295939492505050565b600080600080608085870312156135d457600080fd5b84356135df81613c87565b93506020858101356135f081613c87565b93506040860135925060608601356001600160401b038082111561361357600080fd5b818801915088601f83011261362757600080fd5b81358181111561363957613639613c53565b61364b601f8201601f19168501613aca565b9150808252898482850101111561366157600080fd5b808484018584013760008482840101525080935050505092959194509250565b6000806040838503121561369457600080fd5b823561369f81613c87565b915060208301356136af81613c9c565b809150509250929050565b600080604083850312156136cd57600080fd5b82356136d881613c87565b91506020830135600381106136af57600080fd5b600080604083850312156136ff57600080fd5b823561370a81613c87565b946020939093013593505050565b60008060006060848603121561372d57600080fd5b833561373881613c87565b925060208401359150604084013561374f81613c9c565b809150509250925092565b6000806000806060858703121561377057600080fd5b843561377b81613c87565b93506020850135925060408501356001600160401b0381111561379d57600080fd5b6137a98782880161338e565b95989497509550505050565b600080602083850312156137c857600080fd5b82356001600160401b038111156137de57600080fd5b6137ea858286016132c1565b90969095509350505050565b60008060006040848603121561380b57600080fd5b83356001600160401b0381111561382157600080fd5b61382d868287016132c1565b909450925050602084013561374f81613c9c565b60006020828403121561385357600080fd5b81356001600160401b0381111561386957600080fd5b611cec8482850161330c565b60006020828403121561388757600080fd5b8151610d4281613c9c565b600080602083850312156138a557600080fd5b82356001600160401b038111156138bb57600080fd5b6137ea8582860161338e565b6000602082840312156138d957600080fd5b5035919050565b6000602082840312156138f257600080fd5b5051919050565b6000815180845260005b8181101561391f57602081850181015186830182015201613903565b81811115613931576000602083870101525b50601f01601f19169290920160200192915050565b6001600160a01b03831681526040810161395f83613c69565b8260208301529392505050565b60018060a01b038416815282602082015260606040820152600061399360608301846138f9565b95945050505050565b6101208101818360005b60098110156139c55781518352602092830192909101906001016139a6565b50505092915050565b602081016139db83613c69565b91905290565b608081016139ee86613c69565b9481526020810193909352604083019190915260609091015290565b60208152816020820152818360408301376000818301604090810191909152601f909201601f19160101919050565b60208152600061120360208301846138f9565b6020808252600f908201526e32b93937b92fb7b7363ca7bbb732b960891b604082015260600190565b6020808252600e908201526d32b93937b92fba3930b739b332b960911b604082015260600190565b602080825260139082015272195c9c9bdc97db5bd91d5b195cd31bd8dad959606a1b604082015260600190565b604051601f8201601f191681016001600160401b0381118282101715613af257613af2613c53565b604052919050565b60008219821115613b0d57613b0d613bfb565b500190565b600060ff821660ff84168060ff03821115613b2f57613b2f613bfb565b019392505050565b600082613b5457634e487b7160e01b600052601260045260246000fd5b500490565b6000816000190483118215151615613b7357613b73613bfb565b500290565b600082821015613b8a57613b8a613bfb565b500390565b600181811c90821680613ba357607f821691505b60208210811415613bc457634e487b7160e01b600052602260045260246000fd5b50919050565b6000600019821415613bde57613bde613bfb565b5060010190565b634e487b7160e01b600052600160045260246000fd5b634e487b7160e01b600052601160045260246000fd5b634e487b7160e01b600052602160045260246000fd5b634e487b7160e01b600052603160045260246000fd5b634e487b7160e01b600052603260045260246000fd5b634e487b7160e01b600052604160045260246000fd5b600381106118be57634e487b7160e01b600052602160045260246000fd5b6001600160a01b03811681146118be57600080fd5b80151581146118be57600080fdfea26469706673582212202b68d21be83921c3a8068216b6e8db8b2cd25c57834d8446c54e6a0266e7f5e964736f6c63430008060033",
  "linkReferences": {},
  "deployedLinkReferences": {}
}