{
  "_format": "hh-sol-artifact-1",
  "contractName": "DataUnionFactory",
  "sourceName": "contracts/unichain/DataUnionFactory.sol",
  "abi": [
    {
      "inputs": [
        {
          "internalType": "address",
          "name": "_dataUnionTemplate",
          "type": "address"
        },
        {
          "internalType": "address",
          "name": "_defaultToken",
          "type": "address"
        }
      ],
      "stateMutability": "nonpayable",
      "type": "constructor"
    },
    {
      "anonymous": false,
      "inputs": [
        {
          "indexed": true,
          "internalType": "address",
          "name": "du",
          "type": "address"
        },
        {
          "indexed": true,
          "internalType": "address",
          "name": "owner",
          "type": "address"
        },
        {
          "indexed": false,
          "internalType": "address",
          "name": "template",
          "type": "address"
        }
      ],
      "name": "DUCreated",
      "type": "event"
    },
    {
      "anonymous": false,
      "inputs": [
        {
          "indexed": false,
          "internalType": "uint256",
          "name": "amountWei",
          "type": "uint256"
        }
      ],
      "name": "DUInitialEthSent",
      "type": "event"
    },
    {
      "anonymous": false,
      "inputs": [
        {
          "indexed": false,
          "internalType": "uint256",
          "name": "amountWei",
          "type": "uint256"
        }
      ],
      "name": "OwnerInitialEthSent",
      "type": "event"
    },
    {
      "anonymous": false,
      "inputs": [
        {
          "indexed": true,
          "internalType": "address",
          "name": "previousOwner",
          "type": "address"
        },
        {
          "indexed": true,
          "internalType": "address",
          "name": "newOwner",
          "type": "address"
        }
      ],
      "name": "OwnershipTransferred",
      "type": "event"
    },
    {
      "anonymous": false,
      "inputs": [
        {
          "indexed": true,
          "internalType": "address",
          "name": "mainnet",
          "type": "address"
        },
        {
          "indexed": true,
          "internalType": "address",
          "name": "sidenet",
          "type": "address"
        },
        {
          "indexed": true,
          "internalType": "address",
          "name": "owner",
          "type": "address"
        },
        {
          "indexed": false,
          "internalType": "address",
          "name": "template",
          "type": "address"
        }
      ],
      "name": "SidechainDUCreated",
      "type": "event"
    },
    {
      "anonymous": false,
      "inputs": [
        {
          "indexed": false,
          "internalType": "uint256",
          "name": "amount",
          "type": "uint256"
        }
      ],
      "name": "UpdateDefaultNewMemberInitialEth",
      "type": "event"
    },
    {
      "anonymous": false,
      "inputs": [
        {
          "indexed": false,
          "internalType": "uint256",
          "name": "amount",
          "type": "uint256"
        }
      ],
      "name": "UpdateNewDUInitialEth",
      "type": "event"
    },
    {
      "anonymous": false,
      "inputs": [
        {
          "indexed": false,
          "internalType": "uint256",
          "name": "amount",
          "type": "uint256"
        }
      ],
      "name": "UpdateNewDUOwnerInitialEth",
      "type": "event"
    },
    {
      "inputs": [],
      "name": "claimOwnership",
      "outputs": [],
      "stateMutability": "nonpayable",
      "type": "function"
    },
    {
      "inputs": [],
      "name": "dataUnionTemplate",
      "outputs": [
        {
          "internalType": "address",
          "name": "",
          "type": "address"
        }
      ],
      "stateMutability": "view",
      "type": "function"
    },
    {
      "inputs": [],
      "name": "defaultNewMemberEth",
      "outputs": [
        {
          "internalType": "uint256",
          "name": "",
          "type": "uint256"
        }
      ],
      "stateMutability": "view",
      "type": "function"
    },
    {
      "inputs": [],
      "name": "defaultToken",
      "outputs": [
        {
          "internalType": "address",
          "name": "",
          "type": "address"
        }
      ],
      "stateMutability": "view",
      "type": "function"
    },
    {
      "inputs": [
        {
          "internalType": "address payable",
          "name": "owner",
          "type": "address"
        },
        {
          "internalType": "uint256",
          "name": "adminFeeFraction",
          "type": "uint256"
        },
        {
          "internalType": "uint256",
          "name": "duFeeFraction",
          "type": "uint256"
        },
        {
          "internalType": "address",
          "name": "duBeneficiary",
          "type": "address"
        },
        {
          "internalType": "address[]",
          "name": "agents",
          "type": "address[]"
        }
      ],
      "name": "deployNewDataUnion",
      "outputs": [
        {
          "internalType": "address",
          "name": "",
          "type": "address"
        }
      ],
      "stateMutability": "nonpayable",
      "type": "function"
    },
    {
      "inputs": [
        {
          "internalType": "address",
          "name": "token",
          "type": "address"
        },
        {
          "internalType": "address payable",
          "name": "owner",
          "type": "address"
        },
        {
          "internalType": "address[]",
          "name": "agents",
          "type": "address[]"
        },
        {
          "internalType": "uint256",
          "name": "initialAdminFeeFraction",
          "type": "uint256"
        },
        {
          "internalType": "uint256",
          "name": "initialDataUnionFeeFraction",
          "type": "uint256"
        },
        {
          "internalType": "address",
          "name": "initialDataUnionBeneficiary",
          "type": "address"
        }
      ],
      "name": "deployNewDataUnionUsingToken",
      "outputs": [
        {
          "internalType": "address",
          "name": "",
          "type": "address"
        }
      ],
      "stateMutability": "nonpayable",
      "type": "function"
    },
    {
      "inputs": [],
      "name": "newDUInitialEth",
      "outputs": [
        {
          "internalType": "uint256",
          "name": "",
          "type": "uint256"
        }
      ],
      "stateMutability": "view",
      "type": "function"
    },
    {
      "inputs": [],
      "name": "newDUOwnerInitialEth",
      "outputs": [
        {
          "internalType": "uint256",
          "name": "",
          "type": "uint256"
        }
      ],
      "stateMutability": "view",
      "type": "function"
    },
    {
      "inputs": [],
      "name": "owner",
      "outputs": [
        {
          "internalType": "address",
          "name": "",
          "type": "address"
        }
      ],
      "stateMutability": "view",
      "type": "function"
    },
    {
      "inputs": [],
      "name": "pendingOwner",
      "outputs": [
        {
          "internalType": "address",
          "name": "",
          "type": "address"
        }
      ],
      "stateMutability": "view",
      "type": "function"
    },
    {
      "inputs": [
        {
          "internalType": "uint256",
          "name": "val",
          "type": "uint256"
        }
      ],
      "name": "setNewDUInitialEth",
      "outputs": [],
      "stateMutability": "nonpayable",
      "type": "function"
    },
    {
      "inputs": [
        {
          "internalType": "uint256",
          "name": "val",
          "type": "uint256"
        }
      ],
      "name": "setNewDUOwnerInitialEth",
      "outputs": [],
      "stateMutability": "nonpayable",
      "type": "function"
    },
    {
      "inputs": [
        {
          "internalType": "uint256",
          "name": "val",
          "type": "uint256"
        }
      ],
      "name": "setNewMemberInitialEth",
      "outputs": [],
      "stateMutability": "nonpayable",
      "type": "function"
    },
    {
      "inputs": [
        {
          "internalType": "address",
          "name": "_dataUnionTemplate",
          "type": "address"
        }
      ],
      "name": "setTemplate",
      "outputs": [],
      "stateMutability": "nonpayable",
      "type": "function"
    },
    {
      "inputs": [
        {
          "internalType": "address",
          "name": "newOwner",
          "type": "address"
        }
      ],
      "name": "transferOwnership",
      "outputs": [],
      "stateMutability": "nonpayable",
      "type": "function"
    },
    {
      "stateMutability": "payable",
      "type": "receive"
    }
  ],
  "bytecode": "0x608060405234801561001057600080fd5b50604051610c8c380380610c8c83398101604081905261002f916100fe565b600080546001600160a01b0319163317905561004a82610070565b600380546001600160a01b0319166001600160a01b039290921691909117905550610131565b6000546001600160a01b031633146100c05760405162461bcd60e51b815260206004820152600f60248201526e32b93937b92fb7b7363ca7bbb732b960891b604482015260640160405180910390fd5b600280546001600160a01b0319166001600160a01b0392909216919091179055565b80516001600160a01b03811681146100f957600080fd5b919050565b6000806040838503121561011157600080fd5b61011a836100e2565b9150610128602084016100e2565b90509250929050565b610b4c806101406000396000f3fe6080604052600436106100ec5760003560e01c80638da5cb5b1161008a578063e30c397811610059578063e30c397814610266578063f0ef0b0614610286578063f2fde38b146102a6578063f7c1329e146102c657600080fd5b80638da5cb5b146101ec578063afc6224b1461020c578063d0952db714610230578063e22ab5ae1461025057600080fd5b806374c13fda116100c657806374c13fda1461014f57806379ed60461461018c5780638175e1c6146101ac57806389c716d1146101cc57600080fd5b806337dd8b05146100f85780634e51a8631461011a5780634e71e0c81461013a57600080fd5b366100f357005b600080fd5b34801561010457600080fd5b50610118610113366004610a15565b6102dc565b005b34801561012657600080fd5b50610118610135366004610a15565b61034b565b34801561014657600080fd5b506101186103aa565b34801561015b57600080fd5b5060035461016f906001600160a01b031681565b6040516001600160a01b0390911681526020015b60405180910390f35b34801561019857600080fd5b5061016f6101a7366004610916565b610461565b3480156101b857600080fd5b5060025461016f906001600160a01b031681565b3480156101d857600080fd5b506101186101e73660046108f2565b610488565b3480156101f857600080fd5b5060005461016f906001600160a01b031681565b34801561021857600080fd5b5061022260055481565b604051908152602001610183565b34801561023c57600080fd5b5061016f61024b36600461098c565b6104d4565b34801561025c57600080fd5b5061022260065481565b34801561027257600080fd5b5060015461016f906001600160a01b031681565b34801561029257600080fd5b506101186102a1366004610a15565b6106f7565b3480156102b257600080fd5b506101186102c13660046108f2565b610756565b3480156102d257600080fd5b5061022260045481565b6000546001600160a01b0316331461030f5760405162461bcd60e51b815260040161030690610abf565b60405180910390fd5b60068190556040518181527f7a78bdfbfb2e909f35c05c77e80038cfd0a22c704748eba8b1d20aab76cd5d9c906020015b60405180910390a150565b6000546001600160a01b031633146103755760405162461bcd60e51b815260040161030690610abf565b60048190556040518181527fa02ce31a8a8adcdc2e2811a0c7f5d1eb1aa920ca9fdfaeaebfe3a2163e69a65490602001610340565b6001546001600160a01b031633146103fd5760405162461bcd60e51b815260206004820152601660248201527532b93937b92fb7b7363ca832b73234b733a7bbb732b960511b6044820152606401610306565b600154600080546040516001600160a01b0393841693909116917f8be0079c531659141344cd1fd0a4f28419497f9722a3daafe3b4186f6b6457e091a360018054600080546001600160a01b03199081166001600160a01b03841617909155169055565b60035460009061047e906001600160a01b031687848888886104d4565b9695505050505050565b6000546001600160a01b031633146104b25760405162461bcd60e51b815260040161030690610abf565b600280546001600160a01b0319166001600160a01b0392909216919091179055565b60025460009081906104ee906001600160a01b03166107a2565b600654604051633d9efcfb60e11b81529192506001600160a01b03831691637b3df9f69161052b918b918d918c91908c908c908c90600401610a2e565b600060405180830381600087803b15801561054557600080fd5b505af1158015610559573d6000803e3d6000fd5b50506002546040516001600160a01b0391821681528a82169350908416915081907f90d0a5d098b9a181ff8ddc866f840cc210e5b91eaf27bc267d5822a0deafad259060200160405180910390a46002546040516001600160a01b039182168152888216918316907f65c07de8b1b54039404fe763b8aec97dc65dd5dadf97abea25e0a95878b5e61d9060200160405180910390a36004541580159061060157506004544710155b1561066d576004546040516001600160a01b0383169180156108fc02916000818181858888f193505050501561066d577f517165f169759cdb94227d1c50f4f47895eb099a7f04a780f519bf1739face6f60045460405161066491815260200190565b60405180910390a15b6005541580159061068057506005544710155b156106ec576005546040516001600160a01b0389169180156108fc02916000818181858888f19350505050156106ec577f69e30c0bf438d0d3e0afb7f68d57ef394a0d5e8712f82fa00aa599e42574bc2a6005546040516106e391815260200190565b60405180910390a15b979650505050505050565b6000546001600160a01b031633146107215760405162461bcd60e51b815260040161030690610abf565b60058190556040518181527fe08bf32e9c0e823a76d0088908afba678014c513e2311bba64fc72f38ae8097090602001610340565b6000546001600160a01b031633146107805760405162461bcd60e51b815260040161030690610abf565b600180546001600160a01b0319166001600160a01b0392909216919091179055565b6000604051733d602d80600a3d3981f3363d3d373d3d3d363d7360601b81528260601b60148201526e5af43d82803e903d91602b57fd5bf360881b60288201526037816000f09150506001600160a01b03811661083a5760405162461bcd60e51b8152602060048201526016602482015275115490cc4c4d8dce8818dc99585d194819985a5b195960521b6044820152606401610306565b919050565b803561083a81610afe565b600082601f83011261085b57600080fd5b8135602067ffffffffffffffff8083111561087857610878610ae8565b8260051b604051601f19603f8301168101818110848211171561089d5761089d610ae8565b604052848152838101925086840182880185018910156108bc57600080fd5b600092505b858310156108e6576108d28161083f565b8452928401926001929092019184016108c1565b50979650505050505050565b60006020828403121561090457600080fd5b813561090f81610afe565b9392505050565b600080600080600060a0868803121561092e57600080fd5b853561093981610afe565b94506020860135935060408601359250606086013561095781610afe565b9150608086013567ffffffffffffffff81111561097357600080fd5b61097f8882890161084a565b9150509295509295909350565b60008060008060008060c087890312156109a557600080fd5b86356109b081610afe565b955060208701356109c081610afe565b9450604087013567ffffffffffffffff8111156109dc57600080fd5b6109e889828a0161084a565b945050606087013592506080870135915060a0870135610a0781610afe565b809150509295509295509295565b600060208284031215610a2757600080fd5b5035919050565b600060e0820160018060a01b03808b1684526020818b168186015260e06040860152828a5180855261010087019150828c01945060005b81811015610a83578551851683529483019491830191600101610a65565b5050809450505050508560608301528460808301528360a0830152610ab360c08301846001600160a01b03169052565b98975050505050505050565b6020808252600f908201526e32b93937b92fb7b7363ca7bbb732b960891b604082015260600190565b634e487b7160e01b600052604160045260246000fd5b6001600160a01b0381168114610b1357600080fd5b5056fea26469706673582212207f2cec0514a572959a35cb0762f62792c8f0bb5aeb588c93dd8195315a123ff464736f6c63430008060033",
  "linkReferences": {},
  "deployedLinkReferences": {}
}