{
  "_format": "hh-sol-artifact-1",
  "contractName": "DataTokenMigrator",
  "sourceName": "contracts/DataTokenMigrator.sol",
  "abi": [
    {
      "inputs": [
        {
          "internalType": "contract IERC20",
          "name": "_oldToken",
          "type": "address"
        },
        {
          "internalType": "contract IERC20",
          "name": "_newToken",
          "type": "address"
        }
      ],
      "stateMutability": "nonpayable",
      "type": "constructor"
    },
    {
      "inputs": [],
      "name": "isUpgradeAgent",
      "outputs": [
        {
          "internalType": "bool",
          "name": "",
          "type": "bool"
        }
      ],
      "stateMutability": "pure",
      "type": "function"
    },
    {
      "inputs": [],
      "name": "newToken",
      "outputs": [
        {
          "internalType": "contract IERC20",
          "name": "",
          "type": "address"
        }
      ],
      "stateMutability": "view",
      "type": "function"
    },
    {
      "inputs": [],
      "name": "oldToken",
      "outputs": [
        {
          "internalType": "contract IERC20",
          "name": "",
          "type": "address"
        }
      ],
      "stateMutability": "view",
      "type": "function"
    },
    {
      "inputs": [],
      "name": "originalSupply",
      "outputs": [
        {
          "internalType": "uint256",
          "name": "",
          "type": "uint256"
        }
      ],
      "stateMutability": "view",
      "type": "function"
    },
    {
      "inputs": [
        {
          "internalType": "address",
          "name": "_from",
          "type": "address"
        },
        {
          "internalType": "uint256",
          "name": "_value",
          "type": "uint256"
        }
      ],
      "name": "upgradeFrom",
      "outputs": [],
      "stateMutability": "nonpayable",
      "type": "function"
    }
  ],
  "bytecode": "0x60806040526b03308e196ed175e9be08000060025534801561002057600080fd5b506040516106f43803806106f4833981810160405281019061004291906100df565b816000806101000a81548173ffffffffffffffffffffffffffffffffffffffff021916908373ffffffffffffffffffffffffffffffffffffffff16021790555080600160006101000a81548173ffffffffffffffffffffffffffffffffffffffff021916908373ffffffffffffffffffffffffffffffffffffffff1602179055505050610176565b6000815190506100d98161015f565b92915050565b600080604083850312156100f257600080fd5b6000610100858286016100ca565b9250506020610111858286016100ca565b9150509250929050565b60006101268261013f565b9050919050565b60006101388261011b565b9050919050565b600073ffffffffffffffffffffffffffffffffffffffff82169050919050565b6101688161012d565b811461017357600080fd5b50565b61056f806101856000396000f3fe608060405234801561001057600080fd5b50600436106100575760003560e01c80634b2ba0dd1461005c57806361d3d7a61461007a578063753e88e514610098578063b31c710a146100b4578063c42bd05a146100d2575b600080fd5b6100646100f0565b604051610071919061040d565b60405180910390f35b6100826100f6565b60405161008f91906103b7565b60405180910390f35b6100b260048036038101906100ad91906102ca565b6100ff565b005b6100bc610241565b6040516100c991906103d2565b60405180910390f35b6100da610265565b6040516100e791906103d2565b60405180910390f35b60025481565b60006001905090565b60008054906101000a900473ffffffffffffffffffffffffffffffffffffffff1673ffffffffffffffffffffffffffffffffffffffff163373ffffffffffffffffffffffffffffffffffffffff161461018d576040517f08c379a0000000000000000000000000000000000000000000000000000000008152600401610184906103ed565b60405180910390fd5b600160009054906101000a900473ffffffffffffffffffffffffffffffffffffffff1673ffffffffffffffffffffffffffffffffffffffff1663a9059cbb83836040518363ffffffff1660e01b81526004016101ea92919061038e565b602060405180830381600087803b15801561020457600080fd5b505af1158015610218573d6000803e3d6000fd5b505050506040513d601f19601f8201168201806040525081019061023c9190610306565b505050565b60008054906101000a900473ffffffffffffffffffffffffffffffffffffffff1681565b600160009054906101000a900473ffffffffffffffffffffffffffffffffffffffff1681565b60008135905061029a816104f4565b92915050565b6000815190506102af8161050b565b92915050565b6000813590506102c481610522565b92915050565b600080604083850312156102dd57600080fd5b60006102eb8582860161028b565b92505060206102fc858286016102b5565b9150509250929050565b60006020828403121561031857600080fd5b6000610326848285016102a0565b91505092915050565b61033881610439565b82525050565b6103478161044b565b82525050565b61035681610481565b82525050565b6000610369602883610428565b9150610374826104a5565b604082019050919050565b61038881610477565b82525050565b60006040820190506103a3600083018561032f565b6103b0602083018461037f565b9392505050565b60006020820190506103cc600083018461033e565b92915050565b60006020820190506103e7600083018461034d565b92915050565b600060208201905081810360008301526104068161035c565b9050919050565b6000602082019050610422600083018461037f565b92915050565b600082825260208201905092915050565b600061044482610457565b9050919050565b60008115159050919050565b600073ffffffffffffffffffffffffffffffffffffffff82169050919050565b6000819050919050565b600061048c82610493565b9050919050565b600061049e82610457565b9050919050565b7f43616c6c206e6f74207065726d69747465642c2055706772616461626c65546f60008201527f6b656e206f6e6c79000000000000000000000000000000000000000000000000602082015250565b6104fd81610439565b811461050857600080fd5b50565b6105148161044b565b811461051f57600080fd5b50565b61052b81610477565b811461053657600080fd5b5056fea264697066735822122081f2b2a9f07ef424fc1645fa9ded35b33b587b91599e15324564fb62448df74e64736f6c63430008030033",
  "linkReferences": {},
  "deployedLinkReferences": {}
}