{
  "_format": "hh-sol-artifact-1",
  "contractName": "DataUnionFactoryMainnet",
  "sourceName": "contracts/DataUnionFactoryMainnet.sol",
  "abi": [
    {
      "inputs": [
        {
          "internalType": "address",
          "name": "_dataUnionMainnetTemplate",
          "type": "address"
        },
        {
          "internalType": "address",
          "name": "_dataUnionSidechainTemplate",
          "type": "address"
        },
        {
          "internalType": "address",
          "name": "_dataUnionSidechainFactory",
          "type": "address"
        },
        {
          "internalType": "address",
          "name": "_defaultTokenMainnet",
          "type": "address"
        },
        {
          "internalType": "address",
          "name": "_defaultTokenMediatorMainnet",
          "type": "address"
        },
        {
          "internalType": "address",
          "name": "_defaultTokenSidechain",
          "type": "address"
        },
        {
          "internalType": "address",
          "name": "_defaultTokenMediatorSidechain",
          "type": "address"
        },
        {
          "internalType": "uint256",
          "name": "_sidechainMaxGas",
          "type": "uint256"
        }
      ],
      "stateMutability": "nonpayable",
      "type": "constructor"
    },
    {
      "anonymous": false,
      "inputs": [
        {
          "indexed": true,
          "internalType": "address",
          "name": "mainnet",
          "type": "address"
        },
        {
          "indexed": true,
          "internalType": "address",
          "name": "sidechain",
          "type": "address"
        },
        {
          "indexed": true,
          "internalType": "address",
          "name": "owner",
          "type": "address"
        },
        {
          "indexed": false,
          "internalType": "address",
          "name": "template",
          "type": "address"
        }
      ],
      "name": "MainnetDUCreated",
      "type": "event"
    },
    {
      "inputs": [],
      "name": "dataUnionMainnetTemplate",
      "outputs": [
        {
          "internalType": "address",
          "name": "",
          "type": "address"
        }
      ],
      "stateMutability": "view",
      "type": "function"
    },
    {
      "inputs": [],
      "name": "dataUnionSidechainFactory",
      "outputs": [
        {
          "internalType": "address",
          "name": "",
          "type": "address"
        }
      ],
      "stateMutability": "view",
      "type": "function"
    },
    {
      "inputs": [],
      "name": "dataUnionSidechainTemplate",
      "outputs": [
        {
          "internalType": "address",
          "name": "",
          "type": "address"
        }
      ],
      "stateMutability": "view",
      "type": "function"
    },
    {
      "inputs": [],
      "name": "defaultTokenMainnet",
      "outputs": [
        {
          "internalType": "address",
          "name": "",
          "type": "address"
        }
      ],
      "stateMutability": "view",
      "type": "function"
    },
    {
      "inputs": [],
      "name": "defaultTokenMediatorMainnet",
      "outputs": [
        {
          "internalType": "address",
          "name": "",
          "type": "address"
        }
      ],
      "stateMutability": "view",
      "type": "function"
    },
    {
      "inputs": [],
      "name": "defaultTokenMediatorSidechain",
      "outputs": [
        {
          "internalType": "address",
          "name": "",
          "type": "address"
        }
      ],
      "stateMutability": "view",
      "type": "function"
    },
    {
      "inputs": [],
      "name": "defaultTokenSidechain",
      "outputs": [
        {
          "internalType": "address",
          "name": "",
          "type": "address"
        }
      ],
      "stateMutability": "view",
      "type": "function"
    },
    {
      "inputs": [
        {
          "internalType": "address",
          "name": "owner",
          "type": "address"
        },
        {
          "internalType": "uint256",
          "name": "adminFeeFraction",
          "type": "uint256"
        },
        {
          "internalType": "uint256",
          "name": "duFeeFraction",
          "type": "uint256"
        },
        {
          "internalType": "address",
          "name": "duBeneficiary",
          "type": "address"
        },
        {
          "internalType": "address[]",
          "name": "agents",
          "type": "address[]"
        },
        {
          "internalType": "string",
          "name": "name",
          "type": "string"
        }
      ],
      "name": "deployNewDataUnion",
      "outputs": [
        {
          "internalType": "address",
          "name": "",
          "type": "address"
        }
      ],
      "stateMutability": "nonpayable",
      "type": "function"
    },
    {
      "inputs": [
        {
          "internalType": "address",
          "name": "tokenMainnet",
          "type": "address"
        },
        {
          "internalType": "address",
          "name": "tokenMediatorMainnet",
          "type": "address"
        },
        {
          "internalType": "address",
          "name": "tokenSidechain",
          "type": "address"
        },
        {
          "internalType": "address",
          "name": "tokenMediatorSidechain",
          "type": "address"
        },
        {
          "internalType": "address",
          "name": "owner",
          "type": "address"
        },
        {
          "internalType": "uint256",
          "name": "adminFeeFraction",
          "type": "uint256"
        },
        {
          "internalType": "uint256",
          "name": "duFeeFraction",
          "type": "uint256"
        },
        {
          "internalType": "address",
          "name": "duBeneficiary",
          "type": "address"
        },
        {
          "internalType": "address[]",
          "name": "agents",
          "type": "address[]"
        },
        {
          "internalType": "string",
          "name": "name",
          "type": "string"
        }
      ],
      "name": "deployNewDataUnionUsingToken",
      "outputs": [
        {
          "internalType": "address",
          "name": "",
          "type": "address"
        }
      ],
      "stateMutability": "nonpayable",
      "type": "function"
    },
    {
      "inputs": [
        {
          "internalType": "address",
          "name": "deployer",
          "type": "address"
        },
        {
          "internalType": "string",
          "name": "name",
          "type": "string"
        }
      ],
      "name": "mainnetAddress",
      "outputs": [
        {
          "internalType": "address",
          "name": "",
          "type": "address"
        }
      ],
      "stateMutability": "view",
      "type": "function"
    },
    {
      "inputs": [
        {
          "internalType": "address",
          "name": "mainetAddress",
          "type": "address"
        }
      ],
      "name": "sidechainAddress",
      "outputs": [
        {
          "internalType": "address",
          "name": "",
          "type": "address"
        }
      ],
      "stateMutability": "view",
      "type": "function"
    },
    {
      "inputs": [],
      "name": "sidechainMaxGas",
      "outputs": [
        {
          "internalType": "uint256",
          "name": "",
          "type": "uint256"
        }
      ],
      "stateMutability": "view",
      "type": "function"
    }
  ],
  "bytecode": "0x608060405234801561001057600080fd5b50604051610bce380380610bce83398101604081905261002f916100d0565b600080546001600160a01b03199081166001600160a01b039a8b1617909155600580548216988a1698909817909755600680548816968916969096179095556001805487169488169490941790935560028054861692871692909217909155600380548516918616919091179055600480549093169316929092179055600755610160565b80516001600160a01b03811681146100cb57600080fd5b919050565b600080600080600080600080610100898b0312156100ed57600080fd5b6100f6896100b4565b975061010460208a016100b4565b965061011260408a016100b4565b955061012060608a016100b4565b945061012e60808a016100b4565b935061013c60a08a016100b4565b925061014a60c08a016100b4565b915060e089015190509295985092959890939650565b610a5f8061016f6000396000f3fe608060405234801561001057600080fd5b50600436106100b45760003560e01c806371f6d9651161007157806371f6d9651461014c5780639f7faa571461015f578063b6a7ee6814610172578063ba13683a14610185578063cfeef80714610198578063d4c31bd4146101ab57600080fd5b8063015388a1146100b95780630620a89b146100e95780630b23e95a146100fc5780630edc7f621461011357806317c2a98c146101265780632918bf6714610139575b600080fd5b6006546100cc906001600160a01b031681565b6040516001600160a01b0390911681526020015b60405180910390f35b6002546100cc906001600160a01b031681565b61010560075481565b6040519081526020016100e0565b6001546100cc906001600160a01b031681565b6100cc6101343660046106a5565b6101be565b6100cc6101473660046106c7565b6101e8565b6000546100cc906001600160a01b031681565b6003546100cc906001600160a01b031681565b6004546100cc906001600160a01b031681565b6100cc6101933660046107f2565b610328565b6005546100cc906001600160a01b031681565b6100cc6101b93660046107a4565b610366565b6005546006546000916101e2916001600160a01b03918216919081169085166103b6565b92915050565b60008082336040516020016101fe92919061096e565b60405160208183030381529060405280519060200120905060008c8c8c8c600660009054906101000a90046001600160a01b0316600754600560009054906101000a90046001600160a01b03168f8f8f8f8f60405160240161026b9c9b9a999897969594939291906108e9565b60408051601f198184030181529190526020810180516001600160e01b03166334f0a85b60e21b17905260008054919250906102ba906102b3906001600160a01b0316610424565b8385610476565b9050896001600160a01b03166102cf826101be565b6000546040516001600160a01b03918216815291811691908416907f7bb36c64b37ae129eda8a24fd78defec04cc7a06bb27863c5a4571dd5d70acee9060200160405180910390a49d9c50505050505050505050505050565b60015460025460035460045460009361035b936001600160a01b03918216939082169290821691168b8b8b8b8b8b6101e8565b979650505050505050565b600080828460405160200161037c92919061096e565b60408051601f1981840301815291905280516020909101206000549091506103ae906001600160a01b031630836103b6565b949350505050565b6000806103c285610424565b8051602091820120604080516001600160f81b03198185015260609790971b6bffffffffffffffffffffffff19166021880152603587019590955260558087019190915284518087039091018152607590950190935250508151910120919050565b604080516057810190915260378152733d602d80600a3d3981f3363d3d373d3d3d363d7360601b602082015260609190911b60348201526e5af43d82803e903d91602b57fd5bf360881b604882015290565b825160009082816020870184f591506001600160a01b0382166104d75760405162461bcd60e51b8152602060048201526014602482015273195c9c9bdc97d85b1c9958591e50dc99585d195960621b60448201526064015b60405180910390fd5b835115610584576000826001600160a01b0316856040516104f891906108cd565b6000604051808303816000865af19150503d8060008114610535576040519150601f19603f3d011682016040523d82523d6000602084013e61053a565b606091505b50509050806105825760405162461bcd60e51b815260206004820152601460248201527332b93937b92fb4b734ba34b0b634bd30ba34b7b760611b60448201526064016104ce565b505b509392505050565b80356001600160a01b03811681146105a357600080fd5b919050565b600082601f8301126105b957600080fd5b8135602067ffffffffffffffff8211156105d5576105d5610a13565b8160051b6105e48282016109b2565b8381528281019086840183880185018910156105ff57600080fd5b600093505b85841015610629576106158161058c565b835260019390930192918401918401610604565b50979650505050505050565b600082601f83011261064657600080fd5b813567ffffffffffffffff81111561066057610660610a13565b610673601f8201601f19166020016109b2565b81815284602083860101111561068857600080fd5b816020850160208301376000918101602001919091529392505050565b6000602082840312156106b757600080fd5b6106c08261058c565b9392505050565b6000806000806000806000806000806101408b8d0312156106e757600080fd5b6106f08b61058c565b99506106fe60208c0161058c565b985061070c60408c0161058c565b975061071a60608c0161058c565b965061072860808c0161058c565b955060a08b0135945060c08b0135935061074460e08c0161058c565b92506101008b013567ffffffffffffffff8082111561076257600080fd5b61076e8e838f016105a8565b93506101208d013591508082111561078557600080fd5b506107928d828e01610635565b9150509295989b9194979a5092959850565b600080604083850312156107b757600080fd5b6107c08361058c565b9150602083013567ffffffffffffffff8111156107dc57600080fd5b6107e885828601610635565b9150509250929050565b60008060008060008060c0878903121561080b57600080fd5b6108148761058c565b955060208701359450604087013593506108306060880161058c565b9250608087013567ffffffffffffffff8082111561084d57600080fd5b6108598a838b016105a8565b935060a089013591508082111561086f57600080fd5b5061087c89828a01610635565b9150509295509295509295565b600081518084526020808501945080840160005b838110156108c25781516001600160a01b03168752958201959082019060010161089d565b509495945050505050565b600082516108df8184602087016109e3565b9190910192915050565b600060018060a01b03808f168352808e166020840152808d166040840152808c166060840152808b1660808401528960a084015280891660c084015280881660e084015286610100840152856101208401528085166101408401525061018061016083015261095c610180830184610889565b9e9d5050505050505050505050505050565b604081526000835180604084015261098d8160608501602088016109e3565b6001600160a01b0393909316602083015250601f91909101601f191601606001919050565b604051601f8201601f1916810167ffffffffffffffff811182821017156109db576109db610a13565b604052919050565b60005b838110156109fe5781810151838201526020016109e6565b83811115610a0d576000848401525b50505050565b634e487b7160e01b600052604160045260246000fdfea2646970667358221220e22b90731f4ead583c4d7416b7462cc68eb697e39eaaf99e093c941bb603d0b364736f6c63430008060033",
  "linkReferences": {},
  "deployedLinkReferences": {}
}