{
  "_format": "hh-sol-artifact-1",
  "contractName": "DataUnionTemplate",
  "sourceName": "contracts/unichain/DataUnionTemplate.sol",
  "abi": [
    {
      "inputs": [],
      "stateMutability": "nonpayable",
      "type": "constructor"
    },
    {
      "anonymous": false,
      "inputs": [
        {
          "indexed": true,
          "internalType": "address",
          "name": "current",
          "type": "address"
        },
        {
          "indexed": true,
          "internalType": "address",
          "name": "old",
          "type": "address"
        }
      ],
      "name": "DataUnionBeneficiaryChanged",
      "type": "event"
    },
    {
      "anonymous": false,
      "inputs": [
        {
          "indexed": true,
          "internalType": "address",
          "name": "member",
          "type": "address"
        },
        {
          "indexed": false,
          "internalType": "uint256",
          "name": "amount",
          "type": "uint256"
        }
      ],
      "name": "EarningsWithdrawn",
      "type": "event"
    },
    {
      "anonymous": false,
      "inputs": [
        {
          "indexed": false,
          "internalType": "uint256",
          "name": "adminFee",
          "type": "uint256"
        },
        {
          "indexed": false,
          "internalType": "uint256",
          "name": "dataUnionFee",
          "type": "uint256"
        }
      ],
      "name": "FeesCharged",
      "type": "event"
    },
    {
      "anonymous": false,
      "inputs": [
        {
          "indexed": false,
          "internalType": "uint256",
          "name": "adminFee",
          "type": "uint256"
        },
        {
          "indexed": false,
          "internalType": "uint256",
          "name": "dataUnionFee",
          "type": "uint256"
        }
      ],
      "name": "FeesSet",
      "type": "event"
    },
    {
      "anonymous": false,
      "inputs": [
        {
          "indexed": true,
          "internalType": "contract IJoinListener",
          "name": "listener",
          "type": "address"
        }
      ],
      "name": "JoinListenerAdded",
      "type": "event"
    },
    {
      "anonymous": false,
      "inputs": [
        {
          "indexed": true,
          "internalType": "contract IJoinListener",
          "name": "listener",
          "type": "address"
        }
      ],
      "name": "JoinListenerRemoved",
      "type": "event"
    },
    {
      "anonymous": false,
      "inputs": [
        {
          "indexed": true,
          "internalType": "address",
          "name": "agent",
          "type": "address"
        }
      ],
      "name": "JoinPartAgentAdded",
      "type": "event"
    },
    {
      "anonymous": false,
      "inputs": [
        {
          "indexed": true,
          "internalType": "address",
          "name": "agent",
          "type": "address"
        }
      ],
      "name": "JoinPartAgentRemoved",
      "type": "event"
    },
    {
      "anonymous": false,
      "inputs": [
        {
          "indexed": true,
          "internalType": "address",
          "name": "member",
          "type": "address"
        }
      ],
      "name": "MemberJoined",
      "type": "event"
    },
    {
      "anonymous": false,
      "inputs": [
        {
          "indexed": true,
          "internalType": "address",
          "name": "member",
          "type": "address"
        },
        {
          "indexed": true,
          "internalType": "enum LeaveConditionCode",
          "name": "leaveConditionCode",
          "type": "uint8"
        }
      ],
      "name": "MemberParted",
      "type": "event"
    },
    {
      "anonymous": false,
      "inputs": [
        {
          "indexed": false,
          "internalType": "uint256",
          "name": "earningsPerMember",
          "type": "uint256"
        },
        {
          "indexed": false,
          "internalType": "uint256",
          "name": "activeMemberCount",
          "type": "uint256"
        }
      ],
      "name": "NewEarnings",
      "type": "event"
    },
    {
      "anonymous": false,
      "inputs": [
        {
          "indexed": false,
          "internalType": "uint256",
          "name": "amountWei",
          "type": "uint256"
        }
      ],
      "name": "NewMemberEthSent",
      "type": "event"
    },
    {
      "anonymous": false,
      "inputs": [
        {
          "indexed": true,
          "internalType": "address",
          "name": "previousOwner",
          "type": "address"
        },
        {
          "indexed": true,
          "internalType": "address",
          "name": "newOwner",
          "type": "address"
        }
      ],
      "name": "OwnershipTransferred",
      "type": "event"
    },
    {
      "anonymous": false,
      "inputs": [
        {
          "indexed": true,
          "internalType": "contract IPartListener",
          "name": "listener",
          "type": "address"
        }
      ],
      "name": "PartListenerAdded",
      "type": "event"
    },
    {
      "anonymous": false,
      "inputs": [
        {
          "indexed": true,
          "internalType": "contract IPartListener",
          "name": "listener",
          "type": "address"
        }
      ],
      "name": "PartListenerRemoved",
      "type": "event"
    },
    {
      "anonymous": false,
      "inputs": [
        {
          "indexed": false,
          "internalType": "uint256",
          "name": "amount",
          "type": "uint256"
        }
      ],
      "name": "RevenueReceived",
      "type": "event"
    },
    {
      "anonymous": false,
      "inputs": [
        {
          "indexed": true,
          "internalType": "address",
          "name": "from",
          "type": "address"
        },
        {
          "indexed": true,
          "internalType": "address",
          "name": "to",
          "type": "address"
        },
        {
          "indexed": false,
          "internalType": "uint256",
          "name": "amount",
          "type": "uint256"
        }
      ],
      "name": "TransferToAddressInContract",
      "type": "event"
    },
    {
      "anonymous": false,
      "inputs": [
        {
          "indexed": true,
          "internalType": "address",
          "name": "from",
          "type": "address"
        },
        {
          "indexed": true,
          "internalType": "address",
          "name": "to",
          "type": "address"
        },
        {
          "indexed": false,
          "internalType": "uint256",
          "name": "amount",
          "type": "uint256"
        }
      ],
      "name": "TransferWithinContract",
      "type": "event"
    },
    {
      "anonymous": false,
      "inputs": [
        {
          "indexed": false,
          "internalType": "uint256",
          "name": "value",
          "type": "uint256"
        }
      ],
      "name": "UpdateNewMemberEth",
      "type": "event"
    },
    {
      "anonymous": false,
      "inputs": [
        {
          "indexed": true,
          "internalType": "contract IWithdrawModule",
          "name": "withdrawModule",
          "type": "address"
        }
      ],
      "name": "WithdrawModuleChanged",
      "type": "event"
    },
    {
      "inputs": [],
      "name": "activeMemberCount",
      "outputs": [
        {
          "internalType": "uint256",
          "name": "",
          "type": "uint256"
        }
      ],
      "stateMutability": "view",
      "type": "function"
    },
    {
      "inputs": [
        {
          "internalType": "contract IJoinListener",
          "name": "newListener",
          "type": "address"
        }
      ],
      "name": "addJoinListener",
      "outputs": [],
      "stateMutability": "nonpayable",
      "type": "function"
    },
    {
      "inputs": [
        {
          "internalType": "address",
          "name": "agent",
          "type": "address"
        }
      ],
      "name": "addJoinPartAgent",
      "outputs": [],
      "stateMutability": "nonpayable",
      "type": "function"
    },
    {
      "inputs": [
        {
          "internalType": "address[]",
          "name": "agents",
          "type": "address[]"
        }
      ],
      "name": "addJoinPartAgents",
      "outputs": [],
      "stateMutability": "nonpayable",
      "type": "function"
    },
    {
      "inputs": [
        {
          "internalType": "address payable",
          "name": "newMember",
          "type": "address"
        }
      ],
      "name": "addMember",
      "outputs": [],
      "stateMutability": "nonpayable",
      "type": "function"
    },
    {
      "inputs": [
        {
          "internalType": "address payable[]",
          "name": "members",
          "type": "address[]"
        }
      ],
      "name": "addMembers",
      "outputs": [],
      "stateMutability": "nonpayable",
      "type": "function"
    },
    {
      "inputs": [
        {
          "internalType": "contract IPartListener",
          "name": "newListener",
          "type": "address"
        }
      ],
      "name": "addPartListener",
      "outputs": [],
      "stateMutability": "nonpayable",
      "type": "function"
    },
    {
      "inputs": [],
      "name": "adminFeeFraction",
      "outputs": [
        {
          "internalType": "uint256",
          "name": "",
          "type": "uint256"
        }
      ],
      "stateMutability": "view",
      "type": "function"
    },
    {
      "inputs": [],
      "name": "claimOwnership",
      "outputs": [],
      "stateMutability": "nonpayable",
      "type": "function"
    },
    {
      "inputs": [],
      "name": "dataUnionBeneficiary",
      "outputs": [
        {
          "internalType": "address",
          "name": "",
          "type": "address"
        }
      ],
      "stateMutability": "view",
      "type": "function"
    },
    {
      "inputs": [],
      "name": "dataUnionFeeFraction",
      "outputs": [
        {
          "internalType": "uint256",
          "name": "",
          "type": "uint256"
        }
      ],
      "stateMutability": "view",
      "type": "function"
    },
    {
      "inputs": [
        {
          "internalType": "address",
          "name": "member",
          "type": "address"
        }
      ],
      "name": "getEarnings",
      "outputs": [
        {
          "internalType": "uint256",
          "name": "",
          "type": "uint256"
        }
      ],
      "stateMutability": "view",
      "type": "function"
    },
    {
      "inputs": [],
      "name": "getStats",
      "outputs": [
        {
          "internalType": "uint256[9]",
          "name": "",
          "type": "uint256[9]"
        }
      ],
      "stateMutability": "view",
      "type": "function"
    },
    {
      "inputs": [
        {
          "internalType": "address",
          "name": "member",
          "type": "address"
        }
      ],
      "name": "getWithdrawableEarnings",
      "outputs": [
        {
          "internalType": "uint256",
          "name": "",
          "type": "uint256"
        }
      ],
      "stateMutability": "view",
      "type": "function"
    },
    {
      "inputs": [
        {
          "internalType": "address",
          "name": "member",
          "type": "address"
        }
      ],
      "name": "getWithdrawn",
      "outputs": [
        {
          "internalType": "uint256",
          "name": "",
          "type": "uint256"
        }
      ],
      "stateMutability": "view",
      "type": "function"
    },
    {
      "inputs": [],
      "name": "inactiveMemberCount",
      "outputs": [
        {
          "internalType": "uint256",
          "name": "",
          "type": "uint256"
        }
      ],
      "stateMutability": "view",
      "type": "function"
    },
    {
      "inputs": [
        {
          "internalType": "address",
          "name": "initialOwner",
          "type": "address"
        },
        {
          "internalType": "address",
          "name": "tokenAddress",
          "type": "address"
        },
        {
          "internalType": "address[]",
          "name": "initialJoinPartAgents",
          "type": "address[]"
        },
        {
          "internalType": "uint256",
          "name": "defaultNewMemberEth",
          "type": "uint256"
        },
        {
          "internalType": "uint256",
          "name": "initialAdminFeeFraction",
          "type": "uint256"
        },
        {
          "internalType": "uint256",
          "name": "initialDataUnionFeeFraction",
          "type": "uint256"
        },
        {
          "internalType": "address",
          "name": "initialDataUnionBeneficiary",
          "type": "address"
        }
      ],
      "name": "initialize",
      "outputs": [],
      "stateMutability": "nonpayable",
      "type": "function"
    },
    {
      "inputs": [],
      "name": "isInitialized",
      "outputs": [
        {
          "internalType": "bool",
          "name": "",
          "type": "bool"
        }
      ],
      "stateMutability": "view",
      "type": "function"
    },
    {
      "inputs": [
        {
          "internalType": "address",
          "name": "agent",
          "type": "address"
        }
      ],
      "name": "isJoinPartAgent",
      "outputs": [
        {
          "internalType": "bool",
          "name": "",
          "type": "bool"
        }
      ],
      "stateMutability": "view",
      "type": "function"
    },
    {
      "inputs": [
        {
          "internalType": "address",
          "name": "member",
          "type": "address"
        }
      ],
      "name": "isMember",
      "outputs": [
        {
          "internalType": "bool",
          "name": "",
          "type": "bool"
        }
      ],
      "stateMutability": "view",
      "type": "function"
    },
    {
      "inputs": [
        {
          "internalType": "uint256",
          "name": "",
          "type": "uint256"
        }
      ],
      "name": "joinListeners",
      "outputs": [
        {
          "internalType": "address",
          "name": "",
          "type": "address"
        }
      ],
      "stateMutability": "view",
      "type": "function"
    },
    {
      "inputs": [],
      "name": "joinPartAgentCount",
      "outputs": [
        {
          "internalType": "uint256",
          "name": "",
          "type": "uint256"
        }
      ],
      "stateMutability": "view",
      "type": "function"
    },
    {
      "inputs": [
        {
          "internalType": "address",
          "name": "",
          "type": "address"
        }
      ],
      "name": "joinPartAgents",
      "outputs": [
        {
          "internalType": "enum DataUnionTemplate.ActiveStatus",
          "name": "",
          "type": "uint8"
        }
      ],
      "stateMutability": "view",
      "type": "function"
    },
    {
      "inputs": [],
      "name": "lifetimeMemberEarnings",
      "outputs": [
        {
          "internalType": "uint256",
          "name": "",
          "type": "uint256"
        }
      ],
      "stateMutability": "view",
      "type": "function"
    },
    {
      "inputs": [],
      "name": "lockModules",
      "outputs": [],
      "stateMutability": "nonpayable",
      "type": "function"
    },
    {
      "inputs": [
        {
          "internalType": "address",
          "name": "",
          "type": "address"
        }
      ],
      "name": "memberData",
      "outputs": [
        {
          "internalType": "enum DataUnionTemplate.ActiveStatus",
          "name": "status",
          "type": "uint8"
        },
        {
          "internalType": "uint256",
          "name": "earningsBeforeLastJoin",
          "type": "uint256"
        },
        {
          "internalType": "uint256",
          "name": "lmeAtJoin",
          "type": "uint256"
        },
        {
          "internalType": "uint256",
          "name": "withdrawnEarnings",
          "type": "uint256"
        }
      ],
      "stateMutability": "view",
      "type": "function"
    },
    {
      "inputs": [],
      "name": "modulesLocked",
      "outputs": [
        {
          "internalType": "bool",
          "name": "",
          "type": "bool"
        }
      ],
      "stateMutability": "view",
      "type": "function"
    },
    {
      "inputs": [],
      "name": "newMemberEth",
      "outputs": [
        {
          "internalType": "uint256",
          "name": "",
          "type": "uint256"
        }
      ],
      "stateMutability": "view",
      "type": "function"
    },
    {
      "inputs": [
        {
          "internalType": "address",
          "name": "",
          "type": "address"
        },
        {
          "internalType": "uint256",
          "name": "",
          "type": "uint256"
        },
        {
          "internalType": "bytes",
          "name": "",
          "type": "bytes"
        }
      ],
      "name": "onTokenTransfer",
      "outputs": [],
      "stateMutability": "nonpayable",
      "type": "function"
    },
    {
      "inputs": [],
      "name": "owner",
      "outputs": [
        {
          "internalType": "address",
          "name": "",
          "type": "address"
        }
      ],
      "stateMutability": "view",
      "type": "function"
    },
    {
      "inputs": [
        {
          "internalType": "uint256",
          "name": "",
          "type": "uint256"
        }
      ],
      "name": "partListeners",
      "outputs": [
        {
          "internalType": "address",
          "name": "",
          "type": "address"
        }
      ],
      "stateMutability": "view",
      "type": "function"
    },
    {
      "inputs": [
        {
          "internalType": "address",
          "name": "member",
          "type": "address"
        }
      ],
      "name": "partMember",
      "outputs": [],
      "stateMutability": "nonpayable",
      "type": "function"
    },
    {
      "inputs": [
        {
          "internalType": "address[]",
          "name": "members",
          "type": "address[]"
        }
      ],
      "name": "partMembers",
      "outputs": [],
      "stateMutability": "nonpayable",
      "type": "function"
    },
    {
      "inputs": [],
      "name": "pendingOwner",
      "outputs": [
        {
          "internalType": "address",
          "name": "",
          "type": "address"
        }
      ],
      "stateMutability": "view",
      "type": "function"
    },
    {
      "inputs": [],
      "name": "refreshRevenue",
      "outputs": [
        {
          "internalType": "uint256",
          "name": "",
          "type": "uint256"
        }
      ],
      "stateMutability": "nonpayable",
      "type": "function"
    },
    {
      "inputs": [
        {
          "internalType": "contract IJoinListener",
          "name": "listener",
          "type": "address"
        }
      ],
      "name": "removeJoinListener",
      "outputs": [],
      "stateMutability": "nonpayable",
      "type": "function"
    },
    {
      "inputs": [
        {
          "internalType": "address",
          "name": "agent",
          "type": "address"
        }
      ],
      "name": "removeJoinPartAgent",
      "outputs": [],
      "stateMutability": "nonpayable",
      "type": "function"
    },
    {
      "inputs": [
        {
          "internalType": "address",
          "name": "member",
          "type": "address"
        },
        {
          "internalType": "enum LeaveConditionCode",
          "name": "leaveConditionCode",
          "type": "uint8"
        }
      ],
      "name": "removeMember",
      "outputs": [],
      "stateMutability": "nonpayable",
      "type": "function"
    },
    {
      "inputs": [
        {
          "internalType": "contract IPartListener",
          "name": "listener",
          "type": "address"
        }
      ],
      "name": "removePartListener",
      "outputs": [],
      "stateMutability": "nonpayable",
      "type": "function"
    },
    {
      "inputs": [
        {
          "internalType": "address",
          "name": "newDataUnionBeneficiary",
          "type": "address"
        }
      ],
      "name": "setDataUnionBeneficiary",
      "outputs": [],
      "stateMutability": "nonpayable",
      "type": "function"
    },
    {
      "inputs": [
        {
          "internalType": "uint256",
          "name": "newAdminFee",
          "type": "uint256"
        },
        {
          "internalType": "uint256",
          "name": "newDataUnionFee",
          "type": "uint256"
        }
      ],
      "name": "setFees",
      "outputs": [],
      "stateMutability": "nonpayable",
      "type": "function"
    },
    {
      "inputs": [
        {
          "internalType": "uint256",
          "name": "val",
          "type": "uint256"
        }
      ],
      "name": "setNewMemberEth",
      "outputs": [],
      "stateMutability": "nonpayable",
      "type": "function"
    },
    {
      "inputs": [
        {
          "internalType": "contract IWithdrawModule",
          "name": "newWithdrawModule",
          "type": "address"
        }
      ],
      "name": "setWithdrawModule",
      "outputs": [],
      "stateMutability": "nonpayable",
      "type": "function"
    },
    {
      "inputs": [
        {
          "internalType": "address",
          "name": "signer",
          "type": "address"
        },
        {
          "internalType": "address",
          "name": "recipient",
          "type": "address"
        },
        {
          "internalType": "uint256",
          "name": "amount",
          "type": "uint256"
        },
        {
          "internalType": "bytes",
          "name": "signature",
          "type": "bytes"
        }
      ],
      "name": "signatureIsValid",
      "outputs": [
        {
          "internalType": "bool",
          "name": "isValid",
          "type": "bool"
        }
      ],
      "stateMutability": "view",
      "type": "function"
    },
    {
      "inputs": [],
      "name": "token",
      "outputs": [
        {
          "internalType": "contract IERC677",
          "name": "",
          "type": "address"
        }
      ],
      "stateMutability": "view",
      "type": "function"
    },
    {
      "inputs": [],
      "name": "totalAdminFees",
      "outputs": [
        {
          "internalType": "uint256",
          "name": "",
          "type": "uint256"
        }
      ],
      "stateMutability": "view",
      "type": "function"
    },
    {
      "inputs": [],
      "name": "totalDataUnionFees",
      "outputs": [
        {
          "internalType": "uint256",
          "name": "",
          "type": "uint256"
        }
      ],
      "stateMutability": "view",
      "type": "function"
    },
    {
      "inputs": [],
      "name": "totalEarnings",
      "outputs": [
        {
          "internalType": "uint256",
          "name": "",
          "type": "uint256"
        }
      ],
      "stateMutability": "view",
      "type": "function"
    },
    {
      "inputs": [],
      "name": "totalRevenue",
      "outputs": [
        {
          "internalType": "uint256",
          "name": "",
          "type": "uint256"
        }
      ],
      "stateMutability": "view",
      "type": "function"
    },
    {
      "inputs": [],
      "name": "totalWithdrawable",
      "outputs": [
        {
          "internalType": "uint256",
          "name": "",
          "type": "uint256"
        }
      ],
      "stateMutability": "view",
      "type": "function"
    },
    {
      "inputs": [],
      "name": "totalWithdrawn",
      "outputs": [
        {
          "internalType": "uint256",
          "name": "",
          "type": "uint256"
        }
      ],
      "stateMutability": "view",
      "type": "function"
    },
    {
      "inputs": [
        {
          "internalType": "address",
          "name": "newOwner",
          "type": "address"
        }
      ],
      "name": "transferOwnership",
      "outputs": [],
      "stateMutability": "nonpayable",
      "type": "function"
    },
    {
      "inputs": [
        {
          "internalType": "address",
          "name": "recipient",
          "type": "address"
        },
        {
          "internalType": "uint256",
          "name": "amount",
          "type": "uint256"
        }
      ],
      "name": "transferToMemberInContract",
      "outputs": [],
      "stateMutability": "nonpayable",
      "type": "function"
    },
    {
      "inputs": [
        {
          "internalType": "address",
          "name": "recipient",
          "type": "address"
        },
        {
          "internalType": "uint256",
          "name": "amount",
          "type": "uint256"
        }
      ],
      "name": "transferWithinContract",
      "outputs": [],
      "stateMutability": "nonpayable",
      "type": "function"
    },
    {
      "inputs": [
        {
          "internalType": "address",
          "name": "member",
          "type": "address"
        },
        {
          "internalType": "uint256",
          "name": "amount",
          "type": "uint256"
        },
        {
          "internalType": "bool",
          "name": "sendToMainnet",
          "type": "bool"
        }
      ],
      "name": "withdraw",
      "outputs": [
        {
          "internalType": "uint256",
          "name": "",
          "type": "uint256"
        }
      ],
      "stateMutability": "nonpayable",
      "type": "function"
    },
    {
      "inputs": [
        {
          "internalType": "address",
          "name": "member",
          "type": "address"
        },
        {
          "internalType": "bool",
          "name": "sendToMainnet",
          "type": "bool"
        }
      ],
      "name": "withdrawAll",
      "outputs": [
        {
          "internalType": "uint256",
          "name": "",
          "type": "uint256"
        }
      ],
      "stateMutability": "nonpayable",
      "type": "function"
    },
    {
      "inputs": [
        {
          "internalType": "address",
          "name": "to",
          "type": "address"
        },
        {
          "internalType": "bool",
          "name": "sendToMainnet",
          "type": "bool"
        }
      ],
      "name": "withdrawAllTo",
      "outputs": [
        {
          "internalType": "uint256",
          "name": "",
          "type": "uint256"
        }
      ],
      "stateMutability": "nonpayable",
      "type": "function"
    },
    {
      "inputs": [
        {
          "internalType": "address",
          "name": "fromSigner",
          "type": "address"
        },
        {
          "internalType": "address",
          "name": "to",
          "type": "address"
        },
        {
          "internalType": "bool",
          "name": "sendToMainnet",
          "type": "bool"
        },
        {
          "internalType": "bytes",
          "name": "signature",
          "type": "bytes"
        }
      ],
      "name": "withdrawAllToSigned",
      "outputs": [
        {
          "internalType": "uint256",
          "name": "withdrawn",
          "type": "uint256"
        }
      ],
      "stateMutability": "nonpayable",
      "type": "function"
    },
    {
      "inputs": [
        {
          "internalType": "address[]",
          "name": "members",
          "type": "address[]"
        },
        {
          "internalType": "bool",
          "name": "sendToMainnet",
          "type": "bool"
        }
      ],
      "name": "withdrawMembers",
      "outputs": [
        {
          "internalType": "uint256",
          "name": "",
          "type": "uint256"
        }
      ],
      "stateMutability": "nonpayable",
      "type": "function"
    },
    {
      "inputs": [],
      "name": "withdrawModule",
      "outputs": [
        {
          "internalType": "contract IWithdrawModule",
          "name": "",
          "type": "address"
        }
      ],
      "stateMutability": "view",
      "type": "function"
    },
    {
      "inputs": [
        {
          "internalType": "address",
          "name": "to",
          "type": "address"
        },
        {
          "internalType": "uint256",
          "name": "amount",
          "type": "uint256"
        },
        {
          "internalType": "bool",
          "name": "sendToMainnet",
          "type": "bool"
        }
      ],
      "name": "withdrawTo",
      "outputs": [
        {
          "internalType": "uint256",
          "name": "",
          "type": "uint256"
        }
      ],
      "stateMutability": "nonpayable",
      "type": "function"
    },
    {
      "inputs": [
        {
          "internalType": "address",
          "name": "fromSigner",
          "type": "address"
        },
        {
          "internalType": "address",
          "name": "to",
          "type": "address"
        },
        {
          "internalType": "uint256",
          "name": "amount",
          "type": "uint256"
        },
        {
          "internalType": "bool",
          "name": "sendToMainnet",
          "type": "bool"
        },
        {
          "internalType": "bytes",
          "name": "signature",
          "type": "bytes"
        }
      ],
      "name": "withdrawToSigned",
      "outputs": [
        {
          "internalType": "uint256",
          "name": "withdrawn",
          "type": "uint256"
        }
      ],
      "stateMutability": "nonpayable",
      "type": "function"
    },
    {
      "stateMutability": "payable",
      "type": "receive"
    }
  ],
  "bytecode": "0x608060405234801561001057600080fd5b50600080546001600160a01b0319169055613734806100306000396000f3fe6080604052600436106103b15760003560e01c806373e2290c116101e7578063ae66d9481161010d578063d78e6c0a116100a0578063ead5d3591161006f578063ead5d35914610ae1578063f2fde38b14610b01578063fc0c546a14610b21578063fca0f06a14610b4157600080fd5b8063d78e6c0a14610a61578063d88124b714610a81578063e30c397814610aa1578063e6018c3114610ac157600080fd5b8063c59d4847116100dc578063c59d4847146109e9578063ca6d56dc14610a0b578063ce7b786414610a2b578063d35cec4014610a4b57600080fd5b8063ae66d94814610956578063b274bcc714610976578063bf2d9e0b14610996578063c44b73a3146109ac57600080fd5b80639107d08e11610185578063a3fc6b2f11610154578063a3fc6b2f146108d6578063a4c0ed36146108f6578063a4d6ddc014610916578063abf1667a1461093657600080fd5b80639107d08e1461082a578063974abb1f14610880578063a230c52414610896578063a2d3cf4b146108b657600080fd5b80637b3df9f6116101c15780637b3df9f6146107b05780637dfef647146107d057806385803659146107ea5780638da5cb5b1461080a57600080fd5b806373e2290c1461075a578063790490171461077a5780637b30ed431461079057600080fd5b80633ea27cfe116102d757806360e26a4c1161026a57806369ee75141161023957806369ee7514146106ef5780636d8018b8146107045780636f4d469b1461071a57806371cdfd681461073a57600080fd5b806360e26a4c1461068357806361feacff14610699578063662d45a2146106af57806368cdc676146106cf57600080fd5b80634e40ea64116102a65780634e40ea64146106185780634e71e0c814610638578063535ce5d11461064d5780635fb6c6ed1461066d57600080fd5b80633ea27cfe146105ac5780633ebff90e146105cc5780634b319713146105e25780634bee9137146105f857600080fd5b80632b94411f1161034f578063331beb5f1161031e578063331beb5f1461053557806336f5847d1461054a578063392e53cd1461056a5780633d8e36a31461059657600080fd5b80632b94411f146104a75780632df3eba4146104c75780632e0d4212146104dd578063314b5ce3146104fd57600080fd5b8063131b9c041161038b578063131b9c04146104275780631796621a1461044757806317966e09146104675780631a79246c1461048757600080fd5b80630600a865146103bd57806309a6400b146103e55780630b78f9c01461040757600080fd5b366103b857005b600080fd5b3480156103c957600080fd5b506103d2610b61565b6040519081526020015b60405180910390f35b3480156103f157600080fd5b50610405610400366004612f28565b610b78565b005b34801561041357600080fd5b506104056104223660046133e5565b610c82565b34801561043357600080fd5b506103d2610442366004612f28565b610d41565b34801561045357600080fd5b50610405610462366004613361565b610dfc565b34801561047357600080fd5b506104056104823660046131d7565b610e6a565b34801561049357600080fd5b506103d26104a2366004613055565b61108c565b3480156104b357600080fd5b506103d26104c236600461319e565b611128565b3480156104d357600080fd5b506103d2600c5481565b3480156104e957600080fd5b506103d26104f8366004612f28565b61114f565b34801561050957600080fd5b5060035461051d906001600160a01b031681565b6040516001600160a01b0390911681526020016103dc565b34801561054157600080fd5b506103d261121c565b34801561055657600080fd5b50610405610565366004612f28565b61151d565b34801561057657600080fd5b506002546001600160a01b031615155b60405190151581526020016103dc565b3480156105a257600080fd5b506103d260115481565b3480156105b857600080fd5b506104056105c7366004612f28565b6115da565b3480156105d857600080fd5b506103d260135481565b3480156105ee57600080fd5b506103d2600f5481565b34801561060457600080fd5b506103d261061336600461319e565b611692565b34801561062457600080fd5b50610405610633366004612f28565b6116b0565b34801561064457600080fd5b506104056116d5565b34801561065957600080fd5b50610405610668366004612f28565b61178c565b34801561067957600080fd5b506103d260105481565b34801561068f57600080fd5b506103d260095481565b3480156106a557600080fd5b506103d2600d5481565b3480156106bb57600080fd5b506104056106ca366004612f28565b611844565b3480156106db57600080fd5b506105866106ea366004612f28565b611947565b3480156106fb57600080fd5b5061040561197f565b34801561071057600080fd5b506103d260125481565b34801561072657600080fd5b506104056107353660046132d3565b6119b8565b34801561074657600080fd5b50610405610755366004613209565b6119ff565b34801561076657600080fd5b506103d2610775366004613235565b611acf565b34801561078657600080fd5b506103d260075481565b34801561079c57600080fd5b506104056107ab3660046132d3565b611ae5565b3480156107bc57600080fd5b506104056107cb366004612f45565b611b2c565b3480156107dc57600080fd5b506006546105869060ff1681565b3480156107f657600080fd5b5061051d6108053660046133b3565b611bfc565b34801561081657600080fd5b5060005461051d906001600160a01b031681565b34801561083657600080fd5b50610870610845366004612f28565b601460205260009081526040902080546001820154600283015460039093015460ff90921692909184565b6040516103dc94939291906134de565b34801561088c57600080fd5b506103d2600e5481565b3480156108a257600080fd5b506105866108b1366004612f28565b611c26565b3480156108c257600080fd5b506105866108d13660046130da565b611c57565b3480156108e257600080fd5b506104056108f1366004612f28565b611e37565b34801561090257600080fd5b50610405610911366004613277565b611ed9565b34801561092257600080fd5b506103d2610931366004613315565b611f42565b34801561094257600080fd5b50600a5461051d906001600160a01b031681565b34801561096257600080fd5b506103d2610971366004612f28565b611fa6565b34801561098257600080fd5b50610405610991366004613209565b61201f565b3480156109a257600080fd5b506103d2600b5481565b3480156109b857600080fd5b506109dc6109c7366004612f28565b60156020526000908152604090205460ff1681565b6040516103dc91906134cb565b3480156109f557600080fd5b506109fe61224a565b6040516103dc9190613499565b348015610a1757600080fd5b50610405610a26366004612f28565b612333565b348015610a3757600080fd5b506103d2610a46366004612fd9565b6125d5565b348015610a5757600080fd5b506103d260085481565b348015610a6d57600080fd5b50610405610a7c366004612f28565b612682565b348015610a8d57600080fd5b5061051d610a9c3660046133b3565b612724565b348015610aad57600080fd5b5060015461051d906001600160a01b031681565b348015610acd57600080fd5b50610405610adc3660046133b3565b612734565b348015610aed57600080fd5b506103d2610afc366004613235565b612799565b348015610b0d57600080fd5b50610405610b1c366004612f28565b612809565b348015610b2d57600080fd5b5060025461051d906001600160a01b031681565b348015610b4d57600080fd5b50610405610b5c366004612f28565b612855565b6000600f54600b54610b739190613607565b905090565b6000546001600160a01b03163314610bab5760405162461bcd60e51b8152600401610ba290613507565b60405180910390fd5b60016001600160a01b03821660009081526015602052604090205460ff166002811115610bda57610bda613665565b14610c1e5760405162461bcd60e51b8152602060048201526014602482015273195c9c9bdc97db9bdd1058dd1a5d995059d95b9d60621b6044820152606401610ba2565b6001600160a01b038116600081815260156020526040808220805460ff19166002179055517feac6c7d5a1c157497119a5d4f661d5f23b844c415452ef440ed346bd127d885e9190a2600160136000828254610c7a9190613607565b909155505050565b6000546001600160a01b03163314610cac5760405162461bcd60e51b8152600401610ba290613507565b670de0b6b3a7640000610cbf8284613589565b1115610cfa5760405162461bcd60e51b815260206004820152600a6024820152696572726f725f6665657360b01b6044820152606401610ba2565b6008829055600981905560408051838152602081018390527f93525d3c7f4fafe56faedbca6d501a13c63f47857d8b30d8282ec2dd806259a7910160405180910390a15050565b6001600160a01b038116600090815260146020526040812081815460ff166002811115610d7057610d70613665565b1415610db05760405162461bcd60e51b815260206004820152600f60248201526e32b93937b92fb737ba26b2b6b132b960891b6044820152606401610ba2565b6001815460ff166002811115610dc857610dc8613665565b14610dd4576000610de6565b8060020154601254610de69190613607565b8160010154610df59190613589565b9392505050565b6000546001600160a01b03163314610e265760405162461bcd60e51b8152600401610ba290613507565b60005b8151811015610e6657610e54828281518110610e4757610e47613691565b6020026020010151611844565b80610e5e8161361e565b915050610e29565b5050565b336001600160a01b0383161480610ea4575060013360009081526015602052604090205460ff166002811115610ea257610ea2613665565b145b610ee55760405162461bcd60e51b8152602060048201526012602482015271195c9c9bdc97db9bdd14195c9b5a5d1d195960721b6044820152606401610ba2565b610eee82611c26565b610f325760405162461bcd60e51b815260206004820152601560248201527432b93937b92fb737ba20b1ba34bb32a6b2b6b132b960591b6044820152606401610ba2565b610f3b82610d41565b6001600160a01b0383166000908152601460205260408120600180820193909355805460ff1916600217905560108054909190610f79908490613607565b92505081905550600160116000828254610f939190613589565b909155508190506002811115610fab57610fab613665565b6040516001600160a01b038416907f5f1690f61957d783b6db3a7cfd5802c10639675ed2c25d2e998b4dfaf6ae426f90600090a360005b60055481101561107e5760006005828154811061100157611001613691565b6000918252602090912001546040516309a56ffd60e41b81526001600160a01b0390911691508190639a56ffd09061103f9087908790600401613407565b600060405180830381600087803b15801561105957600080fd5b505af192505050801561106a575060015b5050806110768161361e565b915050610fe2565b5061108761121c565b505050565b60006110d087878786868080601f016020809104026020016040519081016040528093929190818152602001838380828437600092019190915250611c5792505050565b6111115760405162461bcd60e51b81526020600482015260126024820152716572726f725f6261645369676e617475726560701b6044820152606401610ba2565b61111d878787876128dc565b979650505050505050565b600061113261121c565b50611146836111403361114f565b84611acf565b90505b92915050565b60008061115b83611fa6565b61116484610d41565b61116e9190613607565b6003549091506001600160a01b03161561114957600354604051630b8eada360e31b81526001600160a01b038581166004830152602482018490526000921690635c756d189060440160206040518083038186803b1580156111cf57600080fd5b505afa1580156111e3573d6000803e3d6000fd5b505050506040513d601f19601f8201168201806040525081019061120791906133cc565b905081811015611215578091505b5092915050565b6002546040516370a0823160e01b815230600482015260009182916001600160a01b03909116906370a082319060240160206040518083038186803b15801561126457600080fd5b505afa158015611278573d6000803e3d6000fd5b505050506040513d601f19601f8201168201806040525081019061129c91906133cc565b905060006112a8610b61565b6112b29083613607565b90508015806112c15750601054155b156112cf5760009250505090565b80600b60008282546112e19190613589565b90915550506040518181527f41b06c6e0a1531dcb4b86d53ec6268666aa12d55775f8e5a63596fc935cdcc229060200160405180910390a16000670de0b6b3a76400006008548361133291906135e8565b61133c91906135c6565b90506000670de0b6b3a76400006009548461135791906135e8565b61136191906135c6565b90506000816113708486613607565b61137a9190613607565b600054909150611393906001600160a01b031684612b1e565b600a546113a9906001600160a01b031683612b1e565b82600d60008282546113bb9190613589565b9250508190555081600e60008282546113d49190613589565b909155505060408051848152602081018490527f4fed68db354fc9a4a85e24ef5dc3a7bea31a6b507ecaaa263f65fa1c70ab647c910160405180910390a160006010548261142291906135c6565b9050806012546114329190613589565b601255600c54611443908390613589565b600c556010546040805183815260208101929092527f24a9873073eba764d17ef9fa7475b3b209c02e6e6f7ed991c9c80e09226a37a7910160405180910390a161148b610b61565b6002546040516370a0823160e01b81523060048201526001600160a01b03909116906370a082319060240160206040518083038186803b1580156114ce57600080fd5b505afa1580156114e2573d6000803e3d6000fd5b505050506040513d601f19601f8201168201806040525081019061150691906133cc565b1461151357611513613639565b5095945050505050565b6000546001600160a01b031633146115475760405162461bcd60e51b8152600401610ba290613507565b60065460ff16156115905760405162461bcd60e51b8152602060048201526013602482015272195c9c9bdc97db5bd91d5b195cd31bd8dad959606a1b6044820152606401610ba2565b600380546001600160a01b0319166001600160a01b0383169081179091556040517f5baac16b14d7b635a00727fea8f8ed8be743136944f21f24198375d2caa7e31e90600090a250565b6000546001600160a01b031633146116045760405162461bcd60e51b8152600401610ba290613507565b61160f600482612b94565b61165b5760405162461bcd60e51b815260206004820152601a60248201527f6572726f725f6a6f696e4c697374656e65724e6f74466f756e640000000000006044820152606401610ba2565b6040516001600160a01b038216907fc2930df8ca9cd93c736bf3cc100569fe72b69c28099dab7f24288e527bbda74890600090a250565b600061169c61121c565b50611146836116aa8561114f565b84612799565b6116d281336001600160a01b038216146116cb576001610e6a565b6000610e6a565b50565b6001546001600160a01b031633146117285760405162461bcd60e51b815260206004820152601660248201527532b93937b92fb7b7363ca832b73234b733a7bbb732b960511b6044820152606401610ba2565b600154600080546040516001600160a01b0393841693909116917f8be0079c531659141344cd1fd0a4f28419497f9722a3daafe3b4186f6b6457e091a360018054600080546001600160a01b03199081166001600160a01b03841617909155169055565b6000546001600160a01b031633146117b65760405162461bcd60e51b8152600401610ba290613507565b6117c1600582612b94565b61180d5760405162461bcd60e51b815260206004820152601a60248201527f6572726f725f706172744c697374656e65724e6f74466f756e640000000000006044820152606401610ba2565b6040516001600160a01b038216907f9bbfbcf74777ac8fbf537a6b375c7b2030b8f66a5c71a7c2567fe22e7b099b0890600090a250565b6000546001600160a01b0316331461186e5760405162461bcd60e51b8152600401610ba290613507565b60016001600160a01b03821660009081526015602052604090205460ff16600281111561189d5761189d613665565b14156118eb5760405162461bcd60e51b815260206004820152601860248201527f6572726f725f616c72656164794163746976654167656e7400000000000000006044820152606401610ba2565b6001600160a01b038116600081815260156020526040808220805460ff19166001179055517f10581818fb1ffbfd9ac8500cba931a30c3a57b5e9b7972f2fa0aef002b3fde2b9190a2600160136000828254610c7a9190613589565b600060016001600160a01b03831660009081526015602052604090205460ff16600281111561197857611978613665565b1492915050565b6000546001600160a01b031633146119a95760405162461bcd60e51b8152600401610ba290613507565b6006805460ff19166001179055565b60005b81811015611087576119ed8383838181106119d8576119d8613691565b9050602002016020810190610a269190612f28565b806119f78161361e565b9150506119bb565b80611a093361114f565b1015611a535760405162461bcd60e51b81526020600482015260196024820152786572726f725f696e73756666696369656e7442616c616e636560381b6044820152606401610ba2565b3360009081526014602052604090206003810154611a72908390613589565b6003820155611a818383612b1e565b6040518281526001600160a01b0384169033907f638ce96e87261f007ef5c0389bb59b90db3e19c42edee859d6b09739d8d79f7f9060200160405180910390a3611ac961121c565b50505050565b6000611add338585856128dc565b949350505050565b60005b8181101561108757611b1a838383818110611b0557611b05613691565b90506020020160208101906106339190612f28565b80611b248161361e565b915050611ae8565b6002546001600160a01b031615611b855760405162461bcd60e51b815260206004820152601860248201527f6572726f725f616c7265616479496e697469616c697a656400000000000000006044820152606401610ba2565b60008054336001600160a01b031991821617909155600280549091166001600160a01b038816179055611bb785610dfc565b611bc18383610c82565b611bca81612855565b611bd384612734565b5050600080546001600160a01b0319166001600160a01b03969096169590951790945550505050565b60048181548110611c0c57600080fd5b6000918252602090912001546001600160a01b0316905081565b600060016001600160a01b03831660009081526014602052604090205460ff16600281111561197857611978613665565b60008151604114611caa5760405162461bcd60e51b815260206004820152601860248201527f6572726f725f6261645369676e61747572654c656e67746800000000000000006044820152606401610ba2565b60208201516040830151606084015160001a601b811015611cd357611cd0601b826135a1565b90505b8060ff16601b1480611ce857508060ff16601c145b611d345760405162461bcd60e51b815260206004820152601960248201527f6572726f725f6261645369676e617475726556657273696f6e000000000000006044820152606401610ba2565b6000878730611d428c611fa6565b6040517f19457468657265756d205369676e6564204d6573736167653a0a31303400000060208201526bffffffffffffffffffffffff19606095861b8116603d83015260518201949094529190931b9091166071820152608581019190915260a50160408051601f198184030181528282528051602091820120600080855291840180845281905260ff86169284019290925260608301879052608083018690529092509060019060a0016020604051602081039080840390855afa158015611e0f573d6000803e3d6000fd5b5050604051601f1901516001600160a01b038c81169116149650505050505050949350505050565b6000546001600160a01b03163314611e615760405162461bcd60e51b8152600401610ba290613507565b6005805460018101825560009182527f036b6384b5eca791c62761152d0c79bb0604c104a5fb6f4eb0703f3154bb3db00180546001600160a01b0319166001600160a01b03841690811790915560405190917fde5492345cd7090548289c03dc4c85b7557218333e6ecf9ea4fd74405fb07e1791a250565b6002546001600160a01b03163314611f335760405162461bcd60e51b815260206004820152601760248201527f6572726f725f6f6e6c79546f6b656e436f6e74726163740000000000000000006044820152606401610ba2565b611f3b61121c565b5050505050565b600080805b84811015611f9d57611f7f868683818110611f6457611f64613691565b9050602002016020810190611f799190612f28565b85611692565b611f899083613589565b915080611f958161361e565b915050611f47565b50949350505050565b6001600160a01b038116600090815260146020526040812081815460ff166002811115611fd557611fd5613665565b14156120155760405162461bcd60e51b815260206004820152600f60248201526e32b93937b92fb737ba26b2b6b132b960891b6044820152606401610ba2565b6003015492915050565b6120298282612b1e565b80600b600082825461203b9190613589565b90915550506040518181526001600160a01b0383169033907f4e018df3c92158645fcf45007db7029d3fa97d269866be2bd4360c5f5a6163e49060200160405180910390a36002546040516370a0823160e01b81523060048201526000916001600160a01b0316906370a082319060240160206040518083038186803b1580156120c457600080fd5b505afa1580156120d8573d6000803e3d6000fd5b505050506040513d601f19601f820116820180604052508101906120fc91906133cc565b6002546040516323b872dd60e01b8152336004820152306024820152604481018590529192506001600160a01b0316906323b872dd90606401602060405180830381600087803b15801561214f57600080fd5b505af1158015612163573d6000803e3d6000fd5b505050506040513d601f19601f820116820180604052508101906121879190613396565b6121a35760405162461bcd60e51b8152600401610ba290613530565b6002546040516370a0823160e01b81523060048201526000916001600160a01b0316906370a082319060240160206040518083038186803b1580156121e757600080fd5b505afa1580156121fb573d6000803e3d6000fd5b505050506040513d601f19601f8201168201806040525081019061221f91906133cc565b90508261222c8383613607565b1015611f335760405162461bcd60e51b8152600401610ba290613530565b612252612dec565b6011546002600080546001600160a01b031681526014602052604090205460ff16600281111561228457612284613665565b141561229857612295600182613607565b90505b6002600a546001600160a01b031660009081526014602052604090205460ff1660028111156122c9576122c9613665565b14156122dd576122da600182613607565b90505b604051806101200160405280600b548152602001600c548152602001600d548152602001600e548152602001600f5481526020016010548152602001828152602001601254815260200160135481525091505090565b61233c33611947565b6123885760405162461bcd60e51b815260206004820152601760248201527f6572726f725f6f6e6c794a6f696e506172744167656e740000000000000000006044820152606401610ba2565b6001600160a01b03811660009081526014602052604090206123a982611c26565b156123ec5760405162461bcd60e51b815260206004820152601360248201527232b93937b92fb0b63932b0b23ca6b2b6b132b960691b6044820152606401610ba2565b6002815460ff16600281111561240457612404613665565b14156124235760016011600082825461241d9190613607565b90915550505b600080825460ff16600281111561243c5761243c613665565b14801561244b57506000600754115b801561245957506007544710155b825460ff1916600190811784556012546002850155601080549293509091600090612485908490613589565b90915550506040516001600160a01b038416907f0abf3b3f643594d958297062a019458e27d7766629590ac621aa1000fa1298ab90600090a260005b60045481101561255f576000600482815481106124e0576124e0613691565b6000918252602090912001546040516318932a6760e21b81526001600160a01b0387811660048301529091169150819063624ca99c90602401600060405180830381600087803b15801561253357600080fd5b505af1158015612547573d6000803e3d6000fd5b505050505080806125579061361e565b9150506124c1565b5080156125cd576007546040516001600160a01b0385169180156108fc02916000818181858888f19350505050156125cd577f55e2724f03f2711a94cf86d8b10c57130b103d6c2f1726076fbf9430340d41e76007546040516125c491815260200190565b60405180910390a15b611ac961121c565b600061261a8686600086868080601f016020809104026020016040519081016040528093929190818152602001838380828437600092019190915250611c5792505050565b61265b5760405162461bcd60e51b81526020600482015260126024820152716572726f725f6261645369676e617475726560701b6044820152606401610ba2565b61266361121c565b5061267886866126728961114f565b876128dc565b9695505050505050565b6000546001600160a01b031633146126ac5760405162461bcd60e51b8152600401610ba290613507565b6004805460018101825560009182527f8a35acfbc15ff81a39ae7d344fd709f28e8600b4aa8c65c6b64bfe7fe36bd19b0180546001600160a01b0319166001600160a01b03841690811790915560405190917fdabc377fa2f5811c8c6f796d0b4e97f1030390ce5f1806e1870e28b042ae7e4091a250565b60058181548110611c0c57600080fd5b6000546001600160a01b0316331461275e5760405162461bcd60e51b8152600401610ba290613507565b60078190556040518181527f749d0aa4ca45d6142166deb1820b64a888996311bb9f74a88c081f5b041d949c9060200160405180910390a150565b6000336001600160a01b03851614806127bc57506000546001600160a01b031633145b6127fd5760405162461bcd60e51b8152602060048201526012602482015271195c9c9bdc97db9bdd14195c9b5a5d1d195960721b6044820152606401610ba2565b611add848585856128dc565b6000546001600160a01b031633146128335760405162461bcd60e51b8152600401610ba290613507565b600180546001600160a01b0319166001600160a01b0392909216919091179055565b6000546001600160a01b0316331461287f5760405162461bcd60e51b8152600401610ba290613507565b600a546040516001600160a01b03918216918316907fffc00145ab2a043f1c4be5b5b7a0413205bc106491f6832bd2c83c32e3fb5f6c90600090a3600a80546001600160a01b0319166001600160a01b0392909216919091179055565b6000826128eb57506000611add565b6128f361121c565b506128fd8561114f565b8311156129485760405162461bcd60e51b81526020600482015260196024820152786572726f725f696e73756666696369656e7442616c616e636560381b6044820152606401610ba2565b6001600160a01b038516600090815260146020526040812060038101805491928692612975908490613589565b9250508190555083600f600082825461298e9190613589565b90915550506003546001600160a01b031615612ac55760025460035460405163a9059cbb60e01b81526001600160a01b0391821660048201526024810187905291169063a9059cbb90604401602060405180830381600087803b1580156129f457600080fd5b505af1158015612a08573d6000803e3d6000fd5b505050506040513d601f19601f82011682018060405250810190612a2c9190613396565b612a485760405162461bcd60e51b8152600401610ba290613530565b600354600254604051630445e43f60e21b81526001600160a01b038981166004830152888116602483015291821660448201526064810187905291169063111790fc90608401600060405180830381600087803b158015612aa857600080fd5b505af1158015612abc573d6000803e3d6000fd5b50505050612ad1565b612ad186868686612cd1565b856001600160a01b03167f48dc35af7b45e2a81fffad55f6e2fafacdb1d3d0d50d24ebdc16324f5ba757f185604051612b0c91815260200190565b60405180910390a25091949350505050565b6001600160a01b03821660009081526014602052604090206001810154612b46908390613589565b60018201556000815460ff166002811115612b6357612b63613665565b141561108757805460ff191660021781556011805460019190600090612b8a908490613589565b9091555050505050565b6000805b835481108015612bd75750826001600160a01b0316848281548110612bbf57612bbf613691565b6000918252602090912001546001600160a01b031614155b15612bee57612be7600182613589565b9050612b98565b8354811415612c01576000915050611149565b8354612c0f90600190613607565b811015612c955783548490612c2690600190613607565b81548110612c3657612c36613691565b9060005260206000200160009054906101000a90046001600160a01b0316848281548110612c6657612c66613691565b9060005260206000200160006101000a8154816001600160a01b0302191690836001600160a01b031602179055505b83805480612ca557612ca561367b565b600082815260209020600019908201810180546001600160a01b03191690550190555060019392505050565b8015612d1f5760405162461bcd60e51b815260206004820152601d60248201527f6572726f725f73656e64546f4d61696e6e6574446570726563617465640000006044820152606401610ba2565b60025460408051606087901b6bffffffffffffffffffffffff19166020820152815160148183030181526034820192839052630200057560e51b9092526001600160a01b0390921691634000aea091612d7e918791879160380161342d565b602060405180830381600087803b158015612d9857600080fd5b505af1158015612dac573d6000803e3d6000fd5b505050506040513d601f19601f82011682018060405250810190612dd09190613396565b611ac95760405162461bcd60e51b8152600401610ba290613530565b6040518061012001604052806009906020820280368337509192915050565b60008083601f840112612e1d57600080fd5b50813567ffffffffffffffff811115612e3557600080fd5b6020830191508360208260051b8501011115612e5057600080fd5b9250929050565b600082601f830112612e6857600080fd5b8135602067ffffffffffffffff821115612e8457612e846136a7565b8160051b612e93828201613558565b838152828101908684018388018501891015612eae57600080fd5b600093505b85841015612eda578035612ec6816136db565b835260019390930192918401918401612eb3565b50979650505050505050565b60008083601f840112612ef857600080fd5b50813567ffffffffffffffff811115612f1057600080fd5b602083019150836020828501011115612e5057600080fd5b600060208284031215612f3a57600080fd5b8135610df5816136db565b600080600080600080600060e0888a031215612f6057600080fd5b8735612f6b816136db565b96506020880135612f7b816136db565b9550604088013567ffffffffffffffff811115612f9757600080fd5b612fa38a828b01612e57565b955050606088013593506080880135925060a0880135915060c0880135612fc9816136db565b8091505092959891949750929550565b600080600080600060808688031215612ff157600080fd5b8535612ffc816136db565b9450602086013561300c816136db565b9350604086013561301c816136f0565b9250606086013567ffffffffffffffff81111561303857600080fd5b61304488828901612ee6565b969995985093965092949392505050565b60008060008060008060a0878903121561306e57600080fd5b8635613079816136db565b95506020870135613089816136db565b94506040870135935060608701356130a0816136f0565b9250608087013567ffffffffffffffff8111156130bc57600080fd5b6130c889828a01612ee6565b979a9699509497509295939492505050565b600080600080608085870312156130f057600080fd5b84356130fb816136db565b935060208581013561310c816136db565b935060408601359250606086013567ffffffffffffffff8082111561313057600080fd5b818801915088601f83011261314457600080fd5b813581811115613156576131566136a7565b613168601f8201601f19168501613558565b9150808252898482850101111561317e57600080fd5b808484018584013760008482840101525080935050505092959194509250565b600080604083850312156131b157600080fd5b82356131bc816136db565b915060208301356131cc816136f0565b809150509250929050565b600080604083850312156131ea57600080fd5b82356131f5816136db565b91506020830135600381106131cc57600080fd5b6000806040838503121561321c57600080fd5b8235613227816136db565b946020939093013593505050565b60008060006060848603121561324a57600080fd5b8335613255816136db565b925060208401359150604084013561326c816136f0565b809150509250925092565b6000806000806060858703121561328d57600080fd5b8435613298816136db565b935060208501359250604085013567ffffffffffffffff8111156132bb57600080fd5b6132c787828801612ee6565b95989497509550505050565b600080602083850312156132e657600080fd5b823567ffffffffffffffff8111156132fd57600080fd5b61330985828601612e0b565b90969095509350505050565b60008060006040848603121561332a57600080fd5b833567ffffffffffffffff81111561334157600080fd5b61334d86828701612e0b565b909450925050602084013561326c816136f0565b60006020828403121561337357600080fd5b813567ffffffffffffffff81111561338a57600080fd5b611add84828501612e57565b6000602082840312156133a857600080fd5b8151610df5816136f0565b6000602082840312156133c557600080fd5b5035919050565b6000602082840312156133de57600080fd5b5051919050565b600080604083850312156133f857600080fd5b50508035926020909101359150565b6001600160a01b038316815260408101613420836136bd565b8260208301529392505050565b60018060a01b038416815260006020848184015260606040840152835180606085015260005b8181101561346f57858101830151858201608001528201613453565b81811115613481576000608083870101525b50601f01601f19169290920160800195945050505050565b6101208101818360005b60098110156134c25781518352602092830192909101906001016134a3565b50505092915050565b602081016134d8836136bd565b91905290565b608081016134eb866136bd565b9481526020810193909352604083019190915260609091015290565b6020808252600f908201526e32b93937b92fb7b7363ca7bbb732b960891b604082015260600190565b6020808252600e908201526d32b93937b92fba3930b739b332b960911b604082015260600190565b604051601f8201601f1916810167ffffffffffffffff81118282101715613581576135816136a7565b604052919050565b6000821982111561359c5761359c61364f565b500190565b600060ff821660ff84168060ff038211156135be576135be61364f565b019392505050565b6000826135e357634e487b7160e01b600052601260045260246000fd5b500490565b60008160001904831182151516156136025761360261364f565b500290565b6000828210156136195761361961364f565b500390565b60006000198214156136325761363261364f565b5060010190565b634e487b7160e01b600052600160045260246000fd5b634e487b7160e01b600052601160045260246000fd5b634e487b7160e01b600052602160045260246000fd5b634e487b7160e01b600052603160045260246000fd5b634e487b7160e01b600052603260045260246000fd5b634e487b7160e01b600052604160045260246000fd5b600381106116d257634e487b7160e01b600052602160045260246000fd5b6001600160a01b03811681146116d257600080fd5b80151581146116d257600080fdfea26469706673582212200b73a341e2ddbab17ea6ac768d74fef0951277389ec10da3a6f6ce8fd060f6f964736f6c63430008060033",
  "linkReferences": {},
  "deployedLinkReferences": {}
}