{
  "_format": "hh-sol-artifact-1",
  "contractName": "DataUnionMainnet",
  "sourceName": "contracts/DataUnionMainnet.sol",
  "abi": [
    {
      "inputs": [],
      "stateMutability": "nonpayable",
      "type": "constructor"
    },
    {
      "anonymous": false,
      "inputs": [
        {
          "indexed": true,
          "internalType": "address",
          "name": "previousOwner",
          "type": "address"
        },
        {
          "indexed": true,
          "internalType": "address",
          "name": "newOwner",
          "type": "address"
        }
      ],
      "name": "OwnershipTransferred",
      "type": "event"
    },
    {
      "anonymous": false,
      "inputs": [
        {
          "indexed": false,
          "internalType": "uint256",
          "name": "amount",
          "type": "uint256"
        }
      ],
      "name": "RevenueReceived",
      "type": "event"
    },
    {
      "inputs": [],
      "name": "amb",
      "outputs": [
        {
          "internalType": "contract IAMB",
          "name": "",
          "type": "address"
        }
      ],
      "stateMutability": "view",
      "type": "function"
    },
    {
      "inputs": [],
      "name": "claimOwnership",
      "outputs": [],
      "stateMutability": "nonpayable",
      "type": "function"
    },
    {
      "inputs": [
        {
          "internalType": "address[]",
          "name": "agents",
          "type": "address[]"
        }
      ],
      "name": "deployNewDUSidechain",
      "outputs": [],
      "stateMutability": "nonpayable",
      "type": "function"
    },
    {
      "inputs": [
        {
          "internalType": "address",
          "name": "_tokenMainnet",
          "type": "address"
        },
        {
          "internalType": "address",
          "name": "_mediatorMainnet",
          "type": "address"
        },
        {
          "internalType": "address",
          "name": "_tokenSidechain",
          "type": "address"
        },
        {
          "internalType": "address",
          "name": "_mediatorSidechain",
          "type": "address"
        },
        {
          "internalType": "address",
          "name": "_sidechainDUFactory",
          "type": "address"
        },
        {
          "internalType": "uint256",
          "name": "_sidechainMaxGas",
          "type": "uint256"
        },
        {
          "internalType": "address",
          "name": "_sidechainDUTemplate",
          "type": "address"
        },
        {
          "internalType": "address",
          "name": "_owner",
          "type": "address"
        },
        {
          "internalType": "uint256",
          "name": "_adminFeeFraction",
          "type": "uint256"
        },
        {
          "internalType": "uint256",
          "name": "_dataUnionFeeFraction",
          "type": "uint256"
        },
        {
          "internalType": "address",
          "name": "_dataUnionBeneficiary",
          "type": "address"
        },
        {
          "internalType": "address[]",
          "name": "agents",
          "type": "address[]"
        }
      ],
      "name": "initialize",
      "outputs": [],
      "stateMutability": "nonpayable",
      "type": "function"
    },
    {
      "inputs": [],
      "name": "isInitialized",
      "outputs": [
        {
          "internalType": "bool",
          "name": "",
          "type": "bool"
        }
      ],
      "stateMutability": "view",
      "type": "function"
    },
    {
      "inputs": [
        {
          "internalType": "bytes32",
          "name": "",
          "type": "bytes32"
        },
        {
          "internalType": "address",
          "name": "",
          "type": "address"
        },
        {
          "internalType": "uint256",
          "name": "",
          "type": "uint256"
        },
        {
          "internalType": "uint256",
          "name": "",
          "type": "uint256"
        },
        {
          "internalType": "uint256",
          "name": "",
          "type": "uint256"
        }
      ],
      "name": "onPurchase",
      "outputs": [
        {
          "internalType": "bool",
          "name": "",
          "type": "bool"
        }
      ],
      "stateMutability": "nonpayable",
      "type": "function"
    },
    {
      "inputs": [
        {
          "internalType": "address",
          "name": "",
          "type": "address"
        },
        {
          "internalType": "uint256",
          "name": "",
          "type": "uint256"
        },
        {
          "internalType": "bytes",
          "name": "",
          "type": "bytes"
        }
      ],
      "name": "onTokenTransfer",
      "outputs": [],
      "stateMutability": "nonpayable",
      "type": "function"
    },
    {
      "inputs": [],
      "name": "owner",
      "outputs": [
        {
          "internalType": "address",
          "name": "",
          "type": "address"
        }
      ],
      "stateMutability": "view",
      "type": "function"
    },
    {
      "inputs": [],
      "name": "pendingOwner",
      "outputs": [
        {
          "internalType": "address",
          "name": "",
          "type": "address"
        }
      ],
      "stateMutability": "view",
      "type": "function"
    },
    {
      "inputs": [],
      "name": "sendTokensToBridge",
      "outputs": [
        {
          "internalType": "uint256",
          "name": "",
          "type": "uint256"
        }
      ],
      "stateMutability": "nonpayable",
      "type": "function"
    },
    {
      "inputs": [],
      "name": "sidechainAddress",
      "outputs": [
        {
          "internalType": "address",
          "name": "",
          "type": "address"
        }
      ],
      "stateMutability": "view",
      "type": "function"
    },
    {
      "inputs": [],
      "name": "sidechainDUFactory",
      "outputs": [
        {
          "internalType": "address",
          "name": "",
          "type": "address"
        }
      ],
      "stateMutability": "view",
      "type": "function"
    },
    {
      "inputs": [],
      "name": "sidechainDUTemplate",
      "outputs": [
        {
          "internalType": "address",
          "name": "",
          "type": "address"
        }
      ],
      "stateMutability": "view",
      "type": "function"
    },
    {
      "inputs": [],
      "name": "sidechainMaxGas",
      "outputs": [
        {
          "internalType": "uint256",
          "name": "",
          "type": "uint256"
        }
      ],
      "stateMutability": "view",
      "type": "function"
    },
    {
      "inputs": [],
      "name": "tokenMainnet",
      "outputs": [
        {
          "internalType": "contract IERC20",
          "name": "",
          "type": "address"
        }
      ],
      "stateMutability": "view",
      "type": "function"
    },
    {
      "inputs": [],
      "name": "tokenMediatorMainnet",
      "outputs": [
        {
          "internalType": "contract ITokenMediator",
          "name": "",
          "type": "address"
        }
      ],
      "stateMutability": "view",
      "type": "function"
    },
    {
      "inputs": [],
      "name": "tokenMediatorSidechain",
      "outputs": [
        {
          "internalType": "contract ITokenMediator",
          "name": "",
          "type": "address"
        }
      ],
      "stateMutability": "view",
      "type": "function"
    },
    {
      "inputs": [],
      "name": "tokenSidechain",
      "outputs": [
        {
          "internalType": "contract IERC20",
          "name": "",
          "type": "address"
        }
      ],
      "stateMutability": "view",
      "type": "function"
    },
    {
      "inputs": [],
      "name": "tokensSentToBridge",
      "outputs": [
        {
          "internalType": "uint256",
          "name": "",
          "type": "uint256"
        }
      ],
      "stateMutability": "view",
      "type": "function"
    },
    {
      "inputs": [
        {
          "internalType": "address",
          "name": "newOwner",
          "type": "address"
        }
      ],
      "name": "transferOwnership",
      "outputs": [],
      "stateMutability": "nonpayable",
      "type": "function"
    },
    {
      "inputs": [],
      "name": "version",
      "outputs": [
        {
          "internalType": "uint256",
          "name": "",
          "type": "uint256"
        }
      ],
      "stateMutability": "pure",
      "type": "function"
    }
  ],
  "bytecode": "0x608060405234801561001057600080fd5b50600080546001600160a01b0319169055611068806100306000396000f3fe608060405234801561001057600080fd5b50600436106101375760003560e01c80635cea42be116100b8578063cb12b92d1161007c578063cb12b92d14610250578063d3c2a16c14610259578063d9c8c63b1461026c578063e30c39781461027f578063f2fde38b14610292578063f97084a1146102a557600080fd5b80635cea42be146101f157806375ddc11d146102045780638da5cb5b1461021757806399dd1c811461022a578063a4c0ed361461023d57600080fd5b806338edc5a0116100ff57806338edc5a01461019b578063392e53cd146101ae5780634a439cc0146101cd5780634e71e0c8146101e057806354fd4d50146101ea57600080fd5b80630b23e95a1461013c5780630ea9ca1f146101585780631062b39a146101835780632efc10071461018b57806337b43a9414610193575b600080fd5b61014560075481565b6040519081526020015b60405180910390f35b60025461016b906001600160a01b031681565b6040516001600160a01b03909116815260200161014f565b61016b6102b8565b610145610345565b61016b610641565b60045461016b906001600160a01b031681565b6002546001600160a01b031615155b604051901515815260200161014f565b6101bd6101db366004610e45565b6106f2565b6101e8610709565b005b6002610145565b60055461016b906001600160a01b031681565b60085461016b906001600160a01b031681565b60005461016b906001600160a01b031681565b6101e8610238366004610dcd565b6107c0565b6101e861024b366004610d44565b6108c1565b610145600c5481565b6101e8610267366004610c5f565b61092a565b60065461016b906001600160a01b031681565b60015461016b906001600160a01b031681565b6101e86102a0366004610c1e565b610af8565b60035461016b906001600160a01b031681565b6000600460009054906101000a90046001600160a01b03166001600160a01b031663cd5965836040518163ffffffff1660e01b815260040160206040518083038186803b15801561030857600080fd5b505afa15801561031c573d6000803e3d6000fd5b505050506040513d601f19601f820116820180604052508101906103409190610c42565b905090565b6002546040516370a0823160e01b815230600482015260009182916001600160a01b03909116906370a082319060240160206040518083038186803b15801561038d57600080fd5b505afa1580156103a1573d6000803e3d6000fd5b505050506040513d601f19601f820116820180604052508101906103c59190610e2c565b9050806103d457600091505090565b6040518181527f41b06c6e0a1531dcb4b86d53ec6268666aa12d55775f8e5a63596fc935cdcc229060200160405180910390a16002546004805460405163095ea7b360e01b81526001600160a01b0391821692810192909252602482018490529091169063095ea7b390604401602060405180830381600087803b15801561045b57600080fd5b505af115801561046f573d6000803e3d6000fd5b505050506040513d601f19601f820116820180604052508101906104939190610e0a565b6104d55760405162461bcd60e51b815260206004820152600e60248201526d185c1c1c9bdd9957d9985a5b195960921b60448201526064015b60405180910390fd5b6004546002546001600160a01b039182169163d740548191166104f6610641565b60405162222a9960e91b602082015285906023016040516020818303038152906040526040518563ffffffff1660e01b81526004016105389493929190610f6d565b600060405180830381600087803b15801561055257600080fd5b505af1158015610566573d6000803e3d6000fd5b50506002546040516370a0823160e01b81523060048201526001600160a01b0390911692506370a08231915060240160206040518083038186803b1580156105ad57600080fd5b505afa1580156105c1573d6000803e3d6000fd5b505050506040513d601f19601f820116820180604052508101906105e59190610e2c565b156106245760405162461bcd60e51b815260206004820152600f60248201526e1b9bdd17dd1c985b9cd9995c9c9959608a1b60448201526064016104cc565b80600c60008282546106369190610fde565b909155509092915050565b600854600654604080516057810182526037808252733d602d80600a3d3981f3363d3d373d3d3d363d7360601b60208084019182526bffffffffffffffffffffffff19606097881b811660348601526e5af43d82803e903d91602b57fd5bf360881b60489095019490945291902083516001600160f81b0319818401529490951b90911660218401523060358401526055808401949094528151808403909401845260759092019052815191012090565b60006106fc610345565b5060019695505050505050565b6001546001600160a01b0316331461075c5760405162461bcd60e51b815260206004820152601660248201527532b93937b92fb7b7363ca832b73234b733a7bbb732b960511b60448201526064016104cc565b600154600080546040516001600160a01b0393841693909116917f8be0079c531659141344cd1fd0a4f28419497f9722a3daafe3b4186f6b6457e091a360018054600080546001600160a01b03199081166001600160a01b03841617909155169055565b60035460055460008054600954600a54600b5460405194966107ff966001600160a01b0391821696908216958216948a94909390921690602401610eda565b60408051601f198184030181529190526020810180516001600160e01b031663c41c62c560e01b17905290506108336102b8565b60065460075460405163dc8601b360e01b81526001600160a01b039384169363dc8601b39361086a93911691869190600401610faa565b602060405180830381600087803b15801561088457600080fd5b505af1158015610898573d6000803e3d6000fd5b505050506040513d601f19601f820116820180604052508101906108bc9190610e2c565b505050565b6002546001600160a01b0316331461091b5760405162461bcd60e51b815260206004820152601760248201527f6572726f725f6f6e6c79546f6b656e436f6e747261637400000000000000000060448201526064016104cc565b610923610345565b5050505050565b6002546001600160a01b03161561096f5760405162461bcd60e51b8152602060048201526009602482015268696e69745f6f6e636560b81b60448201526064016104cc565b336000806101000a8154816001600160a01b0302191690836001600160a01b031602179055508b600260006101000a8154816001600160a01b0302191690836001600160a01b031602179055508a600460006101000a8154816001600160a01b0302191690836001600160a01b0316021790555089600360006101000a8154816001600160a01b0302191690836001600160a01b0316021790555088600560006101000a8154816001600160a01b0302191690836001600160a01b0316021790555087600660006101000a8154816001600160a01b0302191690836001600160a01b031602179055508660078190555085600860006101000a8154816001600160a01b0302191690836001600160a01b031602179055508360098190555082600a8190555081600b60006101000a8154816001600160a01b0302191690836001600160a01b03160217905550846000806101000a8154816001600160a01b0302191690836001600160a01b03160217905550610aea816107c0565b505050505050505050505050565b6000546001600160a01b03163314610b445760405162461bcd60e51b815260206004820152600f60248201526e32b93937b92fb7b7363ca7bbb732b960891b60448201526064016104cc565b600180546001600160a01b0319166001600160a01b0392909216919091179055565b8035610b718161101a565b919050565b600082601f830112610b8757600080fd5b8135602067ffffffffffffffff80831115610ba457610ba4611004565b8260051b604051601f19603f83011681018181108482111715610bc957610bc9611004565b60405284815283810192508684018288018501891015610be857600080fd5b600092505b85831015610c1257610bfe81610b66565b845292840192600192909201918401610bed565b50979650505050505050565b600060208284031215610c3057600080fd5b8135610c3b8161101a565b9392505050565b600060208284031215610c5457600080fd5b8151610c3b8161101a565b6000806000806000806000806000806000806101808d8f031215610c8257600080fd5b610c8b8d610b66565b9b50610c9960208e01610b66565b9a50610ca760408e01610b66565b9950610cb560608e01610b66565b9850610cc360808e01610b66565b975060a08d01359650610cd860c08e01610b66565b9550610ce660e08e01610b66565b94506101008d013593506101208d01359250610d056101408e01610b66565b915067ffffffffffffffff6101608e01351115610d2157600080fd5b610d328e6101608f01358f01610b76565b90509295989b509295989b509295989b565b60008060008060608587031215610d5a57600080fd5b8435610d658161101a565b935060208501359250604085013567ffffffffffffffff80821115610d8957600080fd5b818701915087601f830112610d9d57600080fd5b813581811115610dac57600080fd5b886020828501011115610dbe57600080fd5b95989497505060200194505050565b600060208284031215610ddf57600080fd5b813567ffffffffffffffff811115610df657600080fd5b610e0284828501610b76565b949350505050565b600060208284031215610e1c57600080fd5b81518015158114610c3b57600080fd5b600060208284031215610e3e57600080fd5b5051919050565b600080600080600060a08688031215610e5d57600080fd5b853594506020860135610e6f8161101a565b94979496505050506040830135926060810135926080909101359150565b6000815180845260005b81811015610eb357602081850181015186830182015201610e97565b81811115610ec5576000602083870101525b50601f01601f19169290920160200192915050565b600060e0820160018060a01b03808b1684526020818b1681860152818a16604086015260e0606086015282895180855261010087019150828b01945060005b81811015610f37578551851683529483019491830191600101610f19565b5050809450505050508460808301528360a0830152610f6160c08301846001600160a01b03169052565b98975050505050505050565b6001600160a01b0385811682528416602082015260408101839052608060608201819052600090610fa090830184610e8d565b9695505050505050565b6001600160a01b0384168152606060208201819052600090610fce90830185610e8d565b9050826040830152949350505050565b60008219821115610fff57634e487b7160e01b600052601160045260246000fd5b500190565b634e487b7160e01b600052604160045260246000fd5b6001600160a01b038116811461102f57600080fd5b5056fea2646970667358221220952dc7c45d00afb4462ee1550649903499d100b93f76360426918396f260eec864736f6c63430008060033",
  "linkReferences": {},
  "deployedLinkReferences": {}
}