{
  "_format": "hh-sol-artifact-1",
  "contractName": "DataUnionFactory",
  "sourceName": "contracts/DataUnionFactory.sol",
  "abi": [
    {
      "anonymous": false,
      "inputs": [
        {
          "indexed": false,
          "internalType": "address",
          "name": "previousAdmin",
          "type": "address"
        },
        {
          "indexed": false,
          "internalType": "address",
          "name": "newAdmin",
          "type": "address"
        }
      ],
      "name": "AdminChanged",
      "type": "event"
    },
    {
      "anonymous": false,
      "inputs": [
        {
          "indexed": true,
          "internalType": "address",
          "name": "beacon",
          "type": "address"
        }
      ],
      "name": "BeaconUpgraded",
      "type": "event"
    },
    {
      "anonymous": false,
      "inputs": [
        {
          "indexed": true,
          "internalType": "address",
          "name": "du",
          "type": "address"
        },
        {
          "indexed": true,
          "internalType": "address",
          "name": "owner",
          "type": "address"
        },
        {
          "indexed": false,
          "internalType": "address",
          "name": "template",
          "type": "address"
        }
      ],
      "name": "DUCreated",
      "type": "event"
    },
    {
      "anonymous": false,
      "inputs": [
        {
          "indexed": false,
          "internalType": "uint256",
          "name": "amountWei",
          "type": "uint256"
        }
      ],
      "name": "DUInitialEthSent",
      "type": "event"
    },
    {
      "anonymous": false,
      "inputs": [
        {
          "indexed": false,
          "internalType": "uint256",
          "name": "amount",
          "type": "uint256"
        }
      ],
      "name": "DefaultNewMemberInitialEthUpdated",
      "type": "event"
    },
    {
      "anonymous": false,
      "inputs": [
        {
          "indexed": false,
          "internalType": "uint8",
          "name": "version",
          "type": "uint8"
        }
      ],
      "name": "Initialized",
      "type": "event"
    },
    {
      "anonymous": false,
      "inputs": [
        {
          "indexed": false,
          "internalType": "uint256",
          "name": "amount",
          "type": "uint256"
        }
      ],
      "name": "NewDUInitialEthUpdated",
      "type": "event"
    },
    {
      "anonymous": false,
      "inputs": [
        {
          "indexed": false,
          "internalType": "uint256",
          "name": "amount",
          "type": "uint256"
        }
      ],
      "name": "NewDUOwnerInitialEthUpdated",
      "type": "event"
    },
    {
      "anonymous": false,
      "inputs": [
        {
          "indexed": false,
          "internalType": "uint256",
          "name": "amountWei",
          "type": "uint256"
        }
      ],
      "name": "OwnerInitialEthSent",
      "type": "event"
    },
    {
      "anonymous": false,
      "inputs": [
        {
          "indexed": true,
          "internalType": "address",
          "name": "previousOwner",
          "type": "address"
        },
        {
          "indexed": true,
          "internalType": "address",
          "name": "newOwner",
          "type": "address"
        }
      ],
      "name": "OwnershipTransferred",
      "type": "event"
    },
    {
      "anonymous": false,
      "inputs": [
        {
          "indexed": false,
          "internalType": "address",
          "name": "newFeeOracleAddress",
          "type": "address"
        }
      ],
      "name": "ProtocolFeeOracleUpdated",
      "type": "event"
    },
    {
      "anonymous": false,
      "inputs": [
        {
          "indexed": true,
          "internalType": "address",
          "name": "implementation",
          "type": "address"
        }
      ],
      "name": "Upgraded",
      "type": "event"
    },
    {
      "inputs": [],
      "name": "claimOwnership",
      "outputs": [],
      "stateMutability": "nonpayable",
      "type": "function"
    },
    {
      "inputs": [],
      "name": "dataUnionTemplate",
      "outputs": [
        {
          "internalType": "address",
          "name": "",
          "type": "address"
        }
      ],
      "stateMutability": "view",
      "type": "function"
    },
    {
      "inputs": [],
      "name": "defaultNewMemberEth",
      "outputs": [
        {
          "internalType": "uint256",
          "name": "",
          "type": "uint256"
        }
      ],
      "stateMutability": "view",
      "type": "function"
    },
    {
      "inputs": [],
      "name": "defaultToken",
      "outputs": [
        {
          "internalType": "address",
          "name": "",
          "type": "address"
        }
      ],
      "stateMutability": "view",
      "type": "function"
    },
    {
      "inputs": [
        {
          "internalType": "address payable",
          "name": "owner",
          "type": "address"
        },
        {
          "internalType": "uint256",
          "name": "adminFeeFraction",
          "type": "uint256"
        },
        {
          "internalType": "address[]",
          "name": "agents",
          "type": "address[]"
        },
        {
          "internalType": "string",
          "name": "metadataJsonString",
          "type": "string"
        }
      ],
      "name": "deployNewDataUnion",
      "outputs": [
        {
          "internalType": "address",
          "name": "",
          "type": "address"
        }
      ],
      "stateMutability": "nonpayable",
      "type": "function"
    },
    {
      "inputs": [
        {
          "internalType": "address",
          "name": "token",
          "type": "address"
        },
        {
          "internalType": "address payable",
          "name": "owner",
          "type": "address"
        },
        {
          "internalType": "address[]",
          "name": "agents",
          "type": "address[]"
        },
        {
          "internalType": "uint256",
          "name": "initialAdminFeeFraction",
          "type": "uint256"
        },
        {
          "internalType": "string",
          "name": "metadataJsonString",
          "type": "string"
        }
      ],
      "name": "deployNewDataUnionUsingToken",
      "outputs": [
        {
          "internalType": "address",
          "name": "",
          "type": "address"
        }
      ],
      "stateMutability": "nonpayable",
      "type": "function"
    },
    {
      "inputs": [
        {
          "internalType": "address",
          "name": "_dataUnionTemplate",
          "type": "address"
        },
        {
          "internalType": "address",
          "name": "_defaultToken",
          "type": "address"
        },
        {
          "internalType": "address",
          "name": "_protocolFeeOracle",
          "type": "address"
        }
      ],
      "name": "initialize",
      "outputs": [],
      "stateMutability": "nonpayable",
      "type": "function"
    },
    {
      "inputs": [],
      "name": "newDUInitialEth",
      "outputs": [
        {
          "internalType": "uint256",
          "name": "",
          "type": "uint256"
        }
      ],
      "stateMutability": "view",
      "type": "function"
    },
    {
      "inputs": [],
      "name": "newDUOwnerInitialEth",
      "outputs": [
        {
          "internalType": "uint256",
          "name": "",
          "type": "uint256"
        }
      ],
      "stateMutability": "view",
      "type": "function"
    },
    {
      "inputs": [],
      "name": "owner",
      "outputs": [
        {
          "internalType": "address",
          "name": "",
          "type": "address"
        }
      ],
      "stateMutability": "view",
      "type": "function"
    },
    {
      "inputs": [],
      "name": "pendingOwner",
      "outputs": [
        {
          "internalType": "address",
          "name": "",
          "type": "address"
        }
      ],
      "stateMutability": "view",
      "type": "function"
    },
    {
      "inputs": [],
      "name": "protocolFeeOracle",
      "outputs": [
        {
          "internalType": "address",
          "name": "",
          "type": "address"
        }
      ],
      "stateMutability": "view",
      "type": "function"
    },
    {
      "inputs": [],
      "name": "proxiableUUID",
      "outputs": [
        {
          "internalType": "bytes32",
          "name": "",
          "type": "bytes32"
        }
      ],
      "stateMutability": "view",
      "type": "function"
    },
    {
      "inputs": [],
      "name": "renounceOwnership",
      "outputs": [],
      "stateMutability": "nonpayable",
      "type": "function"
    },
    {
      "inputs": [
        {
          "internalType": "uint256",
          "name": "initialEthWei",
          "type": "uint256"
        }
      ],
      "name": "setNewDUInitialEth",
      "outputs": [],
      "stateMutability": "nonpayable",
      "type": "function"
    },
    {
      "inputs": [
        {
          "internalType": "uint256",
          "name": "initialEthWei",
          "type": "uint256"
        }
      ],
      "name": "setNewDUOwnerInitialEth",
      "outputs": [],
      "stateMutability": "nonpayable",
      "type": "function"
    },
    {
      "inputs": [
        {
          "internalType": "uint256",
          "name": "initialEthWei",
          "type": "uint256"
        }
      ],
      "name": "setNewMemberInitialEth",
      "outputs": [],
      "stateMutability": "nonpayable",
      "type": "function"
    },
    {
      "inputs": [
        {
          "internalType": "address",
          "name": "newFeeOracleAddress",
          "type": "address"
        }
      ],
      "name": "setProtocolFeeOracle",
      "outputs": [],
      "stateMutability": "nonpayable",
      "type": "function"
    },
    {
      "inputs": [
        {
          "internalType": "address",
          "name": "_dataUnionTemplate",
          "type": "address"
        }
      ],
      "name": "setTemplate",
      "outputs": [],
      "stateMutability": "nonpayable",
      "type": "function"
    },
    {
      "inputs": [
        {
          "internalType": "address",
          "name": "newOwner",
          "type": "address"
        }
      ],
      "name": "transferOwnership",
      "outputs": [],
      "stateMutability": "nonpayable",
      "type": "function"
    },
    {
      "inputs": [
        {
          "internalType": "address",
          "name": "newImplementation",
          "type": "address"
        }
      ],
      "name": "upgradeTo",
      "outputs": [],
      "stateMutability": "nonpayable",
      "type": "function"
    },
    {
      "inputs": [
        {
          "internalType": "address",
          "name": "newImplementation",
          "type": "address"
        },
        {
          "internalType": "bytes",
          "name": "data",
          "type": "bytes"
        }
      ],
      "name": "upgradeToAndCall",
      "outputs": [],
      "stateMutability": "payable",
      "type": "function"
    },
    {
      "stateMutability": "payable",
      "type": "receive"
    }
  ],
  "bytecode": "0x60a06040523060601b60805234801561001757600080fd5b5060805160601c6117a5610052600039600081816103ef01528181610438015281816105d30152818161061301526106a601526117a56000f3fe6080604052600436106101395760003560e01c80638f8af0e5116100ab578063e22ab5ae1161006f578063e22ab5ae14610338578063e30c39781461034e578063eb2061841461036e578063f0ef0b061461038e578063f2fde38b146103ae578063f7c1329e146103ce57600080fd5b80638f8af0e5146102a2578063991ab821146102c2578063afc6224b146102e2578063c0c53b8b146102f8578063cb8a191b1461031857600080fd5b806352d1902d116100fd57806352d1902d146101cf578063715018a6146101f757806374c13fda1461020c5780638175e1c61461024457806389c716d1146102645780638da5cb5b1461028457600080fd5b80633659cfe61461014557806337dd8b05146101675780634e51a863146101875780634e71e0c8146101a75780634f1ef286146101bc57600080fd5b3661014057005b600080fd5b34801561015157600080fd5b50610165610160366004611246565b6103e4565b005b34801561017357600080fd5b5061016561018236600461148f565b6104cd565b34801561019357600080fd5b506101656101a236600461148f565b610511565b3480156101b357600080fd5b5061016561054e565b6101656101ca3660046113ce565b6105c8565b3480156101db57600080fd5b506101e4610699565b6040519081526020015b60405180910390f35b34801561020357600080fd5b5061016561074c565b34801561021857600080fd5b5060ca5461022c906001600160a01b031681565b6040516001600160a01b0390911681526020016101ee565b34801561025057600080fd5b5060c95461022c906001600160a01b031681565b34801561027057600080fd5b5061016561027f366004611246565b610756565b34801561029057600080fd5b506033546001600160a01b031661022c565b3480156102ae57600080fd5b5060ce5461022c906001600160a01b031681565b3480156102ce57600080fd5b506101656102dd366004611246565b610780565b3480156102ee57600080fd5b506101e460cc5481565b34801561030457600080fd5b50610165610313366004611383565b6107d6565b34801561032457600080fd5b5061022c610333366004611263565b61092b565b34801561034457600080fd5b506101e460cd5481565b34801561035a57600080fd5b5060cf5461022c906001600160a01b031681565b34801561037a57600080fd5b5061022c6103893660046112ea565b610952565b34801561039a57600080fd5b506101656103a936600461148f565b610b32565b3480156103ba57600080fd5b506101656103c9366004611246565b610b6f565b3480156103da57600080fd5b506101e460cb5481565b306001600160a01b037f00000000000000000000000000000000000000000000000000000000000000001614156104365760405162461bcd60e51b815260040161042d906115bd565b60405180910390fd5b7f00000000000000000000000000000000000000000000000000000000000000006001600160a01b031661047f600080516020611729833981519152546001600160a01b031690565b6001600160a01b0316146104a55760405162461bcd60e51b815260040161042d90611609565b6104ae81610be3565b604080516000808252602082019092526104ca91839190610beb565b50565b6104d5610d6a565b60cd8190556040518181527fa08f6c0ada3df1b0c8836bd8d34079c5b7d539b75b1824bff921389da8ee27e2906020015b60405180910390a150565b610519610d6a565b60cb8190556040518181527f9fa316a940037f0221f667900b17fbdfe469ff2640ab38ea6e629b77948fbb5090602001610506565b60cf546001600160a01b031633146105a15760405162461bcd60e51b815260206004820152601660248201527532b93937b92fb7b7363ca832b73234b733a7bbb732b960511b604482015260640161042d565b60cf546105b6906001600160a01b0316610dc4565b60cf80546001600160a01b0319169055565b306001600160a01b037f00000000000000000000000000000000000000000000000000000000000000001614156106115760405162461bcd60e51b815260040161042d906115bd565b7f00000000000000000000000000000000000000000000000000000000000000006001600160a01b031661065a600080516020611729833981519152546001600160a01b031690565b6001600160a01b0316146106805760405162461bcd60e51b815260040161042d90611609565b61068982610be3565b61069582826001610beb565b5050565b6000306001600160a01b037f000000000000000000000000000000000000000000000000000000000000000016146107395760405162461bcd60e51b815260206004820152603860248201527f555550535570677261646561626c653a206d757374206e6f742062652063616c60448201527f6c6564207468726f7567682064656c656761746563616c6c0000000000000000606482015260840161042d565b5060008051602061172983398151915290565b610754610d6a565b565b61075e610d6a565b60c980546001600160a01b0319166001600160a01b0392909216919091179055565b610788610d6a565b60ce80546001600160a01b0319166001600160a01b0383169081179091556040519081527f559de2229a7209621236d1adfa9fee64f42edf08436ec2fd5f3ac20d1f2e6b1590602001610506565b600054610100900460ff16158080156107f65750600054600160ff909116105b806108105750303b158015610810575060005460ff166001145b6108735760405162461bcd60e51b815260206004820152602e60248201527f496e697469616c697a61626c653a20636f6e747261637420697320616c72656160448201526d191e481a5b9a5d1a585b1a5e995960921b606482015260840161042d565b6000805460ff191660011790558015610896576000805461ff0019166101001790555b61089e610e16565b6108a6610e45565b6108af84610756565b60ca80546001600160a01b038086166001600160a01b03199283161790925560ce8054928516929091169190911790558015610925576000805461ff0019169055604051600181527f7f26b83ff96e1f2b6a682f133852f6798a09c465da95921460cefb38474024989060200160405180910390a15b50505050565b60ca54600090610948906001600160a01b03168786888787610952565b9695505050505050565b60c954600090819061096c906001600160a01b0316610e6c565b60cd5460ce5460405163055f814b60e31b81529293506001600160a01b0380851693632afc0a58936109af938d938f938e93928e9216908d908d906004016114ed565b600060405180830381600087803b1580156109c957600080fd5b505af11580156109dd573d6000803e3d6000fd5b505060c9546040516001600160a01b0391821681528a8216935090841691507f65c07de8b1b54039404fe763b8aec97dc65dd5dadf97abea25e0a95878b5e61d9060200160405180910390a360cb5415801590610a3c575060cb544710155b15610aa85760cb546040516001600160a01b0383169180156108fc02916000818181858888f1935050505015610aa8577f517165f169759cdb94227d1c50f4f47895eb099a7f04a780f519bf1739face6f60cb54604051610a9f91815260200190565b60405180910390a15b60cc5415801590610abb575060cc544710155b15610b275760cc546040516001600160a01b0389169180156108fc02916000818181858888f1935050505015610b27577f69e30c0bf438d0d3e0afb7f68d57ef394a0d5e8712f82fa00aa599e42574bc2a60cc54604051610b1e91815260200190565b60405180910390a15b979650505050505050565b610b3a610d6a565b60cc8190556040518181527f466438501195f2c6bea20cb9b252ea19275397feccb6ee72d07087af63d2989890602001610506565b610b77610d6a565b6001600160a01b038116610bc15760405162461bcd60e51b81526020600482015260116024820152706572726f725f7a65726f4164647265737360781b604482015260640161042d565b60cf80546001600160a01b0319166001600160a01b0392909216919091179055565b6104ca610d6a565b7f4910fdfa16fed3260ed0e7147f7cc6da11a60208b5b9406d12a635614ffd91435460ff1615610c2357610c1e83610f09565b505050565b826001600160a01b03166352d1902d6040518163ffffffff1660e01b815260040160206040518083038186803b158015610c5c57600080fd5b505afa925050508015610c8c575060408051601f3d908101601f19168201909252610c8991810190611476565b60015b610cef5760405162461bcd60e51b815260206004820152602e60248201527f45524331393637557067726164653a206e657720696d706c656d656e7461746960448201526d6f6e206973206e6f74205555505360901b606482015260840161042d565b6000805160206117298339815191528114610d5e5760405162461bcd60e51b815260206004820152602960248201527f45524331393637557067726164653a20756e737570706f727465642070726f786044820152681a58589b195555525160ba1b606482015260840161042d565b50610c1e838383610fa5565b6033546001600160a01b031633146107545760405162461bcd60e51b815260206004820181905260248201527f4f776e61626c653a2063616c6c6572206973206e6f7420746865206f776e6572604482015260640161042d565b603380546001600160a01b038381166001600160a01b0319831681179093556040519116919082907f8be0079c531659141344cd1fd0a4f28419497f9722a3daafe3b4186f6b6457e090600090a35050565b600054610100900460ff16610e3d5760405162461bcd60e51b815260040161042d90611655565b610754610fca565b600054610100900460ff166107545760405162461bcd60e51b815260040161042d90611655565b6000604051733d602d80600a3d3981f3363d3d373d3d3d363d7360601b81528260601b60148201526e5af43d82803e903d91602b57fd5bf360881b60288201526037816000f09150506001600160a01b038116610f045760405162461bcd60e51b8152602060048201526016602482015275115490cc4c4d8dce8818dc99585d194819985a5b195960521b604482015260640161042d565b919050565b6001600160a01b0381163b610f765760405162461bcd60e51b815260206004820152602d60248201527f455243313936373a206e657720696d706c656d656e746174696f6e206973206e60448201526c1bdd08184818dbdb9d1c9858dd609a1b606482015260840161042d565b60008051602061172983398151915280546001600160a01b0319166001600160a01b0392909216919091179055565b610fae83610ffa565b600082511180610fbb5750805b15610c1e57610925838361103a565b600054610100900460ff16610ff15760405162461bcd60e51b815260040161042d90611655565b61075433610dc4565b61100381610f09565b6040516001600160a01b038216907fbc7cd75a20ee27fd9adebab32041f755214dbc6bffa90cc0225b39da2e5c2d3b90600090a250565b60606001600160a01b0383163b6110a25760405162461bcd60e51b815260206004820152602660248201527f416464726573733a2064656c65676174652063616c6c20746f206e6f6e2d636f6044820152651b9d1c9858dd60d21b606482015260840161042d565b600080846001600160a01b0316846040516110bd91906114d1565b600060405180830381855af49150503d80600081146110f8576040519150601f19603f3d011682016040523d82523d6000602084013e6110fd565b606091505b509150915061112582826040518060600160405280602781526020016117496027913961112e565b95945050505050565b6060831561113d575081611167565b82511561114d5782518084602001fd5b8160405162461bcd60e51b815260040161042d919061158a565b9392505050565b600082601f83011261117f57600080fd5b8135602067ffffffffffffffff82111561119b5761119b6116fd565b8160051b6111aa8282016116a0565b8381528281019086840183880185018910156111c557600080fd5b600093505b858410156111f15780356111dd81611713565b8352600193909301929184019184016111ca565b50979650505050505050565b60008083601f84011261120f57600080fd5b50813567ffffffffffffffff81111561122757600080fd5b60208301915083602082850101111561123f57600080fd5b9250929050565b60006020828403121561125857600080fd5b813561116781611713565b60008060008060006080868803121561127b57600080fd5b853561128681611713565b945060208601359350604086013567ffffffffffffffff808211156112aa57600080fd5b6112b689838a0161116e565b945060608801359150808211156112cc57600080fd5b506112d9888289016111fd565b969995985093965092949392505050565b60008060008060008060a0878903121561130357600080fd5b863561130e81611713565b9550602087013561131e81611713565b9450604087013567ffffffffffffffff8082111561133b57600080fd5b6113478a838b0161116e565b955060608901359450608089013591508082111561136457600080fd5b5061137189828a016111fd565b979a9699509497509295939492505050565b60008060006060848603121561139857600080fd5b83356113a381611713565b925060208401356113b381611713565b915060408401356113c381611713565b809150509250925092565b600080604083850312156113e157600080fd5b82356113ec81611713565b915060208381013567ffffffffffffffff8082111561140a57600080fd5b818601915086601f83011261141e57600080fd5b813581811115611430576114306116fd565b611442601f8201601f191685016116a0565b9150808252878482850101111561145857600080fd5b80848401858401376000848284010152508093505050509250929050565b60006020828403121561148857600080fd5b5051919050565b6000602082840312156114a157600080fd5b5035919050565b81835281816020850137506000828201602090810191909152601f909101601f19169091010190565b600082516114e38184602087016116d1565b9190910192915050565b600060e0820160018060a01b03808c1684526020818c168186015260e06040860152828b5180855261010087019150828d01945060005b81811015611542578551851683529483019491830191600101611524565b50508a606087015289608087015261156560a087018a6001600160a01b03169052565b85810360c087015261157881888a6114a8565b9e9d5050505050505050505050505050565b60208152600082518060208401526115a98160408501602087016116d1565b601f01601f19169190910160400192915050565b6020808252602c908201527f46756e6374696f6e206d7573742062652063616c6c6564207468726f7567682060408201526b19195b1959d85d1958d85b1b60a21b606082015260800190565b6020808252602c908201527f46756e6374696f6e206d7573742062652063616c6c6564207468726f7567682060408201526b6163746976652070726f787960a01b606082015260800190565b6020808252602b908201527f496e697469616c697a61626c653a20636f6e7472616374206973206e6f74206960408201526a6e697469616c697a696e6760a81b606082015260800190565b604051601f8201601f1916810167ffffffffffffffff811182821017156116c9576116c96116fd565b604052919050565b60005b838110156116ec5781810151838201526020016116d4565b838111156109255750506000910152565b634e487b7160e01b600052604160045260246000fd5b6001600160a01b03811681146104ca57600080fdfe360894a13ba1a3210667c828492db98dca3e2076cc3735a920a3ca505d382bbc416464726573733a206c6f772d6c6576656c2064656c65676174652063616c6c206661696c6564a264697066735822122006f417a0730e1b076df6b8edf33a605c8397a0ff5eb0850853049a31aaa5008264736f6c63430008060033",
  "linkReferences": {},
  "deployedLinkReferences": {}
}