{
  "_format": "hh-sol-artifact-1",
  "contractName": "DefaultFeeOracle",
  "sourceName": "contracts/DefaultFeeOracle.sol",
  "abi": [
    {
      "anonymous": false,
      "inputs": [
        {
          "indexed": false,
          "internalType": "address",
          "name": "previousAdmin",
          "type": "address"
        },
        {
          "indexed": false,
          "internalType": "address",
          "name": "newAdmin",
          "type": "address"
        }
      ],
      "name": "AdminChanged",
      "type": "event"
    },
    {
      "anonymous": false,
      "inputs": [
        {
          "indexed": true,
          "internalType": "address",
          "name": "beacon",
          "type": "address"
        }
      ],
      "name": "BeaconUpgraded",
      "type": "event"
    },
    {
      "anonymous": false,
      "inputs": [
        {
          "indexed": false,
          "internalType": "address",
          "name": "newProtocolFeeBeneficiaryAddress",
          "type": "address"
        }
      ],
      "name": "BeneficiaryChanged",
      "type": "event"
    },
    {
      "anonymous": false,
      "inputs": [
        {
          "indexed": false,
          "internalType": "uint256",
          "name": "newFeeWei",
          "type": "uint256"
        }
      ],
      "name": "FeeChanged",
      "type": "event"
    },
    {
      "anonymous": false,
      "inputs": [
        {
          "indexed": false,
          "internalType": "uint8",
          "name": "version",
          "type": "uint8"
        }
      ],
      "name": "Initialized",
      "type": "event"
    },
    {
      "anonymous": false,
      "inputs": [
        {
          "indexed": true,
          "internalType": "address",
          "name": "previousOwner",
          "type": "address"
        },
        {
          "indexed": true,
          "internalType": "address",
          "name": "newOwner",
          "type": "address"
        }
      ],
      "name": "OwnershipTransferred",
      "type": "event"
    },
    {
      "anonymous": false,
      "inputs": [
        {
          "indexed": true,
          "internalType": "address",
          "name": "implementation",
          "type": "address"
        }
      ],
      "name": "Upgraded",
      "type": "event"
    },
    {
      "inputs": [],
      "name": "beneficiary",
      "outputs": [
        {
          "internalType": "address",
          "name": "",
          "type": "address"
        }
      ],
      "stateMutability": "view",
      "type": "function"
    },
    {
      "inputs": [],
      "name": "fee",
      "outputs": [
        {
          "internalType": "uint256",
          "name": "",
          "type": "uint256"
        }
      ],
      "stateMutability": "view",
      "type": "function"
    },
    {
      "inputs": [
        {
          "internalType": "uint256",
          "name": "feeWei",
          "type": "uint256"
        },
        {
          "internalType": "address",
          "name": "protocolFeeBeneficiaryAddress",
          "type": "address"
        }
      ],
      "name": "initialize",
      "outputs": [],
      "stateMutability": "nonpayable",
      "type": "function"
    },
    {
      "inputs": [],
      "name": "owner",
      "outputs": [
        {
          "internalType": "address",
          "name": "",
          "type": "address"
        }
      ],
      "stateMutability": "view",
      "type": "function"
    },
    {
      "inputs": [
        {
          "internalType": "address",
          "name": "",
          "type": "address"
        }
      ],
      "name": "protocolFeeFor",
      "outputs": [
        {
          "internalType": "uint256",
          "name": "feeWei",
          "type": "uint256"
        }
      ],
      "stateMutability": "view",
      "type": "function"
    },
    {
      "inputs": [],
      "name": "proxiableUUID",
      "outputs": [
        {
          "internalType": "bytes32",
          "name": "",
          "type": "bytes32"
        }
      ],
      "stateMutability": "view",
      "type": "function"
    },
    {
      "inputs": [],
      "name": "renounceOwnership",
      "outputs": [],
      "stateMutability": "nonpayable",
      "type": "function"
    },
    {
      "inputs": [
        {
          "internalType": "address",
          "name": "protocolFeeBeneficiaryAddress",
          "type": "address"
        }
      ],
      "name": "setBeneficiary",
      "outputs": [],
      "stateMutability": "nonpayable",
      "type": "function"
    },
    {
      "inputs": [
        {
          "internalType": "uint256",
          "name": "feeWei",
          "type": "uint256"
        }
      ],
      "name": "setFee",
      "outputs": [],
      "stateMutability": "nonpayable",
      "type": "function"
    },
    {
      "inputs": [
        {
          "internalType": "address",
          "name": "newOwner",
          "type": "address"
        }
      ],
      "name": "transferOwnership",
      "outputs": [],
      "stateMutability": "nonpayable",
      "type": "function"
    },
    {
      "inputs": [
        {
          "internalType": "address",
          "name": "newImplementation",
          "type": "address"
        }
      ],
      "name": "upgradeTo",
      "outputs": [],
      "stateMutability": "nonpayable",
      "type": "function"
    },
    {
      "inputs": [
        {
          "internalType": "address",
          "name": "newImplementation",
          "type": "address"
        },
        {
          "internalType": "bytes",
          "name": "data",
          "type": "bytes"
        }
      ],
      "name": "upgradeToAndCall",
      "outputs": [],
      "stateMutability": "payable",
      "type": "function"
    }
  ],
  "bytecode": "0x60a06040523060601b60805234801561001757600080fd5b5060805160601c610f2161005260003960008181610294015281816102dd0152818161037d015281816103bd01526104500152610f216000f3fe6080604052600436106100a75760003560e01c8063715018a611610064578063715018a6146101815780638da5cb5b14610196578063da35a26f146101b4578063ddca3f43146101d4578063ecc63957146101ea578063f2fde38b1461020c57600080fd5b80631c31f710146100ac5780633659cfe6146100ce57806338af3eed146100ee5780634f1ef2861461012b57806352d1902d1461013e57806369fe0e2d14610161575b600080fd5b3480156100b857600080fd5b506100cc6100c7366004610bf5565b61022c565b005b3480156100da57600080fd5b506100cc6100e9366004610bf5565b610289565b3480156100fa57600080fd5b5060ca5461010e906001600160a01b031681565b6040516001600160a01b0390911681526020015b60405180910390f35b6100cc610139366004610c10565b610372565b34801561014a57600080fd5b50610153610443565b604051908152602001610122565b34801561016d57600080fd5b506100cc61017c366004610ceb565b6104f6565b34801561018d57600080fd5b506100cc610533565b3480156101a257600080fd5b506033546001600160a01b031661010e565b3480156101c057600080fd5b506100cc6101cf366004610d04565b610547565b3480156101e057600080fd5b5061015360c95481565b3480156101f657600080fd5b50610153610205366004610bf5565b5060c95490565b34801561021857600080fd5b506100cc610227366004610bf5565b610674565b6102346106ea565b60ca80546001600160a01b0319166001600160a01b0383169081179091556040519081527f373c72efabe4ef3e552ff77838be729f3bc3d8c586df0012902d1baa2377fa1d906020015b60405180910390a150565b306001600160a01b037f00000000000000000000000000000000000000000000000000000000000000001614156102db5760405162461bcd60e51b81526004016102d290610d7f565b60405180910390fd5b7f00000000000000000000000000000000000000000000000000000000000000006001600160a01b0316610324600080516020610ea5833981519152546001600160a01b031690565b6001600160a01b03161461034a5760405162461bcd60e51b81526004016102d290610dcb565b61035381610744565b6040805160008082526020820190925261036f9183919061074c565b50565b306001600160a01b037f00000000000000000000000000000000000000000000000000000000000000001614156103bb5760405162461bcd60e51b81526004016102d290610d7f565b7f00000000000000000000000000000000000000000000000000000000000000006001600160a01b0316610404600080516020610ea5833981519152546001600160a01b031690565b6001600160a01b03161461042a5760405162461bcd60e51b81526004016102d290610dcb565b61043382610744565b61043f8282600161074c565b5050565b6000306001600160a01b037f000000000000000000000000000000000000000000000000000000000000000016146104e35760405162461bcd60e51b815260206004820152603860248201527f555550535570677261646561626c653a206d757374206e6f742062652063616c60448201527f6c6564207468726f7567682064656c656761746563616c6c000000000000000060648201526084016102d2565b50600080516020610ea583398151915290565b6104fe6106ea565b60c98190556040518181527f6bbc57480a46553fa4d156ce702beef5f3ad66303b0ed1a5d4cb44966c6584c39060200161027e565b61053b6106ea565b61054560006108c6565b565b600054610100900460ff16158080156105675750600054600160ff909116105b806105815750303b158015610581575060005460ff166001145b6105e45760405162461bcd60e51b815260206004820152602e60248201527f496e697469616c697a61626c653a20636f6e747261637420697320616c72656160448201526d191e481a5b9a5d1a585b1a5e995960921b60648201526084016102d2565b6000805460ff191660011790558015610607576000805461ff0019166101001790555b61060f610918565b610617610947565b610620836104f6565b6106298261022c565b801561066f576000805461ff0019169055604051600181527f7f26b83ff96e1f2b6a682f133852f6798a09c465da95921460cefb38474024989060200160405180910390a15b505050565b61067c6106ea565b6001600160a01b0381166106e15760405162461bcd60e51b815260206004820152602660248201527f4f776e61626c653a206e6577206f776e657220697320746865207a65726f206160448201526564647265737360d01b60648201526084016102d2565b61036f816108c6565b6033546001600160a01b031633146105455760405162461bcd60e51b815260206004820181905260248201527f4f776e61626c653a2063616c6c6572206973206e6f7420746865206f776e657260448201526064016102d2565b61036f6106ea565b7f4910fdfa16fed3260ed0e7147f7cc6da11a60208b5b9406d12a635614ffd91435460ff161561077f5761066f8361096e565b826001600160a01b03166352d1902d6040518163ffffffff1660e01b815260040160206040518083038186803b1580156107b857600080fd5b505afa9250505080156107e8575060408051601f3d908101601f191682019092526107e591810190610cd2565b60015b61084b5760405162461bcd60e51b815260206004820152602e60248201527f45524331393637557067726164653a206e657720696d706c656d656e7461746960448201526d6f6e206973206e6f74205555505360901b60648201526084016102d2565b600080516020610ea583398151915281146108ba5760405162461bcd60e51b815260206004820152602960248201527f45524331393637557067726164653a20756e737570706f727465642070726f786044820152681a58589b195555525160ba1b60648201526084016102d2565b5061066f838383610a0a565b603380546001600160a01b038381166001600160a01b0319831681179093556040519116919082907f8be0079c531659141344cd1fd0a4f28419497f9722a3daafe3b4186f6b6457e090600090a35050565b600054610100900460ff1661093f5760405162461bcd60e51b81526004016102d290610e17565b610545610a35565b600054610100900460ff166105455760405162461bcd60e51b81526004016102d290610e17565b6001600160a01b0381163b6109db5760405162461bcd60e51b815260206004820152602d60248201527f455243313936373a206e657720696d706c656d656e746174696f6e206973206e60448201526c1bdd08184818dbdb9d1c9858dd609a1b60648201526084016102d2565b600080516020610ea583398151915280546001600160a01b0319166001600160a01b0392909216919091179055565b610a1383610a65565b600082511180610a205750805b1561066f57610a2f8383610aa5565b50505050565b600054610100900460ff16610a5c5760405162461bcd60e51b81526004016102d290610e17565b610545336108c6565b610a6e8161096e565b6040516001600160a01b038216907fbc7cd75a20ee27fd9adebab32041f755214dbc6bffa90cc0225b39da2e5c2d3b90600090a250565b60606001600160a01b0383163b610b0d5760405162461bcd60e51b815260206004820152602660248201527f416464726573733a2064656c65676174652063616c6c20746f206e6f6e2d636f6044820152651b9d1c9858dd60d21b60648201526084016102d2565b600080846001600160a01b031684604051610b289190610d30565b600060405180830381855af49150503d8060008114610b63576040519150601f19603f3d011682016040523d82523d6000602084013e610b68565b606091505b5091509150610b908282604051806060016040528060278152602001610ec560279139610b99565b95945050505050565b60608315610ba8575081610bd2565b825115610bb85782518084602001fd5b8160405162461bcd60e51b81526004016102d29190610d4c565b9392505050565b80356001600160a01b0381168114610bf057600080fd5b919050565b600060208284031215610c0757600080fd5b610bd282610bd9565b60008060408385031215610c2357600080fd5b610c2c83610bd9565b9150602083013567ffffffffffffffff80821115610c4957600080fd5b818501915085601f830112610c5d57600080fd5b813581811115610c6f57610c6f610e8e565b604051601f8201601f19908116603f01168101908382118183101715610c9757610c97610e8e565b81604052828152886020848701011115610cb057600080fd5b8260208601602083013760006020848301015280955050505050509250929050565b600060208284031215610ce457600080fd5b5051919050565b600060208284031215610cfd57600080fd5b5035919050565b60008060408385031215610d1757600080fd5b82359150610d2760208401610bd9565b90509250929050565b60008251610d42818460208701610e62565b9190910192915050565b6020815260008251806020840152610d6b816040850160208701610e62565b601f01601f19169190910160400192915050565b6020808252602c908201527f46756e6374696f6e206d7573742062652063616c6c6564207468726f7567682060408201526b19195b1959d85d1958d85b1b60a21b606082015260800190565b6020808252602c908201527f46756e6374696f6e206d7573742062652063616c6c6564207468726f7567682060408201526b6163746976652070726f787960a01b606082015260800190565b6020808252602b908201527f496e697469616c697a61626c653a20636f6e7472616374206973206e6f74206960408201526a6e697469616c697a696e6760a81b606082015260800190565b60005b83811015610e7d578181015183820152602001610e65565b83811115610a2f5750506000910152565b634e487b7160e01b600052604160045260246000fdfe360894a13ba1a3210667c828492db98dca3e2076cc3735a920a3ca505d382bbc416464726573733a206c6f772d6c6576656c2064656c65676174652063616c6c206661696c6564a26469706673582212204b7e915fa74191174a17d8d16c872f041d5bd2c17d4f38bdb6147f00e34c2ffa64736f6c63430008060033",
  "linkReferences": {},
  "deployedLinkReferences": {}
}