{
  "_format": "hh-sol-artifact-1",
  "contractName": "ENSCache",
  "sourceName": "contracts/chainlinkClient/ENSCache.sol",
  "abi": [
    {
      "inputs": [
        {
          "internalType": "address",
          "name": "oracleAddress",
          "type": "address"
        },
        {
          "internalType": "string",
          "name": "chainlinkJobId",
          "type": "string"
        }
      ],
      "stateMutability": "nonpayable",
      "type": "constructor"
    },
    {
      "anonymous": false,
      "inputs": [
        {
          "indexed": true,
          "internalType": "bytes32",
          "name": "id",
          "type": "bytes32"
        }
      ],
      "name": "ChainlinkCancelled",
      "type": "event"
    },
    {
      "anonymous": false,
      "inputs": [
        {
          "indexed": true,
          "internalType": "bytes32",
          "name": "id",
          "type": "bytes32"
        }
      ],
      "name": "ChainlinkFulfilled",
      "type": "event"
    },
    {
      "anonymous": false,
      "inputs": [
        {
          "indexed": true,
          "internalType": "bytes32",
          "name": "id",
          "type": "bytes32"
        }
      ],
      "name": "ChainlinkRequested",
      "type": "event"
    },
    {
      "anonymous": false,
      "inputs": [
        {
          "indexed": true,
          "internalType": "address",
          "name": "previousOwner",
          "type": "address"
        },
        {
          "indexed": true,
          "internalType": "address",
          "name": "newOwner",
          "type": "address"
        }
      ],
      "name": "OwnershipTransferred",
      "type": "event"
    },
    {
      "inputs": [
        {
          "internalType": "bytes32",
          "name": "_requestId",
          "type": "bytes32"
        },
        {
          "internalType": "uint256",
          "name": "_payment",
          "type": "uint256"
        },
        {
          "internalType": "bytes4",
          "name": "_callbackFunctionId",
          "type": "bytes4"
        },
        {
          "internalType": "uint256",
          "name": "_expiration",
          "type": "uint256"
        }
      ],
      "name": "cancelRequest",
      "outputs": [],
      "stateMutability": "nonpayable",
      "type": "function"
    },
    {
      "inputs": [
        {
          "internalType": "bytes32",
          "name": "requestId",
          "type": "bytes32"
        },
        {
          "internalType": "bytes32",
          "name": "owneraddress",
          "type": "bytes32"
        }
      ],
      "name": "fulfillENSOwner",
      "outputs": [],
      "stateMutability": "nonpayable",
      "type": "function"
    },
    {
      "inputs": [],
      "name": "getChainlinkToken",
      "outputs": [
        {
          "internalType": "address",
          "name": "",
          "type": "address"
        }
      ],
      "stateMutability": "view",
      "type": "function"
    },
    {
      "inputs": [],
      "name": "jobId",
      "outputs": [
        {
          "internalType": "string",
          "name": "",
          "type": "string"
        }
      ],
      "stateMutability": "view",
      "type": "function"
    },
    {
      "inputs": [],
      "name": "oracle",
      "outputs": [
        {
          "internalType": "address",
          "name": "",
          "type": "address"
        }
      ],
      "stateMutability": "view",
      "type": "function"
    },
    {
      "inputs": [],
      "name": "owner",
      "outputs": [
        {
          "internalType": "address",
          "name": "",
          "type": "address"
        }
      ],
      "stateMutability": "view",
      "type": "function"
    },
    {
      "inputs": [
        {
          "internalType": "string",
          "name": "",
          "type": "string"
        }
      ],
      "name": "owners",
      "outputs": [
        {
          "internalType": "address",
          "name": "",
          "type": "address"
        }
      ],
      "stateMutability": "view",
      "type": "function"
    },
    {
      "inputs": [],
      "name": "renounceOwnership",
      "outputs": [],
      "stateMutability": "nonpayable",
      "type": "function"
    },
    {
      "inputs": [
        {
          "internalType": "string",
          "name": "ensName",
          "type": "string"
        }
      ],
      "name": "requestENSOwner",
      "outputs": [],
      "stateMutability": "nonpayable",
      "type": "function"
    },
    {
      "inputs": [
        {
          "internalType": "string",
          "name": "ensName",
          "type": "string"
        },
        {
          "internalType": "string",
          "name": "streamIdPath",
          "type": "string"
        },
        {
          "internalType": "string",
          "name": "metadataJsonString",
          "type": "string"
        },
        {
          "internalType": "address",
          "name": "requestorAddress",
          "type": "address"
        }
      ],
      "name": "requestENSOwnerAndCreateStream",
      "outputs": [],
      "stateMutability": "nonpayable",
      "type": "function"
    },
    {
      "inputs": [
        {
          "internalType": "string",
          "name": "ensName",
          "type": "string"
        }
      ],
      "name": "resetCacheForENSName",
      "outputs": [],
      "stateMutability": "nonpayable",
      "type": "function"
    },
    {
      "inputs": [
        {
          "internalType": "string",
          "name": "ensName",
          "type": "string"
        }
      ],
      "name": "resetCacheForMyENSName",
      "outputs": [],
      "stateMutability": "nonpayable",
      "type": "function"
    },
    {
      "inputs": [
        {
          "internalType": "string",
          "name": "chainlinkJobId",
          "type": "string"
        }
      ],
      "name": "setChainlinkJobId",
      "outputs": [],
      "stateMutability": "nonpayable",
      "type": "function"
    },
    {
      "inputs": [
        {
          "internalType": "address",
          "name": "_link",
          "type": "address"
        }
      ],
      "name": "setChainlinkTokenAddress",
      "outputs": [],
      "stateMutability": "nonpayable",
      "type": "function"
    },
    {
      "inputs": [
        {
          "internalType": "address",
          "name": "oracleAddress",
          "type": "address"
        }
      ],
      "name": "setOracleAddress",
      "outputs": [],
      "stateMutability": "nonpayable",
      "type": "function"
    },
    {
      "inputs": [
        {
          "internalType": "address",
          "name": "streamRegistryAddress",
          "type": "address"
        }
      ],
      "name": "setStreamRegistry",
      "outputs": [],
      "stateMutability": "nonpayable",
      "type": "function"
    },
    {
      "inputs": [
        {
          "internalType": "bytes32",
          "name": "",
          "type": "bytes32"
        }
      ],
      "name": "tempENSnames",
      "outputs": [
        {
          "internalType": "string",
          "name": "",
          "type": "string"
        }
      ],
      "stateMutability": "view",
      "type": "function"
    },
    {
      "inputs": [
        {
          "internalType": "bytes32",
          "name": "",
          "type": "bytes32"
        }
      ],
      "name": "tempIdPaths",
      "outputs": [
        {
          "internalType": "string",
          "name": "",
          "type": "string"
        }
      ],
      "stateMutability": "view",
      "type": "function"
    },
    {
      "inputs": [
        {
          "internalType": "bytes32",
          "name": "",
          "type": "bytes32"
        }
      ],
      "name": "tempMetadatas",
      "outputs": [
        {
          "internalType": "string",
          "name": "",
          "type": "string"
        }
      ],
      "stateMutability": "view",
      "type": "function"
    },
    {
      "inputs": [
        {
          "internalType": "bytes32",
          "name": "",
          "type": "bytes32"
        }
      ],
      "name": "tempRequestorAddress",
      "outputs": [
        {
          "internalType": "address",
          "name": "",
          "type": "address"
        }
      ],
      "stateMutability": "view",
      "type": "function"
    },
    {
      "inputs": [
        {
          "internalType": "address",
          "name": "newOwner",
          "type": "address"
        }
      ],
      "name": "transferOwnership",
      "outputs": [],
      "stateMutability": "nonpayable",
      "type": "function"
    },
    {
      "inputs": [],
      "name": "withdrawLink",
      "outputs": [],
      "stateMutability": "nonpayable",
      "type": "function"
    }
  ],
  "bytecode": "0x608060405260016004553480156200001657600080fd5b5060405162001f5a38038062001f5a833981016040819052620000399162000175565b62000044336200007d565b600c80546001600160a01b0319166001600160a01b03841617905580516200007490600d906020840190620000cf565b505050620002c8565b600680546001600160a01b038381166001600160a01b0319831681179093556040519116919082907f8be0079c531659141344cd1fd0a4f28419497f9722a3daafe3b4186f6b6457e090600090a35050565b828054620000dd9062000275565b90600052602060002090601f0160209004810192826200010157600085556200014c565b82601f106200011c57805160ff19168380011785556200014c565b828001600101855582156200014c579182015b828111156200014c5782518255916020019190600101906200012f565b506200015a9291506200015e565b5090565b5b808211156200015a57600081556001016200015f565b600080604083850312156200018957600080fd5b82516001600160a01b0381168114620001a157600080fd5b602084810151919350906001600160401b0380821115620001c157600080fd5b818601915086601f830112620001d657600080fd5b815181811115620001eb57620001eb620002b2565b604051601f8201601f19908116603f01168101908382118183101715620002165762000216620002b2565b8160405282815289868487010111156200022f57600080fd5b600093505b8284101562000253578484018601518185018701529285019262000234565b82841115620002655760008684830101525b8096505050505050509250929050565b600181811c908216806200028a57607f821691505b60208210811415620002ac57634e487b7160e01b600052602260045260246000fd5b50919050565b634e487b7160e01b600052604160045260246000fd5b611c8280620002d86000396000f3fe608060405234801561001057600080fd5b50600436106101425760003560e01c80638da5cb5b116100b8578063add14a741161007c578063add14a74146102ae578063c2939d97146102c1578063d5f5729d146102c9578063e90f432c146102dc578063ec65d0f8146102ef578063f2fde38b1461030257600080fd5b80638da5cb5b146102655780638dc654a21461026d578063913d9932146102755780639a46768e14610288578063a74e712f1461029b57600080fd5b8063413a38ed1161010a578063413a38ed146101db5780634c69c00f146101fb578063634172bf1461020e578063715018a6146102215780637dc0d1d01461022957806387103c5f1461023c57600080fd5b80630c3cac3b14610147578063165d35e11461015c5780631877e53414610181578063230e6d23146101945780632b1fd995146101a7575b600080fd5b61015a6101553660046115a6565b610315565b005b61016461036f565b6040516001600160a01b0390911681526020015b60405180910390f35b61015a61018f3660046116ab565b610388565b61015a6101a23660046115a6565b61053d565b6101646101b5366004611755565b80516020818301810180516007825292820191909301209152546001600160a01b031681565b6101ee6101e93660046115e3565b61058d565b6040516101789190611a48565b61015a6102093660046115a6565b610627565b61015a61021c36600461166a565b610678565b61015a6106ee565b600c54610164906001600160a01b031681565b61016461024a3660046115e3565b600b602052600090815260409020546001600160a01b031681565b610164610729565b61015a610738565b61015a6102833660046115fc565b6108c3565b61015a61029636600461166a565b610a52565b6101ee6102a93660046115e3565b610ad4565b6101ee6102bc3660046115e3565b610aed565b6101ee610b06565b61015a6102d736600461166a565b610b13565b61015a6102ea36600461166a565b610bd6565b61015a6102fd36600461161e565b610c16565b61015a6103103660046115a6565b610c57565b3361031e610729565b6001600160a01b03161461034d5760405162461bcd60e51b815260040161034490611a5b565b60405180910390fd5b600e80546001600160a01b0319166001600160a01b0392909216919091179055565b60006103836002546001600160a01b031690565b905090565b600061042e610420600d805461039d90611bc9565b80601f01602080910402602001604051908101604052809291908181526020018280546103c990611bc9565b80156104165780601f106103eb57610100808354040283529160200191610416565b820191906000526020600020905b8154815290600101906020018083116103f957829003601f168201915b5050505050610cf4565b3063489ecc9960e11b610d11565b905061049360405180604001604052806007815260200166656e736e616d6560c81b81525089898080601f016020809104026020016040519081016040528093929190818152602001838380828437600092019190915250869493925050610d369050565b600c546000906104be906001600160a01b0316836104b9670de0b6b3a764000085611b93565b610d54565b6000818152600b6020908152604080832080546001600160a01b0319166001600160a01b038916179055600890915290209091506104fd908a8a61145a565b50600081815260096020526040902061051790888861145a565b506000818152600a6020526040902061053190868661145a565b50505050505050505050565b33610546610729565b6001600160a01b03161461056c5760405162461bcd60e51b815260040161034490611a5b565b600280546001600160a01b0319166001600160a01b03831617905550565b50565b600a60205260009081526040902080546105a690611bc9565b80601f01602080910402602001604051908101604052809291908181526020018280546105d290611bc9565b801561061f5780601f106105f45761010080835404028352916020019161061f565b820191906000526020600020905b81548152906001019060200180831161060257829003601f168201915b505050505081565b33610630610729565b6001600160a01b0316146106565760405162461bcd60e51b815260040161034490611a5b565b600c80546001600160a01b0319166001600160a01b0392909216919091179055565b33610681610729565b6001600160a01b0316146106a75760405162461bcd60e51b815260040161034490611a5b565b6000600783836040516106bb9291906118e2565b90815260405190819003602001902080546001600160a01b03929092166001600160a01b03199092169190911790555050565b336106f7610729565b6001600160a01b03161461071d5760405162461bcd60e51b815260040161034490611a5b565b6107276000610de7565b565b6006546001600160a01b031690565b33610741610729565b6001600160a01b0316146107675760405162461bcd60e51b815260040161034490611a5b565b600061077b6002546001600160a01b031690565b90506001600160a01b03811663a9059cbb336040516370a0823160e01b81523060048201526001600160a01b038516906370a082319060240160206040518083038186803b1580156107cc57600080fd5b505afa1580156107e0573d6000803e3d6000fd5b505050506040513d601f19601f820116820180604052508101906108049190611805565b6040516001600160e01b031960e085901b1681526001600160a01b0390921660048301526024820152604401602060405180830381600087803b15801561084a57600080fd5b505af115801561085e573d6000803e3d6000fd5b505050506040513d601f19601f8201168201806040525081019061088291906115c1565b61058a5760405162461bcd60e51b81526020600482015260126024820152712ab730b13632903a37903a3930b739b332b960711b6044820152606401610344565b60008281526005602052604090205482906001600160a01b0316331461093c5760405162461bcd60e51b815260206004820152602860248201527f536f75726365206d75737420626520746865206f7261636c65206f6620746865604482015267081c995c5d595cdd60c21b6064820152608401610344565b60008181526005602052604080822080546001600160a01b03191690555182917f7cc135e0cebb02c3480ae5d74d377283180a2601f8f644edf7987b009316c63a91a260008381526008602052604090819020905183916007916109a091906118f2565b908152604080516020928190038301812080546001600160a01b0319166001600160a01b03958616179055600e546000888152600b8552838120546008865284822060098752858320600a9097529490912063dbfc1d8760e01b84529186169563dbfc1d8795610a1b95929091169391929091600401611964565b600060405180830381600087803b158015610a3557600080fd5b505af1158015610a49573d6000803e3d6000fd5b50505050505050565b336001600160a01b031660078383604051610a6e9291906118e2565b908152604051908190036020019020546001600160a01b0316146106a75760405162461bcd60e51b815260206004820152601b60248201527f6572726f725f6e6f744f776e65724f6654686973454e534e616d6500000000006044820152606401610344565b600960205260009081526040902080546105a690611bc9565b600860205260009081526040902080546105a690611bc9565b600d80546105a690611bc9565b6000610b28610420600d805461039d90611bc9565b9050610b8d60405180604001604052806007815260200166656e736e616d6560c81b81525084848080601f016020809104026020016040519081016040528093929190818152602001838380828437600092019190915250869493925050610d369050565b600c54600090610bb3906001600160a01b0316836104b9670de0b6b3a764000085611b93565b6000818152600860205260409020909150610bcf90858561145a565b5050505050565b33610bdf610729565b6001600160a01b031614610c055760405162461bcd60e51b815260040161034490611a5b565b610c11600d838361145a565b505050565b33610c1f610729565b6001600160a01b031614610c455760405162461bcd60e51b815260040161034490611a5b565b610c5184848484610e39565b50505050565b33610c60610729565b6001600160a01b031614610c865760405162461bcd60e51b815260040161034490611a5b565b6001600160a01b038116610ceb5760405162461bcd60e51b815260206004820152602660248201527f4f776e61626c653a206e6577206f776e657220697320746865207a65726f206160448201526564647265737360d01b6064820152608401610344565b61058a81610de7565b80516000908290610d085750600092915050565b50506020015190565b610d196114de565b610d216114de565b610d2d81868686610f0b565b95945050505050565b6080830151610d459083610f51565b6080830151610c119082610f51565b600454600090610d65816001611a90565b600455835160408086015160808701515191516000936320214ca360e11b93610d9d9386938493923092918a916001916024016119b9565b60408051601f198184030181529190526020810180516001600160e01b03166001600160e01b0319909316929092179091529050610ddd86838684610f68565b9695505050505050565b600680546001600160a01b038381166001600160a01b0319831681179093556040519116919082907f8be0079c531659141344cd1fd0a4f28419497f9722a3daafe3b4186f6b6457e090600090a35050565b60008481526005602052604080822080546001600160a01b0319811690915590516001600160a01b039091169186917fe1fe3afa0f7f761ff0a8b89086790efd5140d2907ebd5b7ff6bfcb5e075fd4c59190a2604051636ee4d55360e01b815260048101869052602481018590526001600160e01b031984166044820152606481018390526001600160a01b03821690636ee4d55390608401600060405180830381600087803b158015610eec57600080fd5b505af1158015610f00573d6000803e3d6000fd5b505050505050505050565b610f136114de565b610f2385608001516101006110d5565b50508284526001600160a01b03821660208501526001600160e01b031981166040850152835b949350505050565b610f5e8260038351611133565b610c11828261123a565b6040516bffffffffffffffffffffffff193060601b1660208201526034810184905260009060540160408051808303601f1901815282825280516020918201206000818152600590925291812080546001600160a01b0319166001600160a01b038a1617905590925082917fb5e6e01e79f91267dc17b4e6314d5d4d03593d2ceee0fbb452b750bd70ea5af99190a2600254604051630200057560e51b81526001600160a01b0390911690634000aea09061102b90889087908790600401611a21565b602060405180830381600087803b15801561104557600080fd5b505af1158015611059573d6000803e3d6000fd5b505050506040513d601f19601f8201168201806040525081019061107d91906115c1565b610f495760405162461bcd60e51b815260206004820152602360248201527f756e61626c6520746f207472616e73666572416e6443616c6c20746f206f7261604482015262636c6560e81b6064820152608401610344565b6110dd611513565b6110e8602083611bfe565b15611110576110f8602083611bfe565b611103906020611bb2565b61110d9083611a90565b91505b506020808301829052604080518085526000815283019091019052815b92915050565b6017816001600160401b03161161115757610c518360e0600585901b16831761125b565b60ff816001600160401b0316116111935761117d836018611fe0600586901b161761125b565b50610c51836001600160401b0383166001611273565b61ffff816001600160401b0316116111d0576111ba836019611fe0600586901b161761125b565b50610c51836001600160401b0383166002611273565b63ffffffff816001600160401b03161161120f576111f983601a611fe0600586901b161761125b565b50610c51836001600160401b0383166004611273565b61122483601b611fe0600586901b161761125b565b50610c51836001600160401b0383166008611273565b611242611513565b6112548384600001515184855161128c565b9392505050565b611263611513565b6112548384600001515184611369565b61127b611513565b610f498485600001515185856113b8565b611294611513565b82518211156112a257600080fd5b60208501516112b18386611a90565b11156112e4576112e4856112d4876020015187866112cf9190611a90565b61142c565b6112df906002611b93565b611443565b6000808651805187602083010193508088870111156113035787860182525b505050602084015b602084106113435780518252611322602083611a90565b915061132f602082611a90565b905061133c602085611bb2565b935061130b565b51815160001960208690036101000a019081169019919091161790525083949350505050565b611371611513565b836020015183106113915761139184856020015160026112df9190611b93565b8351805160208583010184815350808514156113ae576001810182525b5093949350505050565b6113c0611513565b60208501516113cf8584611a90565b11156113e3576113e3856112d48685611a90565b600060016113f384610100611aeb565b6113fd9190611bb2565b90508551838682010185831982511617815250805184870111156114215783860181525b509495945050505050565b60008183111561143d57508161112d565b50919050565b815161144f83836110d5565b50610c51838261123a565b82805461146690611bc9565b90600052602060002090601f01602090048101928261148857600085556114ce565b82601f106114a15782800160ff198235161785556114ce565b828001600101855582156114ce579182015b828111156114ce5782358255916020019190600101906114b3565b506114da92915061152d565b5090565b6040805160a08101825260008082526020820181905291810182905260608101919091526080810161150e611513565b905290565b604051806040016040528060608152602001600081525090565b5b808211156114da576000815560010161152e565b80356001600160a01b038116811461155957600080fd5b919050565b60008083601f84011261157057600080fd5b5081356001600160401b0381111561158757600080fd5b60208301915083602082850101111561159f57600080fd5b9250929050565b6000602082840312156115b857600080fd5b61125482611542565b6000602082840312156115d357600080fd5b8151801515811461125457600080fd5b6000602082840312156115f557600080fd5b5035919050565b6000806040838503121561160f57600080fd5b50508035926020909101359150565b6000806000806080858703121561163457600080fd5b843593506020850135925060408501356001600160e01b03198116811461165a57600080fd5b9396929550929360600135925050565b6000806020838503121561167d57600080fd5b82356001600160401b0381111561169357600080fd5b61169f8582860161155e565b90969095509350505050565b60008060008060008060006080888a0312156116c657600080fd5b87356001600160401b03808211156116dd57600080fd5b6116e98b838c0161155e565b909950975060208a013591508082111561170257600080fd5b61170e8b838c0161155e565b909750955060408a013591508082111561172757600080fd5b506117348a828b0161155e565b9094509250611747905060608901611542565b905092959891949750929550565b60006020828403121561176757600080fd5b81356001600160401b038082111561177e57600080fd5b818401915084601f83011261179257600080fd5b8135818111156117a4576117a4611c36565b604051601f8201601f19908116603f011681019083821181831017156117cc576117cc611c36565b816040528281528760208487010111156117e557600080fd5b826020860160208301376000928101602001929092525095945050505050565b60006020828403121561181757600080fd5b5051919050565b6000815180845260005b8181101561184457602081850181015186830182015201611828565b81811115611856576000602083870101525b50601f01601f19169290920160200192915050565b6000815461187881611bc9565b80855260206001838116801561189557600181146118a9576118d7565b60ff198516888401526040880195506118d7565b866000528260002060005b858110156118cf5781548a82018601529083019084016118b4565b890184019650505b505050505092915050565b8183823760009101908152919050565b600080835461190081611bc9565b60018281168015611918576001811461192957611958565b60ff19841687528287019450611958565b8760005260208060002060005b8581101561194f5781548a820152908401908201611936565b50505082870194505b50929695505050505050565b6001600160a01b03851681526080602082018190526000906119889083018661186b565b828103604084015261199a818661186b565b905082810360608401526119ae818561186b565b979650505050505050565b6001600160a01b0389811682526020820189905260408201889052861660608201526001600160e01b03198516608082015260a0810184905260c0810183905261010060e08201819052600090611a128382018561181e565b9b9a5050505050505050505050565b60018060a01b0384168152826020820152606060408201526000610d2d606083018461181e565b602081526000611254602083018461181e565b6020808252818101527f4f776e61626c653a2063616c6c6572206973206e6f7420746865206f776e6572604082015260600190565b60008219821115611aa357611aa3611c20565b500190565b600181815b80851115611ae3578160001904821115611ac957611ac9611c20565b80851615611ad657918102915b93841c9390800290611aad565b509250929050565b60006112548383600082611b015750600161112d565b81611b0e5750600061112d565b8160018114611b245760028114611b2e57611b4a565b600191505061112d565b60ff841115611b3f57611b3f611c20565b50506001821b61112d565b5060208310610133831016604e8410600b8410161715611b6d575081810a61112d565b611b778383611aa8565b8060001904821115611b8b57611b8b611c20565b029392505050565b6000816000190483118215151615611bad57611bad611c20565b500290565b600082821015611bc457611bc4611c20565b500390565b600181811c90821680611bdd57607f821691505b6020821081141561143d57634e487b7160e01b600052602260045260246000fd5b600082611c1b57634e487b7160e01b600052601260045260246000fd5b500690565b634e487b7160e01b600052601160045260246000fd5b634e487b7160e01b600052604160045260246000fdfea26469706673582212204819f6377222ec54cf337526120909a03e0cc89fe7ac205e9c097d9bd973282964736f6c63430008060033",
  "linkReferences": {},
  "deployedLinkReferences": {}
}