{
  "_format": "hh-sol-artifact-1",
  "contractName": "NodeRegistry",
  "sourceName": "contracts/NodeRegistry/NodeRegistry.sol",
  "abi": [
    {
      "inputs": [
        {
          "internalType": "address",
          "name": "owner",
          "type": "address"
        },
        {
          "internalType": "bool",
          "name": "requiresWhitelist_",
          "type": "bool"
        },
        {
          "internalType": "address[]",
          "name": "initialNodes",
          "type": "address[]"
        },
        {
          "internalType": "string[]",
          "name": "initialMetadata",
          "type": "string[]"
        }
      ],
      "stateMutability": "nonpayable",
      "type": "constructor"
    },
    {
      "anonymous": false,
      "inputs": [
        {
          "indexed": true,
          "internalType": "address",
          "name": "nodeAddress",
          "type": "address"
        }
      ],
      "name": "NodeRemoved",
      "type": "event"
    },
    {
      "anonymous": false,
      "inputs": [
        {
          "indexed": true,
          "internalType": "address",
          "name": "nodeAddress",
          "type": "address"
        },
        {
          "indexed": false,
          "internalType": "string",
          "name": "metadata",
          "type": "string"
        },
        {
          "indexed": true,
          "internalType": "uint256",
          "name": "isNew",
          "type": "uint256"
        },
        {
          "indexed": false,
          "internalType": "uint256",
          "name": "lastSeen",
          "type": "uint256"
        }
      ],
      "name": "NodeUpdated",
      "type": "event"
    },
    {
      "anonymous": false,
      "inputs": [
        {
          "indexed": true,
          "internalType": "address",
          "name": "nodeAddress",
          "type": "address"
        }
      ],
      "name": "NodeWhitelistApproved",
      "type": "event"
    },
    {
      "anonymous": false,
      "inputs": [
        {
          "indexed": true,
          "internalType": "address",
          "name": "nodeAddress",
          "type": "address"
        }
      ],
      "name": "NodeWhitelistRejected",
      "type": "event"
    },
    {
      "anonymous": false,
      "inputs": [
        {
          "indexed": true,
          "internalType": "address",
          "name": "previousOwner",
          "type": "address"
        },
        {
          "indexed": true,
          "internalType": "address",
          "name": "newOwner",
          "type": "address"
        }
      ],
      "name": "OwnershipTransferred",
      "type": "event"
    },
    {
      "anonymous": false,
      "inputs": [
        {
          "indexed": true,
          "internalType": "bool",
          "name": "value",
          "type": "bool"
        }
      ],
      "name": "RequiresWhitelistChanged",
      "type": "event"
    },
    {
      "inputs": [
        {
          "internalType": "address",
          "name": "node",
          "type": "address"
        },
        {
          "internalType": "string",
          "name": "metadata_",
          "type": "string"
        }
      ],
      "name": "createOrUpdateNode",
      "outputs": [],
      "stateMutability": "nonpayable",
      "type": "function"
    },
    {
      "inputs": [
        {
          "internalType": "string",
          "name": "metadata_",
          "type": "string"
        }
      ],
      "name": "createOrUpdateNodeSelf",
      "outputs": [],
      "stateMutability": "nonpayable",
      "type": "function"
    },
    {
      "inputs": [
        {
          "internalType": "address",
          "name": "nodeAddress",
          "type": "address"
        }
      ],
      "name": "getNode",
      "outputs": [
        {
          "components": [
            {
              "internalType": "address",
              "name": "nodeAddress",
              "type": "address"
            },
            {
              "internalType": "string",
              "name": "metadata",
              "type": "string"
            },
            {
              "internalType": "uint256",
              "name": "lastSeen",
              "type": "uint256"
            }
          ],
          "internalType": "struct NodeRegistry.Node",
          "name": "",
          "type": "tuple"
        }
      ],
      "stateMutability": "view",
      "type": "function"
    },
    {
      "inputs": [
        {
          "internalType": "uint256",
          "name": "i",
          "type": "uint256"
        }
      ],
      "name": "getNodeByNumber",
      "outputs": [
        {
          "components": [
            {
              "internalType": "address",
              "name": "nodeAddress",
              "type": "address"
            },
            {
              "internalType": "string",
              "name": "metadata",
              "type": "string"
            },
            {
              "internalType": "uint256",
              "name": "lastSeen",
              "type": "uint256"
            }
          ],
          "internalType": "struct NodeRegistry.Node",
          "name": "",
          "type": "tuple"
        }
      ],
      "stateMutability": "view",
      "type": "function"
    },
    {
      "inputs": [],
      "name": "getNodes",
      "outputs": [
        {
          "components": [
            {
              "internalType": "address",
              "name": "nodeAddress",
              "type": "address"
            },
            {
              "internalType": "string",
              "name": "metadata",
              "type": "string"
            },
            {
              "internalType": "uint256",
              "name": "lastSeen",
              "type": "uint256"
            }
          ],
          "internalType": "struct NodeRegistry.Node[]",
          "name": "",
          "type": "tuple[]"
        }
      ],
      "stateMutability": "view",
      "type": "function"
    },
    {
      "inputs": [],
      "name": "headNode",
      "outputs": [
        {
          "internalType": "address",
          "name": "",
          "type": "address"
        }
      ],
      "stateMutability": "view",
      "type": "function"
    },
    {
      "inputs": [
        {
          "internalType": "address",
          "name": "nodeAddress",
          "type": "address"
        }
      ],
      "name": "kickOut",
      "outputs": [],
      "stateMutability": "nonpayable",
      "type": "function"
    },
    {
      "inputs": [],
      "name": "nodeCount",
      "outputs": [
        {
          "internalType": "uint64",
          "name": "",
          "type": "uint64"
        }
      ],
      "stateMutability": "view",
      "type": "function"
    },
    {
      "inputs": [
        {
          "internalType": "address",
          "name": "",
          "type": "address"
        }
      ],
      "name": "nodes",
      "outputs": [
        {
          "components": [
            {
              "internalType": "address",
              "name": "nodeAddress",
              "type": "address"
            },
            {
              "internalType": "string",
              "name": "metadata",
              "type": "string"
            },
            {
              "internalType": "uint256",
              "name": "lastSeen",
              "type": "uint256"
            }
          ],
          "internalType": "struct NodeRegistry.Node",
          "name": "node",
          "type": "tuple"
        },
        {
          "internalType": "address",
          "name": "next",
          "type": "address"
        },
        {
          "internalType": "address",
          "name": "prev",
          "type": "address"
        }
      ],
      "stateMutability": "view",
      "type": "function"
    },
    {
      "inputs": [],
      "name": "owner",
      "outputs": [
        {
          "internalType": "address",
          "name": "",
          "type": "address"
        }
      ],
      "stateMutability": "view",
      "type": "function"
    },
    {
      "inputs": [
        {
          "internalType": "address",
          "name": "nodeAddress",
          "type": "address"
        }
      ],
      "name": "removeNode",
      "outputs": [],
      "stateMutability": "nonpayable",
      "type": "function"
    },
    {
      "inputs": [],
      "name": "removeNodeSelf",
      "outputs": [],
      "stateMutability": "nonpayable",
      "type": "function"
    },
    {
      "inputs": [],
      "name": "renounceOwnership",
      "outputs": [],
      "stateMutability": "nonpayable",
      "type": "function"
    },
    {
      "inputs": [],
      "name": "requiresWhitelist",
      "outputs": [
        {
          "internalType": "bool",
          "name": "",
          "type": "bool"
        }
      ],
      "stateMutability": "view",
      "type": "function"
    },
    {
      "inputs": [
        {
          "internalType": "bool",
          "name": "value",
          "type": "bool"
        }
      ],
      "name": "setRequiresWhitelist",
      "outputs": [],
      "stateMutability": "nonpayable",
      "type": "function"
    },
    {
      "inputs": [],
      "name": "tailNode",
      "outputs": [
        {
          "internalType": "address",
          "name": "",
          "type": "address"
        }
      ],
      "stateMutability": "view",
      "type": "function"
    },
    {
      "inputs": [
        {
          "internalType": "address",
          "name": "newOwner",
          "type": "address"
        }
      ],
      "name": "transferOwnership",
      "outputs": [],
      "stateMutability": "nonpayable",
      "type": "function"
    },
    {
      "inputs": [
        {
          "internalType": "address",
          "name": "",
          "type": "address"
        }
      ],
      "name": "whitelist",
      "outputs": [
        {
          "internalType": "enum NodeRegistry.WhitelistState",
          "name": "",
          "type": "uint8"
        }
      ],
      "stateMutability": "view",
      "type": "function"
    },
    {
      "inputs": [
        {
          "internalType": "address",
          "name": "nodeAddress",
          "type": "address"
        }
      ],
      "name": "whitelistApproveNode",
      "outputs": [],
      "stateMutability": "nonpayable",
      "type": "function"
    },
    {
      "inputs": [
        {
          "internalType": "address",
          "name": "nodeAddress",
          "type": "address"
        }
      ],
      "name": "whitelistRejectNode",
      "outputs": [],
      "stateMutability": "nonpayable",
      "type": "function"
    }
  ],
  "bytecode": "0x60806040523480156200001157600080fd5b5060405162003e9238038062003e92833981810160405281019062000037919062000bcc565b620000576200004b6200014360201b60201c565b6200014b60201b60201c565b62000068846200020f60201b60201c565b82600260146101000a81548160ff0219169083151502179055508051825114620000c9576040517f08c379a0000000000000000000000000000000000000000000000000000000008152600401620000c09062000de4565b60405180910390fd5b60005b8251811015620001385762000122838281518110620000f057620000ef620010ed565b5b60200260200101518383815181106200010e576200010d620010ed565b5b60200260200101516200032560201b60201c565b80806200012f906200100b565b915050620000cc565b50505050506200124a565b600033905090565b60008060009054906101000a900473ffffffffffffffffffffffffffffffffffffffff169050816000806101000a81548173ffffffffffffffffffffffffffffffffffffffff021916908373ffffffffffffffffffffffffffffffffffffffff1602179055508173ffffffffffffffffffffffffffffffffffffffff168173ffffffffffffffffffffffffffffffffffffffff167f8be0079c531659141344cd1fd0a4f28419497f9722a3daafe3b4186f6b6457e060405160405180910390a35050565b6200021f6200014360201b60201c565b73ffffffffffffffffffffffffffffffffffffffff1662000245620003ca60201b60201c565b73ffffffffffffffffffffffffffffffffffffffff16146200029e576040517f08c379a0000000000000000000000000000000000000000000000000000000008152600401620002959062000e06565b60405180910390fd5b600073ffffffffffffffffffffffffffffffffffffffff168173ffffffffffffffffffffffffffffffffffffffff16141562000311576040517f08c379a0000000000000000000000000000000000000000000000000000000008152600401620003089062000dc2565b60405180910390fd5b62000322816200014b60201b60201c565b50565b620003356200014360201b60201c565b73ffffffffffffffffffffffffffffffffffffffff166200035b620003ca60201b60201c565b73ffffffffffffffffffffffffffffffffffffffff1614620003b4576040517f08c379a0000000000000000000000000000000000000000000000000000000008152600401620003ab9062000e06565b60405180910390fd5b620003c68282620003f360201b60201c565b5050565b60008060009054906101000a900473ffffffffffffffffffffffffffffffffffffffff16905090565b6000600360008473ffffffffffffffffffffffffffffffffffffffff1673ffffffffffffffffffffffffffffffffffffffff168152602001908152602001600020905060008082600001600201541415620008625760019050604051806060016040528060405180606001604052808773ffffffffffffffffffffffffffffffffffffffff168152602001868152602001428152508152602001600073ffffffffffffffffffffffffffffffffffffffff168152602001600160009054906101000a900473ffffffffffffffffffffffffffffffffffffffff1673ffffffffffffffffffffffffffffffffffffffff16815250600360008673ffffffffffffffffffffffffffffffffffffffff1673ffffffffffffffffffffffffffffffffffffffff16815260200190815260200160002060008201518160000160008201518160000160006101000a81548173ffffffffffffffffffffffffffffffffffffffff021916908373ffffffffffffffffffffffffffffffffffffffff160217905550602082015181600101908051906020019062000593929190620008f3565b5060408201518160020155505060208201518160030160006101000a81548173ffffffffffffffffffffffffffffffffffffffff021916908373ffffffffffffffffffffffffffffffffffffffff16021790555060408201518160040160006101000a81548173ffffffffffffffffffffffffffffffffffffffff021916908373ffffffffffffffffffffffffffffffffffffffff1602179055509050506000601481819054906101000a900467ffffffffffffffff1680929190620006599062001059565b91906101000a81548167ffffffffffffffff021916908367ffffffffffffffff16021790555050600073ffffffffffffffffffffffffffffffffffffffff16600160009054906101000a900473ffffffffffffffffffffffffffffffffffffffff1673ffffffffffffffffffffffffffffffffffffffff16146200078157600060036000600160009054906101000a900473ffffffffffffffffffffffffffffffffffffffff1673ffffffffffffffffffffffffffffffffffffffff1673ffffffffffffffffffffffffffffffffffffffff1681526020019081526020016000209050848160030160006101000a81548173ffffffffffffffffffffffffffffffffffffffff021916908373ffffffffffffffffffffffffffffffffffffffff160217905550505b600073ffffffffffffffffffffffffffffffffffffffff16600260009054906101000a900473ffffffffffffffffffffffffffffffffffffffff1673ffffffffffffffffffffffffffffffffffffffff1614156200081b5783600260006101000a81548173ffffffffffffffffffffffffffffffffffffffff021916908373ffffffffffffffffffffffffffffffffffffffff1602179055505b83600160006101000a81548173ffffffffffffffffffffffffffffffffffffffff021916908373ffffffffffffffffffffffffffffffffffffffff1602179055506200088d565b828260000160010190805190602001906200087f929190620008f3565b504282600001600201819055505b808473ffffffffffffffffffffffffffffffffffffffff167f7b8ea65757bf0d882563917834f76c4df069ea7e489c9fc65bf764289792e334846000016001018560000160020154604051620008e592919062000d8e565b60405180910390a350505050565b828054620009019062000f9f565b90600052602060002090601f01602090048101928262000925576000855562000971565b82601f106200094057805160ff191683800117855562000971565b8280016001018555821562000971579182015b828111156200097057825182559160200191906001019062000953565b5b50905062000980919062000984565b5090565b5b808211156200099f57600081600090555060010162000985565b5090565b6000620009ba620009b48462000e51565b62000e28565b90508083825260208201905082856020860282011115620009e057620009df62001150565b5b60005b8581101562000a145781620009f9888262000b05565b845260208401935060208301925050600181019050620009e3565b5050509392505050565b600062000a3562000a2f8462000e80565b62000e28565b9050808382526020820190508285602086028201111562000a5b5762000a5a62001150565b5b60005b8581101562000ab057815167ffffffffffffffff81111562000a855762000a846200114b565b5b80860162000a94898262000b99565b8552602085019450602084019350505060018101905062000a5e565b5050509392505050565b600062000ad162000acb8462000eaf565b62000e28565b90508281526020810184848401111562000af05762000aef62001155565b5b62000afd84828562000f69565b509392505050565b60008151905062000b168162001216565b92915050565b600082601f83011262000b345762000b336200114b565b5b815162000b46848260208601620009a3565b91505092915050565b600082601f83011262000b675762000b666200114b565b5b815162000b7984826020860162000a1e565b91505092915050565b60008151905062000b938162001230565b92915050565b600082601f83011262000bb15762000bb06200114b565b5b815162000bc384826020860162000aba565b91505092915050565b6000806000806080858703121562000be95762000be86200115f565b5b600062000bf98782880162000b05565b945050602062000c0c8782880162000b82565b935050604085015167ffffffffffffffff81111562000c305762000c2f6200115a565b5b62000c3e8782880162000b1c565b925050606085015167ffffffffffffffff81111562000c625762000c616200115a565b5b62000c708782880162000b4f565b91505092959194509250565b6000815462000c8b8162000f9f565b62000c97818662000efa565b9450600182166000811462000cb5576001811462000cc85762000cff565b60ff198316865260208601935062000cff565b62000cd38562000ee5565b60005b8381101562000cf75781548189015260018201915060208101905062000cd6565b808801955050505b50505092915050565b600062000d1760268362000efa565b915062000d248262001175565b604082019050919050565b600062000d3e60148362000efa565b915062000d4b82620011c4565b602082019050919050565b600062000d6560208362000efa565b915062000d7282620011ed565b602082019050919050565b62000d888162000f4b565b82525050565b6000604082019050818103600083015262000daa818562000c7c565b905062000dbb602083018462000d7d565b9392505050565b6000602082019050818103600083015262000ddd8162000d08565b9050919050565b6000602082019050818103600083015262000dff8162000d2f565b9050919050565b6000602082019050818103600083015262000e218162000d56565b9050919050565b600062000e3462000e47565b905062000e42828262000fd5565b919050565b6000604051905090565b600067ffffffffffffffff82111562000e6f5762000e6e6200111c565b5b602082029050602081019050919050565b600067ffffffffffffffff82111562000e9e5762000e9d6200111c565b5b602082029050602081019050919050565b600067ffffffffffffffff82111562000ecd5762000ecc6200111c565b5b62000ed88262001164565b9050602081019050919050565b60008190508160005260206000209050919050565b600082825260208201905092915050565b600062000f188262000f2b565b9050919050565b60008115159050919050565b600073ffffffffffffffffffffffffffffffffffffffff82169050919050565b6000819050919050565b600067ffffffffffffffff82169050919050565b60005b8381101562000f8957808201518184015260208101905062000f6c565b8381111562000f99576000848401525b50505050565b6000600282049050600182168062000fb857607f821691505b6020821081141562000fcf5762000fce620010be565b5b50919050565b62000fe08262001164565b810181811067ffffffffffffffff821117156200100257620010016200111c565b5b80604052505050565b6000620010188262000f4b565b91507fffffffffffffffffffffffffffffffffffffffffffffffffffffffffffffffff8214156200104e576200104d6200108f565b5b600182019050919050565b6000620010668262000f55565b915067ffffffffffffffff8214156200108457620010836200108f565b5b600182019050919050565b7f4e487b7100000000000000000000000000000000000000000000000000000000600052601160045260246000fd5b7f4e487b7100000000000000000000000000000000000000000000000000000000600052602260045260246000fd5b7f4e487b7100000000000000000000000000000000000000000000000000000000600052603260045260246000fd5b7f4e487b7100000000000000000000000000000000000000000000000000000000600052604160045260246000fd5b600080fd5b600080fd5b600080fd5b600080fd5b600080fd5b6000601f19601f8301169050919050565b7f4f776e61626c653a206e6577206f776e657220697320746865207a65726f206160008201527f6464726573730000000000000000000000000000000000000000000000000000602082015250565b7f6572726f725f626164547261636b657244617461000000000000000000000000600082015250565b7f4f776e61626c653a2063616c6c6572206973206e6f7420746865206f776e6572600082015250565b620012218162000f0b565b81146200122d57600080fd5b50565b6200123b8162000f1f565b81146200124757600080fd5b50565b612c38806200125a6000396000f3fe608060405234801561001057600080fd5b506004361061012c5760003560e01c806399e68eea116100ad578063b2b99ec911610071578063b2b99ec91461031d578063bfdf086614610339578063e29581aa14610357578063e670c15d14610375578063f2fde38b1461037f5761012c565b806399e68eea146102535780639b19251a1461026f5780639d2090481461029f578063a5ee5b41146102cf578063ae5b4961146102ed5761012c565b80635888799c116100f45780635888799c146101d55780635d8f7f2a146101f15780636da49b831461020d578063715018a61461022b5780638da5cb5b146102355761012c565b8063189a5a171461013157806320a59a03146101635780632af575801461017f57806346c198f61461019b5780635668c8fb146101b9575b600080fd5b61014b60048036038101906101469190612127565b61039b565b60405161015a939291906126b2565b60405180910390f35b61017d600480360381019061017891906121b0565b610501565b005b61019960048036038101906101949190612127565b6105c9565b005b6101a36106f3565b6040516101b0919061254d565b60405180910390f35b6101d360048036038101906101ce9190612127565b610719565b005b6101ef60048036038101906101ea9190612127565b6107aa565b005b61020b60048036038101906102069190612154565b6108d4565b005b61021561095e565b60405161022291906126f0565b60405180910390f35b610233610978565b005b61023d610a00565b60405161024a919061254d565b60405180910390f35b61026d600480360381019061026891906121dd565b610a29565b005b61028960048036038101906102849190612127565b610b01565b60405161029691906125a5565b60405180910390f35b6102b960048036038101906102b49190612127565b610b21565b6040516102c69190612690565b60405180910390f35b6102d7610c75565b6040516102e4919061258a565b60405180910390f35b61030760048036038101906103029190612226565b610c88565b6040516103149190612690565b60405180910390f35b61033760048036038101906103329190612127565b610ef0565b005b610341610f78565b60405161034e919061254d565b60405180910390f35b61035f610f9e565b60405161036c9190612568565b60405180910390f35b61037d61120f565b005b61039960048036038101906103949190612127565b61121a565b005b6003602052806000526040600020600091509050806000016040518060600160405290816000820160009054906101000a900473ffffffffffffffffffffffffffffffffffffffff1673ffffffffffffffffffffffffffffffffffffffff1673ffffffffffffffffffffffffffffffffffffffff168152602001600182018054610424906128c9565b80601f0160208091040260200160405190810160405280929190818152602001828054610450906128c9565b801561049d5780601f106104725761010080835404028352916020019161049d565b820191906000526020600020905b81548152906001019060200180831161048057829003601f168201915b50505050508152602001600282015481525050908060030160009054906101000a900473ffffffffffffffffffffffffffffffffffffffff16908060040160009054906101000a900473ffffffffffffffffffffffffffffffffffffffff16905083565b610509611312565b73ffffffffffffffffffffffffffffffffffffffff16610527610a00565b73ffffffffffffffffffffffffffffffffffffffff161461057d576040517f08c379a000000000000000000000000000000000000000000000000000000000815260040161057490612650565b60405180910390fd5b80600260146101000a81548160ff0219169083151502179055508015157f7623db9c426686f05cec977c4cadb8ff9657502540ca665ae347731114dac69d60405160405180910390a250565b6105d1611312565b73ffffffffffffffffffffffffffffffffffffffff166105ef610a00565b73ffffffffffffffffffffffffffffffffffffffff1614610645576040517f08c379a000000000000000000000000000000000000000000000000000000000815260040161063c90612650565b60405180910390fd5b6002600460008373ffffffffffffffffffffffffffffffffffffffff1673ffffffffffffffffffffffffffffffffffffffff16815260200190815260200160002060006101000a81548160ff021916908360028111156106a8576106a76129d5565b5b02179055508073ffffffffffffffffffffffffffffffffffffffff167fbbe2a784aa6240d8175fa65a8459058efd8f44c5ab66caa2525fe9d63421087860405160405180910390a250565b600260009054906101000a900473ffffffffffffffffffffffffffffffffffffffff1681565b610721611312565b73ffffffffffffffffffffffffffffffffffffffff1661073f610a00565b73ffffffffffffffffffffffffffffffffffffffff1614610795576040517f08c379a000000000000000000000000000000000000000000000000000000000815260040161078c90612650565b60405180910390fd5b61079e816105c9565b6107a781610ef0565b50565b6107b2611312565b73ffffffffffffffffffffffffffffffffffffffff166107d0610a00565b73ffffffffffffffffffffffffffffffffffffffff1614610826576040517f08c379a000000000000000000000000000000000000000000000000000000000815260040161081d90612650565b60405180910390fd5b6001600460008373ffffffffffffffffffffffffffffffffffffffff1673ffffffffffffffffffffffffffffffffffffffff16815260200190815260200160002060006101000a81548160ff02191690836002811115610889576108886129d5565b5b02179055508073ffffffffffffffffffffffffffffffffffffffff167fdfe83f699699403a4b116b6f9504680228c3f319bbf5ab26b48a81d3005d98b260405160405180910390a250565b6108dc611312565b73ffffffffffffffffffffffffffffffffffffffff166108fa610a00565b73ffffffffffffffffffffffffffffffffffffffff1614610950576040517f08c379a000000000000000000000000000000000000000000000000000000000815260040161094790612650565b60405180910390fd5b61095a828261131a565b5050565b600060149054906101000a900467ffffffffffffffff1681565b610980611312565b73ffffffffffffffffffffffffffffffffffffffff1661099e610a00565b73ffffffffffffffffffffffffffffffffffffffff16146109f4576040517f08c379a00000000000000000000000000000000000000000000000000000000081526004016109eb90612650565b60405180910390fd5b6109fe600061180e565b565b60008060009054906101000a900473ffffffffffffffffffffffffffffffffffffffff16905090565b600260149054906101000a900460ff161580610ab5575060016002811115610a5457610a536129d5565b5b600460003373ffffffffffffffffffffffffffffffffffffffff1673ffffffffffffffffffffffffffffffffffffffff16815260200190815260200160002060009054906101000a900460ff166002811115610ab357610ab26129d5565b5b145b610af4576040517f08c379a0000000000000000000000000000000000000000000000000000000008152600401610aeb90612670565b60405180910390fd5b610afe338261131a565b50565b60046020528060005260406000206000915054906101000a900460ff1681565b610b29611f5e565b6000600360008473ffffffffffffffffffffffffffffffffffffffff1673ffffffffffffffffffffffffffffffffffffffff1681526020019081526020016000209050806000016040518060600160405290816000820160009054906101000a900473ffffffffffffffffffffffffffffffffffffffff1673ffffffffffffffffffffffffffffffffffffffff1673ffffffffffffffffffffffffffffffffffffffff168152602001600182018054610be1906128c9565b80601f0160208091040260200160405190810160405280929190818152602001828054610c0d906128c9565b8015610c5a5780601f10610c2f57610100808354040283529160200191610c5a565b820191906000526020600020905b815481529060010190602001808311610c3d57829003601f168201915b50505050508152602001600282015481525050915050919050565b600260149054906101000a900460ff1681565b610c90611f5e565b600060149054906101000a900467ffffffffffffffff1667ffffffffffffffff168210610cf2576040517f08c379a0000000000000000000000000000000000000000000000000000000008152600401610ce9906125f0565b60405180910390fd5b6000600260009054906101000a900473ffffffffffffffffffffffffffffffffffffffff1690506000600360008373ffffffffffffffffffffffffffffffffffffffff1673ffffffffffffffffffffffffffffffffffffffff16815260200190815260200160002090506000600190505b848111610de5578160030160009054906101000a900473ffffffffffffffffffffffffffffffffffffffff169250600360008473ffffffffffffffffffffffffffffffffffffffff1673ffffffffffffffffffffffffffffffffffffffff16815260200190815260200160002091508080610ddd9061292c565b915050610d63565b50806000016040518060600160405290816000820160009054906101000a900473ffffffffffffffffffffffffffffffffffffffff1673ffffffffffffffffffffffffffffffffffffffff1673ffffffffffffffffffffffffffffffffffffffff168152602001600182018054610e5b906128c9565b80601f0160208091040260200160405190810160405280929190818152602001828054610e87906128c9565b8015610ed45780601f10610ea957610100808354040283529160200191610ed4565b820191906000526020600020905b815481529060010190602001808311610eb757829003601f168201915b5050505050815260200160028201548152505092505050919050565b610ef8611312565b73ffffffffffffffffffffffffffffffffffffffff16610f16610a00565b73ffffffffffffffffffffffffffffffffffffffff1614610f6c576040517f08c379a0000000000000000000000000000000000000000000000000000000008152600401610f6390612650565b60405180910390fd5b610f75816118d2565b50565b600160009054906101000a900473ffffffffffffffffffffffffffffffffffffffff1681565b606060008060149054906101000a900467ffffffffffffffff1667ffffffffffffffff1667ffffffffffffffff811115610fdb57610fda612a62565b5b60405190808252806020026020018201604052801561101457816020015b611001611f5e565b815260200190600190039081610ff95790505b5090506000600260009054906101000a900473ffffffffffffffffffffffffffffffffffffffff16905060005b600060149054906101000a900467ffffffffffffffff1667ffffffffffffffff16811015611206576000600360008473ffffffffffffffffffffffffffffffffffffffff1673ffffffffffffffffffffffffffffffffffffffff1681526020019081526020016000209050806000016040518060600160405290816000820160009054906101000a900473ffffffffffffffffffffffffffffffffffffffff1673ffffffffffffffffffffffffffffffffffffffff1673ffffffffffffffffffffffffffffffffffffffff168152602001600182018054611121906128c9565b80601f016020809104026020016040519081016040528092919081815260200182805461114d906128c9565b801561119a5780601f1061116f5761010080835404028352916020019161119a565b820191906000526020600020905b81548152906001019060200180831161117d57829003601f168201915b505050505081526020016002820154815250508483815181106111c0576111bf612a33565b5b60200260200101819052508060030160009054906101000a900473ffffffffffffffffffffffffffffffffffffffff1692505080806111fe9061292c565b915050611041565b50819250505090565b611218336118d2565b565b611222611312565b73ffffffffffffffffffffffffffffffffffffffff16611240610a00565b73ffffffffffffffffffffffffffffffffffffffff1614611296576040517f08c379a000000000000000000000000000000000000000000000000000000000815260040161128d90612650565b60405180910390fd5b600073ffffffffffffffffffffffffffffffffffffffff168173ffffffffffffffffffffffffffffffffffffffff161415611306576040517f08c379a00000000000000000000000000000000000000000000000000000000081526004016112fd90612610565b60405180910390fd5b61130f8161180e565b50565b600033905090565b6000600360008473ffffffffffffffffffffffffffffffffffffffff1673ffffffffffffffffffffffffffffffffffffffff1681526020019081526020016000209050600080826000016002015414156117815760019050604051806060016040528060405180606001604052808773ffffffffffffffffffffffffffffffffffffffff168152602001868152602001428152508152602001600073ffffffffffffffffffffffffffffffffffffffff168152602001600160009054906101000a900473ffffffffffffffffffffffffffffffffffffffff1673ffffffffffffffffffffffffffffffffffffffff16815250600360008673ffffffffffffffffffffffffffffffffffffffff1673ffffffffffffffffffffffffffffffffffffffff16815260200190815260200160002060008201518160000160008201518160000160006101000a81548173ffffffffffffffffffffffffffffffffffffffff021916908373ffffffffffffffffffffffffffffffffffffffff16021790555060208201518160010190805190602001906114b7929190611f95565b5060408201518160020155505060208201518160030160006101000a81548173ffffffffffffffffffffffffffffffffffffffff021916908373ffffffffffffffffffffffffffffffffffffffff16021790555060408201518160040160006101000a81548173ffffffffffffffffffffffffffffffffffffffff021916908373ffffffffffffffffffffffffffffffffffffffff1602179055509050506000601481819054906101000a900467ffffffffffffffff168092919061157b90612975565b91906101000a81548167ffffffffffffffff021916908367ffffffffffffffff16021790555050600073ffffffffffffffffffffffffffffffffffffffff16600160009054906101000a900473ffffffffffffffffffffffffffffffffffffffff1673ffffffffffffffffffffffffffffffffffffffff16146116a257600060036000600160009054906101000a900473ffffffffffffffffffffffffffffffffffffffff1673ffffffffffffffffffffffffffffffffffffffff1673ffffffffffffffffffffffffffffffffffffffff1681526020019081526020016000209050848160030160006101000a81548173ffffffffffffffffffffffffffffffffffffffff021916908373ffffffffffffffffffffffffffffffffffffffff160217905550505b600073ffffffffffffffffffffffffffffffffffffffff16600260009054906101000a900473ffffffffffffffffffffffffffffffffffffffff1673ffffffffffffffffffffffffffffffffffffffff16141561173b5783600260006101000a81548173ffffffffffffffffffffffffffffffffffffffff021916908373ffffffffffffffffffffffffffffffffffffffff1602179055505b83600160006101000a81548173ffffffffffffffffffffffffffffffffffffffff021916908373ffffffffffffffffffffffffffffffffffffffff1602179055506117aa565b8282600001600101908051906020019061179c929190611f95565b504282600001600201819055505b808473ffffffffffffffffffffffffffffffffffffffff167f7b8ea65757bf0d882563917834f76c4df069ea7e489c9fc65bf764289792e3348460000160010185600001600201546040516118009291906125c0565b60405180910390a350505050565b60008060009054906101000a900473ffffffffffffffffffffffffffffffffffffffff169050816000806101000a81548173ffffffffffffffffffffffffffffffffffffffff021916908373ffffffffffffffffffffffffffffffffffffffff1602179055508173ffffffffffffffffffffffffffffffffffffffff168173ffffffffffffffffffffffffffffffffffffffff167f8be0079c531659141344cd1fd0a4f28419497f9722a3daafe3b4186f6b6457e060405160405180910390a35050565b6000600360008373ffffffffffffffffffffffffffffffffffffffff1673ffffffffffffffffffffffffffffffffffffffff1681526020019081526020016000209050600081600001600201541415611960576040517f08c379a000000000000000000000000000000000000000000000000000000000815260040161195790612630565b60405180910390fd5b600073ffffffffffffffffffffffffffffffffffffffff168160040160009054906101000a900473ffffffffffffffffffffffffffffffffffffffff1673ffffffffffffffffffffffffffffffffffffffff1614611a88576000600360008360040160009054906101000a900473ffffffffffffffffffffffffffffffffffffffff1673ffffffffffffffffffffffffffffffffffffffff1673ffffffffffffffffffffffffffffffffffffffff16815260200190815260200160002090508160030160009054906101000a900473ffffffffffffffffffffffffffffffffffffffff168160030160006101000a81548173ffffffffffffffffffffffffffffffffffffffff021916908373ffffffffffffffffffffffffffffffffffffffff160217905550505b600073ffffffffffffffffffffffffffffffffffffffff168160030160009054906101000a900473ffffffffffffffffffffffffffffffffffffffff1673ffffffffffffffffffffffffffffffffffffffff1614611bb0576000600360008360030160009054906101000a900473ffffffffffffffffffffffffffffffffffffffff1673ffffffffffffffffffffffffffffffffffffffff1673ffffffffffffffffffffffffffffffffffffffff16815260200190815260200160002090508160040160009054906101000a900473ffffffffffffffffffffffffffffffffffffffff168160040160006101000a81548173ffffffffffffffffffffffffffffffffffffffff021916908373ffffffffffffffffffffffffffffffffffffffff160217905550505b6000601481819054906101000a900467ffffffffffffffff1680929190611bd69061289f565b91906101000a81548167ffffffffffffffff021916908367ffffffffffffffff16021790555050600160009054906101000a900473ffffffffffffffffffffffffffffffffffffffff1673ffffffffffffffffffffffffffffffffffffffff168273ffffffffffffffffffffffffffffffffffffffff161415611d1f57600060036000600160009054906101000a900473ffffffffffffffffffffffffffffffffffffffff1673ffffffffffffffffffffffffffffffffffffffff1673ffffffffffffffffffffffffffffffffffffffff16815260200190815260200160002090508060040160009054906101000a900473ffffffffffffffffffffffffffffffffffffffff16600160006101000a81548173ffffffffffffffffffffffffffffffffffffffff021916908373ffffffffffffffffffffffffffffffffffffffff160217905550505b600260009054906101000a900473ffffffffffffffffffffffffffffffffffffffff1673ffffffffffffffffffffffffffffffffffffffff168273ffffffffffffffffffffffffffffffffffffffff161415611e4157600060036000600260009054906101000a900473ffffffffffffffffffffffffffffffffffffffff1673ffffffffffffffffffffffffffffffffffffffff1673ffffffffffffffffffffffffffffffffffffffff16815260200190815260200160002090508060030160009054906101000a900473ffffffffffffffffffffffffffffffffffffffff16600260006101000a81548173ffffffffffffffffffffffffffffffffffffffff021916908373ffffffffffffffffffffffffffffffffffffffff160217905550505b600360008373ffffffffffffffffffffffffffffffffffffffff1673ffffffffffffffffffffffffffffffffffffffff1681526020019081526020016000206000808201600080820160006101000a81549073ffffffffffffffffffffffffffffffffffffffff0219169055600182016000611ebd919061201b565b600282016000905550506003820160006101000a81549073ffffffffffffffffffffffffffffffffffffffff02191690556004820160006101000a81549073ffffffffffffffffffffffffffffffffffffffff021916905550508173ffffffffffffffffffffffffffffffffffffffff167fcfc24166db4bb677e857cacabd1541fb2b30645021b27c5130419589b84db52b60405160405180910390a25050565b6040518060600160405280600073ffffffffffffffffffffffffffffffffffffffff16815260200160608152602001600081525090565b828054611fa1906128c9565b90600052602060002090601f016020900481019282611fc3576000855561200a565b82601f10611fdc57805160ff191683800117855561200a565b8280016001018555821561200a579182015b82811115612009578251825591602001919060010190611fee565b5b509050612017919061205b565b5090565b508054612027906128c9565b6000825580601f106120395750612058565b601f016020900490600052602060002090810190612057919061205b565b5b50565b5b8082111561207457600081600090555060010161205c565b5090565b600061208b61208684612730565b61270b565b9050828152602081018484840111156120a7576120a6612a96565b5b6120b284828561285d565b509392505050565b6000813590506120c981612bbd565b92915050565b6000813590506120de81612bd4565b92915050565b600082601f8301126120f9576120f8612a91565b5b8135612109848260208601612078565b91505092915050565b60008135905061212181612beb565b92915050565b60006020828403121561213d5761213c612aa0565b5b600061214b848285016120ba565b91505092915050565b6000806040838503121561216b5761216a612aa0565b5b6000612179858286016120ba565b925050602083013567ffffffffffffffff81111561219a57612199612a9b565b5b6121a6858286016120e4565b9150509250929050565b6000602082840312156121c6576121c5612aa0565b5b60006121d4848285016120cf565b91505092915050565b6000602082840312156121f3576121f2612aa0565b5b600082013567ffffffffffffffff81111561221157612210612a9b565b5b61221d848285016120e4565b91505092915050565b60006020828403121561223c5761223b612aa0565b5b600061224a84828501612112565b91505092915050565b600061225f8383612480565b905092915050565b612270816127dc565b82525050565b61227f816127dc565b82525050565b600061229082612786565b61229a81856127a9565b9350836020820285016122ac85612761565b8060005b858110156122e857848403895281516122c98582612253565b94506122d48361279c565b925060208a019950506001810190506122b0565b50829750879550505050505092915050565b612303816127ee565b82525050565b6123128161284b565b82525050565b600061232382612791565b61232d81856127ba565b935061233d81856020860161286c565b61234681612aa5565b840191505092915050565b6000815461235e816128c9565b61236881866127cb565b945060018216600081146123835760018114612395576123c8565b60ff19831686526020860193506123c8565b61239e85612771565b60005b838110156123c0578154818901526001820191506020810190506123a1565b808801955050505b50505092915050565b60006123de6016836127cb565b91506123e982612ab6565b602082019050919050565b60006124016026836127cb565b915061240c82612adf565b604082019050919050565b6000612424600e836127cb565b915061242f82612b2e565b602082019050919050565b60006124476020836127cb565b915061245282612b57565b602082019050919050565b600061246a6011836127cb565b915061247582612b80565b602082019050919050565b60006060830160008301516124986000860182612267565b50602083015184820360208601526124b08282612318565b91505060408301516124c56040860182612520565b508091505092915050565b60006060830160008301516124e86000860182612267565b50602083015184820360208601526125008282612318565b91505060408301516125156040860182612520565b508091505092915050565b6125298161282d565b82525050565b6125388161282d565b82525050565b61254781612837565b82525050565b60006020820190506125626000830184612276565b92915050565b600060208201905081810360008301526125828184612285565b905092915050565b600060208201905061259f60008301846122fa565b92915050565b60006020820190506125ba6000830184612309565b92915050565b600060408201905081810360008301526125da8185612351565b90506125e9602083018461252f565b9392505050565b60006020820190508181036000830152612609816123d1565b9050919050565b60006020820190508181036000830152612629816123f4565b9050919050565b6000602082019050818103600083015261264981612417565b9050919050565b600060208201905081810360008301526126698161243a565b9050919050565b600060208201905081810360008301526126898161245d565b9050919050565b600060208201905081810360008301526126aa81846124d0565b905092915050565b600060608201905081810360008301526126cc81866124d0565b90506126db6020830185612276565b6126e86040830184612276565b949350505050565b6000602082019050612705600083018461253e565b92915050565b6000612715612726565b905061272182826128fb565b919050565b6000604051905090565b600067ffffffffffffffff82111561274b5761274a612a62565b5b61275482612aa5565b9050602081019050919050565b6000819050602082019050919050565b60008190508160005260206000209050919050565b600081519050919050565b600081519050919050565b6000602082019050919050565b600082825260208201905092915050565b600082825260208201905092915050565b600082825260208201905092915050565b60006127e78261280d565b9050919050565b60008115159050919050565b600081905061280882612ba9565b919050565b600073ffffffffffffffffffffffffffffffffffffffff82169050919050565b6000819050919050565b600067ffffffffffffffff82169050919050565b6000612856826127fa565b9050919050565b82818337600083830152505050565b60005b8381101561288a57808201518184015260208101905061286f565b83811115612899576000848401525b50505050565b60006128aa82612837565b915060008214156128be576128bd6129a6565b5b600182039050919050565b600060028204905060018216806128e157607f821691505b602082108114156128f5576128f4612a04565b5b50919050565b61290482612aa5565b810181811067ffffffffffffffff8211171561292357612922612a62565b5b80604052505050565b60006129378261282d565b91507fffffffffffffffffffffffffffffffffffffffffffffffffffffffffffffffff82141561296a576129696129a6565b5b600182019050919050565b600061298082612837565b915067ffffffffffffffff82141561299b5761299a6129a6565b5b600182019050919050565b7f4e487b7100000000000000000000000000000000000000000000000000000000600052601160045260246000fd5b7f4e487b7100000000000000000000000000000000000000000000000000000000600052602160045260246000fd5b7f4e487b7100000000000000000000000000000000000000000000000000000000600052602260045260246000fd5b7f4e487b7100000000000000000000000000000000000000000000000000000000600052603260045260246000fd5b7f4e487b7100000000000000000000000000000000000000000000000000000000600052604160045260246000fd5b600080fd5b600080fd5b600080fd5b600080fd5b6000601f19601f8301169050919050565b7f6572726f725f696e6465784f75744f66426f756e647300000000000000000000600082015250565b7f4f776e61626c653a206e6577206f776e657220697320746865207a65726f206160008201527f6464726573730000000000000000000000000000000000000000000000000000602082015250565b7f6572726f725f6e6f74466f756e64000000000000000000000000000000000000600082015250565b7f4f776e61626c653a2063616c6c6572206973206e6f7420746865206f776e6572600082015250565b7f6572726f725f6e6f74417070726f766564000000000000000000000000000000600082015250565b60038110612bba57612bb96129d5565b5b50565b612bc6816127dc565b8114612bd157600080fd5b50565b612bdd816127ee565b8114612be857600080fd5b50565b612bf48161282d565b8114612bff57600080fd5b5056fea2646970667358221220a502fd282ab5df703960e5e10547e281b90d8593a148af8839df36c98fcbc91764736f6c63430008060033",
  "linkReferences": {},
  "deployedLinkReferences": {}
}