{
  "contractName": "PublicResolver",
  "abi": [
    {
      "constant": true,
      "inputs": [
        {
          "name": "interfaceID",
          "type": "bytes4"
        }
      ],
      "name": "supportsInterface",
      "outputs": [
        {
          "name": "",
          "type": "bool"
        }
      ],
      "payable": false,
      "stateMutability": "pure",
      "type": "function"
    },
    {
      "constant": false,
      "inputs": [
        {
          "name": "node",
          "type": "bytes32"
        },
        {
          "name": "data",
          "type": "bytes"
        }
      ],
      "name": "setDNSRecords",
      "outputs": [],
      "payable": false,
      "stateMutability": "nonpayable",
      "type": "function"
    },
    {
      "constant": false,
      "inputs": [
        {
          "name": "node",
          "type": "bytes32"
        },
        {
          "name": "key",
          "type": "string"
        },
        {
          "name": "value",
          "type": "string"
        }
      ],
      "name": "setText",
      "outputs": [],
      "payable": false,
      "stateMutability": "nonpayable",
      "type": "function"
    },
    {
      "constant": true,
      "inputs": [
        {
          "name": "node",
          "type": "bytes32"
        },
        {
          "name": "interfaceID",
          "type": "bytes4"
        }
      ],
      "name": "interfaceImplementer",
      "outputs": [
        {
          "name": "",
          "type": "address"
        }
      ],
      "payable": false,
      "stateMutability": "view",
      "type": "function"
    },
    {
      "constant": true,
      "inputs": [
        {
          "name": "node",
          "type": "bytes32"
        },
        {
          "name": "contentTypes",
          "type": "uint256"
        }
      ],
      "name": "ABI",
      "outputs": [
        {
          "name": "",
          "type": "uint256"
        },
        {
          "name": "",
          "type": "bytes"
        }
      ],
      "payable": false,
      "stateMutability": "view",
      "type": "function"
    },
    {
      "constant": false,
      "inputs": [
        {
          "name": "node",
          "type": "bytes32"
        },
        {
          "name": "x",
          "type": "bytes32"
        },
        {
          "name": "y",
          "type": "bytes32"
        }
      ],
      "name": "setPubkey",
      "outputs": [],
      "payable": false,
      "stateMutability": "nonpayable",
      "type": "function"
    },
    {
      "constant": false,
      "inputs": [
        {
          "name": "node",
          "type": "bytes32"
        },
        {
          "name": "hash",
          "type": "bytes"
        }
      ],
      "name": "setContenthash",
      "outputs": [],
      "payable": false,
      "stateMutability": "nonpayable",
      "type": "function"
    },
    {
      "constant": true,
      "inputs": [
        {
          "name": "node",
          "type": "bytes32"
        }
      ],
      "name": "addr",
      "outputs": [
        {
          "name": "",
          "type": "address"
        }
      ],
      "payable": false,
      "stateMutability": "view",
      "type": "function"
    },
    {
      "constant": true,
      "inputs": [
        {
          "name": "node",
          "type": "bytes32"
        },
        {
          "name": "name",
          "type": "bytes32"
        }
      ],
      "name": "hasDNSRecords",
      "outputs": [
        {
          "name": "",
          "type": "bool"
        }
      ],
      "payable": false,
      "stateMutability": "view",
      "type": "function"
    },
    {
      "constant": true,
      "inputs": [
        {
          "name": "node",
          "type": "bytes32"
        },
        {
          "name": "key",
          "type": "string"
        }
      ],
      "name": "text",
      "outputs": [
        {
          "name": "",
          "type": "string"
        }
      ],
      "payable": false,
      "stateMutability": "view",
      "type": "function"
    },
    {
      "constant": true,
      "inputs": [
        {
          "name": "node",
          "type": "bytes32"
        }
      ],
      "name": "zonehash",
      "outputs": [
        {
          "name": "",
          "type": "bytes"
        }
      ],
      "payable": false,
      "stateMutability": "view",
      "type": "function"
    },
    {
      "constant": false,
      "inputs": [
        {
          "name": "node",
          "type": "bytes32"
        },
        {
          "name": "contentType",
          "type": "uint256"
        },
        {
          "name": "data",
          "type": "bytes"
        }
      ],
      "name": "setABI",
      "outputs": [],
      "payable": false,
      "stateMutability": "nonpayable",
      "type": "function"
    },
    {
      "constant": true,
      "inputs": [
        {
          "name": "node",
          "type": "bytes32"
        }
      ],
      "name": "name",
      "outputs": [
        {
          "name": "",
          "type": "string"
        }
      ],
      "payable": false,
      "stateMutability": "view",
      "type": "function"
    },
    {
      "constant": false,
      "inputs": [
        {
          "name": "node",
          "type": "bytes32"
        },
        {
          "name": "name",
          "type": "string"
        }
      ],
      "name": "setName",
      "outputs": [],
      "payable": false,
      "stateMutability": "nonpayable",
      "type": "function"
    },
    {
      "constant": false,
      "inputs": [
        {
          "name": "node",
          "type": "bytes32"
        },
        {
          "name": "coinType",
          "type": "uint256"
        },
        {
          "name": "a",
          "type": "bytes"
        }
      ],
      "name": "setAddr",
      "outputs": [],
      "payable": false,
      "stateMutability": "nonpayable",
      "type": "function"
    },
    {
      "constant": true,
      "inputs": [
        {
          "name": "node",
          "type": "bytes32"
        },
        {
          "name": "name",
          "type": "bytes32"
        },
        {
          "name": "resource",
          "type": "uint16"
        }
      ],
      "name": "dnsRecord",
      "outputs": [
        {
          "name": "",
          "type": "bytes"
        }
      ],
      "payable": false,
      "stateMutability": "view",
      "type": "function"
    },
    {
      "constant": false,
      "inputs": [
        {
          "name": "node",
          "type": "bytes32"
        }
      ],
      "name": "clearDNSZone",
      "outputs": [],
      "payable": false,
      "stateMutability": "nonpayable",
      "type": "function"
    },
    {
      "constant": true,
      "inputs": [
        {
          "name": "node",
          "type": "bytes32"
        }
      ],
      "name": "contenthash",
      "outputs": [
        {
          "name": "",
          "type": "bytes"
        }
      ],
      "payable": false,
      "stateMutability": "view",
      "type": "function"
    },
    {
      "constant": true,
      "inputs": [
        {
          "name": "node",
          "type": "bytes32"
        }
      ],
      "name": "pubkey",
      "outputs": [
        {
          "name": "x",
          "type": "bytes32"
        },
        {
          "name": "y",
          "type": "bytes32"
        }
      ],
      "payable": false,
      "stateMutability": "view",
      "type": "function"
    },
    {
      "constant": false,
      "inputs": [
        {
          "name": "node",
          "type": "bytes32"
        },
        {
          "name": "hash",
          "type": "bytes"
        }
      ],
      "name": "setZonehash",
      "outputs": [],
      "payable": false,
      "stateMutability": "nonpayable",
      "type": "function"
    },
    {
      "constant": false,
      "inputs": [
        {
          "name": "node",
          "type": "bytes32"
        },
        {
          "name": "a",
          "type": "address"
        }
      ],
      "name": "setAddr",
      "outputs": [],
      "payable": false,
      "stateMutability": "nonpayable",
      "type": "function"
    },
    {
      "constant": false,
      "inputs": [
        {
          "name": "node",
          "type": "bytes32"
        },
        {
          "name": "interfaceID",
          "type": "bytes4"
        },
        {
          "name": "implementer",
          "type": "address"
        }
      ],
      "name": "setInterface",
      "outputs": [],
      "payable": false,
      "stateMutability": "nonpayable",
      "type": "function"
    },
    {
      "constant": true,
      "inputs": [
        {
          "name": "node",
          "type": "bytes32"
        },
        {
          "name": "coinType",
          "type": "uint256"
        }
      ],
      "name": "addr",
      "outputs": [
        {
          "name": "",
          "type": "bytes"
        }
      ],
      "payable": false,
      "stateMutability": "view",
      "type": "function"
    },
    {
      "constant": true,
      "inputs": [
        {
          "name": "",
          "type": "bytes32"
        },
        {
          "name": "",
          "type": "address"
        },
        {
          "name": "",
          "type": "address"
        }
      ],
      "name": "authorisations",
      "outputs": [
        {
          "name": "",
          "type": "bool"
        }
      ],
      "payable": false,
      "stateMutability": "view",
      "type": "function"
    },
    {
      "inputs": [
        {
          "name": "_ens",
          "type": "address"
        }
      ],
      "payable": false,
      "stateMutability": "nonpayable",
      "type": "constructor"
    },
    {
      "anonymous": false,
      "inputs": [
        {
          "indexed": true,
          "name": "node",
          "type": "bytes32"
        },
        {
          "indexed": true,
          "name": "owner",
          "type": "address"
        },
        {
          "indexed": true,
          "name": "target",
          "type": "address"
        },
        {
          "indexed": false,
          "name": "isAuthorised",
          "type": "bool"
        }
      ],
      "name": "AuthorisationChanged",
      "type": "event"
    },
    {
      "anonymous": false,
      "inputs": [
        {
          "indexed": true,
          "name": "node",
          "type": "bytes32"
        },
        {
          "indexed": true,
          "name": "indexedKey",
          "type": "string"
        },
        {
          "indexed": false,
          "name": "key",
          "type": "string"
        }
      ],
      "name": "TextChanged",
      "type": "event"
    },
    {
      "anonymous": false,
      "inputs": [
        {
          "indexed": true,
          "name": "node",
          "type": "bytes32"
        },
        {
          "indexed": false,
          "name": "x",
          "type": "bytes32"
        },
        {
          "indexed": false,
          "name": "y",
          "type": "bytes32"
        }
      ],
      "name": "PubkeyChanged",
      "type": "event"
    },
    {
      "anonymous": false,
      "inputs": [
        {
          "indexed": true,
          "name": "node",
          "type": "bytes32"
        },
        {
          "indexed": false,
          "name": "name",
          "type": "string"
        }
      ],
      "name": "NameChanged",
      "type": "event"
    },
    {
      "anonymous": false,
      "inputs": [
        {
          "indexed": true,
          "name": "node",
          "type": "bytes32"
        },
        {
          "indexed": true,
          "name": "interfaceID",
          "type": "bytes4"
        },
        {
          "indexed": false,
          "name": "implementer",
          "type": "address"
        }
      ],
      "name": "InterfaceChanged",
      "type": "event"
    },
    {
      "anonymous": false,
      "inputs": [
        {
          "indexed": true,
          "name": "node",
          "type": "bytes32"
        },
        {
          "indexed": false,
          "name": "name",
          "type": "bytes"
        },
        {
          "indexed": false,
          "name": "resource",
          "type": "uint16"
        },
        {
          "indexed": false,
          "name": "record",
          "type": "bytes"
        }
      ],
      "name": "DNSRecordChanged",
      "type": "event"
    },
    {
      "anonymous": false,
      "inputs": [
        {
          "indexed": true,
          "name": "node",
          "type": "bytes32"
        },
        {
          "indexed": false,
          "name": "name",
          "type": "bytes"
        },
        {
          "indexed": false,
          "name": "resource",
          "type": "uint16"
        }
      ],
      "name": "DNSRecordDeleted",
      "type": "event"
    },
    {
      "anonymous": false,
      "inputs": [
        {
          "indexed": true,
          "name": "node",
          "type": "bytes32"
        }
      ],
      "name": "DNSZoneCleared",
      "type": "event"
    },
    {
      "anonymous": false,
      "inputs": [
        {
          "indexed": true,
          "name": "node",
          "type": "bytes32"
        },
        {
          "indexed": false,
          "name": "lastzonehash",
          "type": "bytes"
        },
        {
          "indexed": false,
          "name": "zonehash",
          "type": "bytes"
        }
      ],
      "name": "DNSZonehashChanged",
      "type": "event"
    },
    {
      "anonymous": false,
      "inputs": [
        {
          "indexed": true,
          "name": "node",
          "type": "bytes32"
        },
        {
          "indexed": false,
          "name": "hash",
          "type": "bytes"
        }
      ],
      "name": "ContenthashChanged",
      "type": "event"
    },
    {
      "anonymous": false,
      "inputs": [
        {
          "indexed": true,
          "name": "node",
          "type": "bytes32"
        },
        {
          "indexed": false,
          "name": "a",
          "type": "address"
        }
      ],
      "name": "AddrChanged",
      "type": "event"
    },
    {
      "anonymous": false,
      "inputs": [
        {
          "indexed": true,
          "name": "node",
          "type": "bytes32"
        },
        {
          "indexed": false,
          "name": "coinType",
          "type": "uint256"
        },
        {
          "indexed": false,
          "name": "newAddress",
          "type": "bytes"
        }
      ],
      "name": "AddressChanged",
      "type": "event"
    },
    {
      "anonymous": false,
      "inputs": [
        {
          "indexed": true,
          "name": "node",
          "type": "bytes32"
        },
        {
          "indexed": true,
          "name": "contentType",
          "type": "uint256"
        }
      ],
      "name": "ABIChanged",
      "type": "event"
    },
    {
      "constant": false,
      "inputs": [
        {
          "name": "node",
          "type": "bytes32"
        },
        {
          "name": "target",
          "type": "address"
        },
        {
          "name": "isAuthorised",
          "type": "bool"
        }
      ],
      "name": "setAuthorisation",
      "outputs": [],
      "payable": false,
      "stateMutability": "nonpayable",
      "type": "function"
    },
    {
      "constant": false,
      "inputs": [
        {
          "name": "data",
          "type": "bytes[]"
        }
      ],
      "name": "multicall",
      "outputs": [
        {
          "name": "results",
          "type": "bytes[]"
        }
      ],
      "payable": false,
      "stateMutability": "nonpayable",
      "type": "function"
    }
  ],
  "bytecode": "0x60806040523480156200001157600080fd5b5060405160208062003b55833981018060405262000033919081019062000092565b80600b60006101000a81548173ffffffffffffffffffffffffffffffffffffffff021916908373ffffffffffffffffffffffffffffffffffffffff1602179055505062000120565b6000815190506200008c8162000106565b92915050565b600060208284031215620000a557600080fd5b6000620000b5848285016200007b565b91505092915050565b6000620000cb82620000e6565b9050919050565b6000620000df82620000be565b9050919050565b600073ffffffffffffffffffffffffffffffffffffffff82169050919050565b6200011181620000d2565b81146200011d57600080fd5b50565b613a2580620001306000396000f3fe608060405234801561001057600080fd5b506004361061018e5760003560e01c8063691f3431116100de578063bc1c58d111610097578063d5fa2b0011610071578063d5fa2b00146104ed578063e59d895d14610509578063f1cb7e0614610525578063f86bc879146105555761018e565b8063bc1c58d114610470578063c8690233146104a0578063ce3decdc146104d15761018e565b8063691f34311461038c57806377372213146103bc5780638b95dd71146103d8578063a8fa5682146103f4578063ac9650d814610424578063ad5780af146104545761018e565b8063304e6ade1161014b5780634cbf6ba4116101255780634cbf6ba4146102e057806359d1d43c146103105780635c98042b14610340578063623195b0146103705761018e565b8063304e6ade146102785780633b3b57de146102945780633e9ce794146102c45761018e565b806301ffc9a7146101935780630af179d7146101c357806310f13a8c146101df578063124a319c146101fb5780632203ab561461022b57806329cd62ea1461025c575b600080fd5b6101ad60048036036101a8919081019061317c565b610585565b6040516101ba919061355d565b60405180910390f35b6101dd60048036036101d89190810190612f34565b6105e6565b005b6101f960048036036101f49190810190612fe4565b610814565b005b61021560048036036102109190810190612ea9565b6108c2565b60405161022291906134ea565b60405180910390f35b6102456004803603610240919081019061306d565b610cad565b604051610253929190613711565b60405180910390f35b61027660048036036102719190810190612e0b565b610dfc565b005b610292600480360361028d9190810190612f34565b610e8e565b005b6102ae60048036036102a99190810190612ccc565b610f04565b6040516102bb9190613520565b60405180910390f35b6102de60048036036102d99190810190612d80565b610f3b565b005b6102fa60048036036102f59190810190612dcf565b61104b565b604051610307919061355d565b60405180910390f35b61032a60048036036103259190810190612f8c565b6110b3565b60405161033791906136ef565b60405180910390f35b61035a60048036036103559190810190612ccc565b611188565b60405161036791906135fb565b60405180910390f35b61038a600480360361038591908101906130a9565b61123d565b005b6103a660048036036103a19190810190612ccc565b6112ca565b6040516103b391906136ef565b60405180910390f35b6103d660048036036103d19190810190612f8c565b61137f565b005b6103f260048036036103ed9190810190613115565b6113f5565b005b61040e60048036036104099190810190612e5a565b6114cb565b60405161041b91906135fb565b60405180910390f35b61043e60048036036104399190810190612c87565b6115d0565b60405161044b919061353b565b60405180910390f35b61046e60048036036104699190810190612ccc565b611726565b005b61048a60048036036104859190810190612ccc565b61178d565b60405161049791906135fb565b60405180910390f35b6104ba60048036036104b59190810190612ccc565b611842565b6040516104c8929190613593565b60405180910390f35b6104eb60048036036104e69190810190612f34565b61187c565b005b61050760048036036105029190810190612cf5565b6119a5565b005b610523600480360361051e9190810190612ee5565b6119d1565b005b61053f600480360361053a919081019061306d565b611ae3565b60405161054c91906135fb565b60405180910390f35b61056f600480360361056a9190810190612d31565b611baa565b60405161057c919061355d565b60405180910390f35b60006359d1d43c60e01b7bffffffffffffffffffffffffffffffffffffffffffffffffffffffff1916827bffffffffffffffffffffffffffffffffffffffffffffffffffffffff191614806105df57506105de82611be6565b5b9050919050565b826105f081611c47565b6105f957600080fd5b600080905060008090506060806000610610612861565b61066860008a8a8080601f016020809104026020016040519081016040528093929190818152602001838380828437600081840152601f19601f82011690508083019250505050505050611dd090919063ffffffff16565b90505b61067481611dfa565b6107a15760008661ffff1614156106d0578060400151955061069581611e10565b9350836040516020016106a891906134a5565b6040516020818303038152906040528051906020012091506106c981611e47565b9250610793565b60606106db82611e10565b9050816040015161ffff168761ffff1614158061070857506107068186611e7790919063ffffffff16565b155b156107915761076a8b86898d8d8080601f016020809104026020016040519081016040528093929190818152602001838380828437600081840152601f19601f820116905080830192505050505050508a8b88602001510360008b5114611e9e565b81604001519650816020015195508094508480519060200120925061078e82611e47565b93505b505b61079c816121ce565b61066b565b50600083511115610809576108088984878b8b8080601f016020809104026020016040519081016040528093929190818152602001838380828437600081840152601f19601f8201169050808301925050505050505088898e8e9050036000895114611e9e565b5b505050505050505050565b8461081e81611c47565b61082757600080fd5b8282600a6000898152602001908152602001600020878760405161084c9291906134bc565b908152602001604051809103902091906108679291906128ac565b5084846040516108789291906134bc565b6040518091039020867fd8c9334b1a9c2f9da342a0a2b32629c1a229b6445dad78947f674b44444a755087876040516108b29291906136cb565b60405180910390a3505050505050565b600080600760008581526020019081526020016000206000847bffffffffffffffffffffffffffffffffffffffffffffffffffffffff19167bffffffffffffffffffffffffffffffffffffffffffffffffffffffff1916815260200190815260200160002060009054906101000a900473ffffffffffffffffffffffffffffffffffffffff169050600073ffffffffffffffffffffffffffffffffffffffff168173ffffffffffffffffffffffffffffffffffffffff16146109875780915050610ca7565b600061099285610f04565b9050600073ffffffffffffffffffffffffffffffffffffffff168173ffffffffffffffffffffffffffffffffffffffff1614156109d457600092505050610ca7565b600060608273ffffffffffffffffffffffffffffffffffffffff166301ffc9a760e01b604051602401610a0791906135bc565b6040516020818303038152906040527f01ffc9a7000000000000000000000000000000000000000000000000000000007bffffffffffffffffffffffffffffffffffffffffffffffffffffffff19166020820180517bffffffffffffffffffffffffffffffffffffffffffffffffffffffff8381831617835250505050604051610a9191906134a5565b600060405180830381855afa9150503d8060008114610acc576040519150601f19603f3d011682016040523d82523d6000602084013e610ad1565b606091505b5091509150811580610ae4575060208151105b80610b2b5750600060f81b81601f81518110610afc57fe5b602001015160f81c60f81b7effffffffffffffffffffffffffffffffffffffffffffffffffffffffffffff1916145b15610b3d576000945050505050610ca7565b8273ffffffffffffffffffffffffffffffffffffffff1686604051602401610b6591906135bc565b6040516020818303038152906040527f01ffc9a7000000000000000000000000000000000000000000000000000000007bffffffffffffffffffffffffffffffffffffffffffffffffffffffff19166020820180517bffffffffffffffffffffffffffffffffffffffffffffffffffffffff8381831617835250505050604051610bef91906134a5565b600060405180830381855afa9150503d8060008114610c2a576040519150601f19603f3d011682016040523d82523d6000602084013e610c2f565b606091505b508092508193505050811580610c46575060208151105b80610c8d5750600060f81b81601f81518110610c5e57fe5b602001015160f81c60f81b7effffffffffffffffffffffffffffffffffffffffffffffffffffffffffffff1916145b15610c9f576000945050505050610ca7565b829450505050505b92915050565b60006060600080600086815260200190815260200160002090506000600190505b848111610dd957600085821614158015610d0e57506000826000838152602001908152602001600020805460018160011615610100020316600290049050115b15610dcd5780826000838152602001908152602001600020808054600181600116156101000203166002900480601f016020809104026020016040519081016040528092919081815260200182805460018160011615610100020316600290048015610dbb5780601f10610d9057610100808354040283529160200191610dbb565b820191906000526020600020905b815481529060010190602001808311610d9e57829003601f168201915b50505050509050935093505050610df5565b600181901b9050610cce565b5060006040518060200160405280600081525081915092509250505b9250929050565b82610e0681611c47565b610e0f57600080fd5b604051806040016040528084815260200183815250600960008681526020019081526020016000206000820151816000015560208201518160010155905050837f1d6f5e03d3f63eb58751986629a5439baee5079ff04f345becb66e23eb154e468484604051610e80929190613593565b60405180910390a250505050565b82610e9881611c47565b610ea157600080fd5b8282600260008781526020019081526020016000209190610ec392919061292c565b50837fe379c1624ed7e714cc0937528a32359d69d5281337765313dba4e081b72d75788484604051610ef69291906135d7565b60405180910390a250505050565b60006060610f1383603c611ae3565b9050600081511415610f29576000915050610f36565b610f32816122e2565b9150505b919050565b80600c600085815260200190815260200160002060003373ffffffffffffffffffffffffffffffffffffffff1673ffffffffffffffffffffffffffffffffffffffff16815260200190815260200160002060008473ffffffffffffffffffffffffffffffffffffffff1673ffffffffffffffffffffffffffffffffffffffff16815260200190815260200160002060006101000a81548160ff0219169083151502179055508173ffffffffffffffffffffffffffffffffffffffff163373ffffffffffffffffffffffffffffffffffffffff16847fe1c5610a6e0cbe10764ecd182adcef1ec338dc4e199c99c32ce98f38e12791df8460405161103e919061355d565b60405180910390a4505050565b60008060066000858152602001908152602001600020600060046000878152602001908152602001600020548152602001908152602001600020600084815260200190815260200160002060009054906101000a900461ffff1661ffff161415905092915050565b6060600a600085815260200190815260200160002083836040516110d89291906134bc565b90815260200160405180910390208054600181600116156101000203166002900480601f01602080910402602001604051908101604052809291908181526020018280546001816001161561010002031660029004801561117a5780601f1061114f5761010080835404028352916020019161117a565b820191906000526020600020905b81548152906001019060200180831161115d57829003601f168201915b505050505090509392505050565b6060600360008381526020019081526020016000208054600181600116156101000203166002900480601f0160208091040260200160405190810160405280929190818152602001828054600181600116156101000203166002900480156112315780601f1061120657610100808354040283529160200191611231565b820191906000526020600020905b81548152906001019060200180831161121457829003601f168201915b50505050509050919050565b8361124781611c47565b61125057600080fd5b60008460018603161461126257600080fd5b82826000808881526020019081526020016000206000878152602001908152602001600020919061129492919061292c565b5083857faa121bbeef5f32f5961a2a28966e769023910fc9479059ee3495d4c1a696efe360405160405180910390a35050505050565b6060600860008381526020019081526020016000208054600181600116156101000203166002900480601f0160208091040260200160405190810160405280929190818152602001828054600181600116156101000203166002900480156113735780601f1061134857610100808354040283529160200191611373565b820191906000526020600020905b81548152906001019060200180831161135657829003601f168201915b50505050509050919050565b8261138981611c47565b61139257600080fd5b82826008600087815260200190815260200160002091906113b49291906128ac565b50837fb7d29e911041e8d9b843369e890bcb72c9388692ba48b65ac54e7214c4c348f784846040516113e79291906136cb565b60405180910390a250505050565b826113ff81611c47565b61140857600080fd5b837f65412581168e88a1e60c6459d7f44ae83ad0832e670826c05a4e2476b57af752848460405161143a929190613711565b60405180910390a2603c83141561148c57837f52d7d861f09ab3d26239d492e8968629f95e9e318cf0b73bfddc441522a15fd2611476846122e2565b6040516114839190613505565b60405180910390a25b8160016000868152602001908152602001600020600085815260200190815260200160002090805190602001906114c49291906129ac565b5050505050565b606060056000858152602001908152602001600020600060046000878152602001908152602001600020548152602001908152602001600020600084815260200190815260200160002060008361ffff1661ffff1681526020019081526020016000208054600181600116156101000203166002900480601f0160208091040260200160405190810160405280929190818152602001828054600181600116156101000203166002900480156115c25780601f10611597576101008083540402835291602001916115c2565b820191906000526020600020905b8154815290600101906020018083116115a557829003601f168201915b505050505090509392505050565b60608282905060405190808252806020026020018201604052801561160957816020015b60608152602001906001900390816115f45790505b50905060008090505b8383905081101561171c57600060603073ffffffffffffffffffffffffffffffffffffffff1686868581811061164457fe5b905060200281018035600160200383360303811261166157600080fd5b8083019250508135905060208201915067ffffffffffffffff81111561168657600080fd5b60018102360382131561169857600080fd5b6040516116a692919061348c565b600060405180830381855af49150503d80600081146116e1576040519150601f19603f3d011682016040523d82523d6000602084013e6116e6565b606091505b5091509150816116f557600080fd5b8084848151811061170257fe5b602002602001018190525050508080600101915050611612565b5080905092915050565b8061173081611c47565b61173957600080fd5b6004600083815260200190815260200160002060008154809291906001019190505550817fb757169b8492ca2f1c6619d9d76ce22803035c3b1d5f6930dffe7b127c1a198360405160405180910390a25050565b6060600260008381526020019081526020016000208054600181600116156101000203166002900480601f0160208091040260200160405190810160405280929190818152602001828054600181600116156101000203166002900480156118365780601f1061180b57610100808354040283529160200191611836565b820191906000526020600020905b81548152906001019060200180831161181957829003601f168201915b50505050509050919050565b6000806009600084815260200190815260200160002060000154600960008581526020019081526020016000206001015491509150915091565b8261188681611c47565b61188f57600080fd5b6060600360008681526020019081526020016000208054600181600116156101000203166002900480601f0160208091040260200160405190810160405280929190818152602001828054600181600116156101000203166002900480156119385780601f1061190d57610100808354040283529160200191611938565b820191906000526020600020905b81548152906001019060200180831161191b57829003601f168201915b50505050509050838360036000888152602001908152602001600020919061196192919061292c565b50847f8f15ed4b723ef428f250961da8315675b507046737e19319fc1a4d81bfe87f858286866040516119969392919061361d565b60405180910390a25050505050565b816119af81611c47565b6119b857600080fd5b6119cc83603c6119c785612305565b6113f5565b505050565b826119db81611c47565b6119e457600080fd5b81600760008681526020019081526020016000206000857bffffffffffffffffffffffffffffffffffffffffffffffffffffffff19167bffffffffffffffffffffffffffffffffffffffffffffffffffffffff1916815260200190815260200160002060006101000a81548173ffffffffffffffffffffffffffffffffffffffff021916908373ffffffffffffffffffffffffffffffffffffffff160217905550827bffffffffffffffffffffffffffffffffffffffffffffffffffffffff1916847f7c69f06bea0bdef565b709e93a147836b0063ba2dd89f02d0b7e8d931e6a6daa84604051611ad591906134ea565b60405180910390a350505050565b60606001600084815260200190815260200160002060008381526020019081526020016000208054600181600116156101000203166002900480601f016020809104026020016040519081016040528092919081815260200182805460018160011615610100020316600290048015611b9d5780601f10611b7257610100808354040283529160200191611b9d565b820191906000526020600020905b815481529060010190602001808311611b8057829003601f168201915b5050505050905092915050565b600c602052826000526040600020602052816000526040600020602052806000526040600020600092509250509054906101000a900460ff1681565b600063c869023360e01b7bffffffffffffffffffffffffffffffffffffffffffffffffffffffff1916827bffffffffffffffffffffffffffffffffffffffffffffffffffffffff19161480611c405750611c3f82612350565b5b9050919050565b600080600b60009054906101000a900473ffffffffffffffffffffffffffffffffffffffff1673ffffffffffffffffffffffffffffffffffffffff166302571be3846040518263ffffffff1660e01b8152600401611ca59190613578565b60206040518083038186803b158015611cbd57600080fd5b505afa158015611cd1573d6000803e3d6000fd5b505050506040513d601f19601f82011682018060405250611cf59190810190612c5e565b90503373ffffffffffffffffffffffffffffffffffffffff168173ffffffffffffffffffffffffffffffffffffffff161480611dc85750600c600084815260200190815260200160002060008273ffffffffffffffffffffffffffffffffffffffff1673ffffffffffffffffffffffffffffffffffffffff16815260200190815260200160002060003373ffffffffffffffffffffffffffffffffffffffff1673ffffffffffffffffffffffffffffffffffffffff16815260200190815260200160002060009054906101000a900460ff165b915050919050565b611dd8612861565b828160000181905250818160c0018181525050611df4816121ce565b92915050565b6000816000015151826020015110159050919050565b6060611e408260200151611e2c846000015185602001516123b1565b846000015161240c9092919063ffffffff16565b9050919050565b6060611e708260a001518360a001518460c0015103846000015161240c9092919063ffffffff16565b9050919050565b600081518351148015611e965750611e95836000846000875161247f565b5b905092915050565b6000600460008981526020019081526020016000205490506000878051906020012090506060611ed986868961240c9092919063ffffffff16565b9050831561204e576000600560008c81526020019081526020016000206000858152602001908152602001600020600084815260200190815260200160002060008a61ffff1661ffff16815260200190815260200160002080546001816001161561010002031660029004905014611fb557600660008b815260200190815260200160002060008481526020019081526020016000206000838152602001908152602001600020600081819054906101000a900461ffff16809291906001900391906101000a81548161ffff021916908361ffff160217905550505b600560008b81526020019081526020016000206000848152602001908152602001600020600083815260200190815260200160002060008961ffff1661ffff168152602001908152602001600020600061200f9190612a2c565b897f03528ed0c2a3ebc993b12ce3c16bb382f9c7d88ef7d8a1bf290eaf35955a12078a8a604051612041929190613656565b60405180910390a26121c2565b6000600560008c81526020019081526020016000206000858152602001908152602001600020600084815260200190815260200160002060008a61ffff1661ffff168152602001908152602001600020805460018160011615610100020316600290049050141561212257600660008b815260200190815260200160002060008481526020019081526020016000206000838152602001908152602001600020600081819054906101000a900461ffff168092919060010191906101000a81548161ffff021916908361ffff160217905550505b80600560008c81526020019081526020016000206000858152602001908152602001600020600084815260200190815260200160002060008a61ffff1661ffff16815260200190815260200160002090805190602001906121849291906129ac565b50897f52a608b3303a48862d07a73d82fa221318c0027fbbcfb1b2329bface3f19ff2b8a8a846040516121b993929190613686565b60405180910390a25b50505050505050505050565b8060c001518160200181815250508060000151518160200151106121f1576122df565b6000612205826000015183602001516123b1565b82602001510190506122248183600001516124a390919063ffffffff16565b826040019061ffff16908161ffff16815250506002810190506122548183600001516124a390919063ffffffff16565b826060019061ffff16908161ffff16815250506002810190506122848183600001516124c990919063ffffffff16565b826080019063ffffffff16908163ffffffff168152505060048101905060006122ba8284600001516124a390919063ffffffff16565b61ffff169050600282019150818360a00181815250508082018360c001818152505050505b50565b600060148251146122f257600080fd5b600c6101000a6020830151049050919050565b606060146040519080825280601f01601f19166020018201604052801561233b5781602001600182028038833980820191505090505b509050600c6101000a82026020820152919050565b600063691f343160e01b7bffffffffffffffffffffffffffffffffffffffffffffffffffffffff1916827bffffffffffffffffffffffffffffffffffffffffffffffffffffffff191614806123aa57506123a9826124f1565b5b9050919050565b6000808290505b60011561240057835181106123c957fe5b60006123de828661255e90919063ffffffff16565b60ff169050600181018201915060008114156123fa5750612400565b506123b8565b82810391505092915050565b60608351828401111561241e57600080fd5b6060826040519080825280601f01601f1916602001820160405280156124535781602001600182028038833980820191505090505b5090506000806020830191508560208801019050612472828287612582565b8293505050509392505050565b600061248c8484846125cb565b6124978787856125cb565b14905095945050505050565b600082516002830111156124b657600080fd5b61ffff8260028501015116905092915050565b600082516004830111156124dc57600080fd5b63ffffffff8260048501015116905092915050565b60006040516124ff906134d5565b60405180910390207bffffffffffffffffffffffffffffffffffffffffffffffffffffffff1916827bffffffffffffffffffffffffffffffffffffffffffffffffffffffff191614806125575750612556826125ee565b5b9050919050565b600082828151811061256c57fe5b602001015160f81c60f81b60f81c905092915050565b5b602081106125a65781518352602083019250602082019150602081039050612583565b60006001826020036101000a0390508019835116818551168181178652505050505050565b6000835182840111156125dd57600080fd5b818360208601012090509392505050565b600063a8fa568260e01b7bffffffffffffffffffffffffffffffffffffffffffffffffffffffff1916827bffffffffffffffffffffffffffffffffffffffffffffffffffffffff191614806126875750635c47637c60e01b7bffffffffffffffffffffffffffffffffffffffffffffffffffffffff1916827bffffffffffffffffffffffffffffffffffffffffffffffffffffffff1916145b8061269757506126968261269e565b5b9050919050565b600063bc1c58d160e01b7bffffffffffffffffffffffffffffffffffffffffffffffffffffffff1916827bffffffffffffffffffffffffffffffffffffffffffffffffffffffff191614806126f857506126f7826126ff565b5b9050919050565b6000633b3b57de60e01b7bffffffffffffffffffffffffffffffffffffffffffffffffffffffff1916827bffffffffffffffffffffffffffffffffffffffffffffffffffffffff19161480612798575063f1cb7e0660e01b7bffffffffffffffffffffffffffffffffffffffffffffffffffffffff1916827bffffffffffffffffffffffffffffffffffffffffffffffffffffffff1916145b806127a857506127a7826127af565b5b9050919050565b6000632203ab5660e01b7bffffffffffffffffffffffffffffffffffffffffffffffffffffffff1916827bffffffffffffffffffffffffffffffffffffffffffffffffffffffff19161480612809575061280882612810565b5b9050919050565b60006301ffc9a760e01b7bffffffffffffffffffffffffffffffffffffffffffffffffffffffff1916827bffffffffffffffffffffffffffffffffffffffffffffffffffffffff1916149050919050565b6040518060e001604052806060815260200160008152602001600061ffff168152602001600061ffff168152602001600063ffffffff16815260200160008152602001600081525090565b828054600181600116156101000203166002900490600052602060002090601f016020900481019282601f106128ed57803560ff191683800117855561291b565b8280016001018555821561291b579182015b8281111561291a5782358255916020019190600101906128ff565b5b5090506129289190612a74565b5090565b828054600181600116156101000203166002900490600052602060002090601f016020900481019282601f1061296d57803560ff191683800117855561299b565b8280016001018555821561299b579182015b8281111561299a57823582559160200191906001019061297f565b5b5090506129a89190612a74565b5090565b828054600181600116156101000203166002900490600052602060002090601f016020900481019282601f106129ed57805160ff1916838001178555612a1b565b82800160010185558215612a1b579182015b82811115612a1a5782518255916020019190600101906129ff565b5b509050612a289190612a74565b5090565b50805460018160011615610100020316600290046000825580601f10612a525750612a71565b601f016020900490600052602060002090810190612a709190612a74565b5b50565b612a9691905b80821115612a92576000816000905550600101612a7a565b5090565b90565b600081359050612aa881613961565b92915050565b600081519050612abd81613961565b92915050565b60008083601f840112612ad557600080fd5b8235905067ffffffffffffffff811115612aee57600080fd5b602083019150836020820283011115612b0657600080fd5b9250929050565b600081359050612b1c81613978565b92915050565b600081359050612b318161398f565b92915050565b600081359050612b46816139a6565b92915050565b60008083601f840112612b5e57600080fd5b8235905067ffffffffffffffff811115612b7757600080fd5b602083019150836001820283011115612b8f57600080fd5b9250929050565b600082601f830112612ba757600080fd5b8135612bba612bb58261376e565b613741565b91508082526020830160208301858383011115612bd657600080fd5b612be183828461390e565b50505092915050565b60008083601f840112612bfc57600080fd5b8235905067ffffffffffffffff811115612c1557600080fd5b602083019150836001820283011115612c2d57600080fd5b9250929050565b600081359050612c43816139bd565b92915050565b600081359050612c58816139d4565b92915050565b600060208284031215612c7057600080fd5b6000612c7e84828501612aae565b91505092915050565b60008060208385031215612c9a57600080fd5b600083013567ffffffffffffffff811115612cb457600080fd5b612cc085828601612ac3565b92509250509250929050565b600060208284031215612cde57600080fd5b6000612cec84828501612b22565b91505092915050565b60008060408385031215612d0857600080fd5b6000612d1685828601612b22565b9250506020612d2785828601612a99565b9150509250929050565b600080600060608486031215612d4657600080fd5b6000612d5486828701612b22565b9350506020612d6586828701612a99565b9250506040612d7686828701612a99565b9150509250925092565b600080600060608486031215612d9557600080fd5b6000612da386828701612b22565b9350506020612db486828701612a99565b9250506040612dc586828701612b0d565b9150509250925092565b60008060408385031215612de257600080fd5b6000612df085828601612b22565b9250506020612e0185828601612b22565b9150509250929050565b600080600060608486031215612e2057600080fd5b6000612e2e86828701612b22565b9350506020612e3f86828701612b22565b9250506040612e5086828701612b22565b9150509250925092565b600080600060608486031215612e6f57600080fd5b6000612e7d86828701612b22565b9350506020612e8e86828701612b22565b9250506040612e9f86828701612c34565b9150509250925092565b60008060408385031215612ebc57600080fd5b6000612eca85828601612b22565b9250506020612edb85828601612b37565b9150509250929050565b600080600060608486031215612efa57600080fd5b6000612f0886828701612b22565b9350506020612f1986828701612b37565b9250506040612f2a86828701612a99565b9150509250925092565b600080600060408486031215612f4957600080fd5b6000612f5786828701612b22565b935050602084013567ffffffffffffffff811115612f7457600080fd5b612f8086828701612b4c565b92509250509250925092565b600080600060408486031215612fa157600080fd5b6000612faf86828701612b22565b935050602084013567ffffffffffffffff811115612fcc57600080fd5b612fd886828701612bea565b92509250509250925092565b600080600080600060608688031215612ffc57600080fd5b600061300a88828901612b22565b955050602086013567ffffffffffffffff81111561302757600080fd5b61303388828901612bea565b9450945050604086013567ffffffffffffffff81111561305257600080fd5b61305e88828901612bea565b92509250509295509295909350565b6000806040838503121561308057600080fd5b600061308e85828601612b22565b925050602061309f85828601612c49565b9150509250929050565b600080600080606085870312156130bf57600080fd5b60006130cd87828801612b22565b94505060206130de87828801612c49565b935050604085013567ffffffffffffffff8111156130fb57600080fd5b61310787828801612b4c565b925092505092959194509250565b60008060006060848603121561312a57600080fd5b600061313886828701612b22565b935050602061314986828701612c49565b925050604084013567ffffffffffffffff81111561316657600080fd5b61317286828701612b96565b9150509250925092565b60006020828403121561318e57600080fd5b600061319c84828501612b37565b91505092915050565b60006131b18383613344565b905092915050565b6131c2816138d8565b82525050565b6131d18161384c565b82525050565b6131e08161383a565b82525050565b60006131f1826137a7565b6131fb81856137e0565b93508360208202850161320d8561379a565b8060005b85811015613249578484038952815161322a85826131a5565b9450613235836137d3565b925060208a01995050600181019050613211565b50829750879550505050505092915050565b6132648161385e565b82525050565b6132738161386a565b82525050565b61328281613874565b82525050565b60006132948385613802565b93506132a183858461390e565b6132aa83613950565b840190509392505050565b60006132c18385613813565b93506132ce83858461390e565b82840190509392505050565b60006132e5826137bd565b6132ef8185613802565b93506132ff81856020860161391d565b61330881613950565b840191505092915050565b600061331e826137bd565b6133288185613813565b935061333881856020860161391d565b80840191505092915050565b600061334f826137b2565b61335981856137f1565b935061336981856020860161391d565b61337281613950565b840191505092915050565b6000613389838561381e565b935061339683858461390e565b61339f83613950565b840190509392505050565b60006133b6838561382f565b93506133c383858461390e565b82840190509392505050565b60006133da826137c8565b6133e4818561381e565b93506133f481856020860161391d565b6133fd81613950565b840191505092915050565b600061341560248361382f565b91507f696e74657266616365496d706c656d656e74657228627974657333322c62797460008301527f65733429000000000000000000000000000000000000000000000000000000006020830152602482019050919050565b613477816138a0565b82525050565b613486816138ce565b82525050565b60006134998284866132b5565b91508190509392505050565b60006134b18284613313565b915081905092915050565b60006134c98284866133aa565b91508190509392505050565b60006134e082613408565b9150819050919050565b60006020820190506134ff60008301846131d7565b92915050565b600060208201905061351a60008301846131b9565b92915050565b600060208201905061353560008301846131c8565b92915050565b6000602082019050818103600083015261355581846131e6565b905092915050565b6000602082019050613572600083018461325b565b92915050565b600060208201905061358d600083018461326a565b92915050565b60006040820190506135a8600083018561326a565b6135b5602083018461326a565b9392505050565b60006020820190506135d16000830184613279565b92915050565b600060208201905081810360008301526135f2818486613288565b90509392505050565b6000602082019050818103600083015261361581846132da565b905092915050565b6000604082019050818103600083015261363781866132da565b9050818103602083015261364c818486613288565b9050949350505050565b6000604082019050818103600083015261367081856132da565b905061367f602083018461346e565b9392505050565b600060608201905081810360008301526136a081866132da565b90506136af602083018561346e565b81810360408301526136c181846132da565b9050949350505050565b600060208201905081810360008301526136e681848661337d565b90509392505050565b6000602082019050818103600083015261370981846133cf565b905092915050565b6000604082019050613726600083018561347d565b818103602083015261373881846132da565b90509392505050565b6000604051905081810181811067ffffffffffffffff8211171561376457600080fd5b8060405250919050565b600067ffffffffffffffff82111561378557600080fd5b601f19601f8301169050602081019050919050565b6000602082019050919050565b600081519050919050565b600081519050919050565b600081519050919050565b600081519050919050565b6000602082019050919050565b600082825260208201905092915050565b600082825260208201905092915050565b600082825260208201905092915050565b600081905092915050565b600082825260208201905092915050565b600081905092915050565b6000613845826138ae565b9050919050565b6000613857826138ae565b9050919050565b60008115159050919050565b6000819050919050565b60007fffffffff0000000000000000000000000000000000000000000000000000000082169050919050565b600061ffff82169050919050565b600073ffffffffffffffffffffffffffffffffffffffff82169050919050565b6000819050919050565b60006138e3826138ea565b9050919050565b60006138f5826138fc565b9050919050565b6000613907826138ae565b9050919050565b82818337600083830152505050565b60005b8381101561393b578082015181840152602081019050613920565b8381111561394a576000848401525b50505050565b6000601f19601f8301169050919050565b61396a8161383a565b811461397557600080fd5b50565b6139818161385e565b811461398c57600080fd5b50565b6139988161386a565b81146139a357600080fd5b50565b6139af81613874565b81146139ba57600080fd5b50565b6139c6816138a0565b81146139d157600080fd5b50565b6139dd816138ce565b81146139e857600080fd5b5056fea265627a7a723058206e23aaa7ab60519fb24f8ec86e95497f39a3845843802974d0417a96bdb34cc16c6578706572696d656e74616cf50037",
  "source": "pragma solidity ^0.5.0;\npragma experimental ABIEncoderV2;\n\nimport \"@ensdomains/ens/contracts/ENS.sol\";\nimport \"./profiles/ABIResolver.sol\";\nimport \"./profiles/AddrResolver.sol\";\nimport \"./profiles/ContentHashResolver.sol\";\nimport \"./profiles/DNSResolver.sol\";\nimport \"./profiles/InterfaceResolver.sol\";\nimport \"./profiles/NameResolver.sol\";\nimport \"./profiles/PubkeyResolver.sol\";\nimport \"./profiles/TextResolver.sol\";\n\n/**\n * A simple resolver anyone can use; only allows the owner of a node to set its\n * address.\n */\ncontract PublicResolver is ABIResolver, AddrResolver, ContentHashResolver, DNSResolver, InterfaceResolver, NameResolver, PubkeyResolver, TextResolver {\n    ENS ens;\n\n    /**\n     * A mapping of authorisations. An address that is authorised for a name\n     * may make any changes to the name that the owner could, but may not update\n     * the set of authorisations.\n     * (node, owner, caller) => isAuthorised\n     */\n    mapping(bytes32=>mapping(address=>mapping(address=>bool))) public authorisations;\n\n    event AuthorisationChanged(bytes32 indexed node, address indexed owner, address indexed target, bool isAuthorised);\n\n    constructor(ENS _ens) public {\n        ens = _ens;\n    }\n\n    /**\n     * @dev Sets or clears an authorisation.\n     * Authorisations are specific to the caller. Any account can set an authorisation\n     * for any name, but the authorisation that is checked will be that of the\n     * current owner of a name. Thus, transferring a name effectively clears any\n     * existing authorisations, and new authorisations can be set in advance of\n     * an ownership transfer if desired.\n     *\n     * @param node The name to change the authorisation on.\n     * @param target The address that is to be authorised or deauthorised.\n     * @param isAuthorised True if the address should be authorised, or false if it should be deauthorised.\n     */\n    function setAuthorisation(bytes32 node, address target, bool isAuthorised) external {\n        authorisations[node][msg.sender][target] = isAuthorised;\n        emit AuthorisationChanged(node, msg.sender, target, isAuthorised);\n    }\n\n    function isAuthorised(bytes32 node) internal view returns(bool) {\n        address owner = ens.owner(node);\n        return owner == msg.sender || authorisations[node][owner][msg.sender];\n    }\n\n    function multicall(bytes[] calldata data) external returns(bytes[] memory results) {\n        results = new bytes[](data.length);\n        for(uint i = 0; i < data.length; i++) {\n            (bool success, bytes memory result) = address(this).delegatecall(data[i]);\n            require(success);\n            results[i] = result;\n        }\n        return results;\n    }\n}\n",
  "sourcePath": "/home/heynow/streamr/resolvers/contracts/PublicResolver.sol",
  "compiler": {
    "name": "solc",
    "version": "0.5.8+commit.23d335f2.Emscripten.clang"
  },
  "schemaVersion": "3.0.16",
  "updatedAt": "2020-10-06T11:51:22.408Z",
  "devdoc": {
    "methods": {
      "ABI(bytes32,uint256)": {
        "params": {
          "contentTypes": "A bitwise OR of the ABI formats accepted by the caller.",
          "node": "The ENS node to query"
        },
        "return": "contentType The content type of the return valuedata The ABI data"
      },
      "addr(bytes32)": {
        "params": {
          "node": "The ENS node to query."
        },
        "return": "The associated address."
      },
      "clearDNSZone(bytes32)": {
        "params": {
          "node": "the namehash of the node for which to clear the zone"
        }
      },
      "contenthash(bytes32)": {
        "params": {
          "node": "The ENS node to query."
        },
        "return": "The associated contenthash."
      },
      "dnsRecord(bytes32,bytes32,uint16)": {
        "params": {
          "name": "the keccak-256 hash of the fully-qualified name for which to fetch the record",
          "node": "the namehash of the node for which to fetch the record",
          "resource": "the ID of the resource as per https://en.wikipedia.org/wiki/List_of_DNS_record_types"
        },
        "return": "the DNS record in wire format if present, otherwise empty"
      },
      "hasDNSRecords(bytes32,bytes32)": {
        "params": {
          "name": "the namehash of the node for which to check the records",
          "node": "the namehash of the node for which to check the records"
        }
      },
      "interfaceImplementer(bytes32,bytes4)": {
        "params": {
          "interfaceID": "The EIP 165 interface ID to check for.",
          "node": "The ENS node to query."
        },
        "return": "The address that implements this interface, or 0 if the interface is unsupported."
      },
      "name(bytes32)": {
        "params": {
          "node": "The ENS node to query."
        },
        "return": "The associated name."
      },
      "pubkey(bytes32)": {
        "params": {
          "node": "The ENS node to query"
        },
        "return": "x, y the X and Y coordinates of the curve point for the public key."
      },
      "setABI(bytes32,uint256,bytes)": {
        "params": {
          "contentType": "The content type of the ABI",
          "data": "The ABI data.",
          "node": "The node to update."
        }
      },
      "setAddr(bytes32,address)": {
        "params": {
          "a": "The address to set.",
          "node": "The node to update."
        }
      },
      "setAuthorisation(bytes32,address,bool)": {
        "details": "Sets or clears an authorisation. Authorisations are specific to the caller. Any account can set an authorisation for any name, but the authorisation that is checked will be that of the current owner of a name. Thus, transferring a name effectively clears any existing authorisations, and new authorisations can be set in advance of an ownership transfer if desired.",
        "params": {
          "isAuthorised": "True if the address should be authorised, or false if it should be deauthorised.",
          "node": "The name to change the authorisation on.",
          "target": "The address that is to be authorised or deauthorised."
        }
      },
      "setContenthash(bytes32,bytes)": {
        "params": {
          "hash": "The contenthash to set",
          "node": "The node to update."
        }
      },
      "setDNSRecords(bytes32,bytes)": {
        "params": {
          "data": "the DNS wire format records to set",
          "node": "the namehash of the node for which to set the records"
        }
      },
      "setInterface(bytes32,bytes4,address)": {
        "params": {
          "implementer": "The address of a contract that implements this interface for this node.",
          "interfaceID": "The EIP 165 interface ID.",
          "node": "The node to update."
        }
      },
      "setName(bytes32,string)": {
        "params": {
          "name": "The name to set.",
          "node": "The node to update."
        }
      },
      "setPubkey(bytes32,bytes32,bytes32)": {
        "params": {
          "node": "The ENS node to query",
          "x": "the X coordinate of the curve point for the public key.",
          "y": "the Y coordinate of the curve point for the public key."
        }
      },
      "setText(bytes32,string,string)": {
        "params": {
          "key": "The key to set.",
          "node": "The node to update.",
          "value": "The text data value to set."
        }
      },
      "setZonehash(bytes32,bytes)": {
        "params": {
          "hash": "The zonehash to set",
          "node": "The node to update."
        }
      },
      "text(bytes32,string)": {
        "params": {
          "key": "The text data key to query.",
          "node": "The ENS node to query."
        },
        "return": "The associated text data."
      },
      "zonehash(bytes32)": {
        "params": {
          "node": "The ENS node to query."
        },
        "return": "The associated contenthash."
      }
    }
  },
  "userdoc": {
    "methods": {
      "ABI(bytes32,uint256)": {
        "notice": "Returns the ABI associated with an ENS node. Defined in EIP205."
      },
      "addr(bytes32)": {
        "notice": "Returns the address associated with an ENS node."
      },
      "clearDNSZone(bytes32)": {
        "notice": "Clear all information for a DNS zone."
      },
      "contenthash(bytes32)": {
        "notice": "Returns the contenthash associated with an ENS node."
      },
      "dnsRecord(bytes32,bytes32,uint16)": {
        "notice": "Obtain a DNS record."
      },
      "hasDNSRecords(bytes32,bytes32)": {
        "notice": "Check if a given node has records."
      },
      "interfaceImplementer(bytes32,bytes4)": {
        "notice": "Returns the address of a contract that implements the specified interface for this name. If an implementer has not been set for this interfaceID and name, the resolver will query the contract at `addr()`. If `addr()` is set, a contract exists at that address, and that contract implements EIP165 and returns `true` for the specified interfaceID, its address will be returned."
      },
      "name(bytes32)": {
        "notice": "Returns the name associated with an ENS node, for reverse records. Defined in EIP181."
      },
      "pubkey(bytes32)": {
        "notice": "Returns the SECP256k1 public key associated with an ENS node. Defined in EIP 619."
      },
      "setABI(bytes32,uint256,bytes)": {
        "notice": "Sets the ABI associated with an ENS node. Nodes may have one ABI of each content type. To remove an ABI, set it to the empty string."
      },
      "setAddr(bytes32,address)": {
        "notice": "Sets the address associated with an ENS node. May only be called by the owner of that node in the ENS registry."
      },
      "setContenthash(bytes32,bytes)": {
        "notice": "Sets the contenthash associated with an ENS node. May only be called by the owner of that node in the ENS registry."
      },
      "setDNSRecords(bytes32,bytes)": {
        "notice": "Set one or more DNS records.  Records are supplied in wire-format. Records with the same node/name/resource must be supplied one after the other to ensure the data is updated correctly. For example, if the data was supplied:    a.example.com IN A 1.2.3.4    a.example.com IN A 5.6.7.8    www.example.com IN CNAME a.example.com. then this would store the two A records for a.example.com correctly as a single RRSET, however if the data was supplied:    a.example.com IN A 1.2.3.4    www.example.com IN CNAME a.example.com.    a.example.com IN A 5.6.7.8 then this would store the first A record, the CNAME, then the second A record which would overwrite the first."
      },
      "setInterface(bytes32,bytes4,address)": {
        "notice": "Sets an interface associated with a name. Setting the address to 0 restores the default behaviour of querying the contract at `addr()` for interface support."
      },
      "setName(bytes32,string)": {
        "notice": "Sets the name associated with an ENS node, for reverse records. May only be called by the owner of that node in the ENS registry."
      },
      "setPubkey(bytes32,bytes32,bytes32)": {
        "notice": "Sets the SECP256k1 public key associated with an ENS node."
      },
      "setText(bytes32,string,string)": {
        "notice": "Sets the text data associated with an ENS node and key. May only be called by the owner of that node in the ENS registry."
      },
      "setZonehash(bytes32,bytes)": {
        "notice": "setZonehash sets the hash for the zone. May only be called by the owner of that node in the ENS registry."
      },
      "text(bytes32,string)": {
        "notice": "Returns the text data associated with an ENS node and key."
      },
      "zonehash(bytes32)": {
        "notice": "zonehash obtains the hash for the zone."
      }
    },
    "notice": "A simple resolver anyone can use; only allows the owner of a node to set its address."
  }
}