{
  "_format": "hh-sol-artifact-1",
  "contractName": "StreamRegistry",
  "sourceName": "contracts/StreamRegistry/StreamRegistry.sol",
  "abi": [
    {
      "anonymous": false,
      "inputs": [
        {
          "indexed": false,
          "internalType": "address",
          "name": "previousAdmin",
          "type": "address"
        },
        {
          "indexed": false,
          "internalType": "address",
          "name": "newAdmin",
          "type": "address"
        }
      ],
      "name": "AdminChanged",
      "type": "event"
    },
    {
      "anonymous": false,
      "inputs": [
        {
          "indexed": true,
          "internalType": "address",
          "name": "beacon",
          "type": "address"
        }
      ],
      "name": "BeaconUpgraded",
      "type": "event"
    },
    {
      "anonymous": false,
      "inputs": [
        {
          "indexed": false,
          "internalType": "string",
          "name": "streamId",
          "type": "string"
        },
        {
          "indexed": false,
          "internalType": "address",
          "name": "user",
          "type": "address"
        },
        {
          "indexed": false,
          "internalType": "bool",
          "name": "canEdit",
          "type": "bool"
        },
        {
          "indexed": false,
          "internalType": "bool",
          "name": "canDelete",
          "type": "bool"
        },
        {
          "indexed": false,
          "internalType": "uint256",
          "name": "publishExpiration",
          "type": "uint256"
        },
        {
          "indexed": false,
          "internalType": "uint256",
          "name": "subscribeExpiration",
          "type": "uint256"
        },
        {
          "indexed": false,
          "internalType": "bool",
          "name": "canGrant",
          "type": "bool"
        }
      ],
      "name": "PermissionUpdated",
      "type": "event"
    },
    {
      "anonymous": false,
      "inputs": [
        {
          "indexed": true,
          "internalType": "bytes32",
          "name": "role",
          "type": "bytes32"
        },
        {
          "indexed": true,
          "internalType": "bytes32",
          "name": "previousAdminRole",
          "type": "bytes32"
        },
        {
          "indexed": true,
          "internalType": "bytes32",
          "name": "newAdminRole",
          "type": "bytes32"
        }
      ],
      "name": "RoleAdminChanged",
      "type": "event"
    },
    {
      "anonymous": false,
      "inputs": [
        {
          "indexed": true,
          "internalType": "bytes32",
          "name": "role",
          "type": "bytes32"
        },
        {
          "indexed": true,
          "internalType": "address",
          "name": "account",
          "type": "address"
        },
        {
          "indexed": true,
          "internalType": "address",
          "name": "sender",
          "type": "address"
        }
      ],
      "name": "RoleGranted",
      "type": "event"
    },
    {
      "anonymous": false,
      "inputs": [
        {
          "indexed": true,
          "internalType": "bytes32",
          "name": "role",
          "type": "bytes32"
        },
        {
          "indexed": true,
          "internalType": "address",
          "name": "account",
          "type": "address"
        },
        {
          "indexed": true,
          "internalType": "address",
          "name": "sender",
          "type": "address"
        }
      ],
      "name": "RoleRevoked",
      "type": "event"
    },
    {
      "anonymous": false,
      "inputs": [
        {
          "indexed": false,
          "internalType": "string",
          "name": "id",
          "type": "string"
        },
        {
          "indexed": false,
          "internalType": "string",
          "name": "metadata",
          "type": "string"
        }
      ],
      "name": "StreamCreated",
      "type": "event"
    },
    {
      "anonymous": false,
      "inputs": [
        {
          "indexed": false,
          "internalType": "string",
          "name": "id",
          "type": "string"
        }
      ],
      "name": "StreamDeleted",
      "type": "event"
    },
    {
      "anonymous": false,
      "inputs": [
        {
          "indexed": false,
          "internalType": "string",
          "name": "id",
          "type": "string"
        },
        {
          "indexed": false,
          "internalType": "string",
          "name": "metadata",
          "type": "string"
        }
      ],
      "name": "StreamUpdated",
      "type": "event"
    },
    {
      "anonymous": false,
      "inputs": [
        {
          "indexed": true,
          "internalType": "address",
          "name": "implementation",
          "type": "address"
        }
      ],
      "name": "Upgraded",
      "type": "event"
    },
    {
      "inputs": [],
      "name": "DEFAULT_ADMIN_ROLE",
      "outputs": [
        {
          "internalType": "bytes32",
          "name": "",
          "type": "bytes32"
        }
      ],
      "stateMutability": "view",
      "type": "function"
    },
    {
      "inputs": [
        {
          "internalType": "address",
          "name": "requestorAddress",
          "type": "address"
        },
        {
          "internalType": "string",
          "name": "ensName",
          "type": "string"
        },
        {
          "internalType": "string",
          "name": "streamIdPath",
          "type": "string"
        },
        {
          "internalType": "string",
          "name": "metadataJsonString",
          "type": "string"
        }
      ],
      "name": "ENScreateStreamCallback",
      "outputs": [],
      "stateMutability": "nonpayable",
      "type": "function"
    },
    {
      "inputs": [],
      "name": "MAX_INT",
      "outputs": [
        {
          "internalType": "uint256",
          "name": "",
          "type": "uint256"
        }
      ],
      "stateMutability": "view",
      "type": "function"
    },
    {
      "inputs": [],
      "name": "TRUSTED_ROLE",
      "outputs": [
        {
          "internalType": "bytes32",
          "name": "",
          "type": "bytes32"
        }
      ],
      "stateMutability": "view",
      "type": "function"
    },
    {
      "inputs": [
        {
          "internalType": "address",
          "name": "_address",
          "type": "address"
        }
      ],
      "name": "addressToString",
      "outputs": [
        {
          "internalType": "string",
          "name": "",
          "type": "string"
        }
      ],
      "stateMutability": "pure",
      "type": "function"
    },
    {
      "inputs": [
        {
          "internalType": "string",
          "name": "streamIdPath",
          "type": "string"
        },
        {
          "internalType": "string",
          "name": "metadataJsonString",
          "type": "string"
        }
      ],
      "name": "createStream",
      "outputs": [],
      "stateMutability": "nonpayable",
      "type": "function"
    },
    {
      "inputs": [
        {
          "internalType": "string",
          "name": "ensName",
          "type": "string"
        },
        {
          "internalType": "string",
          "name": "streamIdPath",
          "type": "string"
        },
        {
          "internalType": "string",
          "name": "metadataJsonString",
          "type": "string"
        }
      ],
      "name": "createStreamWithENS",
      "outputs": [],
      "stateMutability": "nonpayable",
      "type": "function"
    },
    {
      "inputs": [
        {
          "internalType": "string",
          "name": "streamId",
          "type": "string"
        }
      ],
      "name": "deleteStream",
      "outputs": [],
      "stateMutability": "nonpayable",
      "type": "function"
    },
    {
      "inputs": [
        {
          "internalType": "string",
          "name": "streamId",
          "type": "string"
        }
      ],
      "name": "exists",
      "outputs": [
        {
          "internalType": "bool",
          "name": "",
          "type": "bool"
        }
      ],
      "stateMutability": "view",
      "type": "function"
    },
    {
      "inputs": [
        {
          "internalType": "string",
          "name": "streamId",
          "type": "string"
        },
        {
          "internalType": "address",
          "name": "user",
          "type": "address"
        }
      ],
      "name": "getAddressKey",
      "outputs": [
        {
          "internalType": "bytes32",
          "name": "",
          "type": "bytes32"
        }
      ],
      "stateMutability": "view",
      "type": "function"
    },
    {
      "inputs": [
        {
          "internalType": "string",
          "name": "streamId",
          "type": "string"
        },
        {
          "internalType": "address",
          "name": "user",
          "type": "address"
        }
      ],
      "name": "getDirectPermissionsForUser",
      "outputs": [
        {
          "components": [
            {
              "internalType": "bool",
              "name": "canEdit",
              "type": "bool"
            },
            {
              "internalType": "bool",
              "name": "canDelete",
              "type": "bool"
            },
            {
              "internalType": "uint256",
              "name": "publishExpiration",
              "type": "uint256"
            },
            {
              "internalType": "uint256",
              "name": "subscribeExpiration",
              "type": "uint256"
            },
            {
              "internalType": "bool",
              "name": "canGrant",
              "type": "bool"
            }
          ],
          "internalType": "struct StreamRegistry.Permission",
          "name": "permission",
          "type": "tuple"
        }
      ],
      "stateMutability": "view",
      "type": "function"
    },
    {
      "inputs": [
        {
          "internalType": "string",
          "name": "streamId",
          "type": "string"
        },
        {
          "internalType": "address",
          "name": "user",
          "type": "address"
        }
      ],
      "name": "getPermissionsForUser",
      "outputs": [
        {
          "components": [
            {
              "internalType": "bool",
              "name": "canEdit",
              "type": "bool"
            },
            {
              "internalType": "bool",
              "name": "canDelete",
              "type": "bool"
            },
            {
              "internalType": "uint256",
              "name": "publishExpiration",
              "type": "uint256"
            },
            {
              "internalType": "uint256",
              "name": "subscribeExpiration",
              "type": "uint256"
            },
            {
              "internalType": "bool",
              "name": "canGrant",
              "type": "bool"
            }
          ],
          "internalType": "struct StreamRegistry.Permission",
          "name": "permission",
          "type": "tuple"
        }
      ],
      "stateMutability": "view",
      "type": "function"
    },
    {
      "inputs": [
        {
          "internalType": "bytes32",
          "name": "role",
          "type": "bytes32"
        }
      ],
      "name": "getRoleAdmin",
      "outputs": [
        {
          "internalType": "bytes32",
          "name": "",
          "type": "bytes32"
        }
      ],
      "stateMutability": "view",
      "type": "function"
    },
    {
      "inputs": [
        {
          "internalType": "string",
          "name": "streamId",
          "type": "string"
        }
      ],
      "name": "getStreamMetadata",
      "outputs": [
        {
          "internalType": "string",
          "name": "des",
          "type": "string"
        }
      ],
      "stateMutability": "view",
      "type": "function"
    },
    {
      "inputs": [],
      "name": "getTrustedRole",
      "outputs": [
        {
          "internalType": "bytes32",
          "name": "",
          "type": "bytes32"
        }
      ],
      "stateMutability": "pure",
      "type": "function"
    },
    {
      "inputs": [
        {
          "internalType": "string",
          "name": "streamId",
          "type": "string"
        },
        {
          "internalType": "address",
          "name": "user",
          "type": "address"
        },
        {
          "internalType": "enum StreamRegistry.PermissionType",
          "name": "permissionType",
          "type": "uint8"
        }
      ],
      "name": "grantPermission",
      "outputs": [],
      "stateMutability": "nonpayable",
      "type": "function"
    },
    {
      "inputs": [
        {
          "internalType": "string",
          "name": "streamId",
          "type": "string"
        },
        {
          "internalType": "enum StreamRegistry.PermissionType",
          "name": "permissionType",
          "type": "uint8"
        }
      ],
      "name": "grantPublicPermission",
      "outputs": [],
      "stateMutability": "nonpayable",
      "type": "function"
    },
    {
      "inputs": [
        {
          "internalType": "bytes32",
          "name": "role",
          "type": "bytes32"
        },
        {
          "internalType": "address",
          "name": "account",
          "type": "address"
        }
      ],
      "name": "grantRole",
      "outputs": [],
      "stateMutability": "nonpayable",
      "type": "function"
    },
    {
      "inputs": [
        {
          "internalType": "string",
          "name": "streamId",
          "type": "string"
        },
        {
          "internalType": "address",
          "name": "user",
          "type": "address"
        },
        {
          "internalType": "enum StreamRegistry.PermissionType",
          "name": "permissionType",
          "type": "uint8"
        }
      ],
      "name": "hasDirectPermission",
      "outputs": [
        {
          "internalType": "bool",
          "name": "userHasPermission",
          "type": "bool"
        }
      ],
      "stateMutability": "view",
      "type": "function"
    },
    {
      "inputs": [
        {
          "internalType": "string",
          "name": "streamId",
          "type": "string"
        },
        {
          "internalType": "address",
          "name": "user",
          "type": "address"
        },
        {
          "internalType": "enum StreamRegistry.PermissionType",
          "name": "permissionType",
          "type": "uint8"
        }
      ],
      "name": "hasPermission",
      "outputs": [
        {
          "internalType": "bool",
          "name": "userHasPermission",
          "type": "bool"
        }
      ],
      "stateMutability": "view",
      "type": "function"
    },
    {
      "inputs": [
        {
          "internalType": "string",
          "name": "streamId",
          "type": "string"
        },
        {
          "internalType": "enum StreamRegistry.PermissionType",
          "name": "permissionType",
          "type": "uint8"
        }
      ],
      "name": "hasPublicPermission",
      "outputs": [
        {
          "internalType": "bool",
          "name": "userHasPermission",
          "type": "bool"
        }
      ],
      "stateMutability": "view",
      "type": "function"
    },
    {
      "inputs": [
        {
          "internalType": "bytes32",
          "name": "role",
          "type": "bytes32"
        },
        {
          "internalType": "address",
          "name": "account",
          "type": "address"
        }
      ],
      "name": "hasRole",
      "outputs": [
        {
          "internalType": "bool",
          "name": "",
          "type": "bool"
        }
      ],
      "stateMutability": "view",
      "type": "function"
    },
    {
      "inputs": [
        {
          "internalType": "address",
          "name": "ensCacheAddr",
          "type": "address"
        },
        {
          "internalType": "address",
          "name": "trustedForwarderAddress",
          "type": "address"
        }
      ],
      "name": "initialize",
      "outputs": [],
      "stateMutability": "nonpayable",
      "type": "function"
    },
    {
      "inputs": [
        {
          "internalType": "address",
          "name": "forwarder",
          "type": "address"
        }
      ],
      "name": "isTrustedForwarder",
      "outputs": [
        {
          "internalType": "bool",
          "name": "",
          "type": "bool"
        }
      ],
      "stateMutability": "view",
      "type": "function"
    },
    {
      "inputs": [
        {
          "internalType": "bytes32",
          "name": "role",
          "type": "bytes32"
        },
        {
          "internalType": "address",
          "name": "account",
          "type": "address"
        }
      ],
      "name": "renounceRole",
      "outputs": [],
      "stateMutability": "nonpayable",
      "type": "function"
    },
    {
      "inputs": [
        {
          "internalType": "string",
          "name": "streamId",
          "type": "string"
        },
        {
          "internalType": "address",
          "name": "user",
          "type": "address"
        }
      ],
      "name": "revokeAllPermissionsForUser",
      "outputs": [],
      "stateMutability": "nonpayable",
      "type": "function"
    },
    {
      "inputs": [
        {
          "internalType": "string",
          "name": "streamId",
          "type": "string"
        },
        {
          "internalType": "address",
          "name": "user",
          "type": "address"
        },
        {
          "internalType": "enum StreamRegistry.PermissionType",
          "name": "permissionType",
          "type": "uint8"
        }
      ],
      "name": "revokePermission",
      "outputs": [],
      "stateMutability": "nonpayable",
      "type": "function"
    },
    {
      "inputs": [
        {
          "internalType": "string",
          "name": "streamId",
          "type": "string"
        },
        {
          "internalType": "enum StreamRegistry.PermissionType",
          "name": "permissionType",
          "type": "uint8"
        }
      ],
      "name": "revokePublicPermission",
      "outputs": [],
      "stateMutability": "nonpayable",
      "type": "function"
    },
    {
      "inputs": [
        {
          "internalType": "bytes32",
          "name": "role",
          "type": "bytes32"
        },
        {
          "internalType": "address",
          "name": "account",
          "type": "address"
        }
      ],
      "name": "revokeRole",
      "outputs": [],
      "stateMutability": "nonpayable",
      "type": "function"
    },
    {
      "inputs": [
        {
          "internalType": "address",
          "name": "ensCacheAddr",
          "type": "address"
        }
      ],
      "name": "setEnsCache",
      "outputs": [],
      "stateMutability": "nonpayable",
      "type": "function"
    },
    {
      "inputs": [
        {
          "internalType": "string",
          "name": "streamId",
          "type": "string"
        },
        {
          "internalType": "address",
          "name": "user",
          "type": "address"
        },
        {
          "internalType": "enum StreamRegistry.PermissionType",
          "name": "permissionType",
          "type": "uint8"
        },
        {
          "internalType": "uint256",
          "name": "expirationTime",
          "type": "uint256"
        }
      ],
      "name": "setExpirationTime",
      "outputs": [],
      "stateMutability": "nonpayable",
      "type": "function"
    },
    {
      "inputs": [
        {
          "internalType": "string",
          "name": "streamId",
          "type": "string"
        },
        {
          "internalType": "address[]",
          "name": "users",
          "type": "address[]"
        },
        {
          "components": [
            {
              "internalType": "bool",
              "name": "canEdit",
              "type": "bool"
            },
            {
              "internalType": "bool",
              "name": "canDelete",
              "type": "bool"
            },
            {
              "internalType": "uint256",
              "name": "publishExpiration",
              "type": "uint256"
            },
            {
              "internalType": "uint256",
              "name": "subscribeExpiration",
              "type": "uint256"
            },
            {
              "internalType": "bool",
              "name": "canGrant",
              "type": "bool"
            }
          ],
          "internalType": "struct StreamRegistry.Permission[]",
          "name": "permissions",
          "type": "tuple[]"
        }
      ],
      "name": "setPermissions",
      "outputs": [],
      "stateMutability": "nonpayable",
      "type": "function"
    },
    {
      "inputs": [
        {
          "internalType": "string",
          "name": "streamId",
          "type": "string"
        },
        {
          "internalType": "address",
          "name": "user",
          "type": "address"
        },
        {
          "internalType": "bool",
          "name": "canEdit",
          "type": "bool"
        },
        {
          "internalType": "bool",
          "name": "deletePerm",
          "type": "bool"
        },
        {
          "internalType": "uint256",
          "name": "publishExpiration",
          "type": "uint256"
        },
        {
          "internalType": "uint256",
          "name": "subscribeExpiration",
          "type": "uint256"
        },
        {
          "internalType": "bool",
          "name": "canGrant",
          "type": "bool"
        }
      ],
      "name": "setPermissionsForUser",
      "outputs": [],
      "stateMutability": "nonpayable",
      "type": "function"
    },
    {
      "inputs": [
        {
          "internalType": "string",
          "name": "streamId",
          "type": "string"
        },
        {
          "internalType": "uint256",
          "name": "publishExpiration",
          "type": "uint256"
        },
        {
          "internalType": "uint256",
          "name": "subscribeExpiration",
          "type": "uint256"
        }
      ],
      "name": "setPublicPermission",
      "outputs": [],
      "stateMutability": "nonpayable",
      "type": "function"
    },
    {
      "inputs": [
        {
          "internalType": "string",
          "name": "",
          "type": "string"
        }
      ],
      "name": "streamIdToMetadata",
      "outputs": [
        {
          "internalType": "string",
          "name": "",
          "type": "string"
        }
      ],
      "stateMutability": "view",
      "type": "function"
    },
    {
      "inputs": [
        {
          "internalType": "string",
          "name": "",
          "type": "string"
        },
        {
          "internalType": "bytes32",
          "name": "",
          "type": "bytes32"
        }
      ],
      "name": "streamIdToPermissions",
      "outputs": [
        {
          "internalType": "bool",
          "name": "canEdit",
          "type": "bool"
        },
        {
          "internalType": "bool",
          "name": "canDelete",
          "type": "bool"
        },
        {
          "internalType": "uint256",
          "name": "publishExpiration",
          "type": "uint256"
        },
        {
          "internalType": "uint256",
          "name": "subscribeExpiration",
          "type": "uint256"
        },
        {
          "internalType": "bool",
          "name": "canGrant",
          "type": "bool"
        }
      ],
      "stateMutability": "view",
      "type": "function"
    },
    {
      "inputs": [
        {
          "internalType": "bytes4",
          "name": "interfaceId",
          "type": "bytes4"
        }
      ],
      "name": "supportsInterface",
      "outputs": [
        {
          "internalType": "bool",
          "name": "",
          "type": "bool"
        }
      ],
      "stateMutability": "view",
      "type": "function"
    },
    {
      "inputs": [
        {
          "internalType": "string",
          "name": "streamId",
          "type": "string"
        },
        {
          "internalType": "address",
          "name": "recipient",
          "type": "address"
        }
      ],
      "name": "transferAllPermissionsToUser",
      "outputs": [],
      "stateMutability": "nonpayable",
      "type": "function"
    },
    {
      "inputs": [
        {
          "internalType": "string",
          "name": "streamId",
          "type": "string"
        },
        {
          "internalType": "address",
          "name": "recipient",
          "type": "address"
        },
        {
          "internalType": "enum StreamRegistry.PermissionType",
          "name": "permissionType",
          "type": "uint8"
        }
      ],
      "name": "transferPermissionToUser",
      "outputs": [],
      "stateMutability": "nonpayable",
      "type": "function"
    },
    {
      "inputs": [
        {
          "internalType": "string",
          "name": "streamId",
          "type": "string"
        },
        {
          "internalType": "address",
          "name": "user",
          "type": "address"
        },
        {
          "internalType": "bool",
          "name": "canEdit",
          "type": "bool"
        },
        {
          "internalType": "bool",
          "name": "deletePerm",
          "type": "bool"
        },
        {
          "internalType": "uint256",
          "name": "publishExpiration",
          "type": "uint256"
        },
        {
          "internalType": "uint256",
          "name": "subscribeExpiration",
          "type": "uint256"
        },
        {
          "internalType": "bool",
          "name": "canGrant",
          "type": "bool"
        }
      ],
      "name": "trustedSetPermissionsForUser",
      "outputs": [],
      "stateMutability": "nonpayable",
      "type": "function"
    },
    {
      "inputs": [
        {
          "internalType": "string",
          "name": "streamId",
          "type": "string"
        },
        {
          "internalType": "string",
          "name": "metadata",
          "type": "string"
        }
      ],
      "name": "trustedSetStreamMetadata",
      "outputs": [],
      "stateMutability": "nonpayable",
      "type": "function"
    },
    {
      "inputs": [
        {
          "internalType": "string",
          "name": "streamId",
          "type": "string"
        },
        {
          "internalType": "string",
          "name": "metadata",
          "type": "string"
        },
        {
          "internalType": "address",
          "name": "user",
          "type": "address"
        },
        {
          "internalType": "bool",
          "name": "canEdit",
          "type": "bool"
        },
        {
          "internalType": "bool",
          "name": "deletePerm",
          "type": "bool"
        },
        {
          "internalType": "uint256",
          "name": "publishExpiration",
          "type": "uint256"
        },
        {
          "internalType": "uint256",
          "name": "subscribeExpiration",
          "type": "uint256"
        },
        {
          "internalType": "bool",
          "name": "canGrant",
          "type": "bool"
        }
      ],
      "name": "trustedSetStreamWithPermission",
      "outputs": [],
      "stateMutability": "nonpayable",
      "type": "function"
    },
    {
      "inputs": [
        {
          "internalType": "string[]",
          "name": "streamids",
          "type": "string[]"
        },
        {
          "internalType": "address[]",
          "name": "users",
          "type": "address[]"
        },
        {
          "internalType": "string[]",
          "name": "metadatas",
          "type": "string[]"
        },
        {
          "components": [
            {
              "internalType": "bool",
              "name": "canEdit",
              "type": "bool"
            },
            {
              "internalType": "bool",
              "name": "canDelete",
              "type": "bool"
            },
            {
              "internalType": "uint256",
              "name": "publishExpiration",
              "type": "uint256"
            },
            {
              "internalType": "uint256",
              "name": "subscribeExpiration",
              "type": "uint256"
            },
            {
              "internalType": "bool",
              "name": "canGrant",
              "type": "bool"
            }
          ],
          "internalType": "struct StreamRegistry.Permission[]",
          "name": "permissions",
          "type": "tuple[]"
        }
      ],
      "name": "trustedSetStreams",
      "outputs": [],
      "stateMutability": "nonpayable",
      "type": "function"
    },
    {
      "inputs": [
        {
          "internalType": "string",
          "name": "streamId",
          "type": "string"
        },
        {
          "internalType": "string",
          "name": "metadata",
          "type": "string"
        }
      ],
      "name": "updateStreamMetadata",
      "outputs": [],
      "stateMutability": "nonpayable",
      "type": "function"
    },
    {
      "inputs": [
        {
          "internalType": "address",
          "name": "newImplementation",
          "type": "address"
        }
      ],
      "name": "upgradeTo",
      "outputs": [],
      "stateMutability": "nonpayable",
      "type": "function"
    },
    {
      "inputs": [
        {
          "internalType": "address",
          "name": "newImplementation",
          "type": "address"
        },
        {
          "internalType": "bytes",
          "name": "data",
          "type": "bytes"
        }
      ],
      "name": "upgradeToAndCall",
      "outputs": [],
      "stateMutability": "payable",
      "type": "function"
    }
  ],
  "bytecode": "0x60a06040523060601b60805234801561001757600080fd5b5060805160601c61521d61004b600039600081816110b3015281816110f30152818161153a015261157a015261521d6000f3fe60806040526004361061027d5760003560e01c80635e57966d1161014f578063997e8aaa116100c1578063d547741f1161007a578063d547741f146107fc578063dbfc1d871461081c578063e8f3828e1461083c578063f36d48491461085c578063f7f5078c146108f3578063fb5642a01461091357600080fd5b8063997e8aaa146106ff578063a020aa971461071f578063a217fddf14610787578063a8989d3f1461079c578063b6a91597146107bc578063d2d78c3e146107dc57600080fd5b806379afefcd1161011357806379afefcd1461063f5780637b3681b51461065f57806386902fe91461067f57806388b210381461069f5780638a043af8146106bf57806391d14854146106df57600080fd5b80635e57966d146105925780636394fbd2146105bf5780636453cbd7146105df5780636beff96d146105ff57806378800c761461061f57600080fd5b806333fb4ac5116101f3578063466f878e116101ac578063466f878e146104ce578063485cc955146104ee5780634f1ef2861461050e57806350b5422b14610521578063572b6c05146105415780635901692e1461057057600080fd5b806333fb4ac51461040d578063353f85001461042d57806336568abe1461044e5780633659cfe61461046e5780633e397aea1461048e57806342617fe7146104ae57600080fd5b80630ef8cdc7116102455780630ef8cdc71461033d578063237e03da1461035d578063248a9ca31461037d578063261a323e146103ad578063272cc993146103cd5780632f2ff15d146103ed57600080fd5b806301ffc9a714610282578063022bf1d1146102b75780630843564a146102d9578063098d32281461030757806309a7e6ef1461031d575b600080fd5b34801561028e57600080fd5b506102a261029d3660046144f8565b610933565b60405190151581526020015b60405180910390f35b3480156102c357600080fd5b506102d76102d2366004614724565b61096a565b005b3480156102e557600080fd5b506102f96102f4366004614a2d565b610b63565b6040519081526020016102ae565b34801561031357600080fd5b506102f960001981565b34801561032957600080fd5b506102d76103383660046147fe565b610bc2565b34801561034957600080fd5b506102d76103583660046147fe565b610c59565b34801561036957600080fd5b506102d7610378366004614869565b610c7c565b34801561038957600080fd5b506102f96103983660046144ba565b600090815260fb602052604090206001015490565b3480156103b957600080fd5b506102a26103c8366004614522565b610d29565b3480156103d957600080fd5b506102d76103e83660046147ab565b610d61565b3480156103f957600080fd5b506102d76104083660046144d3565b610e09565b34801561041957600080fd5b506102d76104283660046143f7565b610e3b565b34801561043957600080fd5b506000805160206151a18339815191526102f9565b34801561045a57600080fd5b506102d76104693660046144d3565b61101a565b34801561047a57600080fd5b506102d761048936600461427b565b6110a8565b34801561049a57600080fd5b506102d76104a9366004614652565b611171565b3480156104ba57600080fd5b506102d76104c93660046147fe565b611247565b3480156104da57600080fd5b506102d76104e93660046147ab565b611395565b3480156104fa57600080fd5b506102d76105093660046142b5565b61143d565b6102d761051c3660046142ee565b61152f565b34801561052d57600080fd5b506102d761053c366004614563565b6115e5565b34801561054d57600080fd5b506102a261055c36600461427b565b6097546001600160a01b0391821691161490565b34801561057c57600080fd5b506102f96000805160206151a183398151915281565b34801561059e57600080fd5b506105b26105ad36600461427b565b611778565b6040516102ae9190614d3e565b3480156105cb57600080fd5b506105b26105da366004614522565b611963565b3480156105eb57600080fd5b506102d76105fa366004614522565b611a41565b34801561060b57600080fd5b506102d761061a366004614563565b611b8f565b34801561062b57600080fd5b506102d761063a36600461492f565b611e07565b34801561064b57600080fd5b506102d761065a36600461427b565b611f67565b34801561066b57600080fd5b506102d761067a3660046146b7565b611fc0565b34801561068b57600080fd5b506105b261069a3660046149f9565b612205565b3480156106ab57600080fd5b506102a26106ba366004614652565b6122ab565b3480156106cb57600080fd5b506102d76106da366004614652565b6122d7565b3480156106eb57600080fd5b506102a26106fa3660046144d3565b61232f565b34801561070b57600080fd5b506102d761071a366004614652565b61235a565b34801561072b57600080fd5b5061073f61073a366004614563565b612403565b6040516102ae9190600060a082019050825115158252602083015115156020830152604083015160408301526060830151606083015260808301511515608083015292915050565b34801561079357600080fd5b506102f9600081565b3480156107a857600080fd5b506102d76107b73660046149a9565b6124fc565b3480156107c857600080fd5b506102d76107d73660046145b9565b6125aa565b3480156107e857600080fd5b506102d76107f73660046145b9565b6125fa565b34801561080857600080fd5b506102d76108173660046144d3565b6126a5565b34801561082857600080fd5b506102d7610837366004614351565b6126cd565b34801561084857600080fd5b5061073f610857366004614563565b6127e3565b34801561086857600080fd5b506108c7610877366004614a73565b815160208184018101805161012d8252928201948201949094209190935290915260009081526040902080546001820154600283015460039093015460ff80841694610100909404811693911685565b60408051951515865293151560208601529284019190915260608301521515608082015260a0016102ae565b3480156108ff57600080fd5b506102a261090e366004614652565b6129ec565b34801561091f57600080fd5b506102a261092e3660046147ab565b612cf4565b60006001600160e01b03198216637965db0b60e01b148061096457506301ffc9a760e01b6001600160e01b03198316145b92915050565b858561012d828260405161097f929190614ba7565b908152602001604051809103902060006109d284848080601f0160208091040260200160405190810160405280939291908181526020018383808284376000920191909152506102f49250612d0d915050565b815260208101919091526040016000206003015460ff16610a0e5760405162461bcd60e51b8152600401610a0590614f02565b60405180910390fd5b848314610a5d5760405162461bcd60e51b815260206004820152601e60248201527f6572726f725f696e76616c6964496e70757441727261794c656e6774687300006044820152606401610a05565b8460005b81811015610b57576000868683818110610a7d57610a7d61511f565b905060a00201803603810190610a939190614ab7565b9050610adc8b8b8b8b86818110610aac57610aac61511f565b9050602002016020810190610ac1919061427b565b84516020860151604087015160608801516080890151612d1c565b6000805160206151618339815191528b8b8b8b86818110610aff57610aff61511f565b9050602002016020810190610b14919061427b565b84516020860151604080880151606089015160808a01519251610b3c98979695949390614c62565b60405180910390a15080610b4f816150d8565b915050610a61565b50505050505050505050565b600061013083604051610b769190614b8b565b9081526040805191829003602090810183205463ffffffff16908301526001600160a01b0384169082015260600160405160208183030381529060405280519060200120905092915050565b610bdc6000805160206151a18339815191526106fa612d0d565b610bf85760405162461bcd60e51b8152600401610a0590614e9f565b818161012e8686604051610c0d929190614ba7565b908152604051908190036020019020610c27929091613ff1565b5060008051602061518183398151915284848484604051610c4b9493929190614cb3565b60405180910390a150505050565b6000610c666105ad612d0d565b9050610c758186868686612e80565b5050505050565b610c966000805160206151a18339815191526106fa612d0d565b610cb25760405162461bcd60e51b8152600401610a0590614e9f565b878761012e8c8c604051610cc7929190614ba7565b908152604051908190036020019020610ce1929091613ff1565b50610cf28a8a888888888888612d1c565b6000805160206151818339815191528a8a8a8a604051610d159493929190614cb3565b60405180910390a150505050505050505050565b600061012e8383604051610d3e929190614ba7565b90815260200160405180910390208054610d579061509d565b1515949350505050565b828261012d8282604051610d76929190614ba7565b90815260200160405180910390206000610dc984848080601f0160208091040260200160405190810160405280939291908181526020018383808284376000920191909152506102f49250612d0d915050565b815260208101919091526040016000206003015460ff16610dfc5760405162461bcd60e51b8152600401610a0590614f02565b610c758585600086611171565b600082815260fb6020526040902060010154610e2c81610e27612d0d565b6133ba565b610e36838361341e565b505050565b610e556000805160206151a18339815191526106fa612d0d565b610e715760405162461bcd60e51b8152600401610a0590614e9f565b8660005b81811015610b57573660008b8b84818110610e9257610e9261511f565b9050602002810190610ea49190614fb5565b91509150878784818110610eba57610eba61511f565b9050602002810190610ecc9190614fb5565b61012e8484604051610edf929190614ba7565b908152604051908190036020019020610ef9929091613ff1565b506000868685818110610f0e57610f0e61511f565b905060a00201803603810190610f249190614ab7565b9050610f3d83838d8d88818110610aac57610aac61511f565b7f0db027888a30ca08149af1347f6ce2f48daffedd9d6d21ab6249c4d802ce592f83838b8b88818110610f7257610f7261511f565b9050602002810190610f849190614fb5565b604051610f949493929190614cb3565b60405180910390a160008051602061516183398151915283838d8d88818110610fbf57610fbf61511f565b9050602002016020810190610fd4919061427b565b84516020860151604080880151606089015160808a01519251610ffc98979695949390614c62565b60405180910390a15050508080611012906150d8565b915050610e75565b611022612d0d565b6001600160a01b0316816001600160a01b03161461109a5760405162461bcd60e51b815260206004820152602f60248201527f416363657373436f6e74726f6c3a2063616e206f6e6c792072656e6f756e636560448201526e103937b632b9903337b91039b2b63360891b6064820152608401610a05565b6110a482826134a5565b5050565b306001600160a01b037f00000000000000000000000000000000000000000000000000000000000000001614156110f15760405162461bcd60e51b8152600401610a0590614e07565b7f00000000000000000000000000000000000000000000000000000000000000006001600160a01b031661112361352a565b6001600160a01b0316146111495760405162461bcd60e51b8152600401610a0590614e53565b61115281613558565b6040805160008082526020820190925261116e9183919061358e565b50565b83838361012d8383604051611187929190614ba7565b908152602001604051809103902060006111da85858080601f0160208091040260200160405190810160405280939291908181526020018383808284376000920191909152506102f49250612d0d915050565b815260208101919091526040016000206003015460ff16806112145750806001600160a01b0316611209612d0d565b6001600160a01b0316145b6112305760405162461bcd60e51b8152600401610a0590614f02565b61123e8787878760006136d2565b50505050505050565b83836112538282610d29565b61126f5760405162461bcd60e51b8152600401610a0590614ed0565b858561012d8282604051611284929190614ba7565b908152602001604051809103902060006112d784848080601f0160208091040260200160405190810160405280939291908181526020018383808284376000920191909152506102f49250612d0d915050565b815260208101919091526040016000205460ff166113305760405162461bcd60e51b815260206004820152601660248201527532b93937b92fb737a2b234ba2832b936b4b9b9b4b7b760511b6044820152606401610a05565b858561012e8a8a604051611345929190614ba7565b90815260405190819003602001902061135f929091613ff1565b50600080516020615181833981519152888888886040516113839493929190614cb3565b60405180910390a15050505050505050565b828261012d82826040516113aa929190614ba7565b908152602001604051809103902060006113fd84848080601f0160208091040260200160405190810160405280939291908181526020018383808284376000920191909152506102f49250612d0d915050565b815260208101919091526040016000206003015460ff166114305760405162461bcd60e51b8152600401610a0590614f02565b610c75858560008661235a565b600054610100900460ff166114585760005460ff161561145c565b303b155b6114bf5760405162461bcd60e51b815260206004820152602e60248201527f496e697469616c697a61626c653a20636f6e747261637420697320616c72656160448201526d191e481a5b9a5d1a585b1a5e995960921b6064820152608401610a05565b600054610100900460ff161580156114e1576000805461ffff19166101011790555b61012f80546001600160a01b0319166001600160a01b038516179055611505613b32565b611510600033613b73565b61151982613b7d565b8015610e36576000805461ff0019169055505050565b306001600160a01b037f00000000000000000000000000000000000000000000000000000000000000001614156115785760405162461bcd60e51b8152600401610a0590614e07565b7f00000000000000000000000000000000000000000000000000000000000000006001600160a01b03166115aa61352a565b6001600160a01b0316146115d05760405162461bcd60e51b8152600401610a0590614e53565b6115d982613558565b6110a48282600161358e565b82828261012d83836040516115fb929190614ba7565b9081526020016040518091039020600061164e85858080601f0160208091040260200160405190810160405280939291908181526020018383808284376000920191909152506102f49250612d0d915050565b815260208101919091526040016000206003015460ff16806116885750806001600160a01b031661167d612d0d565b6001600160a01b0316145b6116a45760405162461bcd60e51b8152600401610a0590614f02565b61012d86866040516116b7929190614ba7565b9081526020016040518091039020600061170888888080601f0160208091040260200160405190810160405280939291908181526020018383808284376000920191909152508a9250610b63915050565b8152602081019190915260409081016000908120805461ffff191681556001810182905560028101829055600301805460ff1916905590516000805160206151618339815191529161176891899189918991908190819081908190614c62565b60405180910390a1505050505050565b604080518082018252601081526f181899199a1a9b1b9c1cb0b131b232b360811b60208201528151602a80825260608281019094526001600160a01b0385169291600091602082018180368337019050509050600360fc1b816000815181106117e3576117e361511f565b60200101906001600160f81b031916908160001a905350600f60fb1b816001815181106118125761181261511f565b60200101906001600160f81b031916908160001a90535060005b601481101561195a578260048561184484600c614ffb565b602081106118545761185461511f565b1a60f81b6001600160f81b031916901c60f81c60ff168151811061187a5761187a61511f565b01602001516001600160f81b0319168261189583600261503b565b6118a0906002614ffb565b815181106118b0576118b061511f565b60200101906001600160f81b031916908160001a90535082846118d483600c614ffb565b602081106118e4576118e461511f565b825191901a600f169081106118fb576118fb61511f565b01602001516001600160f81b0319168261191683600261503b565b611921906003614ffb565b815181106119315761193161511f565b60200101906001600160f81b031916908160001a90535080611952816150d8565b91505061182c565b50949350505050565b606082826119718282610d29565b61198d5760405162461bcd60e51b8152600401610a0590614ed0565b61012e85856040516119a0929190614ba7565b908152602001604051809103902080546119b99061509d565b80601f01602080910402602001604051908101604052809291908181526020018280546119e59061509d565b8015611a325780601f10611a0757610100808354040283529160200191611a32565b820191906000526020600020905b815481529060010190602001808311611a1557829003601f168201915b50505050509250505092915050565b8181611a4d8282610d29565b611a695760405162461bcd60e51b8152600401610a0590614ed0565b838361012d8282604051611a7e929190614ba7565b90815260200160405180910390206000611ad184848080601f0160208091040260200160405190810160405280939291908181526020018383808284376000920191909152506102f49250612d0d915050565b8152602081019190915260400160002054610100900460ff16611b315760405162461bcd60e51b815260206004820152601860248201527732b93937b92fb737a232b632ba32a832b936b4b9b9b4b7b760411b6044820152606401610a05565b61012e8686604051611b44929190614ba7565b90815260200160405180910390206000611b5e9190614075565b7f74b7395f46349d84fba706c4d226c68bbf9206c2567ae3ec2a001b5a98128eae8686604051611768929190614c4e565b600061012d8484604051611ba4929190614ba7565b90815260200160405180910390206000611bf786868080601f0160208091040260200160405190810160405280939291908181526020018383808284376000920191909152506102f49250612d0d915050565b81526020808201929092526040908101600020815160a081018352815460ff80821615158084526101009092048116151595830195909552600183015493820193909352600282015460608201526003909101549092161515608083015290915080611c64575080602001515b80611c73575060008160400151115b80611c82575060008160600151115b80611c8e575080608001515b611caa5760405162461bcd60e51b8152600401610a0590614f33565b600061012d8585604051611cbf929190614ba7565b90815260200160405180910390206000611d1087878080601f016020809104026020016040519081016040528093929190818152602001838380828437600092019190915250899250610b63915050565b815260208082019290925260409081016000908120825160a081018452815460ff80821615158352610100909104811615159582019590955260018201548185018190526002830154606083015260039092015490941615156080850152918501519293509111611d85578160400151611d8b565b82604001515b905060008260600151846060015111611da8578260600151611dae565b83606001515b9050611ded878787876000015180611dc4575086515b886020015180611dd5575087602001515b87878b6080015180611de857508a608001515b612d1c565b61123e8787611dfa612d0d565b6000806000806000612d1c565b611e0f612d0d565b61012f54604051632b1fd99560e01b81526001600160a01b039283169290911690632b1fd99590611e46908a908a90600401614c4e565b60206040518083038186803b158015611e5e57600080fd5b505afa158015611e72573d6000803e3d6000fd5b505050506040513d601f19601f82011682018060405250810190611e969190614298565b6001600160a01b03161415611eef57611eea86868080601f01602080910402602001604051908101604052809392919081815260200183838082843760009201919091525088925087915086905085612e80565b611f5f565b61012f546001600160a01b0316631877e534878787878787611f0f612d0d565b6040518863ffffffff1660e01b8152600401611f319796959493929190614ce5565b600060405180830381600087803b158015611f4b57600080fd5b505af1158015610b57573d6000803e3d6000fd5b505050505050565b611f816000805160206151a18339815191526106fa612d0d565b611f9d5760405162461bcd60e51b8152600401610a0590614e9f565b61012f80546001600160a01b0319166001600160a01b0392909216919091179055565b848461012d8282604051611fd5929190614ba7565b9081526020016040518091039020600061202884848080601f0160208091040260200160405190810160405280939291908181526020018383808284376000920191909152506102f49250612d0d915050565b815260208101919091526040016000206003015460ff1661205b5760405162461bcd60e51b8152600401610a0590614f02565b600384600481111561206f5761206f615109565b148061208c5750600284600481111561208a5761208a615109565b145b6120d15760405162461bcd60e51b815260206004820152601660248201527532b93937b92fba34b6b2a7b7363ca7b1283ab129bab160511b6044820152606401610a05565b60028460048111156120e5576120e5615109565b1415612169578261012d88886040516120ff929190614ba7565b908152602001604051809103902060006121508a8a8080601f0160208091040260200160405190810160405280939291908181526020018383808284376000920191909152508c9250610b63915050565b815260208101919091526040016000206001015561123e565b600384600481111561217d5761217d615109565b141561123e578261012d8888604051612197929190614ba7565b908152602001604051809103902060006121e88a8a8080601f0160208091040260200160405190810160405280939291908181526020018383808284376000920191909152508c9250610b63915050565b815260208101919091526040016000206002015550505050505050565b805160208183018101805161012e825292820191909301209152805461222a9061509d565b80601f01602080910402602001604051908101604052809291908181526020018280546122569061509d565b80156122a35780601f10612278576101008083540402835291602001916122a3565b820191906000526020600020905b81548152906001019060200180831161228657829003601f168201915b505050505081565b60006122b9858585856129ec565b806122cc57506122cc85856000856129ec565b90505b949350505050565b6122ea84846122e4612d0d565b846129ec565b6123065760405162461bcd60e51b8152600401610a0590614f33565b61231b8484612313612d0d565b8460006136d2565b6123298484848460016136d2565b50505050565b600091825260fb602090815260408084206001600160a01b0393909316845291905290205460ff1690565b838361012d828260405161236f929190614ba7565b908152602001604051809103902060006123c284848080601f0160208091040260200160405190810160405280939291908181526020018383808284376000920191909152506102f49250612d0d915050565b815260208101919091526040016000206003015460ff166123f55760405162461bcd60e51b8152600401610a0590614f02565b611f5f8686868660016136d2565b61240b6140af565b83836124178282610d29565b6124335760405162461bcd60e51b8152600401610a0590614ed0565b61012d8686604051612446929190614ba7565b9081526020016040518091039020600061249788888080601f0160208091040260200160405190810160405280939291908181526020018383808284376000920191909152508a9250610b63915050565b81526020808201929092526040908101600020815160a081018352815460ff8082161515835261010090910481161515948201949094526001820154928101929092526002810154606083015260030154909116151560808201529695505050505050565b838361012d8282604051612511929190614ba7565b9081526020016040518091039020600061256484848080601f0160208091040260200160405190810160405280939291908181526020018383808284376000920191909152506102f49250612d0d915050565b815260208101919091526040016000206003015460ff166125975760405162461bcd60e51b8152600401610a0590614f02565b611f5f86866000806000898960006125fa565b6125c46000805160206151a18339815191526106fa612d0d565b6125e05760405162461bcd60e51b8152600401610a0590614e9f565b6125f08888888888888888612d1c565b5050505050505050565b878761012d828260405161260f929190614ba7565b9081526020016040518091039020600061266284848080601f0160208091040260200160405190810160405280939291908181526020018383808284376000920191909152506102f49250612d0d915050565b815260208101919091526040016000206003015460ff166126955760405162461bcd60e51b8152600401610a0590614f02565b610b578a8a8a8a8a8a8a8a612d1c565b600082815260fb60205260409020600101546126c381610e27612d0d565b610e3683836134a5565b6126e76000805160206151a18339815191526106fa612d0d565b6127035760405162461bcd60e51b8152600401610a0590614e9f565b61012f54604051632b1fd99560e01b81526001600160a01b03808916921690632b1fd99590612736908990600401614d3e565b60206040518083038186803b15801561274e57600080fd5b505afa158015612762573d6000803e3d6000fd5b505050506040513d601f19601f820116820180604052508101906127869190614298565b6001600160a01b0316146127d65760405162461bcd60e51b81526020600482015260176024820152766572726f725f6e6f744f776e65724f66454e534e616d6560481b6044820152606401610a05565b611f5f8585858585612e80565b6127eb6140af565b83836127f78282610d29565b6128135760405162461bcd60e51b8152600401610a0590614ed0565b61012d8686604051612826929190614ba7565b9081526020016040518091039020600061287788888080601f0160208091040260200160405190810160405280939291908181526020018383808284376000920191909152508a9250610b63915050565b815260208082019290925260409081016000908120825160a081018452815460ff808216151583526101009091048116151595820195909552600182015481850152600282015460608201526003909101549093161515608084015290519194509061012d906128ea9089908990614ba7565b9081526020016040518091039020600061293989898080601f01602080910402602001604051908101604052809392919081815260200183838082843760009201829052509250610b63915050565b81526020808201929092526040908101600020815160a081018352815460ff8082161515835261010090910481161515948201949094526001820154818401526002820154606082015260039091015490921615156080830152850151909150421180156129ab575042816040015110155b156129bb57604080820151908501525b4284606001511080156129d2575042816060015110155b156129e257606080820151908501525b5050509392505050565b600080826004811115612a0157612a01615109565b1415612a865761012d8585604051612a1a929190614ba7565b90815260200160405180910390206000612a6b87878080601f016020809104026020016040519081016040528093929190818152602001838380828437600092019190915250899250610b63915050565b815260208101919091526040016000205460ff1690506122cf565b6001826004811115612a9a57612a9a615109565b1415612b245761012d8585604051612ab3929190614ba7565b90815260200160405180910390206000612b0487878080601f016020809104026020016040519081016040528093929190818152602001838380828437600092019190915250899250610b63915050565b8152602081019190915260400160002054610100900460ff1690506122cf565b6002826004811115612b3857612b38615109565b1415612bbe574261012d8686604051612b52929190614ba7565b90815260200160405180910390206000612ba388888080601f0160208091040260200160405190810160405280939291908181526020018383808284376000920191909152508a9250610b63915050565b815260200190815260200160002060010154101590506122cf565b6003826004811115612bd257612bd2615109565b1415612c58574261012d8686604051612bec929190614ba7565b90815260200160405180910390206000612c3d88888080601f0160208091040260200160405190810160405280939291908181526020018383808284376000920191909152508a9250610b63915050565b815260200190815260200160002060020154101590506122cf565b6004826004811115612c6c57612c6c615109565b14156122cf5761012d8585604051612c85929190614ba7565b90815260200160405180910390206000612cd687878080601f016020809104026020016040519081016040528093929190818152602001838380828437600092019190915250899250610b63915050565b815260208101919091526040016000206003015460ff1690506122cf565b6000612d0384846000856129ec565b90505b9392505050565b6000612d17613bb5565b905090565b6001600160a01b038616151580612d4157508480612d375750835b80612d3f5750805b155b612d5d5760405162461bcd60e51b8152600401610a0590614dd0565b6040518060a001604052808615158152602001851515815260200184815260200183815260200182151581525061012d8989604051612d9d929190614ba7565b90815260200160405180910390206000612dee8b8b8080601f0160208091040260200160405190810160405280939291908181526020018383808284376000920191909152508d9250610b63915050565b81526020808201929092526040908101600020835181549385015161ffff1990941690151561ff0019161761010093151593909302929092178255828101516001830155606083015160028301556080909201516003909101805460ff19169115159190911790555160008051602061516183398151915290611383908a908a908a908a908a908a908a908a90614c62565b80612ecd5760405162461bcd60e51b815260206004820152601f60248201527f6572726f725f6d657461646174614a736f6e537472696e674973456d707479006044820152606401610a05565b600084848080601f0160208091040260200160405190810160405280939291908181526020018383808284376000920191909152509293506001925050505b81518110156130cd57818181518110612f2757612f2761511f565b01602001516001600160f81b031916602d60f81b11801590612f775750603960f81b6001600160f81b031916828281518110612f6557612f6561511f565b01602001516001600160f81b03191611155b80612fdf5750818181518110612f8f57612f8f61511f565b01602001516001600160f81b031916604160f81b11801590612fdf5750602d60f91b6001600160f81b031916828281518110612fcd57612fcd61511f565b01602001516001600160f81b03191611155b806130475750818181518110612ff757612ff761511f565b01602001516001600160f81b031916606160f81b118015906130475750603d60f91b6001600160f81b0319168282815181106130355761303561511f565b01602001516001600160f81b03191611155b80613076575081818151811061305f5761305f61511f565b6020910101516001600160f81b031916605f60f81b145b6130bb5760405162461bcd60e51b81526020600482015260166024820152756572726f725f696e76616c696450617468436861727360501b6044820152606401610a05565b806130c5816150d8565b915050612f0c565b50806000815181106130e1576130e161511f565b6020910101516001600160f81b031916602f60f81b146131435760405162461bcd60e51b815260206004820152601c60248201527f6572726f725f706174684d757374537461727457697468536c617368000000006044820152606401610a05565b600086868660405160200161315a93929190614bb7565b604051602081830303815290604052905061012e8160405161317c9190614b8b565b908152602001604051809103902080546131959061509d565b1590506131e05760405162461bcd60e51b81526020600482015260196024820152786572726f725f73747265616d416c726561647945786973747360381b6044820152606401610a05565b610130816040516131f19190614b8b565b908152604051908190036020019020546132129063ffffffff166001615013565b610130826040516132239190614b8b565b908152602001604051809103902060006101000a81548163ffffffff021916908363ffffffff160217905550838361012e836040516132629190614b8b565b90815260405190819003602001902061327c929091613ff1565b506040805160a08101825260018082526020820181905260001982840181905260608301526080820152905161012d906132b7908490614b8b565b908152602001604051809103902060006132d3846102f4612d0d565b81526020808201929092526040908101600020835181549385015161ffff1990941690151561ff0019161761010093151593909302929092178255828101516001830155606083015160028301556080909201516003909101805460ff1916911515919091179055517f0db027888a30ca08149af1347f6ce2f48daffedd9d6d21ab6249c4d802ce592f9061336d90839087908790614da0565b60405180910390a16000805160206151618339815191528161338d612d0d565b6001806000198060016040516133a99796959493929190614d51565b60405180910390a150505050505050565b6133c4828261232f565b6110a4576133dc816001600160a01b03166014613bdd565b6133e7836020613bdd565b6040516020016133f8929190614bdf565b60408051601f198184030181529082905262461bcd60e51b8252610a0591600401614d3e565b613428828261232f565b6110a457600082815260fb602090815260408083206001600160a01b03851684529091529020805460ff19166001179055613461612d0d565b6001600160a01b0316816001600160a01b0316837f2f8788117e7eff1d82e926ec794901d17c78024a50270940304540a733656f0d60405160405180910390a45050565b6134af828261232f565b156110a457600082815260fb602090815260408083206001600160a01b03851684529091529020805460ff191690556134e6612d0d565b6001600160a01b0316816001600160a01b0316837ff6391f5c32d9c69d2a47ea670b442974b53935d1edc7fd64eb21e047a839171b60405160405180910390a45050565b7f360894a13ba1a3210667c828492db98dca3e2076cc3735a920a3ca505d382bbc546001600160a01b031690565b6135726000805160206151a18339815191526106fa612d0d565b61116e5760405162461bcd60e51b8152600401610a0590614e9f565b600061359861352a565b90506135a384613d78565b6000835111806135b05750815b156135c1576135bf8484613e1d565b505b7f4910fdfa16fed3260ed0e7147f7cc6da11a60208b5b9406d12a635614ffd9143805460ff16610c7557805460ff191660011781556040516001600160a01b038316602482015261364090869060440160408051601f198184030181529190526020810180516001600160e01b0316631b2ce7f360e11b179052613e1d565b50805460ff1916815561365161352a565b6001600160a01b0316826001600160a01b0316146136c95760405162461bcd60e51b815260206004820152602f60248201527f45524331393637557067726164653a207570677261646520627265616b73206660448201526e75727468657220757067726164657360881b6064820152608401610a05565b610c7585613f08565b6001600160a01b0383161515806136fa575060038260048111156136f8576136f8615109565b145b806137165750600282600481111561371457613714615109565b145b6137325760405162461bcd60e51b8152600401610a0590614dd0565b600082600481111561374657613746615109565b14156137d5578061012d8686604051613760929190614ba7565b908152602001604051809103902060006137b188888080601f0160208091040260200160405190810160405280939291908181526020018383808284376000920191909152508a9250610b63915050565b81526020810191909152604001600020805460ff1916911515919091179055613a6f565b60018260048111156137e9576137e9615109565b141561387f578061012d8686604051613803929190614ba7565b9081526020016040518091039020600061385488888080601f0160208091040260200160405190810160405280939291908181526020018383808284376000920191909152508a9250610b63915050565b8152602081019190915260400160002080549115156101000261ff0019909216919091179055613a6f565b600282600481111561389357613893615109565b141561392657806138a55760006138a9565b6000195b61012d86866040516138bc929190614ba7565b9081526020016040518091039020600061390d88888080601f0160208091040260200160405190810160405280939291908181526020018383808284376000920191909152508a9250610b63915050565b8152602081019190915260400160002060010155613a6f565b600382600481111561393a5761393a615109565b14156139cd578061394c576000613950565b6000195b61012d8686604051613963929190614ba7565b908152602001604051809103902060006139b488888080601f0160208091040260200160405190810160405280939291908181526020018383808284376000920191909152508a9250610b63915050565b8152602081019190915260400160002060020155613a6f565b60048260048111156139e1576139e1615109565b1415613a6f578061012d86866040516139fb929190614ba7565b90815260200160405180910390206000613a4c88888080601f0160208091040260200160405190810160405280939291908181526020018383808284376000920191909152508a9250610b63915050565b81526020810191909152604001600020600301805460ff19169115159190911790555b600061012d8686604051613a84929190614ba7565b90815260200160405180910390206000613ad588888080601f0160208091040260200160405190810160405280939291908181526020018383808284376000920191909152508a9250610b63915050565b8152602081019190915260409081016000208054600182015460028301546003840154945193955060008051602061516183398151915294611768948c948c948c9460ff8084169561010090940481169492939192911690614c62565b600054610100900460ff16613b595760405162461bcd60e51b8152600401610a0590614f6a565b613b61613f48565b613b69613f48565b613b71613f48565b565b6110a4828261341e565b600054610100900460ff16613ba45760405162461bcd60e51b8152600401610a0590614f6a565b613bac613f48565b61116e81613f6f565b6097546000906001600160a01b0316331415613bd8575060131936013560601c90565b503390565b60606000613bec83600261503b565b613bf7906002614ffb565b6001600160401b03811115613c0e57613c0e615135565b6040519080825280601f01601f191660200182016040528015613c38576020820181803683370190505b509050600360fc1b81600081518110613c5357613c5361511f565b60200101906001600160f81b031916908160001a905350600f60fb1b81600181518110613c8257613c8261511f565b60200101906001600160f81b031916908160001a9053506000613ca684600261503b565b613cb1906001614ffb565b90505b6001811115613d29576f181899199a1a9b1b9c1cb0b131b232b360811b85600f1660108110613ce557613ce561511f565b1a60f81b828281518110613cfb57613cfb61511f565b60200101906001600160f81b031916908160001a90535060049490941c93613d2281615086565b9050613cb4565b508315612d065760405162461bcd60e51b815260206004820181905260248201527f537472696e67733a20686578206c656e67746820696e73756666696369656e746044820152606401610a05565b803b613ddc5760405162461bcd60e51b815260206004820152602d60248201527f455243313936373a206e657720696d706c656d656e746174696f6e206973206e60448201526c1bdd08184818dbdb9d1c9858dd609a1b6064820152608401610a05565b7f360894a13ba1a3210667c828492db98dca3e2076cc3735a920a3ca505d382bbc80546001600160a01b0319166001600160a01b0392909216919091179055565b6060823b613e7c5760405162461bcd60e51b815260206004820152602660248201527f416464726573733a2064656c65676174652063616c6c20746f206e6f6e2d636f6044820152651b9d1c9858dd60d21b6064820152608401610a05565b600080846001600160a01b031684604051613e979190614b8b565b600060405180830381855af49150503d8060008114613ed2576040519150601f19603f3d011682016040523d82523d6000602084013e613ed7565b606091505b5091509150613eff82826040518060600160405280602781526020016151c160279139613fb8565b95945050505050565b613f1181613d78565b6040516001600160a01b038216907fbc7cd75a20ee27fd9adebab32041f755214dbc6bffa90cc0225b39da2e5c2d3b90600090a250565b600054610100900460ff16613b715760405162461bcd60e51b8152600401610a0590614f6a565b600054610100900460ff16613f965760405162461bcd60e51b8152600401610a0590614f6a565b609780546001600160a01b0319166001600160a01b0392909216919091179055565b60608315613fc7575081612d06565b825115613fd75782518084602001fd5b8160405162461bcd60e51b8152600401610a059190614d3e565b828054613ffd9061509d565b90600052602060002090601f01602090048101928261401f5760008555614065565b82601f106140385782800160ff19823516178555614065565b82800160010185558215614065579182015b8281111561406557823582559160200191906001019061404a565b506140719291506140dd565b5090565b5080546140819061509d565b6000825580601f10614091575050565b601f01602090049060005260206000209081019061116e91906140dd565b6040805160a08101825260008082526020820181905291810182905260608101829052608081019190915290565b5b8082111561407157600081556001016140de565b60006001600160401b038084111561410c5761410c615135565b604051601f8501601f19908116603f0116810190828211818310171561413457614134615135565b8160405280935085815286868601111561414d57600080fd5b858560208301376000602087830101525050509392505050565b60008083601f84011261417957600080fd5b5081356001600160401b0381111561419057600080fd5b6020830191508360208260051b85010111156141ab57600080fd5b9250929050565b60008083601f8401126141c457600080fd5b5081356001600160401b038111156141db57600080fd5b60208301915083602060a0830285010111156141ab57600080fd5b8035801515811461420657600080fd5b919050565b80356005811061420657600080fd5b60008083601f84011261422c57600080fd5b5081356001600160401b0381111561424357600080fd5b6020830191508360208285010111156141ab57600080fd5b600082601f83011261426c57600080fd5b612d06838335602085016140f2565b60006020828403121561428d57600080fd5b8135612d068161514b565b6000602082840312156142aa57600080fd5b8151612d068161514b565b600080604083850312156142c857600080fd5b82356142d38161514b565b915060208301356142e38161514b565b809150509250929050565b6000806040838503121561430157600080fd5b823561430c8161514b565b915060208301356001600160401b0381111561432757600080fd5b8301601f8101851361433857600080fd5b614347858235602084016140f2565b9150509250929050565b6000806000806000806080878903121561436a57600080fd5b86356143758161514b565b955060208701356001600160401b038082111561439157600080fd5b61439d8a838b0161425b565b965060408901359150808211156143b357600080fd5b6143bf8a838b0161421a565b909650945060608901359150808211156143d857600080fd5b506143e589828a0161421a565b979a9699509497509295939492505050565b6000806000806000806000806080898b03121561441357600080fd5b88356001600160401b038082111561442a57600080fd5b6144368c838d01614167565b909a50985060208b013591508082111561444f57600080fd5b61445b8c838d01614167565b909850965060408b013591508082111561447457600080fd5b6144808c838d01614167565b909650945060608b013591508082111561449957600080fd5b506144a68b828c016141b2565b999c989b5096995094979396929594505050565b6000602082840312156144cc57600080fd5b5035919050565b600080604083850312156144e657600080fd5b8235915060208301356142e38161514b565b60006020828403121561450a57600080fd5b81356001600160e01b031981168114612d0657600080fd5b6000806020838503121561453557600080fd5b82356001600160401b0381111561454b57600080fd5b6145578582860161421a565b90969095509350505050565b60008060006040848603121561457857600080fd5b83356001600160401b0381111561458e57600080fd5b61459a8682870161421a565b90945092505060208401356145ae8161514b565b809150509250925092565b60008060008060008060008060e0898b0312156145d557600080fd5b88356001600160401b038111156145eb57600080fd5b6145f78b828c0161421a565b909950975050602089013561460b8161514b565b955061461960408a016141f6565b945061462760608a016141f6565b93506080890135925060a0890135915061464360c08a016141f6565b90509295985092959890939650565b6000806000806060858703121561466857600080fd5b84356001600160401b0381111561467e57600080fd5b61468a8782880161421a565b909550935050602085013561469e8161514b565b91506146ac6040860161420b565b905092959194509250565b6000806000806000608086880312156146cf57600080fd5b85356001600160401b038111156146e557600080fd5b6146f18882890161421a565b90965094505060208601356147058161514b565b92506147136040870161420b565b949793965091946060013592915050565b6000806000806000806060878903121561473d57600080fd5b86356001600160401b038082111561475457600080fd5b6147608a838b0161421a565b9098509650602089013591508082111561477957600080fd5b6147858a838b01614167565b9096509450604089013591508082111561479e57600080fd5b506143e589828a016141b2565b6000806000604084860312156147c057600080fd5b83356001600160401b038111156147d657600080fd5b6147e28682870161421a565b90945092506147f590506020850161420b565b90509250925092565b6000806000806040858703121561481457600080fd5b84356001600160401b038082111561482b57600080fd5b6148378883890161421a565b9096509450602087013591508082111561485057600080fd5b5061485d8782880161421a565b95989497509550505050565b6000806000806000806000806000806101008b8d03121561488957600080fd5b8a356001600160401b03808211156148a057600080fd5b6148ac8e838f0161421a565b909c509a5060208d01359150808211156148c557600080fd5b506148d28d828e0161421a565b90995097505060408b01356148e68161514b565b95506148f460608c016141f6565b945061490260808c016141f6565b935060a08b0135925060c08b0135915061491e60e08c016141f6565b90509295989b9194979a5092959850565b6000806000806000806060878903121561494857600080fd5b86356001600160401b038082111561495f57600080fd5b61496b8a838b0161421a565b9098509650602089013591508082111561498457600080fd5b6149908a838b0161421a565b909650945060408901359150808211156143d857600080fd5b600080600080606085870312156149bf57600080fd5b84356001600160401b038111156149d557600080fd5b6149e18782880161421a565b90989097506020870135966040013595509350505050565b600060208284031215614a0b57600080fd5b81356001600160401b03811115614a2157600080fd5b6122cf8482850161425b565b60008060408385031215614a4057600080fd5b82356001600160401b03811115614a5657600080fd5b614a628582860161425b565b92505060208301356142e38161514b565b60008060408385031215614a8657600080fd5b82356001600160401b03811115614a9c57600080fd5b614aa88582860161425b565b95602094909401359450505050565b600060a08284031215614ac957600080fd5b60405160a081018181106001600160401b0382111715614aeb57614aeb615135565b604052614af7836141f6565b8152614b05602084016141f6565b60208201526040830135604082015260608301356060820152614b2a608084016141f6565b60808201529392505050565b81835281816020850137506000828201602090810191909152601f909101601f19169091010190565b60008151808452614b7781602086016020860161505a565b601f01601f19169290920160200192915050565b60008251614b9d81846020870161505a565b9190910192915050565b8183823760009101908152919050565b60008451614bc981846020890161505a565b8201838582376000930192835250909392505050565b76020b1b1b2b9b9a1b7b73a3937b61d1030b1b1b7bab73a1604d1b815260008351614c1181601785016020880161505a565b7001034b99036b4b9b9b4b733903937b6329607d1b6017918401918201528351614c4281602884016020880161505a565b01602801949350505050565b602081526000612d03602083018486614b36565b60e081526000614c7660e083018a8c614b36565b6001600160a01b039890981660208301525094151560408601529215156060850152608084019190915260a0830152151560c09091015292915050565b604081526000614cc7604083018688614b36565b8281036020840152614cda818587614b36565b979650505050505050565b608081526000614cf960808301898b614b36565b8281036020840152614d0c81888a614b36565b90508281036040840152614d21818688614b36565b91505060018060a01b038316606083015298975050505050505050565b602081526000612d066020830184614b5f565b60e081526000614d6460e083018a614b5f565b6001600160a01b039890981660208301525094151560408601529215156060850152608084019190915260a0830152151560c090910152919050565b604081526000614db36040830186614b5f565b8281036020840152614dc6818587614b36565b9695505050505050565b6020808252601b908201527f6572726f725f7075626c696343616e4f6e6c79537562735075626c0000000000604082015260600190565b6020808252602c908201527f46756e6374696f6e206d7573742062652063616c6c6564207468726f7567682060408201526b19195b1959d85d1958d85b1b60a21b606082015260800190565b6020808252602c908201527f46756e6374696f6e206d7573742062652063616c6c6564207468726f7567682060408201526b6163746976652070726f787960a01b606082015260800190565b6020808252601790820152766572726f725f6d757374426554727573746564526f6c6560481b604082015260600190565b602080825260189082015277195c9c9bdc97dcdd1c99585b511bd95cd39bdd115e1a5cdd60421b604082015260600190565b60208082526017908201527632b93937b92fb737a9b430b932a832b936b4b9b9b4b7b760491b604082015260600190565b6020808252601c908201527f6572726f725f6e6f5065726d697373696f6e546f5472616e7366657200000000604082015260600190565b6020808252602b908201527f496e697469616c697a61626c653a20636f6e7472616374206973206e6f74206960408201526a6e697469616c697a696e6760a81b606082015260800190565b6000808335601e19843603018112614fcc57600080fd5b8301803591506001600160401b03821115614fe657600080fd5b6020019150368190038213156141ab57600080fd5b6000821982111561500e5761500e6150f3565b500190565b600063ffffffff808316818516808303821115615032576150326150f3565b01949350505050565b6000816000190483118215151615615055576150556150f3565b500290565b60005b8381101561507557818101518382015260200161505d565b838111156123295750506000910152565b600081615095576150956150f3565b506000190190565b600181811c908216806150b157607f821691505b602082108114156150d257634e487b7160e01b600052602260045260246000fd5b50919050565b60006000198214156150ec576150ec6150f3565b5060010190565b634e487b7160e01b600052601160045260246000fd5b634e487b7160e01b600052602160045260246000fd5b634e487b7160e01b600052603260045260246000fd5b634e487b7160e01b600052604160045260246000fd5b6001600160a01b038116811461116e57600080fdfed22d58032f55c61c3896b3f67eb399b25071b61e122a23d4cd06bc87d4b7b8c1a60b7935888a7ab31214282090f1ab7207ab6d7abbf3c11080b75ce91d9a36d02de84d9fbdf6d06e2cc584295043dbd76046423b9f8bae9426d4fa5e7c03f4a7416464726573733a206c6f772d6c6576656c2064656c65676174652063616c6c206661696c6564a2646970667358221220d2e85f44ed2d7b947097bc4429ae56d435a917e18628f612333d6486bcffdb6364736f6c63430008060033",
  "linkReferences": {},
  "deployedLinkReferences": {}
}