{
  "contractName": "Uniswap2Adapter",
  "abi": [
    {
      "inputs": [
        {
          "internalType": "address",
          "name": "_marketplace",
          "type": "address"
        },
        {
          "internalType": "address",
          "name": "_uniswapRouter",
          "type": "address"
        },
        {
          "internalType": "address",
          "name": "_datacoin",
          "type": "address"
        }
      ],
      "stateMutability": "nonpayable",
      "type": "constructor"
    },
    {
      "inputs": [],
      "name": "datacoin",
      "outputs": [
        {
          "internalType": "contract IERC20",
          "name": "",
          "type": "address"
        }
      ],
      "stateMutability": "view",
      "type": "function"
    },
    {
      "inputs": [],
      "name": "liquidityToken",
      "outputs": [
        {
          "internalType": "address",
          "name": "",
          "type": "address"
        }
      ],
      "stateMutability": "view",
      "type": "function"
    },
    {
      "inputs": [],
      "name": "marketplace",
      "outputs": [
        {
          "internalType": "contract IMarketplace",
          "name": "",
          "type": "address"
        }
      ],
      "stateMutability": "view",
      "type": "function"
    },
    {
      "inputs": [],
      "name": "uniswapRouter",
      "outputs": [
        {
          "internalType": "contract IUniswapV2Router01",
          "name": "",
          "type": "address"
        }
      ],
      "stateMutability": "view",
      "type": "function"
    },
    {
      "inputs": [
        {
          "internalType": "bytes32",
          "name": "productId",
          "type": "bytes32"
        },
        {
          "internalType": "uint256",
          "name": "minSubscriptionSeconds",
          "type": "uint256"
        },
        {
          "internalType": "uint256",
          "name": "timeWindow",
          "type": "uint256"
        },
        {
          "internalType": "address",
          "name": "erc20_address",
          "type": "address"
        },
        {
          "internalType": "uint256",
          "name": "amount",
          "type": "uint256"
        }
      ],
      "name": "buyWithERC20",
      "outputs": [],
      "stateMutability": "nonpayable",
      "type": "function"
    },
    {
      "inputs": [
        {
          "internalType": "bytes32",
          "name": "productId",
          "type": "bytes32"
        },
        {
          "internalType": "uint256",
          "name": "minSubscriptionSeconds",
          "type": "uint256"
        },
        {
          "internalType": "uint256",
          "name": "timeWindow",
          "type": "uint256"
        }
      ],
      "name": "buyWithETH",
      "outputs": [],
      "stateMutability": "payable",
      "type": "function"
    }
  ],
  "bytecode": "0x608060405234801561001057600080fd5b506040516114703803806114708339818101604052606081101561003357600080fd5b5080516020820151604090920151600080546001600160a01b039384166001600160a01b03199182161790915560018054948416948216949094179093556002805492909116919092161790556113e18061008f6000396000f3fe6080604052600436106100555760003560e01c80631b04c9571461005a57806343cd8f7e14610085578063735de9f7146100b657806379c88f20146100cb5780639030d0f7146100e0578063abc8c7af1461012b575b600080fd5b6100836004803603606081101561007057600080fd5b5080359060208101359060400135610140565b005b34801561009157600080fd5b5061009a610287565b604080516001600160a01b039092168252519081900360200190f35b3480156100c257600080fd5b5061009a610296565b3480156100d757600080fd5b5061009a6102a5565b3480156100ec57600080fd5b50610083600480360360a081101561010357600080fd5b508035906020810135906040810135906001600160a01b0360608201351690608001356102b4565b34801561013757600080fd5b5061009a610607565b600061014b84610616565b9050806101f95734156101865760405133903480156108fc02916000818181858888f19350505050158015610184573d6000803e3d6000fd5b505b60008054604080516301cc3a8960e11b8152600481018890526024810187905233604482015290516001600160a01b039092169263039875129260648084019382900301818387803b1580156101db57600080fd5b505af11580156101ef573d6000803e3d6000fd5b5050505050610282565b6102808484848434600160009054906101000a90046001600160a01b03166001600160a01b031663ad5c46486040518163ffffffff1660e01b815260040160206040518083038186803b15801561024f57600080fd5b505afa158015610263573d6000803e3d6000fd5b505050506040513d602081101561027957600080fd5b5051610854565b505b505050565b6003546001600160a01b031681565b6001546001600160a01b031681565b6002546001600160a01b031681565b6001600160a01b038216610308576040805162461bcd60e51b81526020600482015260166024820152751d5cd948189d5e55da5d1a115512081a5b9cdd19585960521b604482015290519081900360640190fd5b600061031386610616565b90508061038d5760008054604080516301cc3a8960e11b8152600481018a90526024810189905233604482015290516001600160a01b039092169263039875129260648084019382900301818387803b15801561036f57600080fd5b505af1158015610383573d6000803e3d6000fd5b5050505050610600565b604080516323b872dd60e01b815233600482015230602482015260448101849052905184916001600160a01b038316916323b872dd916064808201926020929091908290030181600087803b1580156103e557600080fd5b505af11580156103f9573d6000803e3d6000fd5b505050506040513d602081101561040f57600080fd5b5051610462576040805162461bcd60e51b815260206004820152601f60248201527f6d7573742070726520617070726f766520746f6b656e207472616e7366657200604482015290519081900360640190fd5b6001546040805163095ea7b360e01b81526001600160a01b03928316600482015260006024820181905291519284169263095ea7b392604480840193602093929083900390910190829087803b1580156104bb57600080fd5b505af11580156104cf573d6000803e3d6000fd5b505050506040513d60208110156104e557600080fd5b505161052a576040805162461bcd60e51b815260206004820152600f60248201526e185c1c1c9bdd985b0819985a5b1959608a1b604482015290519081900360640190fd5b6001546040805163095ea7b360e01b81526001600160a01b0392831660048201526024810186905290519183169163095ea7b3916044808201926020929091908290030181600087803b15801561058057600080fd5b505af1158015610594573d6000803e3d6000fd5b505050506040513d60208110156105aa57600080fd5b50516105ef576040805162461bcd60e51b815260206004820152600f60248201526e185c1c1c9bdd985b0819985a5b1959608a1b604482015290519081900360640190fd5b6105fd878787858789610854565b50505b5050505050565b6000546001600160a01b031681565b6000805460408051633a20e9df60e01b81526004810185905290518392839283926001600160a01b0390921691633a20e9df916024808201928692909190829003018186803b15801561066857600080fd5b505afa15801561067c573d6000803e3d6000fd5b505050506040513d6000823e601f3d908101601f1916820160405260e08110156106a557600080fd5b81019080805160405193929190846401000000008211156106c557600080fd5b9083019060208201858111156106da57600080fd5b82516401000000008111828201881017156106f457600080fd5b82525081516020918201929091019080838360005b83811015610721578181015183820152602001610709565b50505050905090810190601f16801561074e5780820380516001836020036101000a031916815260200191505b506040526020810151606082015160809092015190975090955093505050506001600160a01b0383166107b4576040805162461bcd60e51b81526020600482015260096024820152681b9bdd08199bdd5b9960ba1b604482015290519081900360640190fd5b60005460405163bee7d43360e01b8152600160048201818152602483018690526001600160a01b039093169263bee7d433928691869160440182858111156107f857fe5b60ff168152602001935050505060206040518083038186803b15801561081d57600080fd5b505afa158015610831573d6000803e3d6000fd5b505050506040513d602081101561084757600080fd5b505193505050505b919050565b6002546001600160a01b0382811691161415610900576000546001600160a01b031663039875128761088c858763ffffffff61107916565b336040518463ffffffff1660e01b815260040180848152602001838152602001826001600160a01b03166001600160a01b031681526020019350505050600060405180830381600087803b1580156108e357600080fd5b505af11580156108f7573d6000803e3d6000fd5b50505050611071565b6000610912848763ffffffff6110c416565b600254604080516370a0823160e01b815230600482015290519293506000926001600160a01b03909216916370a0823191602480820192602092909190829003018186803b15801561096357600080fd5b505afa158015610977573d6000803e3d6000fd5b505050506040513d602081101561098d57600080fd5b505190506000606061099e8561111d565b9050600160009054906101000a90046001600160a01b03166001600160a01b031663ad5c46486040518163ffffffff1660e01b815260040160206040518083038186803b1580156109ee57600080fd5b505afa158015610a02573d6000803e3d6000fd5b505050506040513d6020811015610a1857600080fd5b50516001600160a01b0386811691161415610bc15760018054604051637ff36ab560e01b8152600481018381523060448301819052428d01606484018190526080602485019081528751608486015287516001600160a01b0390961696637ff36ab5968e9691958a9594939092909160a4909101906020808801910280838360005b83811015610ab2578181015183820152602001610a9a565b50505050905001955050505050506000604051808303818588803b158015610ad957600080fd5b505af1158015610aed573d6000803e3d6000fd5b50505050506040513d6000823e601f3d908101601f191682016040526020811015610b1757600080fd5b8101908080516040519392919084640100000000821115610b3757600080fd5b908301906020820185811115610b4c57600080fd5b8251866020820283011164010000000082111715610b6957600080fd5b82525081516020918201928201910280838360005b83811015610b96578181015183820152602001610b7e565b50505050905001604052505050600182510381518110610bb257fe5b60200260200101519150610d59565b600180546040516338ed173960e01b815260048101898152602482018490523060648301819052428d016084840181905260a060448501908152875160a486015287516001600160a01b03909616966338ed1739968e9691958a9594939092909160c4909101906020808801910280838360005b83811015610c4d578181015183820152602001610c35565b505050509050019650505050505050600060405180830381600087803b158015610c7657600080fd5b505af1158015610c8a573d6000803e3d6000fd5b505050506040513d6000823e601f3d908101601f191682016040526020811015610cb357600080fd5b8101908080516040519392919084640100000000821115610cd357600080fd5b908301906020820185811115610ce857600080fd5b8251866020820283011164010000000082111715610d0557600080fd5b82525081516020918201928201910280838360005b83811015610d32578181015183820152602001610d1a565b50505050905001604052505050600182510381518110610d4e57fe5b602002602001015191505b600254604080516370a0823160e01b815230600482015290518492610de49287926001600160a01b03909216916370a0823191602480820192602092909190829003018186803b158015610dac57600080fd5b505afa158015610dc0573d6000803e3d6000fd5b505050506040513d6020811015610dd657600080fd5b50519063ffffffff61124c16565b10158015610df25750838210155b610e43576040805162461bcd60e51b815260206004820152601c60248201527f6e6f7420656e6f7567682064617461636f696e20726563656976656400000000604482015290519081900360640190fd5b600254600080546040805163095ea7b360e01b81526001600160a01b039283166004820152602481018490529051919093169263095ea7b39260448083019360209390929083900390910190829087803b158015610ea057600080fd5b505af1158015610eb4573d6000803e3d6000fd5b505050506040513d6020811015610eca57600080fd5b5051610f0f576040805162461bcd60e51b815260206004820152600f60248201526e185c1c1c9bdd985b0819985a5b1959608a1b604482015290519081900360640190fd5b600254600080546040805163095ea7b360e01b81526001600160a01b039283166004820152602481018790529051919093169263095ea7b39260448083019360209390929083900390910190829087803b158015610f6c57600080fd5b505af1158015610f80573d6000803e3d6000fd5b505050506040513d6020811015610f9657600080fd5b5051610fdb576040805162461bcd60e51b815260206004820152600f60248201526e185c1c1c9bdd985b0819985a5b1959608a1b604482015290519081900360640190fd5b6000546001600160a01b031663039875128b610ffd858b63ffffffff61107916565b336040518463ffffffff1660e01b815260040180848152602001838152602001826001600160a01b03166001600160a01b031681526020019350505050600060405180830381600087803b15801561105457600080fd5b505af1158015611068573d6000803e3d6000fd5b50505050505050505b505050505050565b60006110bb83836040518060400160405280601a81526020017f536166654d6174683a206469766973696f6e206279207a65726f00000000000081525061128e565b90505b92915050565b6000826110d3575060006110be565b828202828482816110e057fe5b04146110bb5760405162461bcd60e51b815260040180806020018281038252602181526020018061138b6021913960400191505060405180910390fd5b6003546060906001600160a01b03166111a8576040805160028082526060808301845292602083019080368337019050509050828160008151811061115e57fe5b6001600160a01b03928316602091820292909201015260025482519116908290600190811061118957fe5b6001600160a01b0390921660209283029190910190910152905061084f565b6040805160038082526080820190925260609160208201838036833701905050905082816000815181106111d857fe5b6001600160a01b03928316602091820292909201015260035482519116908290600190811061120357fe5b6001600160a01b039283166020918202929092010152600280548351921691839190811061122d57fe5b6001600160a01b03909216602092830291909101909101529050919050565b60006110bb83836040518060400160405280601e81526020017f536166654d6174683a207375627472616374696f6e206f766572666c6f770000815250611330565b6000818361131a5760405162461bcd60e51b81526004018080602001828103825283818151815260200191508051906020019080838360005b838110156112df5781810151838201526020016112c7565b50505050905090810190601f16801561130c5780820380516001836020036101000a031916815260200191505b509250505060405180910390fd5b50600083858161132657fe5b0495945050505050565b600081848411156113825760405162461bcd60e51b81526020600482018181528351602484015283519092839260449091019190850190808383600083156112df5781810151838201526020016112c7565b50505090039056fe536166654d6174683a206d756c7469706c69636174696f6e206f766572666c6f77a2646970667358221220c866a97529e320224d9db20ac800e69615c631279f284190829a346478d8d3ea64736f6c63430006060033",
  "immutableReferences": {},
  "source": "pragma solidity ^0.6.6;\n\nimport \"@uniswap/v2-periphery/contracts/interfaces/IUniswapV2Router02.sol\"; \nimport \"openzeppelin-solidity/contracts/token/ERC20/IERC20.sol\";\nimport \"openzeppelin-solidity/contracts/math/SafeMath.sol\";\n\ncontract IMarketplace {\n    enum ProductState {\n        NotDeployed,                // non-existent or deleted\n        Deployed                    // created or redeployed\n    }\n\n    enum Currency {\n        DATA,                       // \"token wei\" (10^-18 DATA)\n        USD                         // attodollars (10^-18 USD)\n    }\n\n    function getProduct(bytes32 id) public view returns (string memory name, address owner, address beneficiary, uint pricePerSecond, Currency currency, uint minimumSubscriptionSeconds, ProductState state) {}\n    function getSubscription(bytes32 productId, address subscriber) public view returns (bool isValid, uint endTimestamp) {}\n    function getPriceInData(uint subscriptionSeconds, uint price, Currency unit) public view returns (uint datacoinAmount) {}\n    function buyFor(bytes32 productId, uint subscriptionSeconds, address recipient) public {}\n}\n\ncontract Uniswap2Adapter {\n    using SafeMath for uint256;\n\n    IMarketplace public marketplace;\n    IUniswapV2Router01 public uniswapRouter;\n    IERC20 public datacoin;\n    address public liquidityToken;\n\n    constructor(address _marketplace, address _uniswapRouter, address _datacoin) public {\n        marketplace = IMarketplace(_marketplace);\n        uniswapRouter = IUniswapV2Router01(_uniswapRouter);\n        datacoin = IERC20(_datacoin);\n    }\n\n    function _getPricePerSecondData(bytes32 productId) internal view returns (uint) {\n        (, address owner,, uint pricePerSecond, IMarketplace.Currency priceCurrency,,) = marketplace.getProduct(productId);\n        require(owner != address(0), \"not found\");\n        return marketplace.getPriceInData(1, pricePerSecond, priceCurrency);\n    }\n    function buyWithERC20(bytes32 productId, uint minSubscriptionSeconds,uint timeWindow, address erc20_address, uint amount) public {\n        require(erc20_address != address(0), \"use buyWithETH instead\");\n        uint pricePerSecondData = _getPricePerSecondData(productId);\n        if(pricePerSecondData == 0x0){\n            //subscription is free. return payment and subscribe\n            marketplace.buyFor(productId,minSubscriptionSeconds,msg.sender);\n            return;\n        }\n        IERC20 fromToken = IERC20(erc20_address);\n        require(fromToken.transferFrom(msg.sender, address(this), amount), \"must pre approve token transfer\");\n        // use the exchange of the received token. this exchange will query its factory to find\n        // the DATAcoin exchange in tokenToTokenTransferInput() in _buyWithUniswap()\n        require(fromToken.approve(address(uniswapRouter), 0), \"approval failed\");\n        require(fromToken.approve(address(uniswapRouter), amount), \"approval failed\");\n        _buyWithUniswap(productId, minSubscriptionSeconds, timeWindow, pricePerSecondData, amount, erc20_address);\n    }\n\n    function buyWithETH(bytes32 productId, uint minSubscriptionSeconds,uint timeWindow) public payable{\n        uint pricePerSecondData = _getPricePerSecondData(productId);\n        if(pricePerSecondData == 0x0){\n            //subscription is free. return payment and subscribe\n            if(msg.value > 0x0){\n                msg.sender.transfer(msg.value);\n            }\n            marketplace.buyFor(productId,minSubscriptionSeconds,msg.sender);\n            return;\n        }\n        _buyWithUniswap(productId, minSubscriptionSeconds, timeWindow, pricePerSecondData, msg.value, uniswapRouter.WETH());\n    }\n    /**\n        from_token = uniswapRouter.WETH() means ETH\n     */\n    function _buyWithUniswap(bytes32 productId, uint minSubscriptionSeconds, uint timeWindow, uint pricePerSecondData, uint amount, address from_token) internal{\n        if(from_token == address(datacoin)) {\n            marketplace.buyFor(productId, amount.div(pricePerSecondData), msg.sender);\n            return;\n        }\n        uint price = pricePerSecondData.mul(minSubscriptionSeconds);\n        uint256 datacoin_before_transfer = datacoin.balanceOf(address(this));\n        // TransferInput should revert if it cant get at least 'price' amount of DATAcoin \n        uint256 received_datacoin;\n        address[] memory path = _uniswapPath(from_token);\n        if(from_token == address(uniswapRouter.WETH())) {\n            received_datacoin = uniswapRouter.swapExactETHForTokens.value(amount)(1, path, address(this), now + timeWindow)[path.length - 1];\n        }\n        else {\n            received_datacoin = uniswapRouter.swapExactTokensForTokens(amount, 1, path, address(this), now + timeWindow)[path.length - 1];\n        }\n        require(datacoin.balanceOf(address(this)).sub(datacoin_before_transfer) >= received_datacoin && received_datacoin >= price, \"not enough datacoin received\");\n        require(datacoin.approve(address(marketplace),0), \"approval failed\");\n        require(datacoin.approve(address(marketplace), received_datacoin), \"approval failed\");\n        marketplace.buyFor(productId, received_datacoin.div(pricePerSecondData), msg.sender);\n    }\n\n    function _uniswapPath(address fromCoin) internal view returns (address[] memory) {\n        if(liquidityToken == address(0)){\n            //no intermediate\n            address[] memory path = new address[](2);\n            path[0] = fromCoin;\n            path[1] = address(datacoin);\n            return path;\n        }\n        //use intermediate liquidity token\n        address[] memory path = new address[](3);\n        path[0] = fromCoin;\n        path[1] = liquidityToken;\n        path[2] = address(datacoin);\n        return path;\n    }\n}\n",
  "sourcePath": "/home/heynow/streamr/marketplace-contracts/contracts/Uniswap2Adapter.sol",
  "compiler": {
    "name": "solc",
    "version": "0.6.6+commit.6c089d02.Emscripten.clang"
  },
  "schemaVersion": "3.4.1",
  "updatedAt": "2021-06-02T09:37:00.314Z",
  "devdoc": {
    "methods": {}
  },
  "userdoc": {
    "methods": {}
  }
}