{
  "contractName": "UniswapAdaptor",
  "abi": [
    {
      "inputs": [
        {
          "internalType": "address",
          "name": "_marketplace_address",
          "type": "address"
        },
        {
          "internalType": "address",
          "name": "_uniswap_factory_address",
          "type": "address"
        },
        {
          "internalType": "address",
          "name": "_datacoin_address",
          "type": "address"
        }
      ],
      "payable": false,
      "stateMutability": "nonpayable",
      "type": "constructor"
    },
    {
      "constant": true,
      "inputs": [
        {
          "internalType": "address",
          "name": "from_token",
          "type": "address"
        },
        {
          "internalType": "address",
          "name": "to_token",
          "type": "address"
        },
        {
          "internalType": "uint256",
          "name": "input_amount",
          "type": "uint256"
        }
      ],
      "name": "getConversionRateInput",
      "outputs": [
        {
          "internalType": "uint256",
          "name": "",
          "type": "uint256"
        }
      ],
      "payable": false,
      "stateMutability": "view",
      "type": "function"
    },
    {
      "constant": true,
      "inputs": [
        {
          "internalType": "address",
          "name": "from_token",
          "type": "address"
        },
        {
          "internalType": "address",
          "name": "to_token",
          "type": "address"
        },
        {
          "internalType": "uint256",
          "name": "output_amount",
          "type": "uint256"
        }
      ],
      "name": "getConversionRateOutput",
      "outputs": [
        {
          "internalType": "uint256",
          "name": "",
          "type": "uint256"
        }
      ],
      "payable": false,
      "stateMutability": "view",
      "type": "function"
    },
    {
      "constant": false,
      "inputs": [
        {
          "internalType": "bytes32",
          "name": "productId",
          "type": "bytes32"
        },
        {
          "internalType": "uint256",
          "name": "minSubscriptionSeconds",
          "type": "uint256"
        },
        {
          "internalType": "uint256",
          "name": "timeWindow",
          "type": "uint256"
        },
        {
          "internalType": "address",
          "name": "erc20_address",
          "type": "address"
        },
        {
          "internalType": "uint256",
          "name": "amount",
          "type": "uint256"
        }
      ],
      "name": "buyWithERC20",
      "outputs": [],
      "payable": false,
      "stateMutability": "nonpayable",
      "type": "function"
    },
    {
      "constant": false,
      "inputs": [
        {
          "internalType": "bytes32",
          "name": "productId",
          "type": "bytes32"
        },
        {
          "internalType": "uint256",
          "name": "minSubscriptionSeconds",
          "type": "uint256"
        },
        {
          "internalType": "uint256",
          "name": "timeWindow",
          "type": "uint256"
        }
      ],
      "name": "buyWithETH",
      "outputs": [],
      "payable": true,
      "stateMutability": "payable",
      "type": "function"
    }
  ],
  "bytecode": "0x608060405234801561001057600080fd5b506040516115a73803806115a78339818101604052606081101561003357600080fd5b5080516020820151604090920151600080546001600160a01b039384166001600160a01b03199182161790915560018054948416948216949094179093556002805492909116919092161790556115188061008f6000396000f3fe60806040526004361061003f5760003560e01c80631b04c95714610044578063505069c81461006f57806385b3b977146100c45780639030d0f714610107575b600080fd5b61006d6004803603606081101561005a57600080fd5b5080359060208101359060400135610152565b005b34801561007b57600080fd5b506100b26004803603606081101561009257600080fd5b506001600160a01b038135811691602081013590911690604001356102ea565b60408051918252519081900360200190f35b3480156100d057600080fd5b506100b2600480360360608110156100e757600080fd5b506001600160a01b03813581169160208101359091169060400135610608565b34801561011357600080fd5b5061006d600480360360a081101561012a57600080fd5b508035906020810135906040810135906001600160a01b0360608201351690608001356108e8565b600061015d84610d12565b90508061020b5734156101985760405133903480156108fc02916000818181858888f19350505050158015610196573d6000803e3d6000fd5b505b60008054604080516301cc3a8960e11b8152600481018890526024810187905233604482015290516001600160a01b039092169263039875129260648084019382900301818387803b1580156101ed57600080fd5b505af1158015610201573d6000803e3d6000fd5b50505050506102e5565b600154600254604080516303795fb160e11b81526001600160a01b039283166004820152905160009392909216916306f2bf6291602480820192602092909190829003018186803b15801561025f57600080fd5b505afa158015610273573d6000803e3d6000fd5b505050506040513d602081101561028957600080fd5b505190506001600160a01b0381166102d25760405162461bcd60e51b81526004018080602001828103825260238152602001806114526023913960400191505060405180910390fd5b6102e28186868686346000610f4e565b50505b505050565b6000826001600160a01b0316846001600160a01b03161415610353576040805162461bcd60e51b815260206004820152601e60248201527f6d757374207370656369667920646966666572656e7420746f6b656e73200000604482015290519081900360640190fd5b60006001600160a01b03841661036a5750816104a8565b600154604080516303795fb160e11b81526001600160a01b038781166004830152915160009392909216916306f2bf6291602480820192602092909190829003018186803b1580156103bb57600080fd5b505afa1580156103cf573d6000803e3d6000fd5b505050506040513d60208110156103e557600080fd5b505190506001600160a01b03811661042e5760405162461bcd60e51b81526004018080602001828103825260228152602001806114c26022913960400191505060405180910390fd5b6000819050806001600160a01b03166359e94862866040518263ffffffff1660e01b81526004018082815260200191505060206040518083038186803b15801561047757600080fd5b505afa15801561048b573d6000803e3d6000fd5b505050506040513d60208110156104a157600080fd5b5051925050505b6001600160a01b0385166104bd579050610601565b600154604080516303795fb160e11b81526001600160a01b038881166004830152915160009392909216916306f2bf6291602480820192602092909190829003018186803b15801561050e57600080fd5b505afa158015610522573d6000803e3d6000fd5b505050506040513d602081101561053857600080fd5b505190506001600160a01b0381166105815760405162461bcd60e51b815260040180806020018281038252602481526020018061149e6024913960400191505060405180910390fd5b6000819050806001600160a01b0316632640f62c846040518263ffffffff1660e01b81526004018082815260200191505060206040518083038186803b1580156105ca57600080fd5b505afa1580156105de573d6000803e3d6000fd5b505050506040513d60208110156105f457600080fd5b5051935061060192505050565b9392505050565b6000826001600160a01b0316846001600160a01b03161415610671576040805162461bcd60e51b815260206004820152601e60248201527f6d757374207370656369667920646966666572656e7420746f6b656e73200000604482015290519081900360640190fd5b60006001600160a01b0385166106885750816107c6565b600154604080516303795fb160e11b81526001600160a01b038881166004830152915160009392909216916306f2bf6291602480820192602092909190829003018186803b1580156106d957600080fd5b505afa1580156106ed573d6000803e3d6000fd5b505050506040513d602081101561070357600080fd5b505190506001600160a01b03811661074c5760405162461bcd60e51b815260040180806020018281038252602481526020018061149e6024913960400191505060405180910390fd5b6000819050806001600160a01b03166395b68fe7866040518263ffffffff1660e01b81526004018082815260200191505060206040518083038186803b15801561079557600080fd5b505afa1580156107a9573d6000803e3d6000fd5b505050506040513d60208110156107bf57600080fd5b5051925050505b6001600160a01b0384166107db579050610601565b600154604080516303795fb160e11b81526001600160a01b038781166004830152915160009392909216916306f2bf6291602480820192602092909190829003018186803b15801561082c57600080fd5b505afa158015610840573d6000803e3d6000fd5b505050506040513d602081101561085657600080fd5b505190506001600160a01b03811661089f5760405162461bcd60e51b81526004018080602001828103825260228152602001806114c26022913960400191505060405180910390fd5b6000819050806001600160a01b031663cd7724c3846040518263ffffffff1660e01b81526004018082815260200191505060206040518083038186803b1580156105ca57600080fd5b6001600160a01b03821661093c576040805162461bcd60e51b81526020600482015260166024820152751d5cd948189d5e55da5d1a115512081a5b9cdd19585960521b604482015290519081900360640190fd5b600061094786610d12565b9050806109c15760008054604080516301cc3a8960e11b8152600481018a90526024810189905233604482015290516001600160a01b039092169263039875129260648084019382900301818387803b1580156109a357600080fd5b505af11580156109b7573d6000803e3d6000fd5b50505050506102e2565b604080516323b872dd60e01b815233600482015230602482015260448101849052905184916001600160a01b038316916323b872dd916064808201926020929091908290030181600087803b158015610a1957600080fd5b505af1158015610a2d573d6000803e3d6000fd5b505050506040513d6020811015610a4357600080fd5b5051610a96576040805162461bcd60e51b815260206004820152601f60248201527f6d7573742070726520617070726f766520746f6b656e207472616e7366657200604482015290519081900360640190fd5b600154604080516303795fb160e11b81526001600160a01b038781166004830152915160009392909216916306f2bf6291602480820192602092909190829003018186803b158015610ae757600080fd5b505afa158015610afb573d6000803e3d6000fd5b505050506040513d6020811015610b1157600080fd5b505190506001600160a01b038116610b5a5760405162461bcd60e51b81526004018080602001828103825260298152602001806114756029913960400191505060405180910390fd5b816001600160a01b031663095ea7b38260006040518363ffffffff1660e01b815260040180836001600160a01b03166001600160a01b0316815260200182815260200192505050602060405180830381600087803b158015610bbb57600080fd5b505af1158015610bcf573d6000803e3d6000fd5b505050506040513d6020811015610be557600080fd5b5051610c2a576040805162461bcd60e51b815260206004820152600f60248201526e185c1c1c9bdd985b0819985a5b1959608a1b604482015290519081900360640190fd5b816001600160a01b031663095ea7b382866040518363ffffffff1660e01b815260040180836001600160a01b03166001600160a01b0316815260200182815260200192505050602060405180830381600087803b158015610c8a57600080fd5b505af1158015610c9e573d6000803e3d6000fd5b505050506040513d6020811015610cb457600080fd5b5051610cf9576040805162461bcd60e51b815260206004820152600f60248201526e185c1c1c9bdd985b0819985a5b1959608a1b604482015290519081900360640190fd5b610d088189898987898b610f4e565b5050505050505050565b6000805460408051633a20e9df60e01b81526004810185905290518392839283926001600160a01b0390921691633a20e9df916024808201928692909190829003018186803b158015610d6457600080fd5b505afa158015610d78573d6000803e3d6000fd5b505050506040513d6000823e601f3d908101601f1916820160405260e0811015610da157600080fd5b8101908080516040519392919084640100000000821115610dc157600080fd5b908301906020820185811115610dd657600080fd5b8251640100000000811182820188101715610df057600080fd5b82525081516020918201929091019080838360005b83811015610e1d578181015183820152602001610e05565b50505050905090810190601f168015610e4a5780820380516001836020036101000a031916815260200191505b506040526020810151606082015160809092015190975090955093505050506001600160a01b038316610eb0576040805162461bcd60e51b81526020600482015260096024820152681b9bdd08199bdd5b9960ba1b604482015290519081900360640190fd5b60005460405163bee7d43360e01b8152600160048201818152602483018690526001600160a01b039093169263bee7d43392869186916044018285811115610ef457fe5b60ff168152602001935050505060206040518083038186803b158015610f1957600080fd5b505afa158015610f2d573d6000803e3d6000fd5b505050506040513d6020811015610f4357600080fd5b505195945050505050565b6000610f5a8487611421565b600254604080516370a0823160e01b815230600482015290519293508a926000926001600160a01b0316916370a08231916024808301926020929190829003018186803b158015610faa57600080fd5b505afa158015610fbe573d6000803e3d6000fd5b505050506040513d6020811015610fd457600080fd5b5051905060006001600160a01b038516611075576040805163ad65d76d60e01b815260048101869052428a01602482015230604482015290516001600160a01b0385169163ad65d76d91899160648082019260209290919082900301818588803b15801561104157600080fd5b505af1158015611055573d6000803e3d6000fd5b50505050506040513d602081101561106c57600080fd5b50519050611116565b6002546040805163f552d91b60e01b8152600481018990526024810187905260016044820152428b0160648201523060848201526001600160a01b0392831660a482015290519185169163f552d91b9160c4808201926020929091908290030181600087803b1580156110e757600080fd5b505af11580156110fb573d6000803e3d6000fd5b505050506040513d602081101561111157600080fd5b505190505b600254604080516370a0823160e01b81523060048201529051839285926001600160a01b03909116916370a0823191602480820192602092909190829003018186803b15801561116557600080fd5b505afa158015611179573d6000803e3d6000fd5b505050506040513d602081101561118f57600080fd5b505103108015906111a05750838110155b6111f1576040805162461bcd60e51b815260206004820152601c60248201527f6e6f7420656e6f7567682064617461636f696e20726563656976656400000000604482015290519081900360640190fd5b600254600080546040805163095ea7b360e01b81526001600160a01b039283166004820152602481018490529051919093169263095ea7b39260448083019360209390929083900390910190829087803b15801561124e57600080fd5b505af1158015611262573d6000803e3d6000fd5b505050506040513d602081101561127857600080fd5b50516112bd576040805162461bcd60e51b815260206004820152600f60248201526e185c1c1c9bdd985b0819985a5b1959608a1b604482015290519081900360640190fd5b600254600080546040805163095ea7b360e01b81526001600160a01b039283166004820152602481018690529051919093169263095ea7b39260448083019360209390929083900390910190829087803b15801561131a57600080fd5b505af115801561132e573d6000803e3d6000fd5b505050506040513d602081101561134457600080fd5b5051611389576040805162461bcd60e51b815260206004820152600f60248201526e185c1c1c9bdd985b0819985a5b1959608a1b604482015290519081900360640190fd5b6000546001600160a01b031663039875128b8984816113a457fe5b04336040518463ffffffff1660e01b815260040180848152602001838152602001826001600160a01b03166001600160a01b031681526020019350505050600060405180830381600087803b1580156113fc57600080fd5b505af1158015611410573d6000803e3d6000fd5b505050505050505050505050505050565b6000826114305750600061144b565b8282028284828161143d57fe5b041461144857600080fd5b90505b9291505056fe636f756c646e742066696e642065786368616e676520666f72204441544120636f696e636f756c646e742066696e642065786368616e676520666f722065786368616e67656420746f6b656e636f756c646e742066696e642065786368616e676520666f722066726f6d5f746f6b656e636f756c646e742066696e642065786368616e676520666f7220746f5f746f6b656ea265627a7a72315820db034aff6ac558a5c0cca85b32f6c932caf48b2a929c1eb61268cc5c65be549c64736f6c63430005100032",
  "source": "pragma solidity ^0.5.16;\n\ncontract IMarketplace {\n    enum ProductState {\n        NotDeployed,                // non-existent or deleted\n        Deployed                    // created or redeployed\n    }\n\n    enum Currency {\n        DATA,                       // \"token wei\" (10^-18 DATA)\n        USD                         // attodollars (10^-18 USD)\n    }\n\n    function getProduct(bytes32 id) public view returns (string memory name, address owner, address beneficiary, uint pricePerSecond, Currency currency, uint minimumSubscriptionSeconds, ProductState state) {}\n    function getSubscription(bytes32 productId, address subscriber) public view returns (bool isValid, uint endTimestamp) {}\n    function getPriceInData(uint subscriptionSeconds, uint price, Currency unit) public view returns (uint datacoinAmount) {}\n    function buyFor(bytes32 productId, uint subscriptionSeconds, address recipient) public {}\n}\n\ninterface IERC20Token {\n    function name() external view returns (string memory);\n    function symbol() external view returns (string memory);\n    function decimals() external view returns (uint8);\n    function totalSupply() external view returns (uint256);\n    function balanceOf(address _owner) external view returns (uint256);\n    function allowance(address _owner, address _spender) external view returns (uint256);\n    function transfer(address _to, uint256 _value) external returns (bool success);\n    function transferFrom(address _from, address _to, uint256 _value) external returns (bool success);\n    function approve(address _spender, uint256 _value) external returns (bool success);\n}\n\n\n\n//from https://docs.uniswap.io/smart-contract-integration/interface:\ncontract IUniswapFactory {\n    // Public Variables\n    address public exchangeTemplate;\n    uint256 public tokenCount;\n    // Create Exchange\n    function createExchange(address token) external returns (address exchange);\n    // Get Exchange and Token Info\n    function getExchange(address token) external view returns (address exchange);\n    function getToken(address exchange) external view returns (address token);\n    function getTokenWithId(uint256 tokenId) external view returns (address token);\n    // Never use\n    function initializeFactory(address template) external;\n}\ncontract IUniswapExchange{\n    // Address of ERC20 token sold on this exchange\n    function tokenAddress() external view returns (address token);\n    // Address of Uniswap Factory\n    function factoryAddress() external view returns (address factory);\n    // Provide Liquidity\n    function addLiquidity(uint256 min_liquidity, uint256 max_tokens, uint256 deadline) external payable returns (uint256);\n    function removeLiquidity(uint256 amount, uint256 min_eth, uint256 min_tokens, uint256 deadline) external returns (uint256, uint256);\n    // Get Prices\n    function getEthToTokenInputPrice(uint256 eth_sold) external view returns (uint256 tokens_bought);\n    function getEthToTokenOutputPrice(uint256 tokens_bought) external view returns (uint256 eth_sold);\n    function getTokenToEthInputPrice(uint256 tokens_sold) external view returns (uint256 eth_bought);\n    function getTokenToEthOutputPrice(uint256 eth_bought) external view returns (uint256 tokens_sold);\n    // Trade ETH to ERC20\n    function ethToTokenSwapInput(uint256 min_tokens, uint256 deadline) external payable returns (uint256  tokens_bought);\n    function ethToTokenTransferInput(uint256 min_tokens, uint256 deadline, address recipient) external payable returns (uint256  tokens_bought);\n    function ethToTokenSwapOutput(uint256 tokens_bought, uint256 deadline) external payable returns (uint256  eth_sold);\n    function ethToTokenTransferOutput(uint256 tokens_bought, uint256 deadline, address recipient) external payable returns (uint256  eth_sold);\n    // Trade ERC20 to ETH\n    function tokenToEthSwapInput(uint256 tokens_sold, uint256 min_eth, uint256 deadline) external returns (uint256  eth_bought);\n    function tokenToEthTransferInput(uint256 tokens_sold, uint256 min_tokens, uint256 deadline, address recipient) external returns (uint256  eth_bought);\n    function tokenToEthSwapOutput(uint256 eth_bought, uint256 max_tokens, uint256 deadline) external returns (uint256  tokens_sold);\n    function tokenToEthTransferOutput(uint256 eth_bought, uint256 max_tokens, uint256 deadline, address recipient) external returns (uint256  tokens_sold);\n    // Trade ERC20 to ERC20\n    function tokenToTokenSwapInput(uint256 tokens_sold, uint256 min_tokens_bought, uint256 min_eth_bought, uint256 deadline, address token_addr) external returns (uint256  tokens_bought);\n    function tokenToTokenTransferInput(uint256 tokens_sold, uint256 min_tokens_bought, uint256 min_eth_bought, uint256 deadline, address recipient, address token_addr) external returns (uint256  tokens_bought);\n    function tokenToTokenSwapOutput(uint256 tokens_bought, uint256 max_tokens_sold, uint256 max_eth_sold, uint256 deadline, address token_addr) external returns (uint256  tokens_sold);\n    function tokenToTokenTransferOutput(uint256 tokens_bought, uint256 max_tokens_sold, uint256 max_eth_sold, uint256 deadline, address recipient, address token_addr) external returns (uint256  tokens_sold);\n    // Trade ERC20 to Custom Pool\n    function tokenToExchangeSwapInput(uint256 tokens_sold, uint256 min_tokens_bought, uint256 min_eth_bought, uint256 deadline, address exchange_addr) external returns (uint256  tokens_bought);\n    function tokenToExchangeTransferInput(uint256 tokens_sold, uint256 min_tokens_bought, uint256 min_eth_bought, uint256 deadline, address recipient, address exchange_addr) external returns (uint256  tokens_bought);\n    function tokenToExchangeSwapOutput(uint256 tokens_bought, uint256 max_tokens_sold, uint256 max_eth_sold, uint256 deadline, address exchange_addr) external returns (uint256  tokens_sold);\n    function tokenToExchangeTransferOutput(uint256 tokens_bought, uint256 max_tokens_sold, uint256 max_eth_sold, uint256 deadline, address recipient, address exchange_addr) external returns (uint256  tokens_sold);\n    // ERC20 comaptibility for liquidity tokens\n    bytes32 public name;\n    bytes32 public symbol;\n    uint256 public decimals;\n    function transfer(address _to, uint256 _value) external returns (bool);\n    function transferFrom(address _from, address _to, uint256 value) external returns (bool);\n    function approve(address _spender, uint256 _value) external returns (bool);\n    function allowance(address _owner, address _spender) external view returns (uint256);\n    function balanceOf(address _owner) external view returns (uint256);\n    // Never use\n    function setup(address token_addr) external;\n}\n\ncontract UniswapAdaptor {\n//    using SafeMath for uint256;\n\n    IMarketplace marketplace;\n    IUniswapFactory uniswap_factory;\n    IERC20Token datacoin;\n    constructor(address _marketplace_address, address _uniswap_factory_address, address _datacoin_address) public {\n        marketplace = IMarketplace(_marketplace_address);\n        uniswap_factory = IUniswapFactory(_uniswap_factory_address);\n        datacoin = IERC20Token(_datacoin_address);\n    }\n    function mul(uint256 a, uint256 b) internal pure returns (uint256) {\n        // Gas optimization: this is cheaper than requiring 'a' not being zero, but the\n        // benefit is lost if 'b' is also tested.\n        // See: https://github.com/OpenZeppelin/openzeppelin-solidity/pull/522\n        if (a == 0) {\n            return 0;\n        }\n\n        uint256 c = a * b;\n        require(c / a == b);\n\n        return c;\n    }\n    /*\n        token address 0x0 means ETH\n    */\n    \n    //returns the amount to_tokens that would be received from an input_amount of from_tokens\n    function getConversionRateInput(address from_token, address to_token, uint input_amount) public view returns (uint){\n        require(from_token != to_token, \"must specify different tokens \");\n        uint eth_amount;\n        if(from_token == address(0)){\n            eth_amount = input_amount;\n        }\n        else{\n            address from_token_exchange = uniswap_factory.getExchange(from_token);\n            require(from_token_exchange != address(0), \"couldnt find exchange for from_token\");\n            IUniswapExchange exfrom = IUniswapExchange(from_token_exchange);\n            eth_amount = exfrom.getTokenToEthInputPrice(input_amount);\n        }\n        if(to_token == address(0)){\n            return eth_amount;\n        }\n        else{\n            address to_token_exchange = uniswap_factory.getExchange(to_token);\n            require(to_token_exchange != address(0), \"couldnt find exchange for to_token\");\n            IUniswapExchange exto = IUniswapExchange(to_token_exchange);\n            return exto.getEthToTokenInputPrice(eth_amount);\n        }\n    }\n\n    // returns the amount from_tokens needed to buy output_amount of to_tokens\n    function getConversionRateOutput(address from_token, address to_token, uint output_amount) public view returns (uint){\n        require(from_token != to_token, \"must specify different tokens \");\n        uint eth_amount;\n        if(to_token == address(0)){\n            eth_amount = output_amount;\n        }\n        else{\n            address to_token_exchange = uniswap_factory.getExchange(to_token);\n            require(to_token_exchange != address(0), \"couldnt find exchange for to_token\");\n            IUniswapExchange exto = IUniswapExchange(to_token_exchange);\n            eth_amount = exto.getEthToTokenOutputPrice(output_amount);\n        }\n        if(from_token == address(0)){\n            return eth_amount;\n        }\n        else{\n            address from_token_exchange = uniswap_factory.getExchange(from_token);\n            require(from_token_exchange != address(0), \"couldnt find exchange for from_token\");\n            IUniswapExchange exfrom = IUniswapExchange(from_token_exchange);\n            return exfrom.getTokenToEthOutputPrice(eth_amount);\n        }\n    }\n    \n\n    function _getPricePerSecondData(bytes32 productId) internal view returns (uint) {\n        (, address owner,, uint pricePerSecond, IMarketplace.Currency priceCurrency,,) = marketplace.getProduct(productId);\n        require(owner != address(0), \"not found\");\n        return marketplace.getPriceInData(1, pricePerSecond, priceCurrency);\n    }\n    function buyWithERC20(bytes32 productId, uint minSubscriptionSeconds,uint timeWindow, address erc20_address, uint amount) public {\n        require(erc20_address != address(0), \"use buyWithETH instead\");\n        uint pricePerSecondData = _getPricePerSecondData(productId);\n        if(pricePerSecondData == 0x0){\n            //subscription is free. return payment and subscribe\n            marketplace.buyFor(productId,minSubscriptionSeconds,msg.sender);\n            return;\n        }\n        IERC20Token fromToken = IERC20Token(erc20_address);\n        require(fromToken.transferFrom(msg.sender,address(this),amount), \"must pre approve token transfer\");\n        // use the exchange of the received token. this exchange will query its factory to find\n        // the DATAcoin exchange in tokenToTokenTransferInput() in _buyWithUniswap()\n        address exadd = uniswap_factory.getExchange(erc20_address);\n        require(exadd != address(0), \"couldnt find exchange for exchanged token\");\n        require(fromToken.approve(exadd, 0), \"approval failed\");\n        require(fromToken.approve(exadd, amount), \"approval failed\");\n        _buyWithUniswap(exadd, productId, minSubscriptionSeconds, timeWindow, pricePerSecondData, amount, erc20_address);\n    }\n\n    function buyWithETH(bytes32 productId, uint minSubscriptionSeconds,uint timeWindow) public payable{\n        uint pricePerSecondData = _getPricePerSecondData(productId);\n        if(pricePerSecondData == 0x0){\n            //subscription is free. return payment and subscribe\n            if(msg.value > 0x0){\n                msg.sender.transfer(msg.value);\n            }\n            marketplace.buyFor(productId,minSubscriptionSeconds,msg.sender);\n            return;\n        }\n        address exadd = uniswap_factory.getExchange(address(datacoin));\n        require(exadd != address(0), \"couldnt find exchange for DATA coin\");\n        _buyWithUniswap(exadd, productId, minSubscriptionSeconds, timeWindow, pricePerSecondData, msg.value, address(0));\n    }\n    /**\n        from_token = 0x0 means ETH\n     */\n    function _buyWithUniswap(address exadd, bytes32 productId, uint minSubscriptionSeconds, uint timeWindow, uint pricePerSecondData, uint amount, address from_token) internal{\n        uint price = mul(pricePerSecondData,minSubscriptionSeconds);\n        IUniswapExchange ex = IUniswapExchange(exadd);\n        uint256 datacoin_before_transfer = datacoin.balanceOf(address(this));\n        // TransferInput should revert if it cant get at least 'price' amount of DATAcoin \n        uint256 received_datacoin;\n        if(from_token == address(0)){\n            received_datacoin = ex.ethToTokenTransferInput.value(amount)(price,now + timeWindow, address(this));\n        }\n        else{\n            received_datacoin = ex.tokenToTokenTransferInput(amount, price, 1, now + timeWindow, address(this), address(datacoin));\n        }\n        require(datacoin.balanceOf(address(this)) - datacoin_before_transfer >= received_datacoin && received_datacoin >= price, \"not enough datacoin received\");\n        require(datacoin.approve(address(marketplace),0),\"approval failed\");\n        require(datacoin.approve(address(marketplace),received_datacoin),\"approval failed\");\n        marketplace.buyFor(productId,received_datacoin / pricePerSecondData,msg.sender);\n    }\n}\n",
  "sourcePath": "/home/heynow/streamr/marketplace-contracts/contracts/UniswapAdaptor.sol",
  "compiler": {
    "name": "solc",
    "version": "0.5.16+commit.9c3226ce.Emscripten.clang"
  },
  "schemaVersion": "3.0.23",
  "updatedAt": "2020-04-08T10:18:05.466Z",
  "devdoc": {
    "methods": {}
  },
  "userdoc": {
    "methods": {}
  }
}