{
  "_format": "hh-sol-artifact-1",
  "contractName": "Bounty",
  "sourceName": "contracts/BrokerEconomics/Bounty.sol",
  "abi": [
    {
      "anonymous": false,
      "inputs": [
        {
          "indexed": true,
          "internalType": "address",
          "name": "broker",
          "type": "address"
        }
      ],
      "name": "BrokerJoined",
      "type": "event"
    },
    {
      "anonymous": false,
      "inputs": [
        {
          "indexed": true,
          "internalType": "address",
          "name": "broker",
          "type": "address"
        },
        {
          "indexed": false,
          "internalType": "uint256",
          "name": "returnedStakeWei",
          "type": "uint256"
        }
      ],
      "name": "BrokerLeft",
      "type": "event"
    },
    {
      "anonymous": false,
      "inputs": [
        {
          "indexed": false,
          "internalType": "uint256",
          "name": "startTimeStamp",
          "type": "uint256"
        },
        {
          "indexed": false,
          "internalType": "uint256",
          "name": "endTimeStamp",
          "type": "uint256"
        },
        {
          "indexed": false,
          "internalType": "uint256",
          "name": "forfeitedWeiPerStake",
          "type": "uint256"
        },
        {
          "indexed": false,
          "internalType": "uint256",
          "name": "forfeitedWei",
          "type": "uint256"
        }
      ],
      "name": "InsolvencyEnded",
      "type": "event"
    },
    {
      "anonymous": false,
      "inputs": [
        {
          "indexed": false,
          "internalType": "uint256",
          "name": "startTimeStamp",
          "type": "uint256"
        }
      ],
      "name": "InsolvencyStarted",
      "type": "event"
    },
    {
      "anonymous": false,
      "inputs": [
        {
          "indexed": true,
          "internalType": "bytes32",
          "name": "role",
          "type": "bytes32"
        },
        {
          "indexed": true,
          "internalType": "bytes32",
          "name": "previousAdminRole",
          "type": "bytes32"
        },
        {
          "indexed": true,
          "internalType": "bytes32",
          "name": "newAdminRole",
          "type": "bytes32"
        }
      ],
      "name": "RoleAdminChanged",
      "type": "event"
    },
    {
      "anonymous": false,
      "inputs": [
        {
          "indexed": true,
          "internalType": "bytes32",
          "name": "role",
          "type": "bytes32"
        },
        {
          "indexed": true,
          "internalType": "address",
          "name": "account",
          "type": "address"
        },
        {
          "indexed": true,
          "internalType": "address",
          "name": "sender",
          "type": "address"
        }
      ],
      "name": "RoleGranted",
      "type": "event"
    },
    {
      "anonymous": false,
      "inputs": [
        {
          "indexed": true,
          "internalType": "bytes32",
          "name": "role",
          "type": "bytes32"
        },
        {
          "indexed": true,
          "internalType": "address",
          "name": "account",
          "type": "address"
        },
        {
          "indexed": true,
          "internalType": "address",
          "name": "sender",
          "type": "address"
        }
      ],
      "name": "RoleRevoked",
      "type": "event"
    },
    {
      "anonymous": false,
      "inputs": [
        {
          "indexed": true,
          "internalType": "address",
          "name": "sponsor",
          "type": "address"
        },
        {
          "indexed": false,
          "internalType": "uint256",
          "name": "amount",
          "type": "uint256"
        }
      ],
      "name": "SponsorshipReceived",
      "type": "event"
    },
    {
      "anonymous": false,
      "inputs": [
        {
          "indexed": true,
          "internalType": "address",
          "name": "broker",
          "type": "address"
        },
        {
          "indexed": false,
          "internalType": "uint256",
          "name": "addedWei",
          "type": "uint256"
        },
        {
          "indexed": false,
          "internalType": "uint256",
          "name": "totalWei",
          "type": "uint256"
        }
      ],
      "name": "StakeAdded",
      "type": "event"
    },
    {
      "anonymous": false,
      "inputs": [
        {
          "indexed": true,
          "internalType": "enum Bounty.State",
          "name": "newState",
          "type": "uint8"
        }
      ],
      "name": "StateChanged",
      "type": "event"
    },
    {
      "stateMutability": "nonpayable",
      "type": "fallback"
    },
    {
      "inputs": [],
      "name": "DEFAULT_ADMIN_ROLE",
      "outputs": [
        {
          "internalType": "bytes32",
          "name": "",
          "type": "bytes32"
        }
      ],
      "stateMutability": "view",
      "type": "function"
    },
    {
      "inputs": [
        {
          "internalType": "address",
          "name": "_joinPolicyAddress",
          "type": "address"
        },
        {
          "internalType": "uint256",
          "name": "param",
          "type": "uint256"
        }
      ],
      "name": "addJoinPolicy",
      "outputs": [],
      "stateMutability": "nonpayable",
      "type": "function"
    },
    {
      "inputs": [],
      "name": "allocationPolicy",
      "outputs": [
        {
          "internalType": "contract IAllocationPolicy",
          "name": "",
          "type": "address"
        }
      ],
      "stateMutability": "view",
      "type": "function"
    },
    {
      "inputs": [
        {
          "internalType": "address",
          "name": "",
          "type": "address"
        }
      ],
      "name": "approvedPolicies",
      "outputs": [
        {
          "internalType": "bool",
          "name": "",
          "type": "bool"
        }
      ],
      "stateMutability": "view",
      "type": "function"
    },
    {
      "inputs": [
        {
          "internalType": "address",
          "name": "broker",
          "type": "address"
        }
      ],
      "name": "getAllocation",
      "outputs": [
        {
          "internalType": "uint256",
          "name": "allocation",
          "type": "uint256"
        }
      ],
      "stateMutability": "view",
      "type": "function"
    },
    {
      "inputs": [],
      "name": "getHorizon",
      "outputs": [
        {
          "internalType": "uint256",
          "name": "horizon",
          "type": "uint256"
        }
      ],
      "stateMutability": "view",
      "type": "function"
    },
    {
      "inputs": [
        {
          "internalType": "address",
          "name": "broker",
          "type": "address"
        }
      ],
      "name": "getLeavePenalty",
      "outputs": [
        {
          "internalType": "uint256",
          "name": "leavePenalty",
          "type": "uint256"
        }
      ],
      "stateMutability": "view",
      "type": "function"
    },
    {
      "inputs": [],
      "name": "getMyStake",
      "outputs": [
        {
          "internalType": "uint256",
          "name": "",
          "type": "uint256"
        }
      ],
      "stateMutability": "view",
      "type": "function"
    },
    {
      "inputs": [
        {
          "internalType": "bytes32",
          "name": "role",
          "type": "bytes32"
        }
      ],
      "name": "getRoleAdmin",
      "outputs": [
        {
          "internalType": "bytes32",
          "name": "",
          "type": "bytes32"
        }
      ],
      "stateMutability": "view",
      "type": "function"
    },
    {
      "inputs": [
        {
          "internalType": "address",
          "name": "broker",
          "type": "address"
        }
      ],
      "name": "getStake",
      "outputs": [
        {
          "internalType": "uint256",
          "name": "",
          "type": "uint256"
        }
      ],
      "stateMutability": "view",
      "type": "function"
    },
    {
      "inputs": [],
      "name": "getState",
      "outputs": [
        {
          "internalType": "enum Bounty.State",
          "name": "",
          "type": "uint8"
        }
      ],
      "stateMutability": "view",
      "type": "function"
    },
    {
      "inputs": [],
      "name": "getUnallocatedWei",
      "outputs": [
        {
          "internalType": "uint256",
          "name": "",
          "type": "uint256"
        }
      ],
      "stateMutability": "view",
      "type": "function"
    },
    {
      "inputs": [
        {
          "internalType": "bytes32",
          "name": "role",
          "type": "bytes32"
        },
        {
          "internalType": "address",
          "name": "account",
          "type": "address"
        }
      ],
      "name": "grantRole",
      "outputs": [],
      "stateMutability": "nonpayable",
      "type": "function"
    },
    {
      "inputs": [
        {
          "internalType": "bytes32",
          "name": "role",
          "type": "bytes32"
        },
        {
          "internalType": "address",
          "name": "account",
          "type": "address"
        }
      ],
      "name": "hasRole",
      "outputs": [
        {
          "internalType": "bool",
          "name": "",
          "type": "bool"
        }
      ],
      "stateMutability": "view",
      "type": "function"
    },
    {
      "inputs": [
        {
          "internalType": "address",
          "name": "newOwner",
          "type": "address"
        },
        {
          "internalType": "address",
          "name": "tokenAddress",
          "type": "address"
        },
        {
          "internalType": "uint256",
          "name": "initialMinHorizonSeconds",
          "type": "uint256"
        },
        {
          "internalType": "uint256",
          "name": "initialMinBrokerCount",
          "type": "uint256"
        },
        {
          "internalType": "address",
          "name": "trustedForwarderAddress",
          "type": "address"
        }
      ],
      "name": "initialize",
      "outputs": [],
      "stateMutability": "nonpayable",
      "type": "function"
    },
    {
      "inputs": [
        {
          "internalType": "address",
          "name": "forwarder",
          "type": "address"
        }
      ],
      "name": "isTrustedForwarder",
      "outputs": [
        {
          "internalType": "bool",
          "name": "",
          "type": "bool"
        }
      ],
      "stateMutability": "view",
      "type": "function"
    },
    {
      "inputs": [
        {
          "internalType": "uint256",
          "name": "",
          "type": "uint256"
        }
      ],
      "name": "joinPolicyAddresses",
      "outputs": [
        {
          "internalType": "address",
          "name": "",
          "type": "address"
        }
      ],
      "stateMutability": "view",
      "type": "function"
    },
    {
      "inputs": [],
      "name": "leave",
      "outputs": [],
      "stateMutability": "nonpayable",
      "type": "function"
    },
    {
      "inputs": [],
      "name": "leavePolicy",
      "outputs": [
        {
          "internalType": "contract ILeavePolicy",
          "name": "",
          "type": "address"
        }
      ],
      "stateMutability": "view",
      "type": "function"
    },
    {
      "inputs": [
        {
          "internalType": "address",
          "name": "sender",
          "type": "address"
        },
        {
          "internalType": "uint256",
          "name": "amount",
          "type": "uint256"
        },
        {
          "internalType": "bytes",
          "name": "data",
          "type": "bytes"
        }
      ],
      "name": "onTokenTransfer",
      "outputs": [],
      "stateMutability": "nonpayable",
      "type": "function"
    },
    {
      "inputs": [
        {
          "internalType": "address",
          "name": "_joinPolicyAddress",
          "type": "address"
        }
      ],
      "name": "removeJoinPolicy",
      "outputs": [],
      "stateMutability": "nonpayable",
      "type": "function"
    },
    {
      "inputs": [
        {
          "internalType": "bytes32",
          "name": "role",
          "type": "bytes32"
        },
        {
          "internalType": "address",
          "name": "account",
          "type": "address"
        }
      ],
      "name": "renounceRole",
      "outputs": [],
      "stateMutability": "nonpayable",
      "type": "function"
    },
    {
      "inputs": [
        {
          "internalType": "bytes32",
          "name": "role",
          "type": "bytes32"
        },
        {
          "internalType": "address",
          "name": "account",
          "type": "address"
        }
      ],
      "name": "revokeRole",
      "outputs": [],
      "stateMutability": "nonpayable",
      "type": "function"
    },
    {
      "inputs": [
        {
          "internalType": "address",
          "name": "_allocationPolicyAddress",
          "type": "address"
        },
        {
          "internalType": "uint256",
          "name": "param",
          "type": "uint256"
        }
      ],
      "name": "setAllocationPolicy",
      "outputs": [],
      "stateMutability": "nonpayable",
      "type": "function"
    },
    {
      "inputs": [
        {
          "internalType": "address",
          "name": "_leaveAddress",
          "type": "address"
        },
        {
          "internalType": "uint256",
          "name": "param",
          "type": "uint256"
        }
      ],
      "name": "setLeavePolicy",
      "outputs": [],
      "stateMutability": "nonpayable",
      "type": "function"
    },
    {
      "inputs": [
        {
          "internalType": "uint256",
          "name": "amountTokenWei",
          "type": "uint256"
        }
      ],
      "name": "sponsor",
      "outputs": [],
      "stateMutability": "nonpayable",
      "type": "function"
    },
    {
      "inputs": [
        {
          "internalType": "address",
          "name": "broker",
          "type": "address"
        },
        {
          "internalType": "uint256",
          "name": "amountTokenWei",
          "type": "uint256"
        }
      ],
      "name": "stake",
      "outputs": [],
      "stateMutability": "nonpayable",
      "type": "function"
    },
    {
      "inputs": [
        {
          "internalType": "bytes4",
          "name": "interfaceId",
          "type": "bytes4"
        }
      ],
      "name": "supportsInterface",
      "outputs": [
        {
          "internalType": "bool",
          "name": "",
          "type": "bool"
        }
      ],
      "stateMutability": "view",
      "type": "function"
    },
    {
      "inputs": [],
      "name": "token",
      "outputs": [
        {
          "internalType": "contract IERC677",
          "name": "",
          "type": "address"
        }
      ],
      "stateMutability": "view",
      "type": "function"
    }
  ],
  "bytecode": "0x608060405234801561001057600080fd5b50612179806100206000396000f3fe608060405234801561001057600080fd5b506004361061018f5760003560e01c8063572b6c05116100e4578063adc9772e11610092578063adc9772e146104a7578063b6cce5e2146104ba578063b9efec95146104cd578063bb90aa95146104e0578063d547741f146104e8578063d66d9e19146104fb578063da5a517b14610503578063fc0c546a146105165761018f565b8063572b6c051461041e57806357fb25cc146104405780635ffe115e146104535780637a7664601461046657806391d1485414610479578063a217fddf1461048c578063a4c0ed36146104945761018f565b80632b308a56116101415780632b308a56146103975780632f2ff15d146103aa57806336568abe146103bd5780633a1c0aa8146103d05780634ed21cef146103f05780635499dca51461040357806354a991b41461040b5761018f565b806301ffc9a7146102d657806304a10591146102fe5780630e0229231461031357806314b474df146103345780631865c57d1461033c5780631d10fc6414610351578063248a9ca314610374575b60003660603330146101db5760405162461bcd60e51b815260206004820152601060248201526f6572726f725f6d75737442655468697360801b60448201526064015b60405180910390fd5b81600084826101eb601482611c90565b6101f792859290611ca7565b61020091611cd1565b60601c90506000858186610215602087611c90565b9261022293929190611ca7565b8080601f0160208091040260200160405190810160405280939291908181526020018383808284376000920182905250604051949550938493506001600160a01b038716925061027491508590611d32565b600060405180830381855af49150503d80600081146102af576040519150601f19603f3d011682016040523d82523d6000602084013e6102b4565b606091505b5091509150816102c657805181602001fd5b8051975060200195505050505050f35b6102e96102e4366004611d4e565b610529565b60405190151581526020015b60405180910390f35b61031161030c366004611d94565b610560565b005b610326610321366004611dbe565b6105f1565b6040519081526020016102f5565b610326610644565b610344610657565b6040516102f59190611dd9565b6102e961035f366004611dbe565b60c96020526000908152604090205460ff1681565b610326610382366004611e01565b60009081526097602052604090206001015490565b6103116103a5366004611d94565b6106ec565b6103116103b8366004611e1a565b6107ab565b6103116103cb366004611e1a565b6107d8565b60cc546103e3906001600160a01b031681565b6040516102f59190611e46565b6103116103fe366004611dbe565b610862565b610326610896565b60cd546103e3906001600160a01b031681565b6102e961042c366004611dbe565b6033546001600160a01b0391821691161490565b61031161044e366004611e5a565b6108d3565b6103e3610461366004611e01565b6109da565b610326610474366004611dbe565b610a04565b6102e9610487366004611e1a565b610a30565b610326600081565b6103116104a2366004611eb1565b610a5b565b6103116104b5366004611d94565b610b02565b6103116104c8366004611e01565b610b89565b6103116104db366004611d94565b610c1a565b610326610ca7565b6103116104f6366004611e1a565b610cfa565b610311610d22565b610326610511366004611dbe565b610d34565b60ca546103e3906001600160a01b031681565b60006001600160e01b03198216637965db0b60e01b148061055a57506301ffc9a760e01b6001600160e01b03198316145b92915050565b61056d6000610487610d8b565b6105895760405162461bcd60e51b81526004016101d290611f38565b60cd80546001600160a01b0319166001600160a01b03841690811790915560408051808201909152601a81527f6572726f725f7365744c65617665506f6c6963794661696c656400000000000060208201526105ed9190634a45d2e6908490610d95565b5050565b60cc54604080518082019091526019815278195c9c9bdc97d9d95d105b1b1bd8d85d1a5bdb91985a5b1959603a1b602082015260009161055a916001600160a01b0390911690637debb959908590610e6f565b600061064e610f54565b60040154905090565b60cc546000906001600160a01b0316158061067b575060cd546001600160a01b0316155b156106865750600090565b6000610690610f54565b6005015461069c610ca7565b1015905060006106aa610f54565b600601546106b6610f54565b541015905081156106d757806106cd5760036106d0565b60045b9250505090565b806106e35760016106d0565b60029250505090565b6106f96000610487610d8b565b6107155760405162461bcd60e51b81526004016101d290611f38565b60cb80546001810182556000919091527fa7ce836d032b2bf62b7e2097a8e0a6d8aeb35405ad15271e96d3b0188a1d06fb0180546001600160a01b0319166001600160a01b038416908117909155604080518082019091526019815278195c9c9bdc97d85919129bda5b941bdb1a58de51985a5b1959603a1b602082015283916107a691634a45d2e6908590610d95565b505050565b6000828152609760205260409020600101546107ce816107c9610d8b565b610f78565b6107a68383610fdc565b6107e0610d8b565b6001600160a01b0316816001600160a01b0316146108585760405162461bcd60e51b815260206004820152602f60248201527f416363657373436f6e74726f6c3a2063616e206f6e6c792072656e6f756e636560448201526e103937b632b9903337b91039b2b63360891b60648201526084016101d2565b6105ed8282611063565b61086f6000610487610d8b565b61088b5760405162461bcd60e51b81526004016101d290611f38565b6105ed60cb826110e8565b60006108a0610f54565b60010160006108ad610d8b565b6001600160a01b03166001600160a01b0316815260200190815260200160002054905090565b600054610100900460ff166108ee5760005460ff16156108f2565b303b155b6109555760405162461bcd60e51b815260206004820152602e60248201527f496e697469616c697a61626c653a20636f6e747261637420697320616c72656160448201526d191e481a5b9a5d1a585b1a5e995960921b60648201526084016101d2565b600054610100900460ff16158015610977576000805461ffff19166101011790555b610982600087611154565b60ca80546001600160a01b0319166001600160a01b0387161790556109a68261115e565b836109af610f54565b60050155826109bc610f54565b6006015580156109d2576000805461ff00191690555b505050505050565b60cb81815481106109ea57600080fd5b6000918252602090912001546001600160a01b0316905081565b6000610a0e610f54565b6001600160a01b03909216600090815260019290920160205250604090205490565b60009182526097602090815260408084206001600160a01b0393909316845291905290205460ff1690565b60ca546001600160a01b0316610a6f610d8b565b6001600160a01b031614610abf5760405162461bcd60e51b8152602060048201526017602482015276195c9c9bdc97dbdb9b1e551bdad95b90dbdb9d1c9858dd604a1b60448201526064016101d2565b6014819003610add57813560601c610ad78185611196565b50610afc565b6020819003610af2578135610ad78185611196565b610afc8484611446565b50505050565b60ca546001600160a01b03166323b872dd610b1b610d8b565b30846040518463ffffffff1660e01b8152600401610b3b93929190611f67565b6020604051808303816000875af1158015610b5a573d6000803e3d6000fd5b505050506040513d601f19601f82011682018060405250810190610b7e9190611f8b565b506105ed8282611196565b60ca546001600160a01b03166323b872dd610ba2610d8b565b30846040518463ffffffff1660e01b8152600401610bc293929190611f67565b6020604051808303816000875af1158015610be1573d6000803e3d6000fd5b505050506040513d601f19601f82011682018060405250810190610c059190611f8b565b50610c17610c11610d8b565b82611446565b50565b610c276000610487610d8b565b610c435760405162461bcd60e51b81526004016101d290611f38565b60cc80546001600160a01b0319166001600160a01b03841690811790915560408051808201909152601f81527f6572726f725f736574416c6c6f636174696f6e506f6c6963794661696c65640060208201526105ed9190634a45d2e6908490610d95565b60cc54604080518082019091526016815275195c9c9bdc97d9d95d121bdc9a5e9bdb91985a5b195960521b6020820152600091610cf5916001600160a01b0390911690636504781b906114f7565b905090565b600082815260976020526040902060010154610d18816107c9610d8b565b6107a68383611063565b610d32610d2d610d8b565b6115d6565b565b60cd5460408051808201909152601b81527f6572726f725f6765744c6561766550656e616c74794661696c65640000000000602082015260009161055a916001600160a01b03909116906318820b1b908590610e6f565b6000610cf5611861565b600080856001600160a01b03168686905060e01b85604051602401610dbc91815260200190565b60408051601f198184030181529181526020820180516001600160e01b03166001600160e01b0319909416939093179092529051610dfa9190611d32565b600060405180830381855af49150503d8060008114610e35576040519150601f19603f3d011682016040523d82523d6000602084013e610e3a565b606091505b5091509150816109d2578051600003610e67578260405162461bcd60e51b81526004016101d29190611fad565b805181602001fd5b6040516001600160a01b0383811660248301528516604482015260009081908190309060e088901b9060640160408051601f198184030181529181526020820180516001600160e01b03166001600160e01b0319909416939093179092529051610ed99190611d32565b600060405180830381855afa9150503d8060008114610f14576040519150601f19603f3d011682016040523d82523d6000602084013e610f19565b606091505b509150915081610f46578051600003610e67578360405162461bcd60e51b81526004016101d29190611fad565b602001519695505050505050565b7f0c2aeec7d49ae38b401e59fd566959b5a0e9de9636615bda9849eebbc2a7188090565b610f828282610a30565b6105ed57610f9a816001600160a01b03166014611888565b610fa5836020611888565b604051602001610fb6929190611fe0565b60408051601f198184030181529082905262461bcd60e51b82526101d291600401611fad565b610fe68282610a30565b6105ed5760008281526097602090815260408083206001600160a01b03851684529091529020805460ff1916600117905561101f610d8b565b6001600160a01b0316816001600160a01b0316837f2f8788117e7eff1d82e926ec794901d17c78024a50270940304540a733656f0d60405160405180910390a45050565b61106d8282610a30565b156105ed5760008281526097602090815260408083206001600160a01b03851684529091529020805460ff191690556110a4610d8b565b6001600160a01b0316816001600160a01b0316837ff6391f5c32d9c69d2a47ea670b442974b53935d1edc7fd64eb21e047a839171b60405160405180910390a45050565b6000805b83548110801561112b5750826001600160a01b03168482815481106111135761111361204f565b6000918252602090912001546001600160a01b031614155b156111425761113b600182612065565b90506110ec565b61114c8482611a2b565b949350505050565b6105ed8282610fdc565b600054610100900460ff166111855760405162461bcd60e51b81526004016101d29061207d565b61118d611b0c565b610c1781611b33565b61119e610f54565b6001600160a01b0383166000908152600191909101602052604081205490036113945760005b60cb5481101561125e57600060cb82815481106111e3576111e361204f565b9060005260206000200160009054906101000a90046001600160a01b0316905061124b816001600160a01b03166307b88ea586866040518060400160405280601681526020017532b93937b92fb537b4b72837b634b1bca7b72537b4b760511b815250611b7c565b5080611256816120c8565b9150506111c4565b5080611268610f54565b6001016000846001600160a01b03166001600160a01b03168152602001908152602001600020600082825461129d9190612065565b90915550600190506112ad610f54565b80546000906112bd908490612065565b909155508190506112cc610f54565b60020160008282546112de9190612065565b909155504290506112ed610f54565b6001600160a01b03808516600090815260039290920160209081526040928390209390935560cc548251808401909352601c83527f6572726f725f616c6c6f636174696f6e506f6c6963794f6e4a6f696e000000009383019390935261135c92169063624ca99c908590611c55565b6040516001600160a01b038316907ffec33d53fba31623ab4fade50b647dadee2d35df868cdea01c57584cb122a1f190600090a25050565b8061139d610f54565b6001016000846001600160a01b03166001600160a01b0316815260200190815260200160002060008282546113d29190612065565b909155508190506113e1610f54565b60020160008282546113f39190612065565b909155505060cc54604080518082019091526019815278195c9c9bdc97dcdd185ad9525b98dc99585cd951985a5b1959603a1b60208201526105ed916001600160a01b031690631f690ce2908590611c55565b8061144f610f54565b60040160008282546114619190612065565b909155505060cc54604080518082019091526013815272195c9c9bdc97dcdc1bdb9cdbdc91985a5b1959606a1b60208201526114b0916001600160a01b031690636fff860d9085908590611b7c565b816001600160a01b03167fe3e06f75e3a1529da79c083b1d8dd06fd928c2e268b3e2aaffa6103a14bcbd99826040516114eb91815260200190565b60405180910390a25050565b6000806000306001600160a01b03168686905060e01b8760405160240161151e9190611e46565b60408051601f198184030181529181526020820180516001600160e01b03166001600160e01b031990941693909317909252905161155c9190611d32565b600060405180830381855afa9150503d8060008114611597576040519150601f19603f3d011682016040523d82523d6000602084013e61159c565b606091505b5091509150816115c9578051600003610e67578360405162461bcd60e51b81526004016101d29190611fad565b6020015195945050505050565b60006115e0610f54565b6001600160a01b038316600090815260019190910160205260409020549050806116445760405162461bcd60e51b8152602060048201526015602482015274195c9c9bdc97d89c9bdad95c939bdd14dd185ad959605a1b60448201526064016101d2565b600061164f83610d34565b9050600061165c846105f1565b905060008161166b8486611c90565b6116759190612065565b60ca5460405163a9059cbb60e01b81526001600160a01b0388811660048301526024820184905292935091169063a9059cbb906044016020604051808303816000875af11580156116ca573d6000803e3d6000fd5b505050506040513d601f19601f820116820180604052508101906116ee9190611f8b565b61172b5760405162461bcd60e51b815260206004820152600e60248201526d32b93937b92fba3930b739b332b960911b60448201526064016101d2565b821561173b5761173b8584611446565b6001611745610f54565b8054600090611755908490611c90565b90915550849050611764610f54565b60020160008282546117769190611c90565b9091555060009050611786610f54565b6001600160a01b038716600090815260019190910160205260409020556000196117ae610f54565b6001600160a01b03808816600090815260039290920160209081526040928390209390935560cc5482518084019093526017835276195c9c9bdc97d89c9bdad95c9319585d9951985a5b1959604a1b938301939093526118179216906319153386908890611c55565b846001600160a01b03167f2572a6e5bf5f6410108efb516d78758103b5c79aff796de5805d920c976246dd8260405161185291815260200190565b60405180910390a25050505050565b6033546000906001600160a01b03163303611883575060131936013560601c90565b503390565b606060006118978360026120e1565b6118a2906002612065565b67ffffffffffffffff8111156118ba576118ba612100565b6040519080825280601f01601f1916602001820160405280156118e4576020820181803683370190505b509050600360fc1b816000815181106118ff576118ff61204f565b60200101906001600160f81b031916908160001a905350600f60fb1b8160018151811061192e5761192e61204f565b60200101906001600160f81b031916908160001a90535060006119528460026120e1565b61195d906001612065565b90505b60018111156119d5576f181899199a1a9b1b9c1cb0b131b232b360811b85600f16601081106119915761199161204f565b1a60f81b8282815181106119a7576119a761204f565b60200101906001600160f81b031916908160001a90535060049490941c936119ce81612116565b9050611960565b508315611a245760405162461bcd60e51b815260206004820181905260248201527f537472696e67733a20686578206c656e67746820696e73756666696369656e7460448201526064016101d2565b9392505050565b600082548210611a3d5750600061055a565b8254611a4b90600190611c90565b821015611ad15782548390611a6290600190611c90565b81548110611a7257611a7261204f565b9060005260206000200160009054906101000a90046001600160a01b0316838381548110611aa257611aa261204f565b9060005260206000200160006101000a8154816001600160a01b0302191690836001600160a01b031602179055505b82805480611ae157611ae161212d565b600082815260209020810160001990810180546001600160a01b031916905501905550600192915050565b600054610100900460ff16610d325760405162461bcd60e51b81526004016101d29061207d565b600054610100900460ff16611b5a5760405162461bcd60e51b81526004016101d29061207d565b603380546001600160a01b0319166001600160a01b0392909216919091179055565b604080516001600160a01b038581166024830152604480830186905283518084039091018152606490920183526020820180516001600160e01b031660e089901b6001600160e01b0319161790529151600092839290891691611bdf9190611d32565b600060405180830381855af49150503d8060008114611c1a576040519150601f19603f3d011682016040523d82523d6000602084013e611c1f565b606091505b509150915081611c4c578051600003610e67578260405162461bcd60e51b81526004016101d29190611fad565b50505050505050565b600080856001600160a01b03168686905060e01b85604051602401610dbc9190611e46565b634e487b7160e01b600052601160045260246000fd5b600082821015611ca257611ca2611c7a565b500390565b60008085851115611cb757600080fd5b83861115611cc457600080fd5b5050820193919092039150565b6bffffffffffffffffffffffff198135818116916014851015611cfe5780818660140360031b1b83161692505b505092915050565b60005b83811015611d21578181015183820152602001611d09565b83811115610afc5750506000910152565b60008251611d44818460208701611d06565b9190910192915050565b600060208284031215611d6057600080fd5b81356001600160e01b031981168114611a2457600080fd5b80356001600160a01b0381168114611d8f57600080fd5b919050565b60008060408385031215611da757600080fd5b611db083611d78565b946020939093013593505050565b600060208284031215611dd057600080fd5b611a2482611d78565b6020810160058310611dfb57634e487b7160e01b600052602160045260246000fd5b91905290565b600060208284031215611e1357600080fd5b5035919050565b60008060408385031215611e2d57600080fd5b82359150611e3d60208401611d78565b90509250929050565b6001600160a01b0391909116815260200190565b600080600080600060a08688031215611e7257600080fd5b611e7b86611d78565b9450611e8960208701611d78565b93506040860135925060608601359150611ea560808701611d78565b90509295509295909350565b60008060008060608587031215611ec757600080fd5b611ed085611d78565b935060208501359250604085013567ffffffffffffffff80821115611ef457600080fd5b818701915087601f830112611f0857600080fd5b813581811115611f1757600080fd5b886020828501011115611f2957600080fd5b95989497505060200194505050565b6020808252601590820152746572726f725f6d757374426541646d696e526f6c6560581b604082015260600190565b6001600160a01b039384168152919092166020820152604081019190915260600190565b600060208284031215611f9d57600080fd5b81518015158114611a2457600080fd5b6020815260008251806020840152611fcc816040850160208701611d06565b601f01601f19169190910160400192915050565b76020b1b1b2b9b9a1b7b73a3937b61d1030b1b1b7bab73a1604d1b815260008351612012816017850160208801611d06565b7001034b99036b4b9b9b4b733903937b6329607d1b6017918401918201528351612043816028840160208801611d06565b01602801949350505050565b634e487b7160e01b600052603260045260246000fd5b6000821982111561207857612078611c7a565b500190565b6020808252602b908201527f496e697469616c697a61626c653a20636f6e7472616374206973206e6f74206960408201526a6e697469616c697a696e6760a81b606082015260800190565b6000600182016120da576120da611c7a565b5060010190565b60008160001904831182151516156120fb576120fb611c7a565b500290565b634e487b7160e01b600052604160045260246000fd5b60008161212557612125611c7a565b506000190190565b634e487b7160e01b600052603160045260246000fdfea2646970667358221220d5be61697f3f802eb9786e8c7c16abda74028772aa189a5f6f8ec82224c175c464736f6c634300080d0033",
  "linkReferences": {},
  "deployedLinkReferences": {}
}