{
  "_format": "hh-sol-artifact-1",
  "contractName": "Bounty",
  "sourceName": "contracts/BrokerEconomics/Bounty.sol",
  "abi": [
    {
      "anonymous": false,
      "inputs": [
        {
          "indexed": true,
          "internalType": "address",
          "name": "broker",
          "type": "address"
        }
      ],
      "name": "BrokerJoined",
      "type": "event"
    },
    {
      "anonymous": false,
      "inputs": [
        {
          "indexed": true,
          "internalType": "address",
          "name": "broker",
          "type": "address"
        },
        {
          "indexed": false,
          "internalType": "uint256",
          "name": "returnedStakeWei",
          "type": "uint256"
        }
      ],
      "name": "BrokerLeft",
      "type": "event"
    },
    {
      "anonymous": false,
      "inputs": [
        {
          "indexed": false,
          "internalType": "uint256",
          "name": "startTimeStamp",
          "type": "uint256"
        },
        {
          "indexed": false,
          "internalType": "uint256",
          "name": "endTimeStamp",
          "type": "uint256"
        },
        {
          "indexed": false,
          "internalType": "uint256",
          "name": "forfeitedWeiPerStake",
          "type": "uint256"
        },
        {
          "indexed": false,
          "internalType": "uint256",
          "name": "forfeitedWei",
          "type": "uint256"
        }
      ],
      "name": "InsolvencyEnded",
      "type": "event"
    },
    {
      "anonymous": false,
      "inputs": [
        {
          "indexed": false,
          "internalType": "uint256",
          "name": "startTimeStamp",
          "type": "uint256"
        }
      ],
      "name": "InsolvencyStarted",
      "type": "event"
    },
    {
      "anonymous": false,
      "inputs": [
        {
          "indexed": true,
          "internalType": "bytes32",
          "name": "role",
          "type": "bytes32"
        },
        {
          "indexed": true,
          "internalType": "bytes32",
          "name": "previousAdminRole",
          "type": "bytes32"
        },
        {
          "indexed": true,
          "internalType": "bytes32",
          "name": "newAdminRole",
          "type": "bytes32"
        }
      ],
      "name": "RoleAdminChanged",
      "type": "event"
    },
    {
      "anonymous": false,
      "inputs": [
        {
          "indexed": true,
          "internalType": "bytes32",
          "name": "role",
          "type": "bytes32"
        },
        {
          "indexed": true,
          "internalType": "address",
          "name": "account",
          "type": "address"
        },
        {
          "indexed": true,
          "internalType": "address",
          "name": "sender",
          "type": "address"
        }
      ],
      "name": "RoleGranted",
      "type": "event"
    },
    {
      "anonymous": false,
      "inputs": [
        {
          "indexed": true,
          "internalType": "bytes32",
          "name": "role",
          "type": "bytes32"
        },
        {
          "indexed": true,
          "internalType": "address",
          "name": "account",
          "type": "address"
        },
        {
          "indexed": true,
          "internalType": "address",
          "name": "sender",
          "type": "address"
        }
      ],
      "name": "RoleRevoked",
      "type": "event"
    },
    {
      "anonymous": false,
      "inputs": [
        {
          "indexed": true,
          "internalType": "address",
          "name": "sponsor",
          "type": "address"
        },
        {
          "indexed": false,
          "internalType": "uint256",
          "name": "amount",
          "type": "uint256"
        }
      ],
      "name": "SponsorshipReceived",
      "type": "event"
    },
    {
      "anonymous": false,
      "inputs": [
        {
          "indexed": true,
          "internalType": "address",
          "name": "broker",
          "type": "address"
        },
        {
          "indexed": false,
          "internalType": "uint256",
          "name": "addedWei",
          "type": "uint256"
        },
        {
          "indexed": false,
          "internalType": "uint256",
          "name": "totalWei",
          "type": "uint256"
        }
      ],
      "name": "StakeAdded",
      "type": "event"
    },
    {
      "anonymous": false,
      "inputs": [
        {
          "indexed": false,
          "internalType": "enum Bounty.State",
          "name": "newState",
          "type": "uint8"
        }
      ],
      "name": "StateChanged",
      "type": "event"
    },
    {
      "stateMutability": "nonpayable",
      "type": "fallback"
    },
    {
      "inputs": [],
      "name": "DEFAULT_ADMIN_ROLE",
      "outputs": [
        {
          "internalType": "bytes32",
          "name": "",
          "type": "bytes32"
        }
      ],
      "stateMutability": "view",
      "type": "function"
    },
    {
      "inputs": [
        {
          "internalType": "address",
          "name": "_joinPolicyAddress",
          "type": "address"
        },
        {
          "internalType": "uint256",
          "name": "param",
          "type": "uint256"
        }
      ],
      "name": "addJoinPolicy",
      "outputs": [],
      "stateMutability": "nonpayable",
      "type": "function"
    },
    {
      "inputs": [],
      "name": "allocationPolicy",
      "outputs": [
        {
          "internalType": "contract IAllocationPolicy",
          "name": "",
          "type": "address"
        }
      ],
      "stateMutability": "view",
      "type": "function"
    },
    {
      "inputs": [],
      "name": "allocationWeiPerSecond",
      "outputs": [
        {
          "internalType": "uint256",
          "name": "",
          "type": "uint256"
        }
      ],
      "stateMutability": "view",
      "type": "function"
    },
    {
      "inputs": [
        {
          "internalType": "address",
          "name": "",
          "type": "address"
        }
      ],
      "name": "approvedPolicies",
      "outputs": [
        {
          "internalType": "bool",
          "name": "",
          "type": "bool"
        }
      ],
      "stateMutability": "view",
      "type": "function"
    },
    {
      "inputs": [
        {
          "internalType": "address",
          "name": "broker",
          "type": "address"
        }
      ],
      "name": "getAllocation",
      "outputs": [
        {
          "internalType": "uint256",
          "name": "",
          "type": "uint256"
        }
      ],
      "stateMutability": "view",
      "type": "function"
    },
    {
      "inputs": [],
      "name": "getMyStake",
      "outputs": [
        {
          "internalType": "uint256",
          "name": "",
          "type": "uint256"
        }
      ],
      "stateMutability": "view",
      "type": "function"
    },
    {
      "inputs": [
        {
          "internalType": "address",
          "name": "broker",
          "type": "address"
        }
      ],
      "name": "getPenaltyOnStake",
      "outputs": [
        {
          "internalType": "uint256",
          "name": "",
          "type": "uint256"
        }
      ],
      "stateMutability": "view",
      "type": "function"
    },
    {
      "inputs": [
        {
          "internalType": "bytes32",
          "name": "role",
          "type": "bytes32"
        }
      ],
      "name": "getRoleAdmin",
      "outputs": [
        {
          "internalType": "bytes32",
          "name": "",
          "type": "bytes32"
        }
      ],
      "stateMutability": "view",
      "type": "function"
    },
    {
      "inputs": [],
      "name": "getUnallocatedWei",
      "outputs": [
        {
          "internalType": "uint256",
          "name": "",
          "type": "uint256"
        }
      ],
      "stateMutability": "view",
      "type": "function"
    },
    {
      "inputs": [
        {
          "internalType": "bytes32",
          "name": "role",
          "type": "bytes32"
        },
        {
          "internalType": "address",
          "name": "account",
          "type": "address"
        }
      ],
      "name": "grantRole",
      "outputs": [],
      "stateMutability": "nonpayable",
      "type": "function"
    },
    {
      "inputs": [
        {
          "internalType": "bytes32",
          "name": "role",
          "type": "bytes32"
        },
        {
          "internalType": "address",
          "name": "account",
          "type": "address"
        }
      ],
      "name": "hasRole",
      "outputs": [
        {
          "internalType": "bool",
          "name": "",
          "type": "bool"
        }
      ],
      "stateMutability": "view",
      "type": "function"
    },
    {
      "inputs": [
        {
          "internalType": "address",
          "name": "newOwner",
          "type": "address"
        },
        {
          "internalType": "address",
          "name": "tokenAddress",
          "type": "address"
        },
        {
          "internalType": "uint256",
          "name": "initialAllocationWeiPerSecond",
          "type": "uint256"
        },
        {
          "internalType": "uint256",
          "name": "initialMinHorizonSeconds",
          "type": "uint256"
        },
        {
          "internalType": "address",
          "name": "trustedForwarderAddress",
          "type": "address"
        }
      ],
      "name": "initialize",
      "outputs": [],
      "stateMutability": "nonpayable",
      "type": "function"
    },
    {
      "inputs": [
        {
          "internalType": "address",
          "name": "forwarder",
          "type": "address"
        }
      ],
      "name": "isTrustedForwarder",
      "outputs": [
        {
          "internalType": "bool",
          "name": "",
          "type": "bool"
        }
      ],
      "stateMutability": "view",
      "type": "function"
    },
    {
      "inputs": [
        {
          "internalType": "uint256",
          "name": "",
          "type": "uint256"
        }
      ],
      "name": "joinPolicyAddresses",
      "outputs": [
        {
          "internalType": "address",
          "name": "",
          "type": "address"
        }
      ],
      "stateMutability": "view",
      "type": "function"
    },
    {
      "inputs": [],
      "name": "leave",
      "outputs": [],
      "stateMutability": "nonpayable",
      "type": "function"
    },
    {
      "inputs": [],
      "name": "leavePolicy",
      "outputs": [
        {
          "internalType": "contract ILeavePolicy",
          "name": "",
          "type": "address"
        }
      ],
      "stateMutability": "view",
      "type": "function"
    },
    {
      "inputs": [],
      "name": "minHorizonSeconds",
      "outputs": [
        {
          "internalType": "uint256",
          "name": "",
          "type": "uint256"
        }
      ],
      "stateMutability": "view",
      "type": "function"
    },
    {
      "inputs": [
        {
          "internalType": "address",
          "name": "",
          "type": "address"
        },
        {
          "internalType": "uint256",
          "name": "amount",
          "type": "uint256"
        },
        {
          "internalType": "bytes",
          "name": "data",
          "type": "bytes"
        }
      ],
      "name": "onTokenTransfer",
      "outputs": [],
      "stateMutability": "nonpayable",
      "type": "function"
    },
    {
      "inputs": [
        {
          "internalType": "bytes32",
          "name": "role",
          "type": "bytes32"
        },
        {
          "internalType": "address",
          "name": "account",
          "type": "address"
        }
      ],
      "name": "renounceRole",
      "outputs": [],
      "stateMutability": "nonpayable",
      "type": "function"
    },
    {
      "inputs": [
        {
          "internalType": "bytes32",
          "name": "role",
          "type": "bytes32"
        },
        {
          "internalType": "address",
          "name": "account",
          "type": "address"
        }
      ],
      "name": "revokeRole",
      "outputs": [],
      "stateMutability": "nonpayable",
      "type": "function"
    },
    {
      "inputs": [
        {
          "internalType": "address",
          "name": "_allocationPolicyAddress",
          "type": "address"
        },
        {
          "internalType": "uint256",
          "name": "param",
          "type": "uint256"
        }
      ],
      "name": "setAllocationPolicy",
      "outputs": [],
      "stateMutability": "nonpayable",
      "type": "function"
    },
    {
      "inputs": [
        {
          "internalType": "uint256",
          "name": "amountTokenWei",
          "type": "uint256"
        }
      ],
      "name": "sponsor",
      "outputs": [],
      "stateMutability": "nonpayable",
      "type": "function"
    },
    {
      "inputs": [
        {
          "internalType": "address",
          "name": "broker",
          "type": "address"
        },
        {
          "internalType": "uint256",
          "name": "amountTokenWei",
          "type": "uint256"
        }
      ],
      "name": "stake",
      "outputs": [],
      "stateMutability": "nonpayable",
      "type": "function"
    },
    {
      "inputs": [
        {
          "internalType": "bytes4",
          "name": "interfaceId",
          "type": "bytes4"
        }
      ],
      "name": "supportsInterface",
      "outputs": [
        {
          "internalType": "bool",
          "name": "",
          "type": "bool"
        }
      ],
      "stateMutability": "view",
      "type": "function"
    },
    {
      "inputs": [],
      "name": "token",
      "outputs": [
        {
          "internalType": "contract IERC677",
          "name": "",
          "type": "address"
        }
      ],
      "stateMutability": "view",
      "type": "function"
    }
  ],
  "bytecode": "0x608060405234801561001057600080fd5b50611db9806100206000396000f3fe608060405234801561001057600080fd5b506004361061016e5760003560e01c806357fb25cc116100ce578063adc9772e11610087578063adc9772e146103d4578063b6cce5e2146103e7578063b9efec95146103fa578063d547741f1461040d578063d628c3b914610420578063d66d9e1914610429578063fc0c546a146104315761016e565b806357fb25cc1461036d5780635ffe115e146103805780636c9390871461039357806391d14854146103a6578063a217fddf146103b9578063a4c0ed36146103c15761016e565b80632b308a561161012b5780632b308a56146102d75780632f2ff15d146102ea57806336568abe146102fd5780633a1c0aa8146103105780635499dca51461033057806354a991b414610338578063572b6c051461034b5761016e565b806301ffc9a7146102375780630e0229231461025f57806311648a4c1461028057806314b474df146102895780631d10fc6414610291578063248a9ca3146102b4575b3330146101b55760405162461bcd60e51b815260206004820152601060248201526f6572726f725f6d75737442655468697360801b60448201526064015b60405180910390fd5b60cc5460405160009182916001600160a01b03909116906101d9908390369061192e565b600060405180830381855af49150503d8060008114610214576040519150601f19603f3d011682016040523d82523d6000602084013e610219565b606091505b5091509150816000811461022e573d60208301f35b3d60208301fd5b005b61024a61024536600461193e565b610444565b60405190151581526020015b60405180910390f35b61027261026d366004611984565b61047b565b604051908152602001610256565b61027260ce5481565b61027261051c565b61024a61029f366004611984565b60c96020526000908152604090205460ff1681565b6102726102c236600461199f565b60009081526097602052604090206001015490565b6102356102e53660046119b8565b610531565b6102356102f83660046119e2565b610691565b61023561030b3660046119e2565b6106c3565b60cc54610323906001600160a01b031681565b6040516102569190611a0e565b610272610751565b60cd54610323906001600160a01b031681565b61024a610359366004611984565b6033546001600160a01b0391821691161490565b61023561037b366004611a22565b61078e565b61032361038e36600461199f565b610885565b6102726103a1366004611984565b6108af565b61024a6103b43660046119e2565b6108d7565b610272600081565b6102356103cf366004611a79565b610902565b6102356103e23660046119b8565b6109a2565b6102356103f536600461199f565b610a29565b6102356104083660046119b8565b610ab2565b61023561041b3660046119e2565b610bdb565b61027260cf5481565b610235610c03565b60ca54610323906001600160a01b031681565b60006001600160e01b03198216637965db0b60e01b148061047557506301ffc9a760e01b6001600160e01b03198316145b92915050565b6000806000306001600160a01b0316637debb95960e01b856040516024016104a39190611a0e565b60408051601f198184030181529181526020820180516001600160e01b03166001600160e01b03199094169390931790925290516104e19190611b2c565b600060405180830381855afa9150503d8060008114610214576040519150601f19603f3d011682016040523d82523d6000602084013e610219565b600080610527611023565b6005015492915050565b61053e60006103b4611047565b61055a5760405162461bcd60e51b81526004016101ac90611b48565b60cb805460018101825560009182527fa7ce836d032b2bf62b7e2097a8e0a6d8aeb35405ad15271e96d3b0188a1d06fb0180546001600160a01b0319166001600160a01b0385169081179091556040516024810184905282919060440160408051601f198184030181529181526020820180516001600160e01b0316632522e97360e11b179052516105ec9190611b2c565b600060405180830381855af49150503d8060008114610627576040519150601f19603f3d011682016040523d82523d6000602084013e61062c565b606091505b50915091508161068b5780516000036106835760405162461bcd60e51b8152602060048201526019602482015278195c9c9bdc97d85919129bda5b941bdb1a58de51985a5b1959603a1b60448201526064016101ac565b805181602001fd5b50505050565b6000828152609760205260409020600101546106b4816106af611047565b611056565b6106be83836110ba565b505050565b6106cb611047565b6001600160a01b0316816001600160a01b0316146107435760405162461bcd60e51b815260206004820152602f60248201527f416363657373436f6e74726f6c3a2063616e206f6e6c792072656e6f756e636560448201526e103937b632b9903337b91039b2b63360891b60648201526084016101ac565b61074d8282611141565b5050565b600061075b611023565b6002016000610768611047565b6001600160a01b03166001600160a01b0316815260200190815260200160002054905090565b600054610100900460ff166107a95760005460ff16156107ad565b303b155b6108105760405162461bcd60e51b815260206004820152602e60248201527f496e697469616c697a61626c653a20636f6e747261637420697320616c72656160448201526d191e481a5b9a5d1a585b1a5e995960921b60648201526084016101ac565b600054610100900460ff16158015610832576000805461ffff19166101011790555b61083d6000876111c6565b60ca80546001600160a01b0319166001600160a01b038716179055610861826111d0565b60cf84905560ce839055801561087d576000805461ff00191690555b505050505050565b60cb818154811061089557600080fd5b6000918252602090912001546001600160a01b0316905081565b6000806000306001600160a01b0316634877a50c60e01b856040516024016104a39190611a0e565b60009182526097602090815260408084206001600160a01b0393909316845291905290205460ff1690565b60ca546001600160a01b0316610916611047565b6001600160a01b0316146109665760405162461bcd60e51b8152602060048201526017602482015276195c9c9bdc97dbdb9b1e551bdad95b90dbdb9d1c9858dd604a1b60448201526064016101ac565b601481900361098457813560601c61097e8185611208565b5061068b565b602081900361099957813561097e8185611208565b61068b83611684565b60ca546001600160a01b03166323b872dd6109bb611047565b30846040518463ffffffff1660e01b81526004016109db93929190611b77565b6020604051808303816000875af11580156109fa573d6000803e3d6000fd5b505050506040513d601f19601f82011682018060405250810190610a1e9190611b9b565b5061074d8282611208565b60ca546001600160a01b03166323b872dd610a42611047565b30846040518463ffffffff1660e01b8152600401610a6293929190611b77565b6020604051808303816000875af1158015610a81573d6000803e3d6000fd5b505050506040513d601f19601f82011682018060405250810190610aa59190611b9b565b50610aaf81611684565b50565b610abf60006103b4611047565b610adb5760405162461bcd60e51b81526004016101ac90611b48565b60cc80546001600160a01b0319166001600160a01b03841690811790915560405160248101839052600091829160440160408051601f198184030181529181526020820180516001600160e01b0316632522e97360e11b17905251610b409190611b2c565b600060405180830381855af49150503d8060008114610b7b576040519150601f19603f3d011682016040523d82523d6000602084013e610b80565b606091505b50915091508161068b5780516000036106835760405162461bcd60e51b815260206004820152601f60248201527f6572726f725f736574416c6c6f636174696f6e506f6c6963794661696c65640060448201526064016101ac565b600082815260976020526040902060010154610bf9816106af611047565b6106be8383611141565b600030636c939087610c13611047565b6040518263ffffffff1660e01b8152600401610c2f9190611a0e565b602060405180830381865afa158015610c4c573d6000803e3d6000fd5b505050506040513d601f19601f82011682018060405250810190610c709190611bbd565b9050600030630e022923610c82611047565b6040518263ffffffff1660e01b8152600401610c9e9190611a0e565b602060405180830381865afa158015610cbb573d6000803e3d6000fd5b505050506040513d601f19601f82011682018060405250810190610cdf9190611bbd565b905060008183610ced611023565b6002016000610cfa611047565b6001600160a01b03166001600160a01b0316815260200190815260200160002054610d259190611bec565b610d2f9190611c03565b60ca549091506001600160a01b031663a9059cbb610d4b611047565b6040516001600160e01b031960e084901b1681526001600160a01b039091166004820152602481018490526044016020604051808303816000875af1158015610d98573d6000803e3d6000fd5b505050506040513d601f19601f82011682018060405250810190610dbc9190611b9b565b610df95760405162461bcd60e51b815260206004820152600e60248201526d32b93937b92fba3930b739b332b960911b60448201526064016101ac565b8215610e0857610e0883611684565b6001610e12611023565b6001016000828254610e249190611bec565b90915550610e329050611023565b6002016000610e3f611047565b6001600160a01b03166001600160a01b0316815260200190815260200160002054610e68611023565b6003016000828254610e7a9190611bec565b9091555060009050610e8a611023565b6002016000610e97611047565b6001600160a01b03168152602081019190915260400160002055600019610ebc611023565b6004016000610ec9611047565b6001600160a01b039081168252602082019290925260400160009081209290925560cc54829116610ef8611047565b604051602401610f089190611a0e565b60408051601f198184030181529181526020820180516001600160e01b0316630c8a99c360e11b17905251610f3d9190611b2c565b600060405180830381855af49150503d8060008114610f78576040519150601f19603f3d011682016040523d82523d6000602084013e610f7d565b606091505b509150915081610fd25780516000036106835760405162461bcd60e51b8152602060048201526017602482015276195c9c9bdc97d89c9bdad95c9319585d9951985a5b1959604a1b60448201526064016101ac565b610fda611047565b6001600160a01b03167f2572a6e5bf5f6410108efb516d78758103b5c79aff796de5805d920c976246dd8460405161101491815260200190565b60405180910390a25050505050565b7f0c2aeec7d49ae38b401e59fd566959b5a0e9de9636615bda9849eebbc2a7188090565b60006110516116f2565b905090565b61106082826108d7565b61074d57611078816001600160a01b03166014611719565b611083836020611719565b604051602001611094929190611c1b565b60408051601f198184030181529082905262461bcd60e51b82526101ac91600401611c8a565b6110c482826108d7565b61074d5760008281526097602090815260408083206001600160a01b03851684529091529020805460ff191660011790556110fd611047565b6001600160a01b0316816001600160a01b0316837f2f8788117e7eff1d82e926ec794901d17c78024a50270940304540a733656f0d60405160405180910390a45050565b61114b82826108d7565b1561074d5760008281526097602090815260408083206001600160a01b03851684529091529020805460ff19169055611182611047565b6001600160a01b0316816001600160a01b0316837ff6391f5c32d9c69d2a47ea670b442974b53935d1edc7fd64eb21e047a839171b60405160405180910390a45050565b61074d82826110ba565b600054610100900460ff166111f75760405162461bcd60e51b81526004016101ac90611cbd565b6111ff6118bc565b610aaf816118e5565b611210611023565b6001600160a01b03831660009081526002919091016020526040812054900361152f5760005b60cb5481101561136557600060cb828154811061125557611255611d08565b60009182526020822001546040516001600160a01b0387811660248301526044820187905290911692508190839060640160408051601f198184030181529181526020820180516001600160e01b0316632d1dce5560e01b179052516112bb9190611b2c565b600060405180830381855af49150503d80600081146112f6576040519150601f19603f3d011682016040523d82523d6000602084013e6112fb565b606091505b50915091508161134f5780516000036106835760405162461bcd60e51b8152602060048201526016602482015275195c9c9bdc97d89c9bdad95c929bda5b91985a5b195960521b60448201526064016101ac565b505050808061135d90611d1e565b915050611236565b508061136f611023565b6002016000846001600160a01b03166001600160a01b0316815260200190815260200160002060008282546113a49190611c03565b90915550600190506113b4611023565b60010160008282546113c69190611c03565b909155508190506113d5611023565b60030160008282546113e79190611c03565b909155504290506113f6611023565b6001600160a01b03808516600090815260049290920160205260408083209390935560cc54925191928392911690611432908690602401611a0e565b60408051601f198184030181529181526020820180516001600160e01b03166318932a6760e21b179052516114679190611b2c565b600060405180830381855af49150503d80600081146114a2576040519150601f19603f3d011682016040523d82523d6000602084013e6114a7565b606091505b5091509150816114f55780516000036106835760405162461bcd60e51b815260206004820152601060248201526f195c9c9bdc97da9bda5b91985a5b195960821b60448201526064016101ac565b6040516001600160a01b038516907ffec33d53fba31623ab4fade50b647dadee2d35df868cdea01c57584cb122a1f190600090a250505050565b80611538611023565b6002016000846001600160a01b03166001600160a01b03168152602001908152602001600020600082825461156d9190611c03565b9091555081905061157c611023565b600301600082825461158e9190611c03565b909155505060cc5460405160009182916001600160a01b03909116906115b8908690602401611a0e565b60408051601f198184030181529181526020820180516001600160e01b0316630fb4867160e11b179052516115ed9190611b2c565b600060405180830381855af49150503d8060008114611628576040519150601f19603f3d011682016040523d82523d6000602084013e61162d565b606091505b50915091508161068b5780516000036106835760405162461bcd60e51b8152602060048201526019602482015278195c9c9bdc97dcdd185ad9525b98dc99585cd951985a5b1959603a1b60448201526064016101ac565b8061168d611023565b600501600082825461169f9190611c03565b909155506116ad9050611047565b6001600160a01b03167fe3e06f75e3a1529da79c083b1d8dd06fd928c2e268b3e2aaffa6103a14bcbd99826040516116e791815260200190565b60405180910390a250565b6033546000906001600160a01b03163303611714575060131936013560601c90565b503390565b60606000611728836002611d37565b611733906002611c03565b67ffffffffffffffff81111561174b5761174b611d56565b6040519080825280601f01601f191660200182016040528015611775576020820181803683370190505b509050600360fc1b8160008151811061179057611790611d08565b60200101906001600160f81b031916908160001a905350600f60fb1b816001815181106117bf576117bf611d08565b60200101906001600160f81b031916908160001a90535060006117e3846002611d37565b6117ee906001611c03565b90505b6001811115611866576f181899199a1a9b1b9c1cb0b131b232b360811b85600f166010811061182257611822611d08565b1a60f81b82828151811061183857611838611d08565b60200101906001600160f81b031916908160001a90535060049490941c9361185f81611d6c565b90506117f1565b5083156118b55760405162461bcd60e51b815260206004820181905260248201527f537472696e67733a20686578206c656e67746820696e73756666696369656e7460448201526064016101ac565b9392505050565b600054610100900460ff166118e35760405162461bcd60e51b81526004016101ac90611cbd565b565b600054610100900460ff1661190c5760405162461bcd60e51b81526004016101ac90611cbd565b603380546001600160a01b0319166001600160a01b0392909216919091179055565b8183823760009101908152919050565b60006020828403121561195057600080fd5b81356001600160e01b0319811681146118b557600080fd5b80356001600160a01b038116811461197f57600080fd5b919050565b60006020828403121561199657600080fd5b6118b582611968565b6000602082840312156119b157600080fd5b5035919050565b600080604083850312156119cb57600080fd5b6119d483611968565b946020939093013593505050565b600080604083850312156119f557600080fd5b82359150611a0560208401611968565b90509250929050565b6001600160a01b0391909116815260200190565b600080600080600060a08688031215611a3a57600080fd5b611a4386611968565b9450611a5160208701611968565b93506040860135925060608601359150611a6d60808701611968565b90509295509295909350565b60008060008060608587031215611a8f57600080fd5b611a9885611968565b935060208501359250604085013567ffffffffffffffff80821115611abc57600080fd5b818701915087601f830112611ad057600080fd5b813581811115611adf57600080fd5b886020828501011115611af157600080fd5b95989497505060200194505050565b60005b83811015611b1b578181015183820152602001611b03565b8381111561068b5750506000910152565b60008251611b3e818460208701611b00565b9190910192915050565b6020808252601590820152746572726f725f6d757374426541646d696e526f6c6560581b604082015260600190565b6001600160a01b039384168152919092166020820152604081019190915260600190565b600060208284031215611bad57600080fd5b815180151581146118b557600080fd5b600060208284031215611bcf57600080fd5b5051919050565b634e487b7160e01b600052601160045260246000fd5b600082821015611bfe57611bfe611bd6565b500390565b60008219821115611c1657611c16611bd6565b500190565b76020b1b1b2b9b9a1b7b73a3937b61d1030b1b1b7bab73a1604d1b815260008351611c4d816017850160208801611b00565b7001034b99036b4b9b9b4b733903937b6329607d1b6017918401918201528351611c7e816028840160208801611b00565b01602801949350505050565b6020815260008251806020840152611ca9816040850160208701611b00565b601f01601f19169190910160400192915050565b6020808252602b908201527f496e697469616c697a61626c653a20636f6e7472616374206973206e6f74206960408201526a6e697469616c697a696e6760a81b606082015260800190565b634e487b7160e01b600052603260045260246000fd5b600060018201611d3057611d30611bd6565b5060010190565b6000816000190483118215151615611d5157611d51611bd6565b500290565b634e487b7160e01b600052604160045260246000fd5b600081611d7b57611d7b611bd6565b50600019019056fea264697066735822122075f0d519871d654add17e4ee415242e8deb5143e740e137f5d8fc69c92bf4cf164736f6c634300080d0033",
  "linkReferences": {},
  "deployedLinkReferences": {}
}