{
  "_format": "hh-sol-artifact-1",
  "contractName": "BountyFactory",
  "sourceName": "contracts/BrokerEconomics/BountyFactory.sol",
  "abi": [
    {
      "anonymous": false,
      "inputs": [
        {
          "indexed": false,
          "internalType": "address",
          "name": "previousAdmin",
          "type": "address"
        },
        {
          "indexed": false,
          "internalType": "address",
          "name": "newAdmin",
          "type": "address"
        }
      ],
      "name": "AdminChanged",
      "type": "event"
    },
    {
      "anonymous": false,
      "inputs": [
        {
          "indexed": true,
          "internalType": "address",
          "name": "beacon",
          "type": "address"
        }
      ],
      "name": "BeaconUpgraded",
      "type": "event"
    },
    {
      "anonymous": false,
      "inputs": [
        {
          "indexed": false,
          "internalType": "address",
          "name": "bountyContract",
          "type": "address"
        }
      ],
      "name": "NewBounty",
      "type": "event"
    },
    {
      "anonymous": false,
      "inputs": [
        {
          "indexed": true,
          "internalType": "bytes32",
          "name": "role",
          "type": "bytes32"
        },
        {
          "indexed": true,
          "internalType": "bytes32",
          "name": "previousAdminRole",
          "type": "bytes32"
        },
        {
          "indexed": true,
          "internalType": "bytes32",
          "name": "newAdminRole",
          "type": "bytes32"
        }
      ],
      "name": "RoleAdminChanged",
      "type": "event"
    },
    {
      "anonymous": false,
      "inputs": [
        {
          "indexed": true,
          "internalType": "bytes32",
          "name": "role",
          "type": "bytes32"
        },
        {
          "indexed": true,
          "internalType": "address",
          "name": "account",
          "type": "address"
        },
        {
          "indexed": true,
          "internalType": "address",
          "name": "sender",
          "type": "address"
        }
      ],
      "name": "RoleGranted",
      "type": "event"
    },
    {
      "anonymous": false,
      "inputs": [
        {
          "indexed": true,
          "internalType": "bytes32",
          "name": "role",
          "type": "bytes32"
        },
        {
          "indexed": true,
          "internalType": "address",
          "name": "account",
          "type": "address"
        },
        {
          "indexed": true,
          "internalType": "address",
          "name": "sender",
          "type": "address"
        }
      ],
      "name": "RoleRevoked",
      "type": "event"
    },
    {
      "anonymous": false,
      "inputs": [
        {
          "indexed": true,
          "internalType": "address",
          "name": "implementation",
          "type": "address"
        }
      ],
      "name": "Upgraded",
      "type": "event"
    },
    {
      "inputs": [],
      "name": "DEFAULT_ADMIN_ROLE",
      "outputs": [
        {
          "internalType": "bytes32",
          "name": "",
          "type": "bytes32"
        }
      ],
      "stateMutability": "view",
      "type": "function"
    },
    {
      "inputs": [
        {
          "internalType": "string",
          "name": "",
          "type": "string"
        }
      ],
      "name": "allocationPolicies",
      "outputs": [
        {
          "internalType": "address",
          "name": "",
          "type": "address"
        }
      ],
      "stateMutability": "view",
      "type": "function"
    },
    {
      "inputs": [],
      "name": "bountyContractTemplate",
      "outputs": [
        {
          "internalType": "address",
          "name": "",
          "type": "address"
        }
      ],
      "stateMutability": "view",
      "type": "function"
    },
    {
      "inputs": [
        {
          "internalType": "uint256",
          "name": "initialAllocationWeiPerSecond",
          "type": "uint256"
        },
        {
          "internalType": "uint256",
          "name": "initialMinHorizonSeconds",
          "type": "uint256"
        },
        {
          "internalType": "string",
          "name": "bountyName",
          "type": "string"
        }
      ],
      "name": "deployBountyAgreement",
      "outputs": [
        {
          "internalType": "address",
          "name": "",
          "type": "address"
        }
      ],
      "stateMutability": "nonpayable",
      "type": "function"
    },
    {
      "inputs": [
        {
          "internalType": "bytes32",
          "name": "role",
          "type": "bytes32"
        }
      ],
      "name": "getRoleAdmin",
      "outputs": [
        {
          "internalType": "bytes32",
          "name": "",
          "type": "bytes32"
        }
      ],
      "stateMutability": "view",
      "type": "function"
    },
    {
      "inputs": [
        {
          "internalType": "bytes32",
          "name": "role",
          "type": "bytes32"
        },
        {
          "internalType": "address",
          "name": "account",
          "type": "address"
        }
      ],
      "name": "grantRole",
      "outputs": [],
      "stateMutability": "nonpayable",
      "type": "function"
    },
    {
      "inputs": [
        {
          "internalType": "bytes32",
          "name": "role",
          "type": "bytes32"
        },
        {
          "internalType": "address",
          "name": "account",
          "type": "address"
        }
      ],
      "name": "hasRole",
      "outputs": [
        {
          "internalType": "bool",
          "name": "",
          "type": "bool"
        }
      ],
      "stateMutability": "view",
      "type": "function"
    },
    {
      "inputs": [
        {
          "internalType": "address",
          "name": "templateAddress",
          "type": "address"
        },
        {
          "internalType": "address",
          "name": "trustedForwarderAddress",
          "type": "address"
        },
        {
          "internalType": "address",
          "name": "_tokenAddress",
          "type": "address"
        }
      ],
      "name": "initialize",
      "outputs": [],
      "stateMutability": "nonpayable",
      "type": "function"
    },
    {
      "inputs": [
        {
          "internalType": "address",
          "name": "forwarder",
          "type": "address"
        }
      ],
      "name": "isTrustedForwarder",
      "outputs": [
        {
          "internalType": "bool",
          "name": "",
          "type": "bool"
        }
      ],
      "stateMutability": "view",
      "type": "function"
    },
    {
      "inputs": [
        {
          "internalType": "string",
          "name": "",
          "type": "string"
        }
      ],
      "name": "joinPolicies",
      "outputs": [
        {
          "internalType": "address",
          "name": "",
          "type": "address"
        }
      ],
      "stateMutability": "view",
      "type": "function"
    },
    {
      "inputs": [
        {
          "internalType": "string",
          "name": "",
          "type": "string"
        }
      ],
      "name": "leavePolicies",
      "outputs": [
        {
          "internalType": "address",
          "name": "",
          "type": "address"
        }
      ],
      "stateMutability": "view",
      "type": "function"
    },
    {
      "inputs": [
        {
          "internalType": "bytes32",
          "name": "role",
          "type": "bytes32"
        },
        {
          "internalType": "address",
          "name": "account",
          "type": "address"
        }
      ],
      "name": "renounceRole",
      "outputs": [],
      "stateMutability": "nonpayable",
      "type": "function"
    },
    {
      "inputs": [
        {
          "internalType": "bytes32",
          "name": "role",
          "type": "bytes32"
        },
        {
          "internalType": "address",
          "name": "account",
          "type": "address"
        }
      ],
      "name": "revokeRole",
      "outputs": [],
      "stateMutability": "nonpayable",
      "type": "function"
    },
    {
      "inputs": [],
      "name": "streamBrokerRegistryAddress",
      "outputs": [
        {
          "internalType": "address",
          "name": "",
          "type": "address"
        }
      ],
      "stateMutability": "view",
      "type": "function"
    },
    {
      "inputs": [
        {
          "internalType": "bytes4",
          "name": "interfaceId",
          "type": "bytes4"
        }
      ],
      "name": "supportsInterface",
      "outputs": [
        {
          "internalType": "bool",
          "name": "",
          "type": "bool"
        }
      ],
      "stateMutability": "view",
      "type": "function"
    },
    {
      "inputs": [],
      "name": "tokenAddress",
      "outputs": [
        {
          "internalType": "address",
          "name": "",
          "type": "address"
        }
      ],
      "stateMutability": "view",
      "type": "function"
    },
    {
      "inputs": [
        {
          "internalType": "address",
          "name": "newImplementation",
          "type": "address"
        }
      ],
      "name": "upgradeTo",
      "outputs": [],
      "stateMutability": "nonpayable",
      "type": "function"
    },
    {
      "inputs": [
        {
          "internalType": "address",
          "name": "newImplementation",
          "type": "address"
        },
        {
          "internalType": "bytes",
          "name": "data",
          "type": "bytes"
        }
      ],
      "name": "upgradeToAndCall",
      "outputs": [],
      "stateMutability": "payable",
      "type": "function"
    }
  ],
  "bytecode": "0x60a06040523060805234801561001457600080fd5b50608051611690610045600039600081816104d6015281816105160152818161059501526105d501526116906000f3fe6080604052600436106100e95760003560e01c806391d148541161008557806391d14854146102745780639d76ea5814610294578063a217fddf146102b5578063b19cba76146102ca578063bce57ad11461030c578063c09d3c151461032d578063c0c53b8b1461036f578063d547741f1461038f578063df2527e7146103af57600080fd5b806301ffc9a7146100ee578063248a9ca3146101235780632f2ff15d1461016157806336568abe146101835780633659cfe6146101a35780634f1ef286146101c3578063572b6c05146101d657806369ff4156146102055780636e062f8114610232575b600080fd5b3480156100fa57600080fd5b5061010e61010936600461111e565b6103d0565b60405190151581526020015b60405180910390f35b34801561012f57600080fd5b5061015361013e366004611148565b600090815260fb602052604090206001015490565b60405190815260200161011a565b34801561016d57600080fd5b5061018161017c36600461117d565b610407565b005b34801561018f57600080fd5b5061018161019e36600461117d565b610439565b3480156101af57600080fd5b506101816101be3660046111a9565b6104cc565b6101816101d1366004611250565b61058b565b3480156101e257600080fd5b5061010e6101f13660046111a9565b6097546001600160a01b0391821691161490565b34801561021157600080fd5b506102256102203660046112d2565b610637565b60405161011a9190611322565b34801561023e57600080fd5b5061022561024d366004611336565b8051602081830181018051610131825292820191909301209152546001600160a01b031681565b34801561028057600080fd5b5061010e61028f36600461117d565b610766565b3480156102a057600080fd5b5061012f54610225906001600160a01b031681565b3480156102c157600080fd5b50610153600081565b3480156102d657600080fd5b506102256102e5366004611336565b8051602081830181018051610132825292820191909301209152546001600160a01b031681565b34801561031857600080fd5b5061012d54610225906001600160a01b031681565b34801561033957600080fd5b50610225610348366004611336565b8051602081830181018051610133825292820191909301209152546001600160a01b031681565b34801561037b57600080fd5b5061018161038a366004611373565b610791565b34801561039b57600080fd5b506101816103aa36600461117d565b6108a9565b3480156103bb57600080fd5b5061012e54610225906001600160a01b031681565b60006001600160e01b03198216637965db0b60e01b148061040157506301ffc9a760e01b6001600160e01b03198316145b92915050565b600082815260fb602052604090206001015461042a816104256108d1565b6108e0565b6104348383610944565b505050565b6104416108d1565b6001600160a01b0316816001600160a01b0316146104be5760405162461bcd60e51b815260206004820152602f60248201527f416363657373436f6e74726f6c3a2063616e206f6e6c792072656e6f756e636560448201526e103937b632b9903337b91039b2b63360891b60648201526084015b60405180910390fd5b6104c882826109cb565b5050565b6001600160a01b037f00000000000000000000000000000000000000000000000000000000000000001630036105145760405162461bcd60e51b81526004016104b5906113b6565b7f00000000000000000000000000000000000000000000000000000000000000006001600160a01b0316610546610a50565b6001600160a01b03161461056c5760405162461bcd60e51b81526004016104b590611402565b6040805160008082526020820190925261058891839190610a7e565b50565b6001600160a01b037f00000000000000000000000000000000000000000000000000000000000000001630036105d35760405162461bcd60e51b81526004016104b5906113b6565b7f00000000000000000000000000000000000000000000000000000000000000006001600160a01b0316610605610a50565b6001600160a01b03161461062b5760405162461bcd60e51b81526004016104b590611402565b6104c882826001610a7e565b600080826106436108d1565b6040516020016106549291906114a6565b60408051601f19818403018152919052805160209091012061012d54909150600090610689906001600160a01b031683610bc5565b9050806001600160a01b0381166357fb25cc6106a36108d1565b61012f546101305460405160e085901b6001600160e01b03191681526001600160a01b0393841660048201529183166024830152604482018c9052606482018b905291909116608482015260a401600060405180830381600087803b15801561070b57600080fd5b505af115801561071f573d6000803e3d6000fd5b505050507f3e39a36d490da9ca21ddcbe2fafad2cd6d39911e99e95d73828f48dd9a748117826040516107529190611322565b60405180910390a1509150505b9392505050565b600091825260fb602090815260408084206001600160a01b0393909316845291905290205460ff1690565b600054610100900460ff166107ac5760005460ff16156107b0565b303b155b6108135760405162461bcd60e51b815260206004820152602e60248201527f496e697469616c697a61626c653a20636f6e747261637420697320616c72656160448201526d191e481a5b9a5d1a585b1a5e995960921b60648201526084016104b5565b600054610100900460ff16158015610835576000805461ffff19166101011790555b61083d610c5f565b610848600033610ca0565b61085183610caa565b61012f80546001600160a01b038085166001600160a01b03199283161790925561012d805487841690831617905561013080549286169290911691909117905580156108a3576000805461ff00191690555b50505050565b600082815260fb60205260409020600101546108c7816104256108d1565b61043483836109cb565b60006108db610ce2565b905090565b6108ea8282610766565b6104c857610902816001600160a01b03166014610d09565b61090d836020610d09565b60405160200161091e9291906114d0565b60408051601f198184030181529082905262461bcd60e51b82526104b59160040161153f565b61094e8282610766565b6104c857600082815260fb602090815260408083206001600160a01b03851684529091529020805460ff191660011790556109876108d1565b6001600160a01b0316816001600160a01b0316837f2f8788117e7eff1d82e926ec794901d17c78024a50270940304540a733656f0d60405160405180910390a45050565b6109d58282610766565b156104c857600082815260fb602090815260408083206001600160a01b03851684529091529020805460ff19169055610a0c6108d1565b6001600160a01b0316816001600160a01b0316837ff6391f5c32d9c69d2a47ea670b442974b53935d1edc7fd64eb21e047a839171b60405160405180910390a45050565b7f360894a13ba1a3210667c828492db98dca3e2076cc3735a920a3ca505d382bbc546001600160a01b031690565b6000610a88610a50565b9050610a9384610ea5565b600083511180610aa05750815b15610ab157610aaf8484610f4a565b505b7f4910fdfa16fed3260ed0e7147f7cc6da11a60208b5b9406d12a635614ffd9143805460ff16610bbe57805460ff19166001178155604051610b2c908690610afd908590602401611322565b60408051601f198184030181529190526020810180516001600160e01b0316631b2ce7f360e11b179052610f4a565b50805460ff19168155610b3d610a50565b6001600160a01b0316826001600160a01b031614610bb55760405162461bcd60e51b815260206004820152602f60248201527f45524331393637557067726164653a207570677261646520627265616b73206660448201526e75727468657220757067726164657360881b60648201526084016104b5565b610bbe85611035565b5050505050565b6000604051733d602d80600a3d3981f3363d3d373d3d3d363d7360601b81528360601b60148201526e5af43d82803e903d91602b57fd5bf360881b6028820152826037826000f59150506001600160a01b0381166104015760405162461bcd60e51b8152602060048201526017602482015276115490cc4c4d8dce8818dc99585d194c8819985a5b1959604a1b60448201526064016104b5565b600054610100900460ff16610c865760405162461bcd60e51b81526004016104b590611552565b610c8e611075565b610c96611075565b610c9e611075565b565b6104c88282610944565b600054610100900460ff16610cd15760405162461bcd60e51b81526004016104b590611552565b610cd9611075565b6105888161109c565b6097546000906001600160a01b03163303610d04575060131936013560601c90565b503390565b60606000610d188360026115b3565b610d239060026115d2565b67ffffffffffffffff811115610d3b57610d3b6111c4565b6040519080825280601f01601f191660200182016040528015610d65576020820181803683370190505b509050600360fc1b81600081518110610d8057610d806115ea565b60200101906001600160f81b031916908160001a905350600f60fb1b81600181518110610daf57610daf6115ea565b60200101906001600160f81b031916908160001a9053506000610dd38460026115b3565b610dde9060016115d2565b90505b6001811115610e56576f181899199a1a9b1b9c1cb0b131b232b360811b85600f1660108110610e1257610e126115ea565b1a60f81b828281518110610e2857610e286115ea565b60200101906001600160f81b031916908160001a90535060049490941c93610e4f81611600565b9050610de1565b50831561075f5760405162461bcd60e51b815260206004820181905260248201527f537472696e67733a20686578206c656e67746820696e73756666696369656e7460448201526064016104b5565b803b610f095760405162461bcd60e51b815260206004820152602d60248201527f455243313936373a206e657720696d706c656d656e746174696f6e206973206e60448201526c1bdd08184818dbdb9d1c9858dd609a1b60648201526084016104b5565b7f360894a13ba1a3210667c828492db98dca3e2076cc3735a920a3ca505d382bbc80546001600160a01b0319166001600160a01b0392909216919091179055565b6060823b610fa95760405162461bcd60e51b815260206004820152602660248201527f416464726573733a2064656c65676174652063616c6c20746f206e6f6e2d636f6044820152651b9d1c9858dd60d21b60648201526084016104b5565b600080846001600160a01b031684604051610fc49190611617565b600060405180830381855af49150503d8060008114610fff576040519150601f19603f3d011682016040523d82523d6000602084013e611004565b606091505b509150915061102c8282604051806060016040528060278152602001611634602791396110e5565b95945050505050565b61103e81610ea5565b6040516001600160a01b038216907fbc7cd75a20ee27fd9adebab32041f755214dbc6bffa90cc0225b39da2e5c2d3b90600090a250565b600054610100900460ff16610c9e5760405162461bcd60e51b81526004016104b590611552565b600054610100900460ff166110c35760405162461bcd60e51b81526004016104b590611552565b609780546001600160a01b0319166001600160a01b0392909216919091179055565b606083156110f457508161075f565b8251156111045782518084602001fd5b8160405162461bcd60e51b81526004016104b5919061153f565b60006020828403121561113057600080fd5b81356001600160e01b03198116811461075f57600080fd5b60006020828403121561115a57600080fd5b5035919050565b80356001600160a01b038116811461117857600080fd5b919050565b6000806040838503121561119057600080fd5b823591506111a060208401611161565b90509250929050565b6000602082840312156111bb57600080fd5b61075f82611161565b634e487b7160e01b600052604160045260246000fd5b600067ffffffffffffffff808411156111f5576111f56111c4565b604051601f8501601f19908116603f0116810190828211818310171561121d5761121d6111c4565b8160405280935085815286868601111561123657600080fd5b858560208301376000602087830101525050509392505050565b6000806040838503121561126357600080fd5b61126c83611161565b9150602083013567ffffffffffffffff81111561128857600080fd5b8301601f8101851361129957600080fd5b6112a8858235602084016111da565b9150509250929050565b600082601f8301126112c357600080fd5b61075f838335602085016111da565b6000806000606084860312156112e757600080fd5b8335925060208401359150604084013567ffffffffffffffff81111561130c57600080fd5b611318868287016112b2565b9150509250925092565b6001600160a01b0391909116815260200190565b60006020828403121561134857600080fd5b813567ffffffffffffffff81111561135f57600080fd5b61136b848285016112b2565b949350505050565b60008060006060848603121561138857600080fd5b61139184611161565b925061139f60208501611161565b91506113ad60408501611161565b90509250925092565b6020808252602c908201527f46756e6374696f6e206d7573742062652063616c6c6564207468726f7567682060408201526b19195b1959d85d1958d85b1b60a21b606082015260800190565b6020808252602c908201527f46756e6374696f6e206d7573742062652063616c6c6564207468726f7567682060408201526b6163746976652070726f787960a01b606082015260800190565b60005b83811015611469578181015183820152602001611451565b838111156108a35750506000910152565b6000815180845261149281602086016020860161144e565b601f01601f19169290920160200192915050565b6040815260006114b9604083018561147a565b905060018060a01b03831660208301529392505050565b76020b1b1b2b9b9a1b7b73a3937b61d1030b1b1b7bab73a1604d1b81526000835161150281601785016020880161144e565b7001034b99036b4b9b9b4b733903937b6329607d1b601791840191820152835161153381602884016020880161144e565b01602801949350505050565b60208152600061075f602083018461147a565b6020808252602b908201527f496e697469616c697a61626c653a20636f6e7472616374206973206e6f74206960408201526a6e697469616c697a696e6760a81b606082015260800190565b634e487b7160e01b600052601160045260246000fd5b60008160001904831182151516156115cd576115cd61159d565b500290565b600082198211156115e5576115e561159d565b500190565b634e487b7160e01b600052603260045260246000fd5b60008161160f5761160f61159d565b506000190190565b6000825161162981846020870161144e565b919091019291505056fe416464726573733a206c6f772d6c6576656c2064656c65676174652063616c6c206661696c6564a2646970667358221220a30e89f6086bed800ec581423f1acca16bcef9be38391cb1dfbade2bb1a1d48464736f6c634300080d0033",
  "linkReferences": {},
  "deployedLinkReferences": {}
}