{
  "_format": "hh-sol-artifact-1",
  "contractName": "BountyFactory",
  "sourceName": "contracts/BrokerEconomics/BountyFactory.sol",
  "abi": [
    {
      "anonymous": false,
      "inputs": [
        {
          "indexed": false,
          "internalType": "address",
          "name": "previousAdmin",
          "type": "address"
        },
        {
          "indexed": false,
          "internalType": "address",
          "name": "newAdmin",
          "type": "address"
        }
      ],
      "name": "AdminChanged",
      "type": "event"
    },
    {
      "anonymous": false,
      "inputs": [
        {
          "indexed": true,
          "internalType": "address",
          "name": "beacon",
          "type": "address"
        }
      ],
      "name": "BeaconUpgraded",
      "type": "event"
    },
    {
      "anonymous": false,
      "inputs": [
        {
          "indexed": false,
          "internalType": "address",
          "name": "bountyContract",
          "type": "address"
        }
      ],
      "name": "NewBounty",
      "type": "event"
    },
    {
      "anonymous": false,
      "inputs": [
        {
          "indexed": true,
          "internalType": "bytes32",
          "name": "role",
          "type": "bytes32"
        },
        {
          "indexed": true,
          "internalType": "bytes32",
          "name": "previousAdminRole",
          "type": "bytes32"
        },
        {
          "indexed": true,
          "internalType": "bytes32",
          "name": "newAdminRole",
          "type": "bytes32"
        }
      ],
      "name": "RoleAdminChanged",
      "type": "event"
    },
    {
      "anonymous": false,
      "inputs": [
        {
          "indexed": true,
          "internalType": "bytes32",
          "name": "role",
          "type": "bytes32"
        },
        {
          "indexed": true,
          "internalType": "address",
          "name": "account",
          "type": "address"
        },
        {
          "indexed": true,
          "internalType": "address",
          "name": "sender",
          "type": "address"
        }
      ],
      "name": "RoleGranted",
      "type": "event"
    },
    {
      "anonymous": false,
      "inputs": [
        {
          "indexed": true,
          "internalType": "bytes32",
          "name": "role",
          "type": "bytes32"
        },
        {
          "indexed": true,
          "internalType": "address",
          "name": "account",
          "type": "address"
        },
        {
          "indexed": true,
          "internalType": "address",
          "name": "sender",
          "type": "address"
        }
      ],
      "name": "RoleRevoked",
      "type": "event"
    },
    {
      "anonymous": false,
      "inputs": [
        {
          "indexed": true,
          "internalType": "address",
          "name": "implementation",
          "type": "address"
        }
      ],
      "name": "Upgraded",
      "type": "event"
    },
    {
      "inputs": [],
      "name": "DEFAULT_ADMIN_ROLE",
      "outputs": [
        {
          "internalType": "bytes32",
          "name": "",
          "type": "bytes32"
        }
      ],
      "stateMutability": "view",
      "type": "function"
    },
    {
      "inputs": [
        {
          "internalType": "string",
          "name": "",
          "type": "string"
        }
      ],
      "name": "allocationPolicies",
      "outputs": [
        {
          "internalType": "address",
          "name": "",
          "type": "address"
        }
      ],
      "stateMutability": "view",
      "type": "function"
    },
    {
      "inputs": [],
      "name": "bountyContractTemplate",
      "outputs": [
        {
          "internalType": "address",
          "name": "",
          "type": "address"
        }
      ],
      "stateMutability": "view",
      "type": "function"
    },
    {
      "inputs": [
        {
          "internalType": "uint256",
          "name": "initialMinHorizonSeconds",
          "type": "uint256"
        },
        {
          "internalType": "uint256",
          "name": "initialMinBrokerCount",
          "type": "uint256"
        },
        {
          "internalType": "string",
          "name": "bountyName",
          "type": "string"
        }
      ],
      "name": "deployBountyAgreement",
      "outputs": [
        {
          "internalType": "address",
          "name": "",
          "type": "address"
        }
      ],
      "stateMutability": "nonpayable",
      "type": "function"
    },
    {
      "inputs": [
        {
          "internalType": "bytes32",
          "name": "role",
          "type": "bytes32"
        }
      ],
      "name": "getRoleAdmin",
      "outputs": [
        {
          "internalType": "bytes32",
          "name": "",
          "type": "bytes32"
        }
      ],
      "stateMutability": "view",
      "type": "function"
    },
    {
      "inputs": [
        {
          "internalType": "bytes32",
          "name": "role",
          "type": "bytes32"
        },
        {
          "internalType": "address",
          "name": "account",
          "type": "address"
        }
      ],
      "name": "grantRole",
      "outputs": [],
      "stateMutability": "nonpayable",
      "type": "function"
    },
    {
      "inputs": [
        {
          "internalType": "bytes32",
          "name": "role",
          "type": "bytes32"
        },
        {
          "internalType": "address",
          "name": "account",
          "type": "address"
        }
      ],
      "name": "hasRole",
      "outputs": [
        {
          "internalType": "bool",
          "name": "",
          "type": "bool"
        }
      ],
      "stateMutability": "view",
      "type": "function"
    },
    {
      "inputs": [
        {
          "internalType": "address",
          "name": "templateAddress",
          "type": "address"
        },
        {
          "internalType": "address",
          "name": "trustedForwarderAddress",
          "type": "address"
        },
        {
          "internalType": "address",
          "name": "_tokenAddress",
          "type": "address"
        }
      ],
      "name": "initialize",
      "outputs": [],
      "stateMutability": "nonpayable",
      "type": "function"
    },
    {
      "inputs": [
        {
          "internalType": "address",
          "name": "forwarder",
          "type": "address"
        }
      ],
      "name": "isTrustedForwarder",
      "outputs": [
        {
          "internalType": "bool",
          "name": "",
          "type": "bool"
        }
      ],
      "stateMutability": "view",
      "type": "function"
    },
    {
      "inputs": [
        {
          "internalType": "string",
          "name": "",
          "type": "string"
        }
      ],
      "name": "joinPolicies",
      "outputs": [
        {
          "internalType": "address",
          "name": "",
          "type": "address"
        }
      ],
      "stateMutability": "view",
      "type": "function"
    },
    {
      "inputs": [
        {
          "internalType": "string",
          "name": "",
          "type": "string"
        }
      ],
      "name": "leavePolicies",
      "outputs": [
        {
          "internalType": "address",
          "name": "",
          "type": "address"
        }
      ],
      "stateMutability": "view",
      "type": "function"
    },
    {
      "inputs": [
        {
          "internalType": "bytes32",
          "name": "role",
          "type": "bytes32"
        },
        {
          "internalType": "address",
          "name": "account",
          "type": "address"
        }
      ],
      "name": "renounceRole",
      "outputs": [],
      "stateMutability": "nonpayable",
      "type": "function"
    },
    {
      "inputs": [
        {
          "internalType": "bytes32",
          "name": "role",
          "type": "bytes32"
        },
        {
          "internalType": "address",
          "name": "account",
          "type": "address"
        }
      ],
      "name": "revokeRole",
      "outputs": [],
      "stateMutability": "nonpayable",
      "type": "function"
    },
    {
      "inputs": [],
      "name": "streamBrokerRegistryAddress",
      "outputs": [
        {
          "internalType": "address",
          "name": "",
          "type": "address"
        }
      ],
      "stateMutability": "view",
      "type": "function"
    },
    {
      "inputs": [
        {
          "internalType": "bytes4",
          "name": "interfaceId",
          "type": "bytes4"
        }
      ],
      "name": "supportsInterface",
      "outputs": [
        {
          "internalType": "bool",
          "name": "",
          "type": "bool"
        }
      ],
      "stateMutability": "view",
      "type": "function"
    },
    {
      "inputs": [],
      "name": "tokenAddress",
      "outputs": [
        {
          "internalType": "address",
          "name": "",
          "type": "address"
        }
      ],
      "stateMutability": "view",
      "type": "function"
    },
    {
      "inputs": [],
      "name": "trustedForwarder",
      "outputs": [
        {
          "internalType": "address",
          "name": "",
          "type": "address"
        }
      ],
      "stateMutability": "view",
      "type": "function"
    },
    {
      "inputs": [
        {
          "internalType": "address",
          "name": "newImplementation",
          "type": "address"
        }
      ],
      "name": "upgradeTo",
      "outputs": [],
      "stateMutability": "nonpayable",
      "type": "function"
    },
    {
      "inputs": [
        {
          "internalType": "address",
          "name": "newImplementation",
          "type": "address"
        },
        {
          "internalType": "bytes",
          "name": "data",
          "type": "bytes"
        }
      ],
      "name": "upgradeToAndCall",
      "outputs": [],
      "stateMutability": "payable",
      "type": "function"
    }
  ],
  "bytecode": "0x60a06040523060805234801561001457600080fd5b506080516116cc6100456000396000818161051201528181610552015281816105d1015261061101526116cc6000f3fe6080604052600436106101045760003560e01c80637da0a877116100a0578063bce57ad111610064578063bce57ad114610348578063c09d3c1514610369578063c0c53b8b146103ab578063d547741f146103cb578063df2527e7146103eb57600080fd5b80637da0a8771461028f57806391d14854146102b05780639d76ea58146102d0578063a217fddf146102f1578063b19cba761461030657600080fd5b806301ffc9a714610109578063248a9ca31461013e5780632f2ff15d1461017c57806336568abe1461019e5780633659cfe6146101be5780634f1ef286146101de578063572b6c05146101f157806369ff4156146102205780636e062f811461024d575b600080fd5b34801561011557600080fd5b5061012961012436600461115a565b61040c565b60405190151581526020015b60405180910390f35b34801561014a57600080fd5b5061016e610159366004611184565b600090815260fb602052604090206001015490565b604051908152602001610135565b34801561018857600080fd5b5061019c6101973660046111b9565b610443565b005b3480156101aa57600080fd5b5061019c6101b93660046111b9565b610475565b3480156101ca57600080fd5b5061019c6101d93660046111e5565b610508565b61019c6101ec36600461128c565b6105c7565b3480156101fd57600080fd5b5061012961020c3660046111e5565b6097546001600160a01b0391821691161490565b34801561022c57600080fd5b5061024061023b36600461130e565b610673565b604051610135919061135e565b34801561025957600080fd5b50610240610268366004611372565b8051602081830181018051610131825292820191909301209152546001600160a01b031681565b34801561029b57600080fd5b5061013054610240906001600160a01b031681565b3480156102bc57600080fd5b506101296102cb3660046111b9565b6107a2565b3480156102dc57600080fd5b5061012f54610240906001600160a01b031681565b3480156102fd57600080fd5b5061016e600081565b34801561031257600080fd5b50610240610321366004611372565b8051602081830181018051610132825292820191909301209152546001600160a01b031681565b34801561035457600080fd5b5061012d54610240906001600160a01b031681565b34801561037557600080fd5b50610240610384366004611372565b8051602081830181018051610133825292820191909301209152546001600160a01b031681565b3480156103b757600080fd5b5061019c6103c63660046113af565b6107cd565b3480156103d757600080fd5b5061019c6103e63660046111b9565b6108e5565b3480156103f757600080fd5b5061012e54610240906001600160a01b031681565b60006001600160e01b03198216637965db0b60e01b148061043d57506301ffc9a760e01b6001600160e01b03198316145b92915050565b600082815260fb60205260409020600101546104668161046161090d565b61091c565b6104708383610980565b505050565b61047d61090d565b6001600160a01b0316816001600160a01b0316146104fa5760405162461bcd60e51b815260206004820152602f60248201527f416363657373436f6e74726f6c3a2063616e206f6e6c792072656e6f756e636560448201526e103937b632b9903337b91039b2b63360891b60648201526084015b60405180910390fd5b6105048282610a07565b5050565b6001600160a01b037f00000000000000000000000000000000000000000000000000000000000000001630036105505760405162461bcd60e51b81526004016104f1906113f2565b7f00000000000000000000000000000000000000000000000000000000000000006001600160a01b0316610582610a8c565b6001600160a01b0316146105a85760405162461bcd60e51b81526004016104f19061143e565b604080516000808252602082019092526105c491839190610aba565b50565b6001600160a01b037f000000000000000000000000000000000000000000000000000000000000000016300361060f5760405162461bcd60e51b81526004016104f1906113f2565b7f00000000000000000000000000000000000000000000000000000000000000006001600160a01b0316610641610a8c565b6001600160a01b0316146106675760405162461bcd60e51b81526004016104f19061143e565b61050482826001610aba565b6000808261067f61090d565b6040516020016106909291906114e2565b60408051601f19818403018152919052805160209091012061012d549091506000906106c5906001600160a01b031683610c01565b9050806001600160a01b0381166357fb25cc6106df61090d565b61012f546101305460405160e085901b6001600160e01b03191681526001600160a01b0393841660048201529183166024830152604482018c9052606482018b905291909116608482015260a401600060405180830381600087803b15801561074757600080fd5b505af115801561075b573d6000803e3d6000fd5b505050507f3e39a36d490da9ca21ddcbe2fafad2cd6d39911e99e95d73828f48dd9a7481178260405161078e919061135e565b60405180910390a1509150505b9392505050565b600091825260fb602090815260408084206001600160a01b0393909316845291905290205460ff1690565b600054610100900460ff166107e85760005460ff16156107ec565b303b155b61084f5760405162461bcd60e51b815260206004820152602e60248201527f496e697469616c697a61626c653a20636f6e747261637420697320616c72656160448201526d191e481a5b9a5d1a585b1a5e995960921b60648201526084016104f1565b600054610100900460ff16158015610871576000805461ffff19166101011790555b610879610c9b565b610884600033610cdc565b61088d83610ce6565b61012f80546001600160a01b038085166001600160a01b03199283161790925561012d805487841690831617905561013080549286169290911691909117905580156108df576000805461ff00191690555b50505050565b600082815260fb60205260409020600101546109038161046161090d565b6104708383610a07565b6000610917610d1e565b905090565b61092682826107a2565b6105045761093e816001600160a01b03166014610d45565b610949836020610d45565b60405160200161095a92919061150c565b60408051601f198184030181529082905262461bcd60e51b82526104f19160040161157b565b61098a82826107a2565b61050457600082815260fb602090815260408083206001600160a01b03851684529091529020805460ff191660011790556109c361090d565b6001600160a01b0316816001600160a01b0316837f2f8788117e7eff1d82e926ec794901d17c78024a50270940304540a733656f0d60405160405180910390a45050565b610a1182826107a2565b1561050457600082815260fb602090815260408083206001600160a01b03851684529091529020805460ff19169055610a4861090d565b6001600160a01b0316816001600160a01b0316837ff6391f5c32d9c69d2a47ea670b442974b53935d1edc7fd64eb21e047a839171b60405160405180910390a45050565b7f360894a13ba1a3210667c828492db98dca3e2076cc3735a920a3ca505d382bbc546001600160a01b031690565b6000610ac4610a8c565b9050610acf84610ee1565b600083511180610adc5750815b15610aed57610aeb8484610f86565b505b7f4910fdfa16fed3260ed0e7147f7cc6da11a60208b5b9406d12a635614ffd9143805460ff16610bfa57805460ff19166001178155604051610b68908690610b3990859060240161135e565b60408051601f198184030181529190526020810180516001600160e01b0316631b2ce7f360e11b179052610f86565b50805460ff19168155610b79610a8c565b6001600160a01b0316826001600160a01b031614610bf15760405162461bcd60e51b815260206004820152602f60248201527f45524331393637557067726164653a207570677261646520627265616b73206660448201526e75727468657220757067726164657360881b60648201526084016104f1565b610bfa85611071565b5050505050565b6000604051733d602d80600a3d3981f3363d3d373d3d3d363d7360601b81528360601b60148201526e5af43d82803e903d91602b57fd5bf360881b6028820152826037826000f59150506001600160a01b03811661043d5760405162461bcd60e51b8152602060048201526017602482015276115490cc4c4d8dce8818dc99585d194c8819985a5b1959604a1b60448201526064016104f1565b600054610100900460ff16610cc25760405162461bcd60e51b81526004016104f19061158e565b610cca6110b1565b610cd26110b1565b610cda6110b1565b565b6105048282610980565b600054610100900460ff16610d0d5760405162461bcd60e51b81526004016104f19061158e565b610d156110b1565b6105c4816110d8565b6097546000906001600160a01b03163303610d40575060131936013560601c90565b503390565b60606000610d548360026115ef565b610d5f90600261160e565b67ffffffffffffffff811115610d7757610d77611200565b6040519080825280601f01601f191660200182016040528015610da1576020820181803683370190505b509050600360fc1b81600081518110610dbc57610dbc611626565b60200101906001600160f81b031916908160001a905350600f60fb1b81600181518110610deb57610deb611626565b60200101906001600160f81b031916908160001a9053506000610e0f8460026115ef565b610e1a90600161160e565b90505b6001811115610e92576f181899199a1a9b1b9c1cb0b131b232b360811b85600f1660108110610e4e57610e4e611626565b1a60f81b828281518110610e6457610e64611626565b60200101906001600160f81b031916908160001a90535060049490941c93610e8b8161163c565b9050610e1d565b50831561079b5760405162461bcd60e51b815260206004820181905260248201527f537472696e67733a20686578206c656e67746820696e73756666696369656e7460448201526064016104f1565b803b610f455760405162461bcd60e51b815260206004820152602d60248201527f455243313936373a206e657720696d706c656d656e746174696f6e206973206e60448201526c1bdd08184818dbdb9d1c9858dd609a1b60648201526084016104f1565b7f360894a13ba1a3210667c828492db98dca3e2076cc3735a920a3ca505d382bbc80546001600160a01b0319166001600160a01b0392909216919091179055565b6060823b610fe55760405162461bcd60e51b815260206004820152602660248201527f416464726573733a2064656c65676174652063616c6c20746f206e6f6e2d636f6044820152651b9d1c9858dd60d21b60648201526084016104f1565b600080846001600160a01b0316846040516110009190611653565b600060405180830381855af49150503d806000811461103b576040519150601f19603f3d011682016040523d82523d6000602084013e611040565b606091505b5091509150611068828260405180606001604052806027815260200161167060279139611121565b95945050505050565b61107a81610ee1565b6040516001600160a01b038216907fbc7cd75a20ee27fd9adebab32041f755214dbc6bffa90cc0225b39da2e5c2d3b90600090a250565b600054610100900460ff16610cda5760405162461bcd60e51b81526004016104f19061158e565b600054610100900460ff166110ff5760405162461bcd60e51b81526004016104f19061158e565b609780546001600160a01b0319166001600160a01b0392909216919091179055565b6060831561113057508161079b565b8251156111405782518084602001fd5b8160405162461bcd60e51b81526004016104f1919061157b565b60006020828403121561116c57600080fd5b81356001600160e01b03198116811461079b57600080fd5b60006020828403121561119657600080fd5b5035919050565b80356001600160a01b03811681146111b457600080fd5b919050565b600080604083850312156111cc57600080fd5b823591506111dc6020840161119d565b90509250929050565b6000602082840312156111f757600080fd5b61079b8261119d565b634e487b7160e01b600052604160045260246000fd5b600067ffffffffffffffff8084111561123157611231611200565b604051601f8501601f19908116603f0116810190828211818310171561125957611259611200565b8160405280935085815286868601111561127257600080fd5b858560208301376000602087830101525050509392505050565b6000806040838503121561129f57600080fd5b6112a88361119d565b9150602083013567ffffffffffffffff8111156112c457600080fd5b8301601f810185136112d557600080fd5b6112e485823560208401611216565b9150509250929050565b600082601f8301126112ff57600080fd5b61079b83833560208501611216565b60008060006060848603121561132357600080fd5b8335925060208401359150604084013567ffffffffffffffff81111561134857600080fd5b611354868287016112ee565b9150509250925092565b6001600160a01b0391909116815260200190565b60006020828403121561138457600080fd5b813567ffffffffffffffff81111561139b57600080fd5b6113a7848285016112ee565b949350505050565b6000806000606084860312156113c457600080fd5b6113cd8461119d565b92506113db6020850161119d565b91506113e96040850161119d565b90509250925092565b6020808252602c908201527f46756e6374696f6e206d7573742062652063616c6c6564207468726f7567682060408201526b19195b1959d85d1958d85b1b60a21b606082015260800190565b6020808252602c908201527f46756e6374696f6e206d7573742062652063616c6c6564207468726f7567682060408201526b6163746976652070726f787960a01b606082015260800190565b60005b838110156114a557818101518382015260200161148d565b838111156108df5750506000910152565b600081518084526114ce81602086016020860161148a565b601f01601f19169290920160200192915050565b6040815260006114f560408301856114b6565b905060018060a01b03831660208301529392505050565b76020b1b1b2b9b9a1b7b73a3937b61d1030b1b1b7bab73a1604d1b81526000835161153e81601785016020880161148a565b7001034b99036b4b9b9b4b733903937b6329607d1b601791840191820152835161156f81602884016020880161148a565b01602801949350505050565b60208152600061079b60208301846114b6565b6020808252602b908201527f496e697469616c697a61626c653a20636f6e7472616374206973206e6f74206960408201526a6e697469616c697a696e6760a81b606082015260800190565b634e487b7160e01b600052601160045260246000fd5b6000816000190483118215151615611609576116096115d9565b500290565b60008219821115611621576116216115d9565b500190565b634e487b7160e01b600052603260045260246000fd5b60008161164b5761164b6115d9565b506000190190565b6000825161166581846020870161148a565b919091019291505056fe416464726573733a206c6f772d6c6576656c2064656c65676174652063616c6c206661696c6564a26469706673582212200bfb9618ad1bf840e24d044877d1ddc1fcb33a34d618e8384849fd67a60b6b1b64736f6c634300080d0033",
  "linkReferences": {},
  "deployedLinkReferences": {}
}