{
  "_format": "hh-sol-artifact-1",
  "contractName": "DATAv2",
  "sourceName": "contracts/DATAv2.sol",
  "abi": [
    {
      "inputs": [],
      "stateMutability": "nonpayable",
      "type": "constructor"
    },
    {
      "anonymous": false,
      "inputs": [
        {
          "indexed": true,
          "internalType": "address",
          "name": "owner",
          "type": "address"
        },
        {
          "indexed": true,
          "internalType": "address",
          "name": "spender",
          "type": "address"
        },
        {
          "indexed": false,
          "internalType": "uint256",
          "name": "value",
          "type": "uint256"
        }
      ],
      "name": "Approval",
      "type": "event"
    },
    {
      "anonymous": false,
      "inputs": [
        {
          "indexed": true,
          "internalType": "bytes32",
          "name": "role",
          "type": "bytes32"
        },
        {
          "indexed": true,
          "internalType": "bytes32",
          "name": "previousAdminRole",
          "type": "bytes32"
        },
        {
          "indexed": true,
          "internalType": "bytes32",
          "name": "newAdminRole",
          "type": "bytes32"
        }
      ],
      "name": "RoleAdminChanged",
      "type": "event"
    },
    {
      "anonymous": false,
      "inputs": [
        {
          "indexed": true,
          "internalType": "bytes32",
          "name": "role",
          "type": "bytes32"
        },
        {
          "indexed": true,
          "internalType": "address",
          "name": "account",
          "type": "address"
        },
        {
          "indexed": true,
          "internalType": "address",
          "name": "sender",
          "type": "address"
        }
      ],
      "name": "RoleGranted",
      "type": "event"
    },
    {
      "anonymous": false,
      "inputs": [
        {
          "indexed": true,
          "internalType": "bytes32",
          "name": "role",
          "type": "bytes32"
        },
        {
          "indexed": true,
          "internalType": "address",
          "name": "account",
          "type": "address"
        },
        {
          "indexed": true,
          "internalType": "address",
          "name": "sender",
          "type": "address"
        }
      ],
      "name": "RoleRevoked",
      "type": "event"
    },
    {
      "anonymous": false,
      "inputs": [
        {
          "indexed": true,
          "internalType": "address",
          "name": "from",
          "type": "address"
        },
        {
          "indexed": true,
          "internalType": "address",
          "name": "to",
          "type": "address"
        },
        {
          "indexed": false,
          "internalType": "uint256",
          "name": "value",
          "type": "uint256"
        },
        {
          "indexed": false,
          "internalType": "bytes",
          "name": "data",
          "type": "bytes"
        }
      ],
      "name": "Transfer",
      "type": "event"
    },
    {
      "anonymous": false,
      "inputs": [
        {
          "indexed": true,
          "internalType": "address",
          "name": "from",
          "type": "address"
        },
        {
          "indexed": true,
          "internalType": "address",
          "name": "to",
          "type": "address"
        },
        {
          "indexed": false,
          "internalType": "uint256",
          "name": "value",
          "type": "uint256"
        }
      ],
      "name": "Transfer",
      "type": "event"
    },
    {
      "anonymous": false,
      "inputs": [
        {
          "indexed": false,
          "internalType": "string",
          "name": "newName",
          "type": "string"
        },
        {
          "indexed": false,
          "internalType": "string",
          "name": "newSymbol",
          "type": "string"
        }
      ],
      "name": "UpdatedTokenInformation",
      "type": "event"
    },
    {
      "inputs": [],
      "name": "DEFAULT_ADMIN_ROLE",
      "outputs": [
        {
          "internalType": "bytes32",
          "name": "",
          "type": "bytes32"
        }
      ],
      "stateMutability": "view",
      "type": "function"
    },
    {
      "inputs": [],
      "name": "DOMAIN_SEPARATOR",
      "outputs": [
        {
          "internalType": "bytes32",
          "name": "",
          "type": "bytes32"
        }
      ],
      "stateMutability": "view",
      "type": "function"
    },
    {
      "inputs": [],
      "name": "MINTER_ROLE",
      "outputs": [
        {
          "internalType": "bytes32",
          "name": "",
          "type": "bytes32"
        }
      ],
      "stateMutability": "view",
      "type": "function"
    },
    {
      "inputs": [
        {
          "internalType": "address",
          "name": "owner",
          "type": "address"
        },
        {
          "internalType": "address",
          "name": "spender",
          "type": "address"
        }
      ],
      "name": "allowance",
      "outputs": [
        {
          "internalType": "uint256",
          "name": "",
          "type": "uint256"
        }
      ],
      "stateMutability": "view",
      "type": "function"
    },
    {
      "inputs": [
        {
          "internalType": "address",
          "name": "spender",
          "type": "address"
        },
        {
          "internalType": "uint256",
          "name": "amount",
          "type": "uint256"
        }
      ],
      "name": "approve",
      "outputs": [
        {
          "internalType": "bool",
          "name": "",
          "type": "bool"
        }
      ],
      "stateMutability": "nonpayable",
      "type": "function"
    },
    {
      "inputs": [
        {
          "internalType": "address",
          "name": "account",
          "type": "address"
        }
      ],
      "name": "balanceOf",
      "outputs": [
        {
          "internalType": "uint256",
          "name": "",
          "type": "uint256"
        }
      ],
      "stateMutability": "view",
      "type": "function"
    },
    {
      "inputs": [
        {
          "internalType": "uint256",
          "name": "amount",
          "type": "uint256"
        }
      ],
      "name": "burn",
      "outputs": [],
      "stateMutability": "nonpayable",
      "type": "function"
    },
    {
      "inputs": [
        {
          "internalType": "address",
          "name": "account",
          "type": "address"
        },
        {
          "internalType": "uint256",
          "name": "amount",
          "type": "uint256"
        }
      ],
      "name": "burnFrom",
      "outputs": [],
      "stateMutability": "nonpayable",
      "type": "function"
    },
    {
      "inputs": [],
      "name": "decimals",
      "outputs": [
        {
          "internalType": "uint8",
          "name": "",
          "type": "uint8"
        }
      ],
      "stateMutability": "view",
      "type": "function"
    },
    {
      "inputs": [
        {
          "internalType": "address",
          "name": "spender",
          "type": "address"
        },
        {
          "internalType": "uint256",
          "name": "subtractedValue",
          "type": "uint256"
        }
      ],
      "name": "decreaseAllowance",
      "outputs": [
        {
          "internalType": "bool",
          "name": "",
          "type": "bool"
        }
      ],
      "stateMutability": "nonpayable",
      "type": "function"
    },
    {
      "inputs": [
        {
          "internalType": "bytes32",
          "name": "role",
          "type": "bytes32"
        }
      ],
      "name": "getRoleAdmin",
      "outputs": [
        {
          "internalType": "bytes32",
          "name": "",
          "type": "bytes32"
        }
      ],
      "stateMutability": "view",
      "type": "function"
    },
    {
      "inputs": [
        {
          "internalType": "bytes32",
          "name": "role",
          "type": "bytes32"
        },
        {
          "internalType": "address",
          "name": "account",
          "type": "address"
        }
      ],
      "name": "grantRole",
      "outputs": [],
      "stateMutability": "nonpayable",
      "type": "function"
    },
    {
      "inputs": [
        {
          "internalType": "bytes32",
          "name": "role",
          "type": "bytes32"
        },
        {
          "internalType": "address",
          "name": "account",
          "type": "address"
        }
      ],
      "name": "hasRole",
      "outputs": [
        {
          "internalType": "bool",
          "name": "",
          "type": "bool"
        }
      ],
      "stateMutability": "view",
      "type": "function"
    },
    {
      "inputs": [
        {
          "internalType": "address",
          "name": "spender",
          "type": "address"
        },
        {
          "internalType": "uint256",
          "name": "addedValue",
          "type": "uint256"
        }
      ],
      "name": "increaseAllowance",
      "outputs": [
        {
          "internalType": "bool",
          "name": "",
          "type": "bool"
        }
      ],
      "stateMutability": "nonpayable",
      "type": "function"
    },
    {
      "inputs": [
        {
          "internalType": "address",
          "name": "minter",
          "type": "address"
        }
      ],
      "name": "isMinter",
      "outputs": [
        {
          "internalType": "bool",
          "name": "",
          "type": "bool"
        }
      ],
      "stateMutability": "view",
      "type": "function"
    },
    {
      "inputs": [
        {
          "internalType": "address",
          "name": "to",
          "type": "address"
        },
        {
          "internalType": "uint256",
          "name": "amount",
          "type": "uint256"
        }
      ],
      "name": "mint",
      "outputs": [],
      "stateMutability": "nonpayable",
      "type": "function"
    },
    {
      "inputs": [],
      "name": "name",
      "outputs": [
        {
          "internalType": "string",
          "name": "",
          "type": "string"
        }
      ],
      "stateMutability": "view",
      "type": "function"
    },
    {
      "inputs": [
        {
          "internalType": "address",
          "name": "owner",
          "type": "address"
        }
      ],
      "name": "nonces",
      "outputs": [
        {
          "internalType": "uint256",
          "name": "",
          "type": "uint256"
        }
      ],
      "stateMutability": "view",
      "type": "function"
    },
    {
      "inputs": [
        {
          "internalType": "address",
          "name": "owner",
          "type": "address"
        },
        {
          "internalType": "address",
          "name": "spender",
          "type": "address"
        },
        {
          "internalType": "uint256",
          "name": "value",
          "type": "uint256"
        },
        {
          "internalType": "uint256",
          "name": "deadline",
          "type": "uint256"
        },
        {
          "internalType": "uint8",
          "name": "v",
          "type": "uint8"
        },
        {
          "internalType": "bytes32",
          "name": "r",
          "type": "bytes32"
        },
        {
          "internalType": "bytes32",
          "name": "s",
          "type": "bytes32"
        }
      ],
      "name": "permit",
      "outputs": [],
      "stateMutability": "nonpayable",
      "type": "function"
    },
    {
      "inputs": [
        {
          "internalType": "bytes32",
          "name": "role",
          "type": "bytes32"
        },
        {
          "internalType": "address",
          "name": "account",
          "type": "address"
        }
      ],
      "name": "renounceRole",
      "outputs": [],
      "stateMutability": "nonpayable",
      "type": "function"
    },
    {
      "inputs": [
        {
          "internalType": "bytes32",
          "name": "role",
          "type": "bytes32"
        },
        {
          "internalType": "address",
          "name": "account",
          "type": "address"
        }
      ],
      "name": "revokeRole",
      "outputs": [],
      "stateMutability": "nonpayable",
      "type": "function"
    },
    {
      "inputs": [
        {
          "internalType": "string",
          "name": "newName",
          "type": "string"
        },
        {
          "internalType": "string",
          "name": "newSymbol",
          "type": "string"
        }
      ],
      "name": "setTokenInformation",
      "outputs": [],
      "stateMutability": "nonpayable",
      "type": "function"
    },
    {
      "inputs": [
        {
          "internalType": "bytes4",
          "name": "interfaceId",
          "type": "bytes4"
        }
      ],
      "name": "supportsInterface",
      "outputs": [
        {
          "internalType": "bool",
          "name": "",
          "type": "bool"
        }
      ],
      "stateMutability": "view",
      "type": "function"
    },
    {
      "inputs": [],
      "name": "symbol",
      "outputs": [
        {
          "internalType": "string",
          "name": "",
          "type": "string"
        }
      ],
      "stateMutability": "view",
      "type": "function"
    },
    {
      "inputs": [],
      "name": "totalSupply",
      "outputs": [
        {
          "internalType": "uint256",
          "name": "",
          "type": "uint256"
        }
      ],
      "stateMutability": "view",
      "type": "function"
    },
    {
      "inputs": [
        {
          "internalType": "address",
          "name": "recipient",
          "type": "address"
        },
        {
          "internalType": "uint256",
          "name": "amount",
          "type": "uint256"
        }
      ],
      "name": "transfer",
      "outputs": [
        {
          "internalType": "bool",
          "name": "",
          "type": "bool"
        }
      ],
      "stateMutability": "nonpayable",
      "type": "function"
    },
    {
      "inputs": [
        {
          "internalType": "address",
          "name": "_to",
          "type": "address"
        },
        {
          "internalType": "uint256",
          "name": "_value",
          "type": "uint256"
        },
        {
          "internalType": "bytes",
          "name": "_data",
          "type": "bytes"
        }
      ],
      "name": "transferAndCall",
      "outputs": [
        {
          "internalType": "bool",
          "name": "success",
          "type": "bool"
        }
      ],
      "stateMutability": "nonpayable",
      "type": "function"
    },
    {
      "inputs": [
        {
          "internalType": "address",
          "name": "sender",
          "type": "address"
        },
        {
          "internalType": "address",
          "name": "recipient",
          "type": "address"
        },
        {
          "internalType": "uint256",
          "name": "amount",
          "type": "uint256"
        }
      ],
      "name": "transferFrom",
      "outputs": [
        {
          "internalType": "bool",
          "name": "",
          "type": "bool"
        }
      ],
      "stateMutability": "nonpayable",
      "type": "function"
    }
  ],
  "bytecode": "0x7f6e71edae12b1b97f4d1f60370fef10105fa2faae0126114a169c64845d6126c96101205261018060405260076101408190526629ba3932b0b6b960c91b61016090815262000050919081620002de565b50604080518082019091526004808252634441544160e01b60209092019182526200007e91600891620002de565b503480156200008c57600080fd5b50600780546200009c9062000384565b80601f0160208091040260200160405190810160405280929190818152602001828054620000ca9062000384565b80156200011b5780601f10620000ef576101008083540402835291602001916200011b565b820191906000526020600020905b815481529060010190602001808311620000fd57829003601f168201915b505050505080604051806040016040528060018152602001603160f81b8152506040518060200160405280600081525060405180602001604052806000815250816003908051906020019062000173929190620002de565b50805162000189906004906020840190620002de565b5050825160209384012082519284019290922060c083815260e08290524660a0818152604080517f8b73c3c69bb8fe3d512ecc4cf759cc79239f7b179b0ffacaa9a75d522b39400f818a0181905281830198909852606081019590955260808086019390935230858301528051808603909201825293909201909252805194019390932090925261010052506200022490506000336200022a565b620003c1565b6200023682826200023a565b5050565b60008281526006602090815260408083206001600160a01b038516845290915290205460ff16620002365760008281526006602090815260408083206001600160a01b03851684529091529020805460ff191660011790556200029a3390565b6001600160a01b0316816001600160a01b0316837f2f8788117e7eff1d82e926ec794901d17c78024a50270940304540a733656f0d60405160405180910390a45050565b828054620002ec9062000384565b90600052602060002090601f0160209004810192826200031057600085556200035b565b82601f106200032b57805160ff19168380011785556200035b565b828001600101855582156200035b579182015b828111156200035b5782518255916020019190600101906200033e565b50620003699291506200036d565b5090565b5b808211156200036957600081556001016200036e565b600181811c908216806200039957607f821691505b60208210811415620003bb57634e487b7160e01b600052602260045260246000fd5b50919050565b60805160a05160c05160e0516101005161012051611dbc620004116000396000610c670152600061127b015260006112ca015260006112a501526000611229015260006112520152611dbc6000f3fe608060405234801561001057600080fd5b50600436106101c45760003560e01c80634eee966f116100f9578063a457c2d711610097578063d505accf11610071578063d505accf146103d0578063d5391393146103e3578063d547741f1461040a578063dd62ed3e1461041d57600080fd5b8063a457c2d714610397578063a9059cbb146103aa578063aa271e1a146103bd57600080fd5b80637ecebe00116100d35780637ecebe001461033b57806391d148541461034e57806395d89b4114610387578063a217fddf1461038f57600080fd5b80634eee966f146102ec57806370a08231146102ff57806379cc67901461032857600080fd5b8063313ce56711610166578063395093511161014057806339509351146102a05780634000aea0146102b357806340c10f19146102c657806342966c68146102d957600080fd5b8063313ce567146102765780633644e5151461028557806336568abe1461028d57600080fd5b806318160ddd116101a257806318160ddd1461021957806323b872dd1461022b578063248a9ca31461023e5780632f2ff15d1461026157600080fd5b806301ffc9a7146101c957806306fdde03146101f1578063095ea7b314610206575b600080fd5b6101dc6101d7366004611ad4565b610456565b60405190151581526020015b60405180910390f35b6101f96104ef565b6040516101e89190611c72565b6101dc610214366004611a14565b610581565b6002545b6040519081526020016101e8565b6101dc610239366004611965565b610597565b61021d61024c366004611a98565b60009081526006602052604090206001015490565b61027461026f366004611ab1565b610662565b005b604051601281526020016101e8565b61021d6106ff565b61027461029b366004611ab1565b61070e565b6101dc6102ae366004611a14565b610796565b6101dc6102c1366004611a3e565b6107cd565b6102746102d4366004611a14565b6108be565b6102746102e7366004611a98565b610943565b6102746102fa366004611b16565b610950565b61021d61030d366004611910565b6001600160a01b031660009081526020819052604090205490565b610274610336366004611a14565b610a28565b61021d610349366004611910565b610ac9565b6101dc61035c366004611ab1565b60009182526006602090815260408084206001600160a01b0393909316845291905290205460ff1690565b6101f9610ae7565b61021d600081565b6101dc6103a5366004611a14565b610af6565b6101dc6103b8366004611a14565b610ba9565b6101dc6103cb366004611910565b610bb6565b6102746103de3660046119a1565b610bf6565b61021d7f9f2df0fed2c77648de5860a4cc508cd0818c85b8b8a1ab4ceeef8d981c8956a681565b610274610418366004611ab1565b610d7c565b61021d61042b366004611932565b6001600160a01b03918216600090815260016020908152604080832093909416825291909152205490565b60007fffffffff0000000000000000000000000000000000000000000000000000000082167f7965db0b0000000000000000000000000000000000000000000000000000000014806104e957507f01ffc9a7000000000000000000000000000000000000000000000000000000007fffffffff000000000000000000000000000000000000000000000000000000008316145b92915050565b6060600780546104fe90611d35565b80601f016020809104026020016040519081016040528092919081815260200182805461052a90611d35565b80156105775780601f1061054c57610100808354040283529160200191610577565b820191906000526020600020905b81548152906001019060200180831161055a57829003601f168201915b5050505050905090565b600061058e338484610e09565b50600192915050565b60006105a4848484610f62565b6001600160a01b0384166000908152600160209081526040808320338452909152902054828110156106435760405162461bcd60e51b815260206004820152602860248201527f45524332303a207472616e7366657220616d6f756e742065786365656473206160448201527f6c6c6f77616e636500000000000000000000000000000000000000000000000060648201526084015b60405180910390fd5b61065785336106528685611d1e565b610e09565b506001949350505050565b60008281526006602052604090206001015461067f905b3361035c565b6106f15760405162461bcd60e51b815260206004820152602f60248201527f416363657373436f6e74726f6c3a2073656e646572206d75737420626520616e60448201527f2061646d696e20746f206772616e740000000000000000000000000000000000606482015260840161063a565b6106fb8282611183565b5050565b6000610709611225565b905090565b6001600160a01b038116331461078c5760405162461bcd60e51b815260206004820152602f60248201527f416363657373436f6e74726f6c3a2063616e206f6e6c792072656e6f756e636560448201527f20726f6c657320666f722073656c660000000000000000000000000000000000606482015260840161063a565b6106fb8282611318565b3360008181526001602090815260408083206001600160a01b0387168452909152812054909161058e918590610652908690611d06565b60006107d98585610ba9565b506001600160a01b038516336001600160a01b03167fe19260aff97b920c7df27010903aeb9c8d2be5d310a2c67824cf3f15396e4c1686868660405161082193929190611cec565b60405180910390a3843b80156108b2576040517fa4c0ed3600000000000000000000000000000000000000000000000000000000815286906001600160a01b0382169063a4c0ed369061087e9033908a908a908a90600401611c3f565b600060405180830381600087803b15801561089857600080fd5b505af11580156108ac573d6000803e3d6000fd5b50505050505b50600195945050505050565b6108c733610bb6565b6109395760405162461bcd60e51b815260206004820152602260248201527f5472616e73616374696f6e207369676e6572206973206e6f742061206d696e7460448201527f6572000000000000000000000000000000000000000000000000000000000000606482015260840161063a565b6106fb828261139b565b61094d338261147a565b50565b61095b60003361035c565b6109cd5760405162461bcd60e51b815260206004820152602260248201527f5472616e73616374696f6e207369676e6572206973206e6f7420616e2061646d60448201527f696e000000000000000000000000000000000000000000000000000000000000606482015260840161063a565b6109d960078585611812565b506109e660088383611812565b507fd131ab1e6f279deea74e13a18477e13e2107deb6dc8ae955648948be5841fb4660076008604051610a1a929190611cc7565b60405180910390a150505050565b6000610a34833361042b565b905081811015610aab5760405162461bcd60e51b8152602060048201526024808201527f45524332303a206275726e20616d6f756e74206578636565647320616c6c6f7760448201527f616e636500000000000000000000000000000000000000000000000000000000606482015260840161063a565b610aba83336106528585611d1e565b610ac4838361147a565b505050565b6001600160a01b0381166000908152600560205260408120546104e9565b6060600880546104fe90611d35565b3360009081526001602090815260408083206001600160a01b038616845290915281205482811015610b905760405162461bcd60e51b815260206004820152602560248201527f45524332303a2064656372656173656420616c6c6f77616e63652062656c6f7760448201527f207a65726f000000000000000000000000000000000000000000000000000000606482015260840161063a565b610b9f33856106528685611d1e565b5060019392505050565b600061058e338484610f62565b6001600160a01b03811660009081527f3195c024b2ddd6d9b8f6c836aa52f67fe69376c8903d009b80229b3ce4425f51602052604081205460ff166104e9565b83421115610c465760405162461bcd60e51b815260206004820152601d60248201527f45524332305065726d69743a206578706972656420646561646c696e65000000604482015260640161063a565b6001600160a01b0387811660008181526005602090815260408083205481517f00000000000000000000000000000000000000000000000000000000000000008185015280830195909552948b166060850152608084018a905260a084019490945260c08084018990528451808503909101815260e09093019093528151919092012090610cd382611600565b90506000610ce382878787611669565b9050896001600160a01b0316816001600160a01b031614610d465760405162461bcd60e51b815260206004820152601e60248201527f45524332305065726d69743a20696e76616c6964207369676e61747572650000604482015260640161063a565b6001600160a01b038a16600090815260056020526040902080546001019055610d708a8a8a610e09565b50505050505050505050565b600082815260066020526040902060010154610d9790610679565b61078c5760405162461bcd60e51b815260206004820152603060248201527f416363657373436f6e74726f6c3a2073656e646572206d75737420626520616e60448201527f2061646d696e20746f207265766f6b6500000000000000000000000000000000606482015260840161063a565b6001600160a01b038316610e845760405162461bcd60e51b8152602060048201526024808201527f45524332303a20617070726f76652066726f6d20746865207a65726f2061646460448201527f7265737300000000000000000000000000000000000000000000000000000000606482015260840161063a565b6001600160a01b038216610f005760405162461bcd60e51b815260206004820152602260248201527f45524332303a20617070726f766520746f20746865207a65726f20616464726560448201527f7373000000000000000000000000000000000000000000000000000000000000606482015260840161063a565b6001600160a01b0383811660008181526001602090815260408083209487168084529482529182902085905590518481527f8c5be1e5ebec7d5bd14f71427d1e84f3dd0314c0f7b2291e5b200ac8c7c3b92591015b60405180910390a3505050565b6001600160a01b038316610fde5760405162461bcd60e51b815260206004820152602560248201527f45524332303a207472616e736665722066726f6d20746865207a65726f20616460448201527f6472657373000000000000000000000000000000000000000000000000000000606482015260840161063a565b6001600160a01b03821661105a5760405162461bcd60e51b815260206004820152602360248201527f45524332303a207472616e7366657220746f20746865207a65726f206164647260448201527f6573730000000000000000000000000000000000000000000000000000000000606482015260840161063a565b6001600160a01b038316600090815260208190526040902054818110156110e95760405162461bcd60e51b815260206004820152602660248201527f45524332303a207472616e7366657220616d6f756e742065786365656473206260448201527f616c616e63650000000000000000000000000000000000000000000000000000606482015260840161063a565b6110f38282611d1e565b6001600160a01b038086166000908152602081905260408082209390935590851681529081208054849290611129908490611d06565b92505081905550826001600160a01b0316846001600160a01b03167fddf252ad1be2c89b69c2b068fc378daa952ba7f163c4a11628f55a4df523b3ef8460405161117591815260200190565b60405180910390a350505050565b60008281526006602090815260408083206001600160a01b038516845290915290205460ff166106fb5760008281526006602090815260408083206001600160a01b03851684529091529020805460ff191660011790556111e13390565b6001600160a01b0316816001600160a01b0316837f2f8788117e7eff1d82e926ec794901d17c78024a50270940304540a733656f0d60405160405180910390a45050565b60007f000000000000000000000000000000000000000000000000000000000000000046141561127457507f000000000000000000000000000000000000000000000000000000000000000090565b50604080517f00000000000000000000000000000000000000000000000000000000000000006020808301919091527f0000000000000000000000000000000000000000000000000000000000000000828401527f000000000000000000000000000000000000000000000000000000000000000060608301524660808301523060a0808401919091528351808403909101815260c0909201909252805191012090565b60008281526006602090815260408083206001600160a01b038516845290915290205460ff16156106fb5760008281526006602090815260408083206001600160a01b0385168085529252808320805460ff1916905551339285917ff6391f5c32d9c69d2a47ea670b442974b53935d1edc7fd64eb21e047a839171b9190a45050565b6001600160a01b0382166113f15760405162461bcd60e51b815260206004820152601f60248201527f45524332303a206d696e7420746f20746865207a65726f206164647265737300604482015260640161063a565b80600260008282546114039190611d06565b90915550506001600160a01b03821660009081526020819052604081208054839290611430908490611d06565b90915550506040518181526001600160a01b038316906000907fddf252ad1be2c89b69c2b068fc378daa952ba7f163c4a11628f55a4df523b3ef9060200160405180910390a35050565b6001600160a01b0382166114f65760405162461bcd60e51b815260206004820152602160248201527f45524332303a206275726e2066726f6d20746865207a65726f2061646472657360448201527f7300000000000000000000000000000000000000000000000000000000000000606482015260840161063a565b6001600160a01b038216600090815260208190526040902054818110156115855760405162461bcd60e51b815260206004820152602260248201527f45524332303a206275726e20616d6f756e7420657863656564732062616c616e60448201527f6365000000000000000000000000000000000000000000000000000000000000606482015260840161063a565b61158f8282611d1e565b6001600160a01b038416600090815260208190526040812091909155600280548492906115bd908490611d1e565b90915550506040518281526000906001600160a01b038516907fddf252ad1be2c89b69c2b068fc378daa952ba7f163c4a11628f55a4df523b3ef90602001610f55565b60006104e961160d611225565b836040517f19010000000000000000000000000000000000000000000000000000000000006020820152602281018390526042810182905260009060620160405160208183030381529060405280519060200120905092915050565b60007f7fffffffffffffffffffffffffffffff5d576e7357a4501ddfe92f46681b20a08211156116e65760405162461bcd60e51b815260206004820152602260248201527f45434453413a20696e76616c6964207369676e6174757265202773272076616c604482015261756560f01b606482015260840161063a565b8360ff16601b14806116fb57508360ff16601c145b6117525760405162461bcd60e51b815260206004820152602260248201527f45434453413a20696e76616c6964207369676e6174757265202776272076616c604482015261756560f01b606482015260840161063a565b6040805160008082526020820180845288905260ff871692820192909252606081018590526080810184905260019060a0016020604051602081039080840390855afa1580156117a6573d6000803e3d6000fd5b5050604051601f1901519150506001600160a01b0381166118095760405162461bcd60e51b815260206004820152601860248201527f45434453413a20696e76616c6964207369676e61747572650000000000000000604482015260640161063a565b95945050505050565b82805461181e90611d35565b90600052602060002090601f0160209004810192826118405760008555611886565b82601f106118595782800160ff19823516178555611886565b82800160010185558215611886579182015b8281111561188657823582559160200191906001019061186b565b50611892929150611896565b5090565b5b808211156118925760008155600101611897565b80356001600160a01b03811681146118c257600080fd5b919050565b60008083601f8401126118d957600080fd5b50813567ffffffffffffffff8111156118f157600080fd5b60208301915083602082850101111561190957600080fd5b9250929050565b60006020828403121561192257600080fd5b61192b826118ab565b9392505050565b6000806040838503121561194557600080fd5b61194e836118ab565b915061195c602084016118ab565b90509250929050565b60008060006060848603121561197a57600080fd5b611983846118ab565b9250611991602085016118ab565b9150604084013590509250925092565b600080600080600080600060e0888a0312156119bc57600080fd5b6119c5886118ab565b96506119d3602089016118ab565b95506040880135945060608801359350608088013560ff811681146119f757600080fd5b9699959850939692959460a0840135945060c09093013592915050565b60008060408385031215611a2757600080fd5b611a30836118ab565b946020939093013593505050565b60008060008060608587031215611a5457600080fd5b611a5d856118ab565b935060208501359250604085013567ffffffffffffffff811115611a8057600080fd5b611a8c878288016118c7565b95989497509550505050565b600060208284031215611aaa57600080fd5b5035919050565b60008060408385031215611ac457600080fd5b8235915061195c602084016118ab565b600060208284031215611ae657600080fd5b81357fffffffff000000000000000000000000000000000000000000000000000000008116811461192b57600080fd5b60008060008060408587031215611b2c57600080fd5b843567ffffffffffffffff80821115611b4457600080fd5b611b50888389016118c7565b90965094506020870135915080821115611b6957600080fd5b50611a8c878288016118c7565b81835281816020850137506000828201602090810191909152601f909101601f19169091010190565b8054600090600181811c9080831680611bb957607f831692505b6020808410821415611bdb57634e487b7160e01b600052602260045260246000fd5b83885260208801828015611bf65760018114611c0757611c32565b60ff19871682528282019750611c32565b60008981526020902060005b87811015611c2c57815484820152908601908401611c13565b83019850505b5050505050505092915050565b6001600160a01b0385168152836020820152606060408201526000611c68606083018486611b76565b9695505050505050565b600060208083528351808285015260005b81811015611c9f57858101830151858201604001528201611c83565b81811115611cb1576000604083870101525b50601f01601f1916929092016040019392505050565b604081526000611cda6040830185611b9f565b82810360208401526118098185611b9f565b838152604060208201526000611809604083018486611b76565b60008219821115611d1957611d19611d70565b500190565b600082821015611d3057611d30611d70565b500390565b600181811c90821680611d4957607f821691505b60208210811415611d6a57634e487b7160e01b600052602260045260246000fd5b50919050565b634e487b7160e01b600052601160045260246000fdfea2646970667358221220078fb2fb4ad6abb7e4da9415fcc3206039247541007c63fcc17389553538dede64736f6c63430008060033",
  "linkReferences": {},
  "deployedLinkReferences": {}
}