{
  "_format": "hh-sol-artifact-1",
  "contractName": "DATAv2",
  "sourceName": "contracts/DATAv2.sol",
  "abi": [
    {
      "inputs": [],
      "stateMutability": "nonpayable",
      "type": "constructor"
    },
    {
      "anonymous": false,
      "inputs": [
        {
          "indexed": true,
          "internalType": "address",
          "name": "owner",
          "type": "address"
        },
        {
          "indexed": true,
          "internalType": "address",
          "name": "spender",
          "type": "address"
        },
        {
          "indexed": false,
          "internalType": "uint256",
          "name": "value",
          "type": "uint256"
        }
      ],
      "name": "Approval",
      "type": "event"
    },
    {
      "anonymous": false,
      "inputs": [
        {
          "indexed": true,
          "internalType": "bytes32",
          "name": "role",
          "type": "bytes32"
        },
        {
          "indexed": true,
          "internalType": "bytes32",
          "name": "previousAdminRole",
          "type": "bytes32"
        },
        {
          "indexed": true,
          "internalType": "bytes32",
          "name": "newAdminRole",
          "type": "bytes32"
        }
      ],
      "name": "RoleAdminChanged",
      "type": "event"
    },
    {
      "anonymous": false,
      "inputs": [
        {
          "indexed": true,
          "internalType": "bytes32",
          "name": "role",
          "type": "bytes32"
        },
        {
          "indexed": true,
          "internalType": "address",
          "name": "account",
          "type": "address"
        },
        {
          "indexed": true,
          "internalType": "address",
          "name": "sender",
          "type": "address"
        }
      ],
      "name": "RoleGranted",
      "type": "event"
    },
    {
      "anonymous": false,
      "inputs": [
        {
          "indexed": true,
          "internalType": "bytes32",
          "name": "role",
          "type": "bytes32"
        },
        {
          "indexed": true,
          "internalType": "address",
          "name": "account",
          "type": "address"
        },
        {
          "indexed": true,
          "internalType": "address",
          "name": "sender",
          "type": "address"
        }
      ],
      "name": "RoleRevoked",
      "type": "event"
    },
    {
      "anonymous": false,
      "inputs": [
        {
          "indexed": true,
          "internalType": "address",
          "name": "from",
          "type": "address"
        },
        {
          "indexed": true,
          "internalType": "address",
          "name": "to",
          "type": "address"
        },
        {
          "indexed": false,
          "internalType": "uint256",
          "name": "value",
          "type": "uint256"
        },
        {
          "indexed": false,
          "internalType": "bytes",
          "name": "data",
          "type": "bytes"
        }
      ],
      "name": "Transfer",
      "type": "event"
    },
    {
      "anonymous": false,
      "inputs": [
        {
          "indexed": true,
          "internalType": "address",
          "name": "from",
          "type": "address"
        },
        {
          "indexed": true,
          "internalType": "address",
          "name": "to",
          "type": "address"
        },
        {
          "indexed": false,
          "internalType": "uint256",
          "name": "value",
          "type": "uint256"
        }
      ],
      "name": "Transfer",
      "type": "event"
    },
    {
      "anonymous": false,
      "inputs": [
        {
          "indexed": false,
          "internalType": "string",
          "name": "newName",
          "type": "string"
        },
        {
          "indexed": false,
          "internalType": "string",
          "name": "newSymbol",
          "type": "string"
        }
      ],
      "name": "UpdatedTokenInformation",
      "type": "event"
    },
    {
      "inputs": [],
      "name": "DEFAULT_ADMIN_ROLE",
      "outputs": [
        {
          "internalType": "bytes32",
          "name": "",
          "type": "bytes32"
        }
      ],
      "stateMutability": "view",
      "type": "function"
    },
    {
      "inputs": [],
      "name": "DOMAIN_SEPARATOR",
      "outputs": [
        {
          "internalType": "bytes32",
          "name": "",
          "type": "bytes32"
        }
      ],
      "stateMutability": "view",
      "type": "function"
    },
    {
      "inputs": [],
      "name": "MINTER_ROLE",
      "outputs": [
        {
          "internalType": "bytes32",
          "name": "",
          "type": "bytes32"
        }
      ],
      "stateMutability": "view",
      "type": "function"
    },
    {
      "inputs": [
        {
          "internalType": "address",
          "name": "owner",
          "type": "address"
        },
        {
          "internalType": "address",
          "name": "spender",
          "type": "address"
        }
      ],
      "name": "allowance",
      "outputs": [
        {
          "internalType": "uint256",
          "name": "",
          "type": "uint256"
        }
      ],
      "stateMutability": "view",
      "type": "function"
    },
    {
      "inputs": [
        {
          "internalType": "address",
          "name": "spender",
          "type": "address"
        },
        {
          "internalType": "uint256",
          "name": "amount",
          "type": "uint256"
        }
      ],
      "name": "approve",
      "outputs": [
        {
          "internalType": "bool",
          "name": "",
          "type": "bool"
        }
      ],
      "stateMutability": "nonpayable",
      "type": "function"
    },
    {
      "inputs": [
        {
          "internalType": "address",
          "name": "account",
          "type": "address"
        }
      ],
      "name": "balanceOf",
      "outputs": [
        {
          "internalType": "uint256",
          "name": "",
          "type": "uint256"
        }
      ],
      "stateMutability": "view",
      "type": "function"
    },
    {
      "inputs": [
        {
          "internalType": "uint256",
          "name": "amount",
          "type": "uint256"
        }
      ],
      "name": "burn",
      "outputs": [],
      "stateMutability": "nonpayable",
      "type": "function"
    },
    {
      "inputs": [
        {
          "internalType": "address",
          "name": "account",
          "type": "address"
        },
        {
          "internalType": "uint256",
          "name": "amount",
          "type": "uint256"
        }
      ],
      "name": "burnFrom",
      "outputs": [],
      "stateMutability": "nonpayable",
      "type": "function"
    },
    {
      "inputs": [
        {
          "internalType": "bytes32",
          "name": "c__0xf96e10ba",
          "type": "bytes32"
        }
      ],
      "name": "c_0xf96e10ba",
      "outputs": [],
      "stateMutability": "pure",
      "type": "function"
    },
    {
      "inputs": [],
      "name": "decimals",
      "outputs": [
        {
          "internalType": "uint8",
          "name": "",
          "type": "uint8"
        }
      ],
      "stateMutability": "view",
      "type": "function"
    },
    {
      "inputs": [
        {
          "internalType": "address",
          "name": "spender",
          "type": "address"
        },
        {
          "internalType": "uint256",
          "name": "subtractedValue",
          "type": "uint256"
        }
      ],
      "name": "decreaseAllowance",
      "outputs": [
        {
          "internalType": "bool",
          "name": "",
          "type": "bool"
        }
      ],
      "stateMutability": "nonpayable",
      "type": "function"
    },
    {
      "inputs": [
        {
          "internalType": "bytes32",
          "name": "role",
          "type": "bytes32"
        }
      ],
      "name": "getRoleAdmin",
      "outputs": [
        {
          "internalType": "bytes32",
          "name": "",
          "type": "bytes32"
        }
      ],
      "stateMutability": "view",
      "type": "function"
    },
    {
      "inputs": [
        {
          "internalType": "bytes32",
          "name": "role",
          "type": "bytes32"
        },
        {
          "internalType": "address",
          "name": "account",
          "type": "address"
        }
      ],
      "name": "grantRole",
      "outputs": [],
      "stateMutability": "nonpayable",
      "type": "function"
    },
    {
      "inputs": [
        {
          "internalType": "bytes32",
          "name": "role",
          "type": "bytes32"
        },
        {
          "internalType": "address",
          "name": "account",
          "type": "address"
        }
      ],
      "name": "hasRole",
      "outputs": [
        {
          "internalType": "bool",
          "name": "",
          "type": "bool"
        }
      ],
      "stateMutability": "view",
      "type": "function"
    },
    {
      "inputs": [
        {
          "internalType": "address",
          "name": "spender",
          "type": "address"
        },
        {
          "internalType": "uint256",
          "name": "addedValue",
          "type": "uint256"
        }
      ],
      "name": "increaseAllowance",
      "outputs": [
        {
          "internalType": "bool",
          "name": "",
          "type": "bool"
        }
      ],
      "stateMutability": "nonpayable",
      "type": "function"
    },
    {
      "inputs": [
        {
          "internalType": "address",
          "name": "minter",
          "type": "address"
        }
      ],
      "name": "isMinter",
      "outputs": [
        {
          "internalType": "bool",
          "name": "",
          "type": "bool"
        }
      ],
      "stateMutability": "view",
      "type": "function"
    },
    {
      "inputs": [
        {
          "internalType": "address",
          "name": "to",
          "type": "address"
        },
        {
          "internalType": "uint256",
          "name": "amount",
          "type": "uint256"
        }
      ],
      "name": "mint",
      "outputs": [],
      "stateMutability": "nonpayable",
      "type": "function"
    },
    {
      "inputs": [],
      "name": "name",
      "outputs": [
        {
          "internalType": "string",
          "name": "",
          "type": "string"
        }
      ],
      "stateMutability": "view",
      "type": "function"
    },
    {
      "inputs": [
        {
          "internalType": "address",
          "name": "owner",
          "type": "address"
        }
      ],
      "name": "nonces",
      "outputs": [
        {
          "internalType": "uint256",
          "name": "",
          "type": "uint256"
        }
      ],
      "stateMutability": "view",
      "type": "function"
    },
    {
      "inputs": [
        {
          "internalType": "address",
          "name": "owner",
          "type": "address"
        },
        {
          "internalType": "address",
          "name": "spender",
          "type": "address"
        },
        {
          "internalType": "uint256",
          "name": "value",
          "type": "uint256"
        },
        {
          "internalType": "uint256",
          "name": "deadline",
          "type": "uint256"
        },
        {
          "internalType": "uint8",
          "name": "v",
          "type": "uint8"
        },
        {
          "internalType": "bytes32",
          "name": "r",
          "type": "bytes32"
        },
        {
          "internalType": "bytes32",
          "name": "s",
          "type": "bytes32"
        }
      ],
      "name": "permit",
      "outputs": [],
      "stateMutability": "nonpayable",
      "type": "function"
    },
    {
      "inputs": [
        {
          "internalType": "bytes32",
          "name": "role",
          "type": "bytes32"
        },
        {
          "internalType": "address",
          "name": "account",
          "type": "address"
        }
      ],
      "name": "renounceRole",
      "outputs": [],
      "stateMutability": "nonpayable",
      "type": "function"
    },
    {
      "inputs": [
        {
          "internalType": "bytes32",
          "name": "role",
          "type": "bytes32"
        },
        {
          "internalType": "address",
          "name": "account",
          "type": "address"
        }
      ],
      "name": "revokeRole",
      "outputs": [],
      "stateMutability": "nonpayable",
      "type": "function"
    },
    {
      "inputs": [
        {
          "internalType": "string",
          "name": "newName",
          "type": "string"
        },
        {
          "internalType": "string",
          "name": "newSymbol",
          "type": "string"
        }
      ],
      "name": "setTokenInformation",
      "outputs": [],
      "stateMutability": "nonpayable",
      "type": "function"
    },
    {
      "inputs": [
        {
          "internalType": "bytes4",
          "name": "interfaceId",
          "type": "bytes4"
        }
      ],
      "name": "supportsInterface",
      "outputs": [
        {
          "internalType": "bool",
          "name": "",
          "type": "bool"
        }
      ],
      "stateMutability": "view",
      "type": "function"
    },
    {
      "inputs": [],
      "name": "symbol",
      "outputs": [
        {
          "internalType": "string",
          "name": "",
          "type": "string"
        }
      ],
      "stateMutability": "view",
      "type": "function"
    },
    {
      "inputs": [],
      "name": "totalSupply",
      "outputs": [
        {
          "internalType": "uint256",
          "name": "",
          "type": "uint256"
        }
      ],
      "stateMutability": "view",
      "type": "function"
    },
    {
      "inputs": [
        {
          "internalType": "address",
          "name": "recipient",
          "type": "address"
        },
        {
          "internalType": "uint256",
          "name": "amount",
          "type": "uint256"
        }
      ],
      "name": "transfer",
      "outputs": [
        {
          "internalType": "bool",
          "name": "",
          "type": "bool"
        }
      ],
      "stateMutability": "nonpayable",
      "type": "function"
    },
    {
      "inputs": [
        {
          "internalType": "address",
          "name": "_to",
          "type": "address"
        },
        {
          "internalType": "uint256",
          "name": "_value",
          "type": "uint256"
        },
        {
          "internalType": "bytes",
          "name": "_data",
          "type": "bytes"
        }
      ],
      "name": "transferAndCall",
      "outputs": [
        {
          "internalType": "bool",
          "name": "success",
          "type": "bool"
        }
      ],
      "stateMutability": "nonpayable",
      "type": "function"
    },
    {
      "inputs": [
        {
          "internalType": "address",
          "name": "sender",
          "type": "address"
        },
        {
          "internalType": "address",
          "name": "recipient",
          "type": "address"
        },
        {
          "internalType": "uint256",
          "name": "amount",
          "type": "uint256"
        }
      ],
      "name": "transferFrom",
      "outputs": [
        {
          "internalType": "bool",
          "name": "",
          "type": "bool"
        }
      ],
      "stateMutability": "nonpayable",
      "type": "function"
    }
  ],
  "bytecode": "0x6101406040527f6e71edae12b1b97f4d1f60370fef10105fa2faae0126114a169c64845d6126c9610120908152506040518060400160405280600781526020017f53747265616d7200000000000000000000000000000000000000000000000000815250600790805190602001906200007a929190620004f3565b506040518060400160405280600481526020017f444154410000000000000000000000000000000000000000000000000000000081525060089080519060200190620000c8929190620004f3565b50348015620000d657600080fd5b5060078054620000e6906200067b565b80601f016020809104026020016040519081016040528092919081815260200182805462000114906200067b565b8015620001655780601f10620001395761010080835404028352916020019162000165565b820191906000526020600020905b8154815290600101906020018083116200014757829003601f168201915b5050505050806040518060400160405280600181526020017f310000000000000000000000000000000000000000000000000000000000000081525060405180602001604052806000815250604051806020016040528060008152508160039080519060200190620001d9929190620004f3565b508060049080519060200190620001f2929190620004f3565b50505060008280519060200120905060008280519060200120905060007f8b73c3c69bb8fe3d512ecc4cf759cc79239f7b179b0ffacaa9a75d522b39400f90508260c081815250508160e081815250504660a081815250506200025d8184846200033960201b60201c565b60808181525050806101008181525050505050505050620002a77fed34ebe07ec6c35a71500cd547b91a34522b3de3bd5b57647b2e15a769aa2d3560001b6200037560201b60201c565b620002db7feb1077c43b227257e59411e12eba7f6a27bab54124a311249162653c1d9d062860001b6200037560201b60201c565b6200030f7f9efb9fb072e73a6d0a7b516029da7fe8b43463362486ee604efe9978c6c7cfe260001b6200037560201b60201c565b620003336000801b620003276200037860201b60201c565b6200038060201b60201c565b620006e0565b6000838383463060405160200162000356959493929190620005d6565b6040516020818303038152906040528051906020012090509392505050565b50565b600033905090565b6200039282826200039660201b60201c565b5050565b620003a882826200048860201b60201c565b620004845760016006600084815260200190815260200160002060000160008373ffffffffffffffffffffffffffffffffffffffff1673ffffffffffffffffffffffffffffffffffffffff16815260200190815260200160002060006101000a81548160ff021916908315150217905550620004296200037860201b60201c565b73ffffffffffffffffffffffffffffffffffffffff168173ffffffffffffffffffffffffffffffffffffffff16837f2f8788117e7eff1d82e926ec794901d17c78024a50270940304540a733656f0d60405160405180910390a45b5050565b60006006600084815260200190815260200160002060000160008373ffffffffffffffffffffffffffffffffffffffff1673ffffffffffffffffffffffffffffffffffffffff16815260200190815260200160002060009054906101000a900460ff16905092915050565b82805462000501906200067b565b90600052602060002090601f01602090048101928262000525576000855562000571565b82601f106200054057805160ff191683800117855562000571565b8280016001018555821562000571579182015b828111156200057057825182559160200191906001019062000553565b5b50905062000580919062000584565b5090565b5b808211156200059f57600081600090555060010162000585565b5090565b620005ae8162000633565b82525050565b620005bf8162000647565b82525050565b620005d08162000671565b82525050565b600060a082019050620005ed6000830188620005b4565b620005fc6020830187620005b4565b6200060b6040830186620005b4565b6200061a6060830185620005c5565b620006296080830184620005a3565b9695505050505050565b6000620006408262000651565b9050919050565b6000819050919050565b600073ffffffffffffffffffffffffffffffffffffffff82169050919050565b6000819050919050565b600060028204905060018216806200069457607f821691505b60208210811415620006ab57620006aa620006b1565b5b50919050565b7f4e487b7100000000000000000000000000000000000000000000000000000000600052602260045260246000fd5b60805160a05160c05160e0516101005161012051613ed762000730600039600061181d015260006120a2015260006120e4015260006120c30152600061204f015260006120770152613ed76000f3fe608060405234801561001057600080fd5b50600436106101cf5760003560e01c80634eee966f11610104578063a217fddf116100a2578063d505accf11610071578063d505accf1461058c578063d5391393146105a8578063d547741f146105c6578063dd62ed3e146105e2576101cf565b8063a217fddf146104de578063a457c2d7146104fc578063a9059cbb1461052c578063aa271e1a1461055c576101cf565b806379cc6790116100de57806379cc6790146104445780637ecebe001461046057806391d148541461049057806395d89b41146104c0576101cf565b80634eee966f146103dc578063592d495f146103f857806370a0823114610414576101cf565b8063313ce56711610171578063395093511161014b57806339509351146103445780634000aea01461037457806340c10f19146103a457806342966c68146103c0576101cf565b8063313ce567146102ec5780633644e5151461030a57806336568abe14610328576101cf565b806318160ddd116101ad57806318160ddd1461025257806323b872dd14610270578063248a9ca3146102a05780632f2ff15d146102d0576101cf565b806301ffc9a7146101d457806306fdde0314610204578063095ea7b314610222575b600080fd5b6101ee60048036038101906101e99190612b8e565b610612565b6040516101fb919061312a565b60405180910390f35b61020c61068c565b6040516102199190613259565b60405180910390f35b61023c60048036038101906102379190612a6d565b6107a2565b604051610249919061312a565b60405180910390f35b61025a6107c0565b6040516102679190613552565b60405180910390f35b61028a60048036038101906102859190612978565b6107ca565b604051610297919061312a565b60405180910390f35b6102ba60048036038101906102b59190612b21565b6108cb565b6040516102c79190613145565b60405180910390f35b6102ea60048036038101906102e59190612b4e565b6108eb565b005b6102f4610951565b604051610301919061359f565b60405180910390f35b61031261095a565b60405161031f9190613145565b60405180910390f35b610342600480360381019061033d9190612b4e565b610969565b005b61035e60048036038101906103599190612a6d565b6109ec565b60405161036b919061312a565b60405180910390f35b61038e60048036038101906103899190612aad565b610a98565b60405161039b919061312a565b60405180910390f35b6103be60048036038101906103b99190612a6d565b610ecd565b005b6103da60048036038101906103d59190612c3c565b61105e565b005b6103f660048036038101906103f19190612bbb565b611072565b005b610412600480360381019061040d9190612b21565b611366565b005b61042e6004803603810190610429919061290b565b611369565b60405161043b9190613552565b60405180910390f35b61045e60048036038101906104599190612a6d565b6113b1565b005b61047a6004803603810190610475919061290b565b611435565b6040516104879190613552565b60405180910390f35b6104aa60048036038101906104a59190612b4e565b611485565b6040516104b7919061312a565b60405180910390f35b6104c86114f0565b6040516104d59190613259565b60405180910390f35b6104e6611606565b6040516104f39190613145565b60405180910390f35b61051660048036038101906105119190612a6d565b61160d565b604051610523919061312a565b60405180910390f35b61054660048036038101906105419190612a6d565b611701565b604051610553919061312a565b60405180910390f35b6105766004803603810190610571919061290b565b61171f565b604051610583919061312a565b60405180910390f35b6105a660048036038101906105a191906129cb565b6117d6565b005b6105b061199d565b6040516105bd9190613145565b60405180910390f35b6105e060048036038101906105db9190612b4e565b6119c1565b005b6105fc60048036038101906105f79190612938565b611a27565b6040516106099190613552565b60405180910390f35b60007f7965db0b000000000000000000000000000000000000000000000000000000007bffffffffffffffffffffffffffffffffffffffffffffffffffffffff1916827bffffffffffffffffffffffffffffffffffffffffffffffffffffffff19161480610685575061068482611aae565b5b9050919050565b60606106ba7fbdff880c1d5baff8ce931ce36f08515847247ac77b6474bc6df3b4f5cd23cb8c60001b611366565b6106e67fa90414637135669983b3b10e62d57d86f154bce175aea1188ea93b4c1e87fbe860001b611366565b6107127f16c16a2d557284c409aed118d57a816d5728060ccf58116b012488d83309810f60001b611366565b6007805461071f9061375e565b80601f016020809104026020016040519081016040528092919081815260200182805461074b9061375e565b80156107985780601f1061076d57610100808354040283529160200191610798565b820191906000526020600020905b81548152906001019060200180831161077b57829003601f168201915b5050505050905090565b60006107b66107af611b18565b8484611b20565b6001905092915050565b6000600254905090565b60006107d7848484611ceb565b6000600160008673ffffffffffffffffffffffffffffffffffffffff1673ffffffffffffffffffffffffffffffffffffffff1681526020019081526020016000206000610822611b18565b73ffffffffffffffffffffffffffffffffffffffff1673ffffffffffffffffffffffffffffffffffffffff168152602001908152602001600020549050828110156108a2576040517f08c379a000000000000000000000000000000000000000000000000000000000815260040161089990613432565b60405180910390fd5b6108bf856108ae611b18565b85846108ba919061365d565b611b20565b60019150509392505050565b600060066000838152602001908152602001600020600101549050919050565b6109046108f7836108cb565b6108ff611b18565b611485565b610943576040517f08c379a000000000000000000000000000000000000000000000000000000000815260040161093a906132f2565b60405180910390fd5b61094d8282611f6a565b5050565b60006012905090565b600061096461204b565b905090565b610971611b18565b73ffffffffffffffffffffffffffffffffffffffff168173ffffffffffffffffffffffffffffffffffffffff16146109de576040517f08c379a00000000000000000000000000000000000000000000000000000000081526004016109d590613512565b60405180910390fd5b6109e8828261210e565b5050565b6000610a8e6109f9611b18565b848460016000610a07611b18565b73ffffffffffffffffffffffffffffffffffffffff1673ffffffffffffffffffffffffffffffffffffffff16815260200190815260200160002060008873ffffffffffffffffffffffffffffffffffffffff1673ffffffffffffffffffffffffffffffffffffffff16815260200190815260200160002054610a899190613607565b611b20565b6001905092915050565b6000610ac67f7e5da67eda6a9d47e2e3c6464fb36f4553cc2b43ff9577fc5543ba7107f198d560001b611366565b610af27f9a19a478bcbf6d0430d168b3c5cfd93a9e7feb861fda72da504371b71c650a9d60001b611366565b610b1e7fced9f84a3a3529f5ae6c123dc720406692689b0e6977caac5ee6ea4ce23ebde360001b611366565b610b288585611701565b50610b557f431eda42a59978b11b0b5593243d3aa5d1d44f14644601b8bda4908a2ccea41060001b611366565b610b817fee8479353b22a56b1f9eb3831e9b16d844a73c07d33798e7cb3c67112700214160001b611366565b8473ffffffffffffffffffffffffffffffffffffffff16610ba0611b18565b73ffffffffffffffffffffffffffffffffffffffff167fe19260aff97b920c7df27010903aeb9c8d2be5d310a2c67824cf3f15396e4c16868686604051610be99392919061356d565b60405180910390a3610c1d7f61c1c26f95d44ed7e3766c7d38324f25907c5b79b85eaf9cb82ab5e21b78f9df60001b611366565b610c497fb1f46a21301a101014013ed9f4d4fefae16f1fc160912cf2fff62eafa950430460001b611366565b6000610c777f63e253c02d52fe3433ac804999ca6fbc6d2e120936b25b96d59aeaebbd37c2de60001b611366565b853b9050610ca77f8491309eca8507c638a91abbc4ef23a1387c5559b58d28907bc40f480b12f8c260001b611366565b610cd37fb4112dd414daf399e42615f47e5cb33be9d33a619f231c262a579950b4fd6bab60001b611366565b6000811115610e3b57610d087fdaf137bd92c560427779513dc63cb47d2b735d5382c0947e0baa1b0c97b65ab960001b611366565b610d347f96a6768a38909a03b6296f0374d6cc607ba99a9a8b90bb8b2f62a627a728dc1a60001b611366565b610d607f864fe26386d20d665ee85df43a8a7d1c89774b6b79bed5b8d27f32671cfd772560001b611366565b6000869050610d917f33d91fee152ed037783ef0aa0ba47e7f696fc9165fcba27ac1a523e0851afe8f60001b611366565b610dbd7f206cf8978b65e3d0f68212d30ebd6dfb32d580d630fcb7fd59f9d633baca5d0860001b611366565b8073ffffffffffffffffffffffffffffffffffffffff1663a4c0ed36610de1611b18565b8888886040518563ffffffff1660e01b8152600401610e0394939291906130ea565b600060405180830381600087803b158015610e1d57600080fd5b505af1158015610e31573d6000803e3d6000fd5b5050505050610e68565b610e677fc118e1b5fcfafefc3951a97c448d9c123479667b0f6cd02c1350f0a212e80fcf60001b611366565b5b610e947fddc82a8c722124ec766eaeabc9bc2dbd342563900975e316b0ee40356413a3a460001b611366565b610ec07fc77b778b39582ec3c76e25951875f932970753a74eb79754664476181e32311260001b611366565b6001915050949350505050565b610ef97fbed6d7a37dcaa85014e468409c2249375dd9658c24e7bc033a8d46fbe5f884d760001b611366565b610f257f89701426389d4cb82847f758431da8544aa269af5be320f6c032dc3b2f68931160001b611366565b610f517fd6a3d8388941574d960176bae7ccc5648a30793e6bdb000bfc92b356e3f4b43f60001b611366565b610f7d7f319dcbb7a2f6cf8c6dffa0e7841dd00c2b797bf3bd7e0dcf44b349efa584df2760001b611366565b610f8d610f88611b18565b61171f565b610fcc576040517f08c379a0000000000000000000000000000000000000000000000000000000008152600401610fc3906133b2565b60405180910390fd5b610ff87fdd692b1081bbb36da56c57611811d7e462424ff1c10de99fec1737c63a13ac4c60001b611366565b6110247fd59c307800d5b5ea1887f8947be9fb610c73d79f70e9999f9bdf1baada43d0e860001b611366565b6110507fa2d615fb2414b319166bfafdf380ed36de72a4104622cd0c8ce066c3219a819760001b611366565b61105a82826121f0565b5050565b61106f611069611b18565b82612344565b50565b61109e7fee65f02b2b35905e0d2255cc6efa4be73d539cd95180b9e55f2f2f3459e7050660001b611366565b6110ca7fb8dd9d33a19f6788654eb124dde99274eff8ce24867f1b0b157d8ee17e5cac0b60001b611366565b6110f67fa198e31aa7e217473ee0ff49d8581d16eff4853fad33bb6691ed20e95ce1b32760001b611366565b6111227f2adbc1fb61d4d0f76f803899cb291237857583986fcbd12e51948e266c63a0cf60001b611366565b6111366000801b611131611b18565b611485565b611175576040517f08c379a000000000000000000000000000000000000000000000000000000000815260040161116c906134d2565b60405180910390fd5b6111a17ff5f8c8ce64842bebd9d7f50041150261b43871b099d5f1ec4d4c2100d295b1c760001b611366565b6111cd7f7c9d022a82c5c2dc5d015fa49d8aba27eedda7612b9719bd628351338bff726960001b611366565b6111f97f415ae320c803e1beb04e6bf14615ff025854479b97f040d67c71ef7a84190cbf60001b611366565b6112257fe6f5101022d92d7ca86cc5121cf71978867e2d868b78ece61489e30bbfc9052460001b611366565b6112517fd020641f509f5bc23fea85d6aa9880731021259fc95180f1710ff44699e48bce60001b611366565b838360079190611262929190612753565b5061128f7f8b4fa744663cd14510575c5f93ccc5ea6938aaf6f64e9670ac7bed18e32eacb360001b611366565b6112bb7ff61f57d00e7b477bb8d13d8fcbc475af0e47fe1c066aa7f6246a5378a081855360001b611366565b8181600891906112cc929190612753565b506112f97fcf6ed48a19dec5d420a5985706ed789bc5d568f1a76a3bc03e97726f518cba4660001b611366565b6113257ffa9838bd8f1a1bfd7c3919eb5275776a9796458a9c9e332bbbd4c7a78a3b325d60001b611366565b7fd131ab1e6f279deea74e13a18477e13e2107deb6dc8ae955648948be5841fb466007600860405161135892919061327b565b60405180910390a150505050565b50565b60008060008373ffffffffffffffffffffffffffffffffffffffff1673ffffffffffffffffffffffffffffffffffffffff168152602001908152602001600020549050919050565b60006113c4836113bf611b18565b611a27565b905081811015611409576040517f08c379a000000000000000000000000000000000000000000000000000000000815260040161140090613452565b60405180910390fd5b61142683611415611b18565b8484611421919061365d565b611b20565b6114308383612344565b505050565b600061147e600560008473ffffffffffffffffffffffffffffffffffffffff1673ffffffffffffffffffffffffffffffffffffffff168152602001908152602001600020612518565b9050919050565b60006006600084815260200190815260200160002060000160008373ffffffffffffffffffffffffffffffffffffffff1673ffffffffffffffffffffffffffffffffffffffff16815260200190815260200160002060009054906101000a900460ff16905092915050565b606061151e7fda02acdf1b6a7cada6f4a2f35cbee74f4ef67e1553ad60397fd7eef192326bfe60001b611366565b61154a7ff89cf628c6b15c4e7a74e648c53191fc8bcb5bb6d23b648b2ddd62861a1841cd60001b611366565b6115767f3109998b2da22b4abc72faa13f9fe0c7ee33ae019a61336f0c844556eebf925960001b611366565b600880546115839061375e565b80601f01602080910402602001604051908101604052809291908181526020018280546115af9061375e565b80156115fc5780601f106115d1576101008083540402835291602001916115fc565b820191906000526020600020905b8154815290600101906020018083116115df57829003601f168201915b5050505050905090565b6000801b81565b6000806001600061161c611b18565b73ffffffffffffffffffffffffffffffffffffffff1673ffffffffffffffffffffffffffffffffffffffff16815260200190815260200160002060008573ffffffffffffffffffffffffffffffffffffffff1673ffffffffffffffffffffffffffffffffffffffff168152602001908152602001600020549050828110156116d9576040517f08c379a00000000000000000000000000000000000000000000000000000000081526004016116d0906134f2565b60405180910390fd5b6116f66116e4611b18565b8585846116f1919061365d565b611b20565b600191505092915050565b600061171561170e611b18565b8484611ceb565b6001905092915050565b600061174d7f5f620df45e5f25c910e1852c16efb2cf6c7f6c2ec82efd77ac4d9f6356029fc960001b611366565b6117797f476c220bc32f16e0e28516cb32caafbc34b5ad56c9b56aa443844f971cb6cef060001b611366565b6117a57f7b8e74f0d1b0bf9c49d1520c605ad0a404a9a17f0d7200a501542604101ae19260001b611366565b6117cf7f9f2df0fed2c77648de5860a4cc508cd0818c85b8b8a1ab4ceeef8d981c8956a683611485565b9050919050565b83421115611819576040517f08c379a000000000000000000000000000000000000000000000000000000000815260040161181090613352565b60405180910390fd5b60007f0000000000000000000000000000000000000000000000000000000000000000888888611886600560008e73ffffffffffffffffffffffffffffffffffffffff1673ffffffffffffffffffffffffffffffffffffffff168152602001908152602001600020612518565b8960405160200161189c96959493929190613160565b60405160208183030381529060405280519060200120905060006118bf82612526565b905060006118cf82878787612540565b90508973ffffffffffffffffffffffffffffffffffffffff168173ffffffffffffffffffffffffffffffffffffffff161461193f576040517f08c379a000000000000000000000000000000000000000000000000000000000815260040161193690613412565b60405180910390fd5b611986600560008c73ffffffffffffffffffffffffffffffffffffffff1673ffffffffffffffffffffffffffffffffffffffff1681526020019081526020016000206126cb565b6119918a8a8a611b20565b50505050505050505050565b7f9f2df0fed2c77648de5860a4cc508cd0818c85b8b8a1ab4ceeef8d981c8956a681565b6119da6119cd836108cb565b6119d5611b18565b611485565b611a19576040517f08c379a0000000000000000000000000000000000000000000000000000000008152600401611a10906133d2565b60405180910390fd5b611a23828261210e565b5050565b6000600160008473ffffffffffffffffffffffffffffffffffffffff1673ffffffffffffffffffffffffffffffffffffffff16815260200190815260200160002060008373ffffffffffffffffffffffffffffffffffffffff1673ffffffffffffffffffffffffffffffffffffffff16815260200190815260200160002054905092915050565b60007f01ffc9a7000000000000000000000000000000000000000000000000000000007bffffffffffffffffffffffffffffffffffffffffffffffffffffffff1916827bffffffffffffffffffffffffffffffffffffffffffffffffffffffff1916149050919050565b600033905090565b600073ffffffffffffffffffffffffffffffffffffffff168373ffffffffffffffffffffffffffffffffffffffff161415611b90576040517f08c379a0000000000000000000000000000000000000000000000000000000008152600401611b87906134b2565b60405180910390fd5b600073ffffffffffffffffffffffffffffffffffffffff168273ffffffffffffffffffffffffffffffffffffffff161415611c00576040517f08c379a0000000000000000000000000000000000000000000000000000000008152600401611bf790613332565b60405180910390fd5b80600160008573ffffffffffffffffffffffffffffffffffffffff1673ffffffffffffffffffffffffffffffffffffffff16815260200190815260200160002060008473ffffffffffffffffffffffffffffffffffffffff1673ffffffffffffffffffffffffffffffffffffffff168152602001908152602001600020819055508173ffffffffffffffffffffffffffffffffffffffff168373ffffffffffffffffffffffffffffffffffffffff167f8c5be1e5ebec7d5bd14f71427d1e84f3dd0314c0f7b2291e5b200ac8c7c3b92583604051611cde9190613552565b60405180910390a3505050565b600073ffffffffffffffffffffffffffffffffffffffff168373ffffffffffffffffffffffffffffffffffffffff161415611d5b576040517f08c379a0000000000000000000000000000000000000000000000000000000008152600401611d5290613492565b60405180910390fd5b600073ffffffffffffffffffffffffffffffffffffffff168273ffffffffffffffffffffffffffffffffffffffff161415611dcb576040517f08c379a0000000000000000000000000000000000000000000000000000000008152600401611dc2906132d2565b60405180910390fd5b611dd68383836126e1565b60008060008573ffffffffffffffffffffffffffffffffffffffff1673ffffffffffffffffffffffffffffffffffffffff16815260200190815260200160002054905081811015611e5c576040517f08c379a0000000000000000000000000000000000000000000000000000000008152600401611e5390613372565b60405180910390fd5b8181611e68919061365d565b6000808673ffffffffffffffffffffffffffffffffffffffff1673ffffffffffffffffffffffffffffffffffffffff16815260200190815260200160002081905550816000808573ffffffffffffffffffffffffffffffffffffffff1673ffffffffffffffffffffffffffffffffffffffff1681526020019081526020016000206000828254611ef89190613607565b925050819055508273ffffffffffffffffffffffffffffffffffffffff168473ffffffffffffffffffffffffffffffffffffffff167fddf252ad1be2c89b69c2b068fc378daa952ba7f163c4a11628f55a4df523b3ef84604051611f5c9190613552565b60405180910390a350505050565b611f748282611485565b6120475760016006600084815260200190815260200160002060000160008373ffffffffffffffffffffffffffffffffffffffff1673ffffffffffffffffffffffffffffffffffffffff16815260200190815260200160002060006101000a81548160ff021916908315150217905550611fec611b18565b73ffffffffffffffffffffffffffffffffffffffff168173ffffffffffffffffffffffffffffffffffffffff16837f2f8788117e7eff1d82e926ec794901d17c78024a50270940304540a733656f0d60405160405180910390a45b5050565b60007f000000000000000000000000000000000000000000000000000000000000000046141561209d577f0000000000000000000000000000000000000000000000000000000000000000905061210b565b6121087f00000000000000000000000000000000000000000000000000000000000000007f00000000000000000000000000000000000000000000000000000000000000007f00000000000000000000000000000000000000000000000000000000000000006126e6565b90505b90565b6121188282611485565b156121ec5760006006600084815260200190815260200160002060000160008373ffffffffffffffffffffffffffffffffffffffff1673ffffffffffffffffffffffffffffffffffffffff16815260200190815260200160002060006101000a81548160ff021916908315150217905550612191611b18565b73ffffffffffffffffffffffffffffffffffffffff168173ffffffffffffffffffffffffffffffffffffffff16837ff6391f5c32d9c69d2a47ea670b442974b53935d1edc7fd64eb21e047a839171b60405160405180910390a45b5050565b600073ffffffffffffffffffffffffffffffffffffffff168273ffffffffffffffffffffffffffffffffffffffff161415612260576040517f08c379a000000000000000000000000000000000000000000000000000000000815260040161225790613532565b60405180910390fd5b61226c600083836126e1565b806002600082825461227e9190613607565b92505081905550806000808473ffffffffffffffffffffffffffffffffffffffff1673ffffffffffffffffffffffffffffffffffffffff16815260200190815260200160002060008282546122d39190613607565b925050819055508173ffffffffffffffffffffffffffffffffffffffff16600073ffffffffffffffffffffffffffffffffffffffff167fddf252ad1be2c89b69c2b068fc378daa952ba7f163c4a11628f55a4df523b3ef836040516123389190613552565b60405180910390a35050565b600073ffffffffffffffffffffffffffffffffffffffff168273ffffffffffffffffffffffffffffffffffffffff1614156123b4576040517f08c379a00000000000000000000000000000000000000000000000000000000081526004016123ab90613472565b60405180910390fd5b6123c0826000836126e1565b60008060008473ffffffffffffffffffffffffffffffffffffffff1673ffffffffffffffffffffffffffffffffffffffff16815260200190815260200160002054905081811015612446576040517f08c379a000000000000000000000000000000000000000000000000000000000815260040161243d90613312565b60405180910390fd5b8181612452919061365d565b6000808573ffffffffffffffffffffffffffffffffffffffff1673ffffffffffffffffffffffffffffffffffffffff1681526020019081526020016000208190555081600260008282546124a6919061365d565b92505081905550600073ffffffffffffffffffffffffffffffffffffffff168373ffffffffffffffffffffffffffffffffffffffff167fddf252ad1be2c89b69c2b068fc378daa952ba7f163c4a11628f55a4df523b3ef8460405161250b9190613552565b60405180910390a3505050565b600081600001549050919050565b600061253961253361204b565b83612720565b9050919050565b60007f7fffffffffffffffffffffffffffffff5d576e7357a4501ddfe92f46681b20a08260001c11156125a8576040517f08c379a000000000000000000000000000000000000000000000000000000000815260040161259f90613392565b60405180910390fd5b601b8460ff1614806125bd5750601c8460ff16145b6125fc576040517f08c379a00000000000000000000000000000000000000000000000000000000081526004016125f3906133f2565b60405180910390fd5b6000600186868686604051600081526020016040526040516126219493929190613214565b6020604051602081039080840390855afa158015612643573d6000803e3d6000fd5b505050602060405103519050600073ffffffffffffffffffffffffffffffffffffffff168173ffffffffffffffffffffffffffffffffffffffff1614156126bf576040517f08c379a00000000000000000000000000000000000000000000000000000000081526004016126b6906132b2565b60405180910390fd5b80915050949350505050565b6001816000016000828254019250508190555050565b505050565b600083838346306040516020016127019594939291906131c1565b6040516020818303038152906040528051906020012090509392505050565b600082826040516020016127359291906130b3565b60405160208183030381529060405280519060200120905092915050565b82805461275f9061375e565b90600052602060002090601f01602090048101928261278157600085556127c8565b82601f1061279a57803560ff19168380011785556127c8565b828001600101855582156127c8579182015b828111156127c75782358255916020019190600101906127ac565b5b5090506127d591906127d9565b5090565b5b808211156127f25760008160009055506001016127da565b5090565b60008135905061280581613e2e565b92915050565b60008135905061281a81613e45565b92915050565b60008135905061282f81613e5c565b92915050565b60008083601f84011261284b5761284a6137fd565b5b8235905067ffffffffffffffff811115612868576128676137f8565b5b60208301915083600182028301111561288457612883613802565b5b9250929050565b60008083601f8401126128a1576128a06137fd565b5b8235905067ffffffffffffffff8111156128be576128bd6137f8565b5b6020830191508360018202830111156128da576128d9613802565b5b9250929050565b6000813590506128f081613e73565b92915050565b60008135905061290581613e8a565b92915050565b6000602082840312156129215761292061380c565b5b600061292f848285016127f6565b91505092915050565b6000806040838503121561294f5761294e61380c565b5b600061295d858286016127f6565b925050602061296e858286016127f6565b9150509250929050565b6000806000606084860312156129915761299061380c565b5b600061299f868287016127f6565b93505060206129b0868287016127f6565b92505060406129c1868287016128e1565b9150509250925092565b600080600080600080600060e0888a0312156129ea576129e961380c565b5b60006129f88a828b016127f6565b9750506020612a098a828b016127f6565b9650506040612a1a8a828b016128e1565b9550506060612a2b8a828b016128e1565b9450506080612a3c8a828b016128f6565b93505060a0612a4d8a828b0161280b565b92505060c0612a5e8a828b0161280b565b91505092959891949750929550565b60008060408385031215612a8457612a8361380c565b5b6000612a92858286016127f6565b9250506020612aa3858286016128e1565b9150509250929050565b60008060008060608587031215612ac757612ac661380c565b5b6000612ad5878288016127f6565b9450506020612ae6878288016128e1565b935050604085013567ffffffffffffffff811115612b0757612b06613807565b5b612b1387828801612835565b925092505092959194509250565b600060208284031215612b3757612b3661380c565b5b6000612b458482850161280b565b91505092915050565b60008060408385031215612b6557612b6461380c565b5b6000612b738582860161280b565b9250506020612b84858286016127f6565b9150509250929050565b600060208284031215612ba457612ba361380c565b5b6000612bb284828501612820565b91505092915050565b60008060008060408587031215612bd557612bd461380c565b5b600085013567ffffffffffffffff811115612bf357612bf2613807565b5b612bff8782880161288b565b9450945050602085013567ffffffffffffffff811115612c2257612c21613807565b5b612c2e8782880161288b565b925092505092959194509250565b600060208284031215612c5257612c5161380c565b5b6000612c60848285016128e1565b91505092915050565b612c7281613691565b82525050565b612c81816136a3565b82525050565b612c90816136af565b82525050565b612ca7612ca2826136af565b613790565b82525050565b6000612cb983856135da565b9350612cc683858461371c565b612ccf83613811565b840190509392505050565b6000612ce5826135cf565b612cef81856135eb565b9350612cff81856020860161372b565b612d0881613811565b840191505092915050565b60008154612d208161375e565b612d2a81866135eb565b94506001821660008114612d455760018114612d5757612d8a565b60ff1983168652602086019350612d8a565b612d60856135ba565b60005b83811015612d8257815481890152600182019150602081019050612d63565b808801955050505b50505092915050565b6000612da06018836135eb565b9150612dab82613822565b602082019050919050565b6000612dc36023836135eb565b9150612dce8261384b565b604082019050919050565b6000612de6602f836135eb565b9150612df18261389a565b604082019050919050565b6000612e096022836135eb565b9150612e14826138e9565b604082019050919050565b6000612e2c6022836135eb565b9150612e3782613938565b604082019050919050565b6000612e4f6002836135fc565b9150612e5a82613987565b600282019050919050565b6000612e72601d836135eb565b9150612e7d826139b0565b602082019050919050565b6000612e956026836135eb565b9150612ea0826139d9565b604082019050919050565b6000612eb86022836135eb565b9150612ec382613a28565b604082019050919050565b6000612edb6022836135eb565b9150612ee682613a77565b604082019050919050565b6000612efe6030836135eb565b9150612f0982613ac6565b604082019050919050565b6000612f216022836135eb565b9150612f2c82613b15565b604082019050919050565b6000612f44601e836135eb565b9150612f4f82613b64565b602082019050919050565b6000612f676028836135eb565b9150612f7282613b8d565b604082019050919050565b6000612f8a6024836135eb565b9150612f9582613bdc565b604082019050919050565b6000612fad6021836135eb565b9150612fb882613c2b565b604082019050919050565b6000612fd06025836135eb565b9150612fdb82613c7a565b604082019050919050565b6000612ff36024836135eb565b9150612ffe82613cc9565b604082019050919050565b60006130166022836135eb565b915061302182613d18565b604082019050919050565b60006130396025836135eb565b915061304482613d67565b604082019050919050565b600061305c602f836135eb565b915061306782613db6565b604082019050919050565b600061307f601f836135eb565b915061308a82613e05565b602082019050919050565b61309e81613705565b82525050565b6130ad8161370f565b82525050565b60006130be82612e42565b91506130ca8285612c96565b6020820191506130da8284612c96565b6020820191508190509392505050565b60006060820190506130ff6000830187612c69565b61310c6020830186613095565b818103604083015261311f818486612cad565b905095945050505050565b600060208201905061313f6000830184612c78565b92915050565b600060208201905061315a6000830184612c87565b92915050565b600060c0820190506131756000830189612c87565b6131826020830188612c69565b61318f6040830187612c69565b61319c6060830186613095565b6131a96080830185613095565b6131b660a0830184613095565b979650505050505050565b600060a0820190506131d66000830188612c87565b6131e36020830187612c87565b6131f06040830186612c87565b6131fd6060830185613095565b61320a6080830184612c69565b9695505050505050565b60006080820190506132296000830187612c87565b61323660208301866130a4565b6132436040830185612c87565b6132506060830184612c87565b95945050505050565b600060208201905081810360008301526132738184612cda565b905092915050565b600060408201905081810360008301526132958185612d13565b905081810360208301526132a98184612d13565b90509392505050565b600060208201905081810360008301526132cb81612d93565b9050919050565b600060208201905081810360008301526132eb81612db6565b9050919050565b6000602082019050818103600083015261330b81612dd9565b9050919050565b6000602082019050818103600083015261332b81612dfc565b9050919050565b6000602082019050818103600083015261334b81612e1f565b9050919050565b6000602082019050818103600083015261336b81612e65565b9050919050565b6000602082019050818103600083015261338b81612e88565b9050919050565b600060208201905081810360008301526133ab81612eab565b9050919050565b600060208201905081810360008301526133cb81612ece565b9050919050565b600060208201905081810360008301526133eb81612ef1565b9050919050565b6000602082019050818103600083015261340b81612f14565b9050919050565b6000602082019050818103600083015261342b81612f37565b9050919050565b6000602082019050818103600083015261344b81612f5a565b9050919050565b6000602082019050818103600083015261346b81612f7d565b9050919050565b6000602082019050818103600083015261348b81612fa0565b9050919050565b600060208201905081810360008301526134ab81612fc3565b9050919050565b600060208201905081810360008301526134cb81612fe6565b9050919050565b600060208201905081810360008301526134eb81613009565b9050919050565b6000602082019050818103600083015261350b8161302c565b9050919050565b6000602082019050818103600083015261352b8161304f565b9050919050565b6000602082019050818103600083015261354b81613072565b9050919050565b60006020820190506135676000830184613095565b92915050565b60006040820190506135826000830186613095565b8181036020830152613595818486612cad565b9050949350505050565b60006020820190506135b460008301846130a4565b92915050565b60008190508160005260206000209050919050565b600081519050919050565b600082825260208201905092915050565b600082825260208201905092915050565b600081905092915050565b600061361282613705565b915061361d83613705565b9250827fffffffffffffffffffffffffffffffffffffffffffffffffffffffffffffffff038211156136525761365161379a565b5b828201905092915050565b600061366882613705565b915061367383613705565b9250828210156136865761368561379a565b5b828203905092915050565b600061369c826136e5565b9050919050565b60008115159050919050565b6000819050919050565b60007fffffffff0000000000000000000000000000000000000000000000000000000082169050919050565b600073ffffffffffffffffffffffffffffffffffffffff82169050919050565b6000819050919050565b600060ff82169050919050565b82818337600083830152505050565b60005b8381101561374957808201518184015260208101905061372e565b83811115613758576000848401525b50505050565b6000600282049050600182168061377657607f821691505b6020821081141561378a576137896137c9565b5b50919050565b6000819050919050565b7f4e487b7100000000000000000000000000000000000000000000000000000000600052601160045260246000fd5b7f4e487b7100000000000000000000000000000000000000000000000000000000600052602260045260246000fd5b600080fd5b600080fd5b600080fd5b600080fd5b600080fd5b6000601f19601f8301169050919050565b7f45434453413a20696e76616c6964207369676e61747572650000000000000000600082015250565b7f45524332303a207472616e7366657220746f20746865207a65726f206164647260008201527f6573730000000000000000000000000000000000000000000000000000000000602082015250565b7f416363657373436f6e74726f6c3a2073656e646572206d75737420626520616e60008201527f2061646d696e20746f206772616e740000000000000000000000000000000000602082015250565b7f45524332303a206275726e20616d6f756e7420657863656564732062616c616e60008201527f6365000000000000000000000000000000000000000000000000000000000000602082015250565b7f45524332303a20617070726f766520746f20746865207a65726f20616464726560008201527f7373000000000000000000000000000000000000000000000000000000000000602082015250565b7f1901000000000000000000000000000000000000000000000000000000000000600082015250565b7f45524332305065726d69743a206578706972656420646561646c696e65000000600082015250565b7f45524332303a207472616e7366657220616d6f756e742065786365656473206260008201527f616c616e63650000000000000000000000000000000000000000000000000000602082015250565b7f45434453413a20696e76616c6964207369676e6174757265202773272076616c60008201527f7565000000000000000000000000000000000000000000000000000000000000602082015250565b7f5472616e73616374696f6e207369676e6572206973206e6f742061206d696e7460008201527f6572000000000000000000000000000000000000000000000000000000000000602082015250565b7f416363657373436f6e74726f6c3a2073656e646572206d75737420626520616e60008201527f2061646d696e20746f207265766f6b6500000000000000000000000000000000602082015250565b7f45434453413a20696e76616c6964207369676e6174757265202776272076616c60008201527f7565000000000000000000000000000000000000000000000000000000000000602082015250565b7f45524332305065726d69743a20696e76616c6964207369676e61747572650000600082015250565b7f45524332303a207472616e7366657220616d6f756e742065786365656473206160008201527f6c6c6f77616e6365000000000000000000000000000000000000000000000000602082015250565b7f45524332303a206275726e20616d6f756e74206578636565647320616c6c6f7760008201527f616e636500000000000000000000000000000000000000000000000000000000602082015250565b7f45524332303a206275726e2066726f6d20746865207a65726f2061646472657360008201527f7300000000000000000000000000000000000000000000000000000000000000602082015250565b7f45524332303a207472616e736665722066726f6d20746865207a65726f20616460008201527f6472657373000000000000000000000000000000000000000000000000000000602082015250565b7f45524332303a20617070726f76652066726f6d20746865207a65726f2061646460008201527f7265737300000000000000000000000000000000000000000000000000000000602082015250565b7f5472616e73616374696f6e207369676e6572206973206e6f7420616e2061646d60008201527f696e000000000000000000000000000000000000000000000000000000000000602082015250565b7f45524332303a2064656372656173656420616c6c6f77616e63652062656c6f7760008201527f207a65726f000000000000000000000000000000000000000000000000000000602082015250565b7f416363657373436f6e74726f6c3a2063616e206f6e6c792072656e6f756e636560008201527f20726f6c657320666f722073656c660000000000000000000000000000000000602082015250565b7f45524332303a206d696e7420746f20746865207a65726f206164647265737300600082015250565b613e3781613691565b8114613e4257600080fd5b50565b613e4e816136af565b8114613e5957600080fd5b50565b613e65816136b9565b8114613e7057600080fd5b50565b613e7c81613705565b8114613e8757600080fd5b50565b613e938161370f565b8114613e9e57600080fd5b5056fea2646970667358221220a85cf74bf3be060fd7a1452c685acbe32ba5fc47c9cdb24bf47bb17beee6bba764736f6c63430008060033",
  "linkReferences": {},
  "deployedLinkReferences": {}
}